:020000040800F2
:1000000098200020652000089547000899470008BF
:100010009D470008A1470008A54700080000000010
:10002000000000000000000000000000A9470008D8
:10003000AD47000800000000B1470008B5470008C0
:10004000612000086120000861200008612000088C
:10005000612000086120000861200008612000087C
:10006000612000086120000861200008612000086C
:10007000612000086120000861200008612000085C
:10008000612000086120000861200008612000084C
:10009000B9470008612000086120000861200008BD
:1000A000612000086120000861200008612000082C
:1000B0004D5F0008612000086120000861200008F1
:1000C000612000086120000861200008612000080C
:1000D00061200008612000086120000861200008FC
:1000E0006120000861200008BD47000800000000F2
:1000F0000000000000000000000000000000000000
:1001000000000000000000005FF808F108B538B1F9
:10011000064B1B681B689847054B18680A3008BDDA
:100120000122034B1B681A8208BD00BF0C1C002073
:10013000101C002008B538B1064B1B689B68984717
:10014000054B18680C3008BD0122034B1B681A824E
:1001500008BD00BF0C1C0020101C002008B50028A2
:1001600033D000211E4B1F481A680180137813F00A
:100170007F0316D0012B27D0022B24D1527902F015
:100180000F039B0003F1804303F5B84312061B687D
:1001900020D403F44053B3F5805F0ED101230370E4
:1001A0000BE0527A93064CBF0223037851064CBFF2
:1001B00043F0010323F0010303700B4B1B681B6921
:1001C0009847084808BD084608BD0222044B1B6832
:1001D0001A8208BD03F03003102BEED1DEE700BF1A
:1001E000101C0020381300200C1C00202DE9F041C9
:1001F000244F3D682C8A2CB92E7A042E2BD0AB8A42
:10020000042604E0AB8A9C428CBF022604269C4252
:1002100028BF1C46AB69204698478046002001F065
:10022000F5FE22460146404605F00CFD2146002021
:1002300001F08AFE30204FF440522B8A698A1B1B42
:100240002B820C44104B11496C8208803D681A8047
:100250002E72BDE8F0810E4B1A78012A06D01022CA
:1002600007260A4B1A802E72BDE8F0813027094913
:10027000094A0968054889B20A44520014601C7092
:100280000780E5E7101C0020BC1B0020BE1B0020DF
:10029000AC0A0020505C0040023000200B4B0C4A9E
:1002A0001B685178DA78914201D202207047997820
:1002B0000029FAD110B59C880CB1022010BD054967
:1002C0009A720B685B689847204610BD101C00208E
:1002D000A80000200C1C002010B5114A114C126817
:1002E000236882B0D97858799369984723689A7AB5
:1002F00012B9022002B010BD0028FAD11A79002AE2
:10030000F7D19B78002BF4D1074B01901B68DB6879
:100310009847236801985979DA78D9721A73E9E70E
:10032000E81B0020101C00200C1C002038B5344BAA
:100330001B68187810F07F0003D0022806D0022036
:1003400038BD5A7A22F020025A7238BD5A88002AE3
:10035000F6D11A79002AF3D158792A4D44B220F007
:100360008000810001F1804202F5B84212682D78C8
:10037000002CB4BF02F0300202F44052A842DED298
:10038000002ADCD09B7A002BD9D0002C0FDB01F1A6
:10039000804404F5B844236803F44053B3F5805F08
:1003A00017D0194B1B685B699847002038BD01F1D5
:1003B000804101F5B8410B6803F03003102BF0D1F8
:1003C000C4B2204601F0AEFD2046302101F020FDF0
:1003D000E7E790B90D4B93F82C1001F0C3FD2368AB
:1003E00023F4804323F070039BB283F4405343F41F
:1003F000004343F080032360D3E701F081FDEEE783
:10040000101C0020A80000200C1C0020240000204C
:1004100038B5234B234D19682D784B795CB223F006
:100420008003980000F1804202F5B8421268002C67
:10043000B4BF02F0300202F44052AB4201D30220BA
:1004400038BD4B88002BFAD1002AF8D08B7A002BCC
:10045000F5D000F1804000F5B840002C036811DBB6
:1004600023F4804323F070039BB283F4805343F45E
:10047000004343F0800303600B4B1B689B69984764
:10048000002038BD23F4E04323F040039BB283F007
:10049000100343F4004343F080030360ECE700BF24
:1004A000101C0020A80000200C1C0020054B1B681D
:1004B0005A8A10B108681044704789888A1A1A82CB
:1004C000704700BF101C002010B50C4B002093F8A3
:1004D0002C1001F047FD0A4B1B68187A082806D13A
:1004E0004FF4805410220749074B0C801A80A0F16A
:1004F0000900B0FA80F0400910BD00BF24000020C0
:10050000101C0020BC1B0020BE1B002070B5A84E94
:10051000A84B34681A68237A82B0092B3CD0A64BCA
:1005200092B213445B001D886D0005F1804505F50E
:10053000C0452B7823706B786370A88801F08AFD22
:1005400060802889346801F085FD0122A080AB8994
:100550003468E380227223B36078062800F0858037
:1005600000283AD16188002900F09580934D2B68CE
:100570001B699847032800F0E5804FF6FF72346846
:10058000238A934200F08580022836D10823237203
:10059000FFF79AFF02B070BD0122E3882272002BA0
:1005A000DAD12278657812F07F0236D0012A00F085
:1005B000BC80022A00F0DF80804B28461B685B6904
:1005C0009847032800F00F813468002840D00823A2
:1005D0002372FFF779FF02B070BD08286DD1237830
:1005E0005B06C3D1764B0020A361608298474FF62B
:1005F000FF723468238A93424BD0002BC6D094F903
:100600000020002A7CDB03214FF440526D4B217205
:100610001A80FFF759FF02B070BD092D00F0C580A8
:10062000052D00F09680032D00F0AD80012DC3D183
:10063000E278012AC0D1A288002ABDD1627A92064E
:10064000BAD5614A5360FFF771FE0028B4D134680F
:1006500000253020574A5D4B12685D4992B2134421
:100660005B001D6006230880B2E723785D067FF4F7
:100670007DAFA378514D012B00F0B280022B65D0E5
:10068000032B7FF474AF2B685B6A002BABD1062081
:100690006DE709239CE7636823F47F43B3F5003FCC
:1006A0007FF464AF207810F07F0040F09F80A38833
:1006B000002B7FF45BAF474B95E70A287FF456AFDA
:1006C000237803F07F03012B7FF450AFA37A002B34
:1006D0003FF44CAF618800297FF448AF6368374D21
:1006E00023F47F43B3F5803F7FF441AF2B686079FB
:1006F0009B699847002840F0B8803468364B72E711
:10070000E288019201998B4215D89A4274D92B4AFA
:10071000126892F82C108AB29A4272D900212A4BA0
:100720001970A282FFF762FD53E70B2D7FF444AFEF
:10073000FFF7D2FD89E7214B019A1B68228293F8CB
:100740002C20EEE7092233681A7242E72B681B6AF5
:100750009BE794F90330002BFFF639AFA378002B09
:100760007FF435AFA388002B7FF431AFA37A002B41
:100770003FF46EAF2BE7012D67D0032D7FF41CAF44
:10078000FFF746FE61E7E378012B7FF415AFA388FE
:10079000002B7FF411AF637A104A43F020031268F4
:1007A0006372D3699847346852E7FFF777FD4CE7E7
:1007B000101C0020505C004004300020E81B00208A
:1007C0000D010008BC1B0020AC0A002002300020F4
:1007D000BE1B00205D010008350100080C1C002034
:1007E0002B68DB6951E734680923F1E601282FD033
:1007F000022810D00020B9E61D4B1B6893F82C206E
:100800008FE793FBF1F001FB1033002B89D101211D
:10081000184B197085E7607900F00F02930001060C
:1008200003F18043144903F5B8431B6809784CBFB2
:1008300003F0300303F440538A42DBD210F070001F
:10084000D8D1002B7FF437AF90E6FFF76FFDFCE6C1
:10085000074D60792B689B69984730B93468A37A53
:10086000002B7FF428AF607881E6336858787EE605
:10087000E81B0020AC0A0020A8000020F8B53B4D82
:100880002C68237A022B07D0042B05D0032B09D028
:10089000052B07D0072B37D008232372BDE8F8407B
:1008A000FFF712BEA369228ABBB1002A33D0A68A01
:1008B000964228BF164630469847228A638A921B82
:1008C0003344074622826382002001F0AFFB3246A8
:1008D0000146384605F0CAF9228A0AB300214FF4CE
:1008E0004052234B08461A8001F02EFB3022238A07
:1008F000A18A204E994232802A6834D9002B30D008
:10090000052314461372C8E71B4B1B68DB68984726
:100910002C680823C1E7A38A33B903232372BCE7F9
:10092000A38A2C68002BF8D0124E0622124B22729A
:100930001B689B6898472C68237A082B0AD00025EF
:1009400030200E490E4A096889B20A4452001560E7
:100950003080A2E74FF48050102205490880328091
:100960009BE71446E1E71446D7E700BF101C0020C0
:10097000BC1B0020BE1B0020E81B0020505C004078
:1009800002300020F8B5234C23681A7A022A17D0C7
:10099000042A15D0062A05D008221A72BDE8F840AC
:1009A000FFF792BD5A78052A13D01B4B1B689B6832
:1009B0009847082223681A72BDE8F840FFF784BD03
:1009C000FFF714FC23681A7A1A72BDE8F840FFF7A3
:1009D0007BBD1A7812F07F02E7D1104993F803E04B
:1009E0000D7875B140F60F7748F280060C490B6818
:1009F00042EA06003B4001320343954241F8043B82
:100A0000F5D10849084A4EF080030B6013681B6A51
:100A10009847CAE7101C0020E81B0020A80000200F
:100A2000005C00404C5C00400C1C0020F0B40C4BFF
:100A30001D787DB1002240F60F7748F28006094903
:100A40000B6842EA06043B4001322343954241F8D9
:100A5000043BF5D1044B40F080001860F0BC7047B7
:100A6000A8000020005C00404C5C0040704700BFC4
:100A70004FF4005108B50E4B0322196101200B21E0
:100A800005F004FA00220D21012005F0FFF90222F1
:100A90000C21012005F0FAF900220F21012005F0B8
:100AA000F5F900220E21012005F0F0F9002008BD23
:100AB000000C014038B500250A4C204625706570B1
:100AC000A570E57005F0E5F80C23204663702570ED
:100AD000A570E57005F0DDF8034B986810F48050C0
:100AE000FBD138BDA01B0020000C0140F8B5064624
:100AF0000F46274C15462046266005F0CAF8002F01
:100B00003BD1002323706370A370E37033060AD5D2
:100B10001F4E00E0C3B9304605F0BBF880B2236831
:100B20000028F7D16B800023194E23706370A370E7
:100B3000E37000E0D3B9304605F0ABF880B223682B
:100B40000028F7D12B80F8BD9BB2012B6B8011D010
:100B500009D34FF6FF714FF222024FF221008B4270
:100B600018BF1046F8BD4FF22300F8BD9BB2012B11
:100B70002B80EDD14FF22000F8BD3B0C20462360C6
:100B800005F087F82046276005F083F8B9E700BF35
:100B9000A01B0020F8B505460E46214C17462046FE
:100BA000256005F076F856BB2B0622D43B881C48FE
:100BB000236005F06EF80023194D23706370A37055
:100BC000E37001E0236833B9284605F062F880B28B
:100BD0000028F7D1F8BD9BB2012B1AD01CD34FF6D9
:100BE000FF714FF222024FF221008B4218BF1046D4
:100BF000F8BD7B880A48236005F04BF8D6E7330C34
:100C00002046236005F045F82046266005F041F8AF
:100C1000CAE74FF22000F8BD4FF22300F8BD00BF35
:100C2000A01B002010B50C46FFF722FF208010BD4E
:100C3000012270B510460D460D2105F027F901225D
:100C40004FF40056214C10460F2105F01FF9266184
:100C50000A2005F06BF966610A2005F067F94FF488
:100C6000FA7005F039F902E005F06AF910B9A368E5
:100C7000D904F9D5154CA368DA0409D5134A4FF203
:100C80001003926812F4805F18BF00232B8070BDA0
:100C900001220B21104605F0F9F84FF400631920EA
:100CA000636105F043F903220B21012005F0EEF802
:100CB0004FF4FA7005F010F903E005F041F900284F
:100CC000DCD1A368DB04D9D4F7E700BF000C0140F6
:100CD00038B50D46FFF7CCFE01220B21104605F07A
:100CE000D5F801220D21104605F0D0F84FF400523E
:100CF0004FF400630E4C19202261636105F016F970
:100D0000FFF7B6FE4FF4FA7005F0E6F802E005F0E2
:100D100017F910B9A3681B05F9D5054A4FF211035D
:100D2000926812F4006F18BF00232B8038BD00BFFB
:100D3000000C014010B50C46FFF7BCFE208010BD32
:100D40000022032310B40A480A804B8000248268E2
:100D500002F48052836803F480539A42F6D101343E
:100D6000052CF7D1003218BF012210BC8A807047D1
:100D7000000C01402DE9F04F012585B0834601A804
:100D8000ADF80410ADF80650ADF80850ADF80A50B3
:100D9000ADF80C5001F04EFD0021102040260C272C
:100DA0004FF0080E4FF0040C4FF014086FF01F0ABC
:100DB0004FF038091F4B204C5875997599719970EF
:100DC00060752072A1755A464FF07C5118209D73B2
:100DD0009D749D7283F80C805F735F745F721F71E6
:100DE000DE73DE74DE72DE71DE7083F810E083F88D
:100DF00000E083F814C083F808C084F814C083F8B6
:100E000017A083F8059083F801906772A572E672C7
:100E100084F817A084F80C806773A573E67384F8D0
:100E200010E06774A574E67400F052FA606005B0D3
:100E3000BDE8F08F3C1B0020A01B0020F8B54468E3
:100E40000F4606680CB300F10805032C2A4631460C
:100E50000DD8012C13D04FF4C250023C023502369B
:100E6000FFF798FE0CB10028EFD03880F8BD4FF4A2
:100E7000C450043C04350436FFF78CFEF2E74FF40F
:100E8000C050FFF787FE3880F8BD2046EDE700BF71
:100E90002DE9F04190E8C00088469FB30C1D002565
:100EA0000BE0012F24D04FF4CA5002350234023631
:100EB000FFF71CFEAF420FD970B9032F224631460F
:100EC000EFD94FF4CC500435FFF710FEAF4204F1D8
:100ED000040406F10406EFD805F0010303EB550303
:100EE00002339BB2A8F80000A8F80230BDE8F081F8
:100EF0004FF4C850FFF7FAFD23780135013624F886
:100F0000023BD7E738460223ECE700BFF8B5446858
:100F10000E46A3070546016800F1080206D000202E
:100F200013190134A70703F8010BFAD14FF4C45089
:100F3000FFF730FE043C074600D008B13780F8BD0B
:100F4000044B0C35A4081846DD611C6204F02CFF2C
:100F50003780F8BD3C1B00202DE9F04F50220E4693
:100F600000230168476885B00F44B942039172803D
:100F7000B38043D2DFF8AC8006F10A03039DC34679
:100F800001244FF4806ADFF89890019310E05846EE
:100F9000C4EB9A04C8F81C20C8F8204004F0C1FE35
:100FA000304601F087FB554498BBAF42044625D933
:100FB0007A1B924528BF92464FEA5A020532328088
:100FC000C6F80650019A002CE1D029464FF4CC50C7
:100FD000FFF78CFD00226FF07F0E1D2189F80220A3
:100FE00089F803200E4806F10E02029289F800E00B
:100FF00089F8011004F04DFE029AC8E703993246C1
:101000004FF4CA50FFF772FD0023338005B0BDE8EE
:10101000F08F4FF22203338005B0BDE8F08F00BFA0
:10102000A01B00203C1B002038B5058825F00F03CD
:101030009BB2B3F5025F06D0B3F5125F03D04FF455
:1010400070430B8038BD4388042B03D04FF240031C
:101050000B8038BD0C46021D00212846FFF79AFD83
:1010600002232080638038BD028838B522F00F0348
:101070009BB2B3F5065F06D0B3F5165F03D04FF40D
:1010800070430B8038BD4588042D03D04FF24003D8
:101090000B8038BD0C4610460A1D0021FFF726FDC7
:1010A0006580208038BD00BF2DE9F04790E8A000A2
:1010B00083682F4482B0BD420193D0F80C90D0F8E1
:1010C000108062D2A8F10406DFF87CA1B608414680
:1010D000284600F021F90446002800F086804EF6EC
:1010E000602004F0F9FE0021DAF8082002F48052B2
:1010F000DAF8083003F480539A42F4D1013105291B
:10110000F6D192B904F01CFF78B90021DAF8082072
:1011100002F48052DAF8083003F480539A42F4D192
:1011200001310529F6D1002AECD004F009FF01466F
:10113000002852D16A464FF40650FFF7D7FC01460B
:10114000002878D1009B012B61D101AA4FF41250E5
:10115000FFF720FD014600286DD1494622464FF495
:10116000C450FFF717FD0146002864D1354B043405
:101170001846DC611E6204F017FEFFF79BFC014677
:10118000002851D14544AF42A1D84EF6602004F06A
:10119000A3FE2D480022836803F48053816801F484
:1011A00080518B42F6D10132052AF7D18BB9264CFA
:1011B00004F0C6FE68B90021A26802F48052A36858
:1011C00003F480539A42F6D101310529F7D1002A60
:1011D000EED004F0B5FE014678B100214FF6FE7066
:1011E00000F0D4F802B0BDE8F08701464FF6017078
:1011F00000F0CCF802B0BDE8F0876A464FF4065024
:10120000FFF774FC0146B0B9009B012B07D0002109
:101210004FF2120000F0BAF802B0BDE8F08700F01B
:10122000B5F802B0BDE8F0874FF2110000F0AEF85B
:1012300002B0BDE8F0874FF2430000F0A7F802B01B
:10124000BDE8F0873C1B0020000C014000230B8010
:10125000704700BF10B504480C4605F023FD4FF25F
:101260000103238010BD00BF20BE000810B5044854
:101270000C4605F017FD4FF47043238010BD00BFEE
:1012800030BE000808B502220C21012004F0FEFD4A
:1012900000220921012004F0F9FD00220A21012089
:1012A00004F0F4FD00220F21012004F0EFFD0022E4
:1012B0000E21012004F0EAFD00220D21012004F09E
:1012C000E5FDBDE8084000220B21012004F0DEBD51
:1012D00038B50C46054611460D4805F029FA214659
:1012E00005F072F90446284605F016F90546014650
:1012F000204605F007FB30B92946204605F05AF88C
:1013000005F028FB38BD034805F0CCFC012038BDB2
:10131000001B374C40BE000870B50D4600224FF44C
:10132000A9710726164B174CC3F80600C3F80A50DC
:1013300018461E8059809A80226001F0BBF94FF454
:10134000FA6004F0C9FD02E004F0FAFD10B9236868
:10135000002BF9D0206888B10B486D08028803354E
:10136000AA4209D14288012A06D182880630B2F504
:10137000A97F18BF002070BD002070BD70BD00BFE8
:10138000B40A0020341300203C13002070B404265B
:101390004FF480750024054B054A98801E805D80BF
:1013A0001460184670BCD98001F084B9B40A0020DA
:1013B00034130020054A0648064B0749106003F124
:1013C0003C0243F8041B9342FBD170479C1B002056
:1013D000A0860100601B0020551200082DE9F04F87
:1013E0008F4F01233C46DFF848A24688DFF84C9235
:1013F00081B024F8023B051D0AF13C080223A380BA
:101400002B88013B702B00F24881DFE813F0C0000D
:101410004601460146014601460146014601460194
:101420004601460146014601460146014601BA0011
:10143000B400AE00A800A2009C004601460146018F
:101440004601460146014601460146014601460164
:101450004601460146014601460146014601460154
:101460004601460146014601460146014601460144
:101470004601460146014601460146014601460134
:101480004601460146014601460146013401240158
:101490004601460146014601460146014601460114
:1014A0004601460146014601460146013B01F20064
:1014B000000146014601460146014601460146013A
:1014C000460146014601460146014601F500190163
:1014D00046014601460146014601460146014601D4
:1014E0004601460146014601460146018E00710053
:1014F0006B88022B00F0EB804FF202036380032322
:10150000A3802A88013E22803A88B6B21A443A80E3
:10151000002E00F0C7806288002A40F0C3806A88ED
:1015200004EB430405EB420568E7EB8801335B08F5
:1015300000F0BE80DAF83430A11C281D9847A3883B
:1015400001339BB2DCE76B88022BD5D1DAF814307B
:10155000F2E76B88022BCFD1DAF81030ECE76B881A
:10156000022BC9D1DAF80C30E6E76B88022BC3D125
:10157000DAF80430E0E76B88022BBDD1DAF80830E6
:10158000DAE76B88022BB7D1DAF80030D4E72548C8
:101590002549264A264B016043F8042B4345FBD1DD
:1015A000244A234B43F8042B4345FBD1002363809B
:1015B0006B88214A072BCAF838209DD1EB88142B61
:1015C00000F24282DFE813F0A3019E01B701B201ED
:1015D00040024002400240024002400240024002FB
:1015E0004002400240024002AD01A8019401860081
:1015F0009901DAF828309FE76B88042B7FF47CAFE1
:10160000EB88002B3FF478AFDAF81C3094E76B8856
:101610000C2B57D04FF20203638001B0BDE8F08F6E
:10162000B40A00209C1B0020A0860100551200086F
:10163000601B00206D1200084D120008A8BE0008B3
:101640006B88042B7FF658AFEB88002B3FF454AF28
:10165000DAF8183070E76B88062B7FF64DAF2989D2
:10166000063B01F0010202EB510293427FF444AFCA
:10167000DAF8203060E76B88062B7FF43DAFDAF8AC
:10168000243059E76B88062BC4D1AD4BA11CDB6A13
:10169000281D01B0BDE8F04F18474FF470420323F6
:1016A00062802DE7A74801B0BDE8F04F01F002B815
:1016B000484605F0F7FA4FF20202A3886280013330
:1016C0009BB21DE79E4BA11C281D1B6BE1E7DAF8BE
:1016D000383031E74FF0080B9B4B0360AB88232B6E
:1016E00000F2A881DFE813F0D400A300A60179007E
:1016F0006600A601A601A601A601A601A601A601F3
:10170000A601A601A601A6014D00A601A601A601FB
:10171000A601A601A601A601A601A601A601A60191
:10172000A601A601A601A601A601470041002400CA
:10173000006804F0F1FE5946032201F0C5FD83481C
:101740008349844AA388CAF80800CAF8201082484E
:101750008249CAF82420824A01339BB2CAF8180091
:10176000CAF81C10CAF83420CAE6006804F0D4FE97
:1017700059460222E1E7006804F0CEFE59460122F4
:10178000DBE7006804F0C8FE594603F0B9FF754A6C
:101790007549CAF80020754AA388CAF80810CAF823
:1017A00004207349734A01339BB2CAF81810CAF86F
:1017B0001C20A5E6006802F055FA6F496F4AA3881D
:1017C000CAF80010CAF804206D496E4A01339BB272
:1017D000CAF82010CAF8242092E6006804F09CFEA3
:1017E00002F070FC684A6949CAF80020684ACAF8E1
:1017F0000410CAF808206749674ACAF80C10CAF8EA
:1018000038206649664ACAF82010CAF8242065497B
:10181000654AA388CAF82810CAF82C206349644A8C
:1018200001339BB2CAF81810CAF81C2068E6006899
:1018300004F072FE594603F04BFC5E4A5E49CAF85A
:1018400000205E4ACAF80410CAF80C205C495D4AC0
:10185000CAF81410CAF838205B495C4ACAF820104C
:10186000CAF824205A495B4ACAF82810CAF82C2022
:1018700059495A4AA388CAF81810CAF81C2058496E
:10188000584A01339BB2CAF83410CAF8302037E600
:10189000006804F041FE5946FFF76CFA5249534A7A
:1018A000CAF800105249CAF80820CAF81020CAF82D
:1018B0000410504A5049CAF82020CAF814104F4A60
:1018C0004F49CAF82820CAF824104E4A4E49A38826
:1018D0004E48CAF82C10CAF818204D494D4A013319
:1018E0009BB2CAF80C00CAF81C10CAF8302007E6F0
:1018F000494B4FF0100B0360F0E6484B4FF0000BE4
:101900000360EBE6464B4FF0300B0360E6E6454BD9
:101910004FF0380B0360E1E6434B4FF0180B0360C8
:10192000DCE6424B4FF0200B0360D7E6AB684FF08C
:10193000380B0360D2E63E4B4FF0280B0360CDE638
:10194000601B0020B40A0020808D5B00ED3200088F
:1019500045370008D5360008A535000801340008D1
:10196000A937000819570008DD5700086557000817
:10197000E957000891580008453D00080D3D000852
:10198000593D0008D53D0008E5410008F541000833
:101990000142000805470008494700082D43000898
:1019A000E94400085D4600087942000899460008AD
:1019B000CD4600083550000841500008B1500008DD
:1019C000BD5000083D55000885510008DF51000852
:1019D00061520008755200080D5100084951000875
:1019E00039530008A1530008250C0008310C0008E9
:1019F000D10C00083D0E0008410D00080D0F000835
:101A0000910E000829100008590F0008350D000834
:101A100069100008A9100008C0C62D00001BB700FF
:101A20006CDC0200366E010060E31600B0710B0042
:101A3000D8B80500054805F035F94FF47042A38881
:101A4000628001339BB25BE50148F4E78CBE00087D
:101A500070BE0008274A038890429BB212D002F55C
:101A6000006290420ED0B0F1804F0BD0A2F59832B8
:101A7000904207D002F58062904203D002F5806266
:101A8000904203D14A8823F0700313431A4A9042CC
:101A900027D002F58062904223D070B423F44073C3
:101AA000CE888D880C889BB202F58C3233439042ED
:101AB0000380858504850ED0104B98420BD003F52A
:101AC0004063984207D003F58063984203D003F542
:101AD0008063984201D10B7A0386012370BC838214
:101AE000704703808B8883850B880385012383825D
:101AF000704700BF002C014000100040003401403E
:101B0000038829B923F001031B041B0C03807047D1
:101B10009BB243F001030380704700BF83899BB2EF
:101B20001AB923EA01018181704719438181704705
:101B3000FFF7F4BFC94389B20182704700232DE942
:101B4000F047564E84B0DFF86C91DFF86C81544F4B
:101B5000ADF80E30D9F80030524C99B21B04524DFA
:101B6000524A318040F18E80338803F00F03990090
:101B700001F1804101F5B84188F80030002B30D1E7
:101B80004BF6BF7A23689BB22B802B8803F030037F
:101B900013802B8803F440532B80236803EA0A0345
:101BA00083F4005383F0200343F4004343F08003A5
:101BB00023603388D8063CD523689BB2ADF80E303D
:101BC000BDF80E30190560D4BDF80E301B04C1D528
:101BD00040F68F71236801920B402360FEF74EFEA2
:101BE0002FE00A6892B2ADF80E20BDF80E20100466
:101BF00014D4BDF80E301A06ACD548F60F7098F81C
:101C00000020930003F1804303F5B8431968013ABB
:101C1000014057F82220196090479BE740F68F74E7
:101C20000A6823482240013B50F823300A60984755
:101C3000DFE748F60F71236801920B402360FEF73F
:101C4000A1FE2368298803EA0A0A019A2B8811F465
:101C5000805F18BF8AF4805A9E04138848BF8AF4B4
:101C6000005ADD06138848BF8AF0100A9C0648BF58
:101C70008AF0200A4AF4004A4AF0800A094A1FFA08
:101C80008AF3136004B0BDE8F08740F68F712368D3
:101C900001920B402360FEF739FCD2E7681C00205C
:101CA000E4000020005C0040BC1B0020BE1B0020A4
:101CB000C8000020445C0040EC1B002030B400242D
:101CC0004FF41F053A4B3B49186882B040F00100C1
:101CD000186058681A4601405960196821F08471EB
:101CE00021F480311960196821F480211960596844
:101CF00021F4FE0159609D6000940194196841F43B
:101D00008031196003E0009BB3F5A06F09D0136820
:101D100003F400330193009B01330093019B002BDC
:101D2000F1D0234B1B6813F4003318BF0123019338
:101D3000019B012B06D04FF000621F4B9A6002B04E
:101D400030BC70471D491A4B08681A4640F0100015
:101D50000860086820F007000860086840F001008B
:101D600008605968596059685960596841F4806140
:101D70005960596821F47C115960596841F48811FF
:101D80005960196841F08071196013689B01FCD596
:101D90005368074923F003035360536843F0020379
:101DA00053604B6803F00C03082BFAD1C3E700BF64
:101DB000001002400000FFF800ED00E000200240AB
:101DC000044B1B681A681968891A8142FBD4704752
:101DD000041000E0D01D0008014B1860704700BFE0
:101DE000445C00404FF6F873014A034013607047AB
:101DF000505C0040800000F1804000F5B84003686E
:101E000023F4EC4323F07003194389B20160704757
:101E1000800000F1804000F5B8400368CA0623F452
:101E2000E04323F040039BB248BF83F010038A06CF
:101E300048BF83F0200343F4004343F08003036072
:101E4000704700BF800000F1804000F5B840036893
:101E5000CA0423F4804323F070039BB248BF83F489
:101E600080538A0448BF83F4005343F4004343F093
:101E700080030360704700BF800000F1804000F5E0
:101E8000B840006800F03000704700BF800000F1EB
:101E9000804000F5B840036823F4E04323F040039A
:101EA0009BB283F0300343F4004343F080030360AC
:101EB000704700BF800000F1804000F5B840036823
:101EC00023F4804323F070039BB283F4405343F424
:101ED000004343F080030360704700BF40F60F6388
:101EE000800000F1804000F5B8400268134043F4E0
:101EF000004343F080030360704700BFFFF7EEBF6D
:101F0000800000F1804000F5B84003685B0408D50C
:101F100040F60F720368134043F4404343F08003DC
:101F200003607047800000F1804000F5B84003680E
:101F30005B0608D540F60F720368134043F4004374
:101F400043F0C00303607047044A054B126892B225
:101F500002EBC00003445B0019607047505C004016
:101F6000023000200E4A0F4B12683E2992B202EB5B
:101F7000C00003444FEA43030AD94A09C80604BF14
:101F800002F1FF3292B2920242F400421A607047AC
:101F90004A08C90748BF013292021A60704700BF61
:101FA000505C004006300020064B49081B68490081
:101FB0009BB203EBC00000F1005000F54050400020
:101FC00001607047505C0040FFF7EEBF054A064BCA
:101FD0001268490892B202EBC002134449005B0048
:101FE00019607047505C004004300020FFF7EEBFDE
:101FF000054B1B689BB203EBC00000F1005000F5DD
:102000004050400000887047505C0040FFF7F0BF30
:10201000044A054B126892B202EBC00003445B0015
:1020200018887047505C004004300020FFF7F0BF74
:10203000054A064B126892B202EBC00003445B00F3
:102040001868C0F309007047505C0040063000205B
:10205000FFF7EEBFC3B2000A40EA0320704700BF9B
:10206000FEE700BF08B5104A104B93420CD2D8438C
:10207000104420F0030004300D4A184452F8041BA9
:1020800043F8041B8342F9D10A480B494FF0000280
:102090008842B8BF40F8042BFADBFFF70FFEBDE81B
:1020A000084000F0A1BC00BFAC0A002000000020E6
:1020B00060C40008AC0A0020941C0020B2B10023C8
:1020C00070B41E46541EE4B201346400020F092AA3
:1020D00002F1300586BF3732CA54CD54CA180233D4
:1020E0009C424FEA00105670F0D170BC704700BFA0
:1020F00010B5012182B0042001F02EFC03244FF41E
:10210000C052182301A91048ADF804208DF80730FB
:102110008DF8064000F072F801217C2001F01CFCD3
:102120004FF40072142301A90848ADF804208DF87B
:1021300007308DF8064000F061F80121202001F001
:102140000BFC02B010BD00BF0008014000140140AC
:1021500008B5012001F0A2FBBDE8084001214FF4C1
:10216000000001F005BC00BF10B54FF4A06082B0C4
:1021700003F0B0FC01241422002301A88DF80420F0
:102180008DF805308DF806308DF8074003F0ACFC73
:102190002A2301A88DF805408DF8043003F0A4FC33
:1021A00002B010BD4FF4007110B9034800F084B8BC
:1021B000014800F083B800BF001401400A4A0B4BED
:1021C00010681B68C01800D1704710B5084B082272
:1021D0001C680849FFF772FF2046BDE81040042242
:1021E0000549FFF76BBF00BFE8F7FF1FF0F7FF1FC0
:1021F000ECF7FF1F02000020120000202DE9F04143
:10220000CD78EB0648BF8B78098805F00F0E48BFE4
:102210004EEA030E11F0FF0F20D0002301274FF0EC
:102220000F08066802E00133082B16D007FA03F204
:1022300032EA0104F7D19C0008FA04FC26EA0C06F5
:102240000EFA04F4282D46EA040632D0482D03F194
:10225000010308BF0261082BE8D10660FF2924D9D9
:102260000022082301274FF00F08466804E00133DD
:10227000102B02F1040217D007FA03F434EA010C20
:10228000F5D108FA02FC26EA0C06282D0EFA02FC0B
:102290004CEA06060BD0482D03F1010308BF046188
:1022A000102B02F10402E7D14660BDE8F0814461E1
:1022B000DDE74261B7E700BF0161704741617047E8
:1022C000034B9B7A13B10522024B1A60704700BF83
:1022D000F01B0020C01200200422014B1A6070473E
:1022E000C0120020034B1A78202A04BF00221A7063
:1022F000704700BFB8120020704700BF212804D0EB
:102300002028034611D0022070470F4B1A6813781B
:1023100003F07F03212BF6D10C4910B50024916105
:10232000548220468847204610BD074A126811781B
:1023300001F07F01212903D0054A02201370704764
:10234000034804490370E8E7101C0020A523000897
:10235000B81200208D230008074B1B681B7803F080
:102360007F03212B01D00220704700F0DF000228FC
:1023700014BF022000207047101C002009B1022069
:10238000704701288CBF02200020704708B1034825
:1023900070470822024B1B681A8270471C000020FD
:1023A000101C0020FFF7F2BF10B50024FFF706FF56
:1023B000044B1B689C7200F095F801F065FD024B20
:1023C0001C6010BD101C0020C012002010B500249D
:1023D000324B334A1B68D2799C725A72DC722046A7
:1023E000FFF700FD20464FF40071FFF703FD204684
:1023F0001021FFF70DFD20464021FFF7F7FD80215A
:102400002046FFF7E1FD2046FFF778FD254B2046EB
:1024100093F83410FFF7A6FD2046FFF74BFD214649
:102420000120FFF7E7FCC0210120FFF7CDFD2021AF
:102430000120FFF7EDFC21460120FFF703FD4FF4DB
:10244000C0610220FFF7D6FC4FF480710220FFF735
:10245000BBFD21460220FFF7F5FC20210220FFF7FB
:10246000D7FC21460320FFF7C5FC4FF488710320F9
:10247000FFF7BCFD40210320FFF774FD4FF44051EE
:102480000320FFF7DFFC21460320FFF7C1FC2046B5
:10249000FEF7CCFA0122044B1A6010BD101C00207C
:1024A000F8BE00081C000020C01200200149FDF702
:1024B000FDBF00BF540000200149FDF7F7BF00BF7A
:1024C0005C000020054B1B68DB78032B04D8044913
:1024D00001EBC301FDF7EABF00207047101C00208C
:1024E0006400002070B50120FFF75CFE002401228B
:1024F000074D084E084B2A60204634802C601B682C
:10250000FFF76AFC4FF4E053204633802B6070BD28
:10251000405C0040141C0020445C004000231C4A26
:1025200070B414681B491C48A4B251F8042B92B231
:1025300040F823200133082BF7D144F4806124F0C4
:1025400001050C46124BADB245F4806641F0010125
:10255000124A1C6019601E6013685B05FCD54FF6BB
:10256000FF3400230B49146050F82320013392B24A
:10257000082B41F8042BF7D1054A45F48165156015
:10258000136870BC9BB243F004031360704700BF34
:10259000405C0040005C0040C41B0020445C0040E4
:1025A000314B0728F0B418BF18701A78052A54D890
:1025B000DFE802F017274D3741035A78013AD2B2CB
:1025C0005A705A7802F0FF014AB94FF6EF720625A9
:1025D0002648274C0668324002601D702160F0BC1E
:1025E0007047234A1268002A3BD14FF6FB714FF423
:1025F0003F4406201D4A1568294011601460187078
:10260000EDE74FF6FB714FF43F4604250124174ACE
:10261000174817683940116016601D700460F0BCDF
:1026200070475A78013AD2B25A705A78002AD6D1F5
:1026300004221A70D3E705240A200C490A6892B2D2
:1026400042F010020A601C705870F0BC7047022102
:1026500003225970F0BC1A7070470622F0BC1A7041
:10266000704705221A70BAE7C01B0020405C00408A
:10267000BC12002070B40226064A074D074C084BD6
:1026800008490948167223602A601B68086070BCFC
:10269000184700BFF01B0020101C0020E81B002082
:1026A000240000200C1C002084000020704700BF84
:1026B000704700BFF8B504886400402C21D0F4B105
:1026C00040250646A5422B4624BF2346E5B2E41A20
:1026D0000120FFF7D1FB3028FAD0AFB23A4630469E
:1026E000C02103F0AFFA39460120FFF72DFC01208D
:1026F000FFF7CCFB05F0FE031E44002CE2D10020C6
:10270000F8BD3E25DDE700BF70B5184C266836BB26
:10271000174D0320296801F0C9FB164B1A6872B9DE
:1027200029680A885200402A5A600FDD403A1A6030
:10273000014429600320BDE87040FFF7BBBB904215
:1027400012D8121A1A602968002AF1D15A680A4B65
:1027500022602B600320BDE87040FFF7ABBB074849
:10276000BDE8704004F09EBA1E60EFE7341300200D
:10277000AC000020C41200203C13002050BF000811
:10278000F0B5274E8DB000223046032103F042FA07
:102790000121244D0846244C01F0D2F8284603F0CC
:1027A000D5F8204603F0D2F801A803F085F90023FC
:1027B0004FF0800C4FF4807E4FF480674FF400524E
:1027C00003930493059309930B93184B01A928468F
:1027D000CDF818C0CDF81CE00A920193089703F0D9
:1027E0004BF94FF44052102301A920460A9203935B
:1027F000089703F041F92B680D4923F001032B6082
:102800002368304623F0010323600B68012223F480
:1028100008330B60032103F0FDF90DB0F0BD00BFDC
:102820000038004044000240580002400C3800408C
:1028300000000240F0B50446002587B01E4803F0B2
:1028400085F9E3882089002B628814BF002180214C
:10285000A388002814BF4FF400600020002A14BF92
:10286000022700275B1B18BF01234FF400724FF4AF
:1028700082762488ADF81210ADF8080001A90E4840
:10288000ADF80C30ADF80E20ADF80A70ADF8104080
:10289000ADF80450ADF81450ADF8066003F08CF9B3
:1028A0002946054803F0C0F90121034803F0A4F9C3
:1028B000FFF766FF07B0F0BD00380040012110B5FA
:1028C000084682B001F054F800214FF08040FFF735
:1028D00017F901214FF08040FFF72CF901224FF04A
:1028E00080401146FFF724F91C2402210022012315
:1028F00001A88DF804408DF805108DF806208DF89C
:10290000073003F0F1F802B010BD00BF30B5042469
:102910000823194D87B00DEB04012846ADF80430AB
:102920008DF80740FFF76AFC032218230DEB040122
:102930002846ADF804408DF806208DF807304FF496
:102940006125FFF75BFC00230C220C4C02A92046FA
:10295000ADF80C30ADF80E30ADF81030ADF81430E5
:10296000ADF81220029501F0B1F82046012101F0E6
:102970000BF907B030BD00BF000801400044004023
:1029800008B5012141F21D0000F0E6FF01210846D3
:1029900000F0D6FF01214FF4804000F0DDFFBDE8DC
:1029A00008400121014800F0E3BF00BF05400200DC
:1029B00008B5FFF7E5FFFFF7A9FFFFF77FFF084A1C
:1029C000D36813F0807309D1D068064940F0807055
:1029D000D0604B600B6843F001030B6008BD00BF83
:1029E000F0ED00E0001000E0F8B5FFF7E1FFFFF7C1
:1029F0007FFBFFF7ADFBFFF7B7FBFFF73BFEFEF7F3
:102A000041FCFEF7D7FC0023074D1E462F46074C1E
:102A100023602368002BFCD06B790BB12660F8E7AC
:102A20003846FEF7DBFCF9E73C13002034130020A6
:102A30002DE9F8434FF480694125C8464FF400560C
:102A40000D4F0E4CC4F8108026613868FFF7B8F9B6
:102A5000013D6661F6D1C4F8149026613868FFF72D
:102A6000AFF96661C4F8149026613868FFF7A8F9D9
:102A700066612846BDE8F883CC120020000C0140B6
:102A800098B32DE9F84F00244FF400590E4625461F
:102A9000471E1FFA87F8DFF854A0DFF854B008F19A
:102AA0000108E2064FF4004204BF35680436EB0724
:102AB0004CBFCBF81020CBF81420A74208BF4FF42E
:102AC00080624FF4005308BFCBF81020CBF81030D1
:102AD0000134DAF80000FFF773F9A0454FEA550515
:102AE000CBF81490DDD1BDE8F88F7047CC120020F0
:102AF000000C01402DE9F8434FF400554FF4806776
:102B000089468046154C164E276125613068FFF7CF
:102B100057F96561276125613068FFF751F96561F3
:102B2000676125613068FFF74BF965616761256171
:102B30003068FFF745F9494640466561FFF7A0FF59
:102B4000276125613068FFF73BF9656167612561A1
:102B50003068FFF735F96561BDE8F883000C014086
:102B6000CC1200202DE9F8434FF400554FF4806754
:102B700089468046124C134E276125613068FFF765
:102B80001FF96561676125613068FFF719F96561B3
:102B9000676125613068FFF713F949464046656172
:102BA000FFF76EFF276125613068FFF709F965615E
:102BB000676125613068FFF703F96561BDE8F88357
:102BC000000C0140CC1200204FF400422DE9F84FD8
:102BD000254B5A61002844D00024461EB7B20D464A
:102BE0009A46A3464FF40059013715E01F4BCAF827
:102BF00010901868FFF7E4F8DAF8083008F01F01C1
:102C0000C3F380338B401F294BEA030BCAF814909F
:102C10001CD00134A74222D0A6421FFA84F8E5D185
:102C20004FF48063CAF81030104BCAF8109018683F
:102C3000FFF7C6F8DAF8083008F01F01C3F3803355
:102C400003FA01F14BEA010BCAF814900134A742D0
:102C5000C5F800B04FF0000B05F10405DCD1BDE86C
:102C6000F88FBDE8F88F00BF000C0140CC120020A7
:102C70002DE9F8434FF400554FF4806789468046AC
:102C8000124C134E276125613068FFF799F8656192
:102C9000676125613068FFF793F8656167612561B9
:102CA0003068FFF78DF8494640466561FFF78CFFB5
:102CB000276125613068FFF783F8656167612561E9
:102CC0003068FFF77DF86561BDE8F883000C0140CE
:102CD000CC1200202DE9F04F81466FF03F004FF0FD
:102CE000000E0F270D464FF00003152683B04FEA64
:102CF000191102AC61F3C500CDF804E08DF80700AE
:102D000004F8057D65F38F03214608209046ADF851
:102D100004308DF80260FFF725FF01A92020FFF79E
:102D200021FF0E23214608208DF80330FFF71AFFFC
:102D300001A92020FFF79CFF9DF804309A0761D479
:102D40006B1E1FFA83FB002D67D04FF48067344E53
:102D5000344C1FFA89FA4FEAD9094FF400554FF461
:102D60008063236125613068FFF72AF86561676138
:102D700025613068FFF724F8656167612561306877
:102D8000FFF71EF80DF1020108206561FFF778FEDC
:102D9000276125613068FFF713F8656127612561B8
:102DA0003068FFF70DF86561676125613068FFF7EE
:102DB00007F86561676125613068FFF701F84146F2
:102DC00050466561FFF75CFE276125613068FEF7BC
:102DD000F7FF4FF6FF720BF1FF331FFA83FB9345AA
:102DE000C8446561B9D14FF480634FF400550D4C70
:102DF000636125613068FEF7E3FF0020656103B081
:102E0000BDE8F08F4FF2410213F0010F4FF2420084
:102E100018BF104603B0BDE8F08F014EE3E700BFD6
:102E2000CC120020000C01402DE9F04F80466FF0DD
:102E30007F004FF0000E0F270D464FF000031426C1
:102E400085B04FEA181104AC61F3C500CDF80CE071
:102E50008DF80F0004F8057D65F38F0321460820E7
:102E60000092ADF80C308DF80A60FFF77BFE03A9E5
:102E70002020FFF777FE0E23214608208DF80B3027
:102E8000FFF770FE03A92020FFF7F2FE9DF80C303B
:102E90009B0700F187806B1E9BB20193002D00F011
:102EA00091809DE880044FF48066484DDFF820B1A2
:102EB0001FFA88F94FEAD8084FF400544FF48063A2
:102EC000CBF81030CBF810402868FEF779FFCBF82C
:102ED0001440CBF81460CBF810402868FEF770FF60
:102EE000CBF81440CBF81460CBF810402868FEF7FC
:102EF00067FF0DF10A010820CBF81440FFF7C0FD71
:102F0000CBF81060CBF810402868FEF759FFCBF8DB
:102F10001440CBF81060CBF810402868FEF750FF43
:102F2000CBF81440CBF81460CBF810402868FEF7BB
:102F300047FFCBF81440CBF81460CBF8104028685A
:102F4000FEF73EFF39464846CBF81440FFF73CFEFB
:102F5000CBF81060CBF810402868FEF731FF4FF631
:102F6000FF730AF1FF3A1FFA8AFA9A454744CBF8F1
:102F70001440A1D1019B03FB0888009B4344984661
:102F800000244FF480634FF40057114E88F800403E
:102F9000736137612868FEF713FF2046776105B03B
:102FA000BDE8F08F4FF241040A4803F0DDFE9DF8C2
:102FB0000C304FF2420013F0010F18BF204605B04D
:102FC000BDE8F08FDDF80080004DD9E7CC1200207D
:102FD000000C01406CBF000810B52A4C21790A078B
:102FE00046D50020CB0639D48A062DD44B0618D4FA
:102FF000090621D46179CA070AD48B0707D46179FD
:103000002148C1F3400103F04DFE4FF2220010BDF4
:1030100001F001011D4803F045FE4FF242006179C5
:10302000EBE721791A48C1F3801103F03BFE2179C7
:103030004FF222000906DDD521791648C90903F0AF
:1030400031FE4FF22200D5E721791348C1F3401138
:1030500003F028FE4FF222002179C7E721790F48BB
:10306000C1F3001103F01EFE4FF222002179BBE7ED
:10307000C1F3C0010A4803F015FE21794FF2220086
:10308000B0E700BFCC120020E4BF0008D4BF0008A6
:10309000B4BF0008C4BF0008A4BF000894BF000864
:1030A00084BF00084FF400514FF480632DE9F04FC6
:1030B000DFF800B183B03E4E0DF1080929F8040D88
:1030C000CBF81030CBF81010306888460091FEF72E
:1030D00077FE4FF4806300990024CBF81410CBF8EE
:1030E0001030CBF8101030680091FEF769FE4FF4F5
:1030F000806300995D46CBF81410CBF81430CBF800
:10310000101030680091FEF75BFE4FF48063274695
:103110000099CBF81410CBF81430CBF810103068AD
:103120000091FEF74DFE0099CBF814101CB9D9F8A8
:1031300000A009F104094FF400431AF0010F14BF75
:103140002B616B61092C0FD0C5F810803068FEF739
:1031500037FEAB684FEA5A0AC3F38033A3401F43DC
:10316000C5F814800134E1E74FF400554FF480684E
:10317000104CC4F8108025613068FEF721FEA3686A
:103180006561C3F38033C4F81080256147EA4327A3
:1031900030687760FEF714FE6561C4F8148025611D
:1031A0003068FEF70DFE656103B0BDE8F08F00BF2B
:1031B000CC120020000C014030B583B09DF80030E7
:1031C0000C4660F30603184615469DF801306FF370
:1031D000C71003F0FE0343F002038DF801308DF8B1
:1031E00000000098FFF75EFF6001294680B2FFF7FC
:1031F0003FFD11229DF8003062F306038DF8003088
:103200000098FFF74FFF01A92020FFF731FD03B021
:1032100030BD00BFF0B5102583B09DF80530104CCF
:1032200043F0010306460F466FF34103284622464A
:1032300006218DF805308DF80450FFF7BDFF0023FF
:103240000198E760266123756375A375E375FFF741
:1032500029FF2146C02003B0BDE8F040FFF782BC43
:10326000181C002030B50C46154683B09DF8003080
:1032700060F306039DF801006FF3C71300F0FE0032
:103280006FF341008DF800308DF801000098FFF7D2
:1032900009FF6001294680B2FFF764FC11219DF807
:1032A00000209DF8013061F3060243F002038DF81F
:1032B00000208DF801300098FFF7F4FE01A92020CE
:1032C000FFF7D6FC03B030BD10B54FF07E51144669
:1032D00002461020FDF7FCFF024B034A1C701060F1
:1032E00010BD00BFB0000020CC1200204FF470428F
:1032F00070B5414B86B01B780C46012B0A8062D01A
:10330000032B01D006B070BD002511223B4B8DF878
:1033100007209D80ADF8085003950495FFF788FBC2
:103320000DF107010520FFF7E5FB7E229DF808302F
:1033300062F306038DF808300298FFF7B3FE9DF89C
:1033400010609DF8113005AA43F0800346F007068F
:10335000012112208DF810608DF81130FFF72CFF3D
:10336000059B049905AA0B43122001210593FFF741
:1033700079FF9DF80F3003AA43F08003012131202B
:103380008DF80F30FFF76EFF02219DF80F609DF85A
:103390000C3003AA61F3051643F00103012131202B
:1033A0008DF80C308DF80F60FFF75CFF7C229DF8E4
:1033B000083062F306038DF808300298FFF772FEBA
:1033C000258006B070BD112300258DF81030ADF8B2
:1033D0001450FFF72DFB04A90520FFF78BFB7E227D
:1033E0009DF8143062F306038DF814300598FFF74A
:1033F00059FE258086E700BFB0000020CC120020D7
:103400000388102B08D04288042A08D0012B06D943
:103410004FF202030B8070474388182BF8D1042326
:1034200000222DE9F0430A804B80038887B00C46C8
:10343000162B0DD8DFE803F01E5F6D0C0C0C0C0C86
:103440000C0C0C0C0C0C0C0C757F89939DA71400B4
:103450004FF4704202230A804B8007B0BDE8F0832E
:103460006A4606211020FFF7A7FE0022009B22805B
:103470006360F2E742884FF4005612F00F0318BF62
:1034800001234FF4806703EB1213444D02334B804A
:10349000DFF80C81B0F802902F612E61D8F800009F
:1034A000FEF78EFC6E612F612E61D8F80000FEF7EA
:1034B00087FC6E616F612E61D8F80000FEF780FC1A
:1034C0006E616F612E61D8F80000FEF779FC211D56
:1034D00048466E61FFF778FB2F612E61D8F8000037
:1034E000FEF76EFC6E616F612E61D8F80000FEF78A
:1034F00067FC6E61B1E74288043112F00F0318BF18
:10350000012303EB1213023363804088FFF7B0FB03
:10351000A3E70A1D02200121FFF74EFE00232380AE
:103520009BE70A1D10200621FFF746FE00220E230E
:103530002280638091E76A4606211020FFF73CFE57
:103540000022059B2280636087E76A4606211020DF
:10355000FFF732FE0022049B228063607DE76A460B
:1035600006211020FFF728FE0022039B22806360C3
:1035700073E76A4606211020FFF71EFE0022029B19
:103580002280636069E76A4606211020FFF714FE77
:103590000022019B228063605FE700BF000C0140B6
:1035A000CC1200200388102B08D04288042A08D0AF
:1035B000012B06D94FF202030B8070474388182B6A
:1035C000F8D1002330B50B80038887B00D46044640
:1035D000162B7AD8DFE803F01C217979797979798B
:1035E0007979797979797979262E3D4C5B6A0C0065
:1035F0006A4606211020FFF7DFFD63686A46062150
:1036000010200093FFF72EFE00232B8007B030BD63
:10361000011D4088FFF76EFAF8E7011D4088FFF7AB
:10362000A1FAF3E7021D06211020FFF71BFE00237D
:103630002B80EBE76A4606211020FFF7BDFD63688B
:103640006A46062110200593FFF70CFE00232B800D
:10365000DCE76A4606211020FFF7AEFD63686A4684
:10366000062110200493FFF7FDFD00232B80CDE7FA
:103670006A4606211020FFF79FFD63686A4606210F
:1036800010200393FFF7EEFD00232B80BEE76A4670
:1036900006211020FFF790FD63686A46062110207E
:1036A0000293FFF7DFFD00232B80AFE76A46062178
:1036B0001020FFF781FD63686A4606211020019300
:1036C000FFF7D0FD00232B80A0E74FF470430B8061
:1036D0009CE700BF4FF2020370B544680B80631E85
:1036E0001F2B82B001D902B070BD132305460E46D0
:1036F00002A901F8013D0820FFF734FA29462020ED
:10370000FFF730FAA10706F1040213D0E30747BF21
:10371000A1B20820C4F34F011020FFF785FB3080D1
:10372000738820B100241C44748002B070BD013441
:103730006408F8E7C4F38F012020FFF775FB3080A1
:10374000EEE700BF4FF20203022270B546680B801D
:10375000731E1F2B82B04A8001D902B070BD1323A3
:1037600005460C4602A901F8013D0820FFF7FAF9C9
:1037700029462020FFF7F6F9B10705F108020BD022
:10378000F30747BFB1B20820C6F34F011020FFF77F
:10379000A1FA208002B070BDC6F38F012020FFF790
:1037A00099FA2080D9E700BF4388042B03D04FF259
:1037B00002030B807047F0B5048885B00D4647685A
:1037C0004CB1022C0FD0002634464B881C446C8030
:1037D0002E8005B0F0BD0389042B42D04FF20203C6
:1037E0000B8005B0F0BD0489C368042C27D0082CD9
:1037F000F4D14289042AF1D1254E19463846019365
:10380000FFF708FD324606211020FFF7D5FC32688D
:10381000019B6A607268AA60716991BB0193FFF7AE
:10382000DBFB019B064620B11A463946194803F0D6
:1038300039FA6408002E18BF00246B88C6E7428955
:10384000042ACBD1124E194638460193FFF7E2FC09
:10385000324606211020FFF7AFFC3268019B6A60F8
:10386000DAE7D0F80A103846FFF7D4FC04AA42F889
:10387000044D01211120FFF79FFCFFF7ADFB064629
:10388000D8E70548019303F00DFA019BC6E700BF96
:10389000181C002000C00008F4BF0008014B18608D
:1038A000704700BFD8004242214A10B4536803F069
:1038B0000C03042B06D0082B25D01BB11D4A134640
:1038C000026001E01B4B036019491B4A4C68C4F3BA
:1038D0000314145DE34043604C68C4F30224145D98
:1038E00023FA04F484604C68C4F3C224145DE340FA
:1038F000C360496810BCC1F381310A44127CB3FB38
:10390000F2F30361704753685168C3F38343C903FB
:1039100003F1020307D55268920304D4054A02FB5F
:1039200003F30360D0E7054A02FB03F30360CBE730
:103930000010024000127A00B400002000093D008F
:10394000044A536919B923EA0000506170471843CB
:103950005061704700100240044A936919B923EA84
:10396000000090617047184390617047001002405A
:10397000044AD36919B923EA0000D061704718439B
:10398000D061704700100240044AD36819B923EA95
:103990000000D06070471843D060704700100240AC
:1039A000044A136919B923EA0000106170471843EB
:1039B0001061704700100240014B1870704700BF43
:1039C000071002408269C369012424051D6815405F
:1039D00025431D6070478269C369062424051D685C
:1039E000154025431D60704772B6FEB547680668EE
:1039F0002025ED1BAE40FFF7E5FF026A20231B02E6
:103A000013608268C36A1C681D682D1B9542FBD435
:103A1000361C04D4026A20231B02136003E0426AAE
:103A200020231B021360C268C36A1C681D682D1B1B
:103A30009542FBD4426A20231B0213600269C36AC9
:103A40001C681D682D1B9542FBD47600013FD4D124
:103A500062B6FFF7C0FFFEBC01BC004772B6FEB500
:103A600047680026FFF7B7FF026A20231B02136096
:103A70008268C36A1C681D682D1B9542FBD4426A8C
:103A800020231B0213604269C36A1C681D682D1B3A
:103A90009542FBD4826A01231268520B1A407600C9
:103AA00016434269C36A1C681D682D1B9542FBD4EE
:103AB000013FD9D162B60660FEBC01BC00470000E0
:103AC000014B5861704700BF0004014070B50D46BE
:103AD0000446038ACA889BB223F44053134389895E
:103AE00003828289AE8822F4B05323F00C031B04B6
:103AF00028891B0C6A893343034313439BB2A38178
:103B0000A38A86B09BB223F440730B4301A8A3821F
:103B1000FFF7CAFE04991A48039BA289844208BF92
:103B20000B4612F4004F2A6803EB830314BF5200C4
:103B3000920003EB8303B3FBF2F36422114DA189DE
:103B4000A5FB0360400902FB10330A044FEA001092
:103B50000AD41B013233A5FB0323C3F343130343EE
:103B60009BB2238106B070BDD9003231A5FB013173
:103B7000C1F3421242EA00039BB2238106B070BD3A
:103B8000003801401F85EB51838929B923F4005384
:103B90001B041B0C838170479BB243F40053838149
:103BA000704700BF0388194214BF012000207047EE
:103BB00030B52B4C80F47F4383B0054683F0FF0380
:103BC00020462021ADF80630FFF7ECFF18B1A3889E
:103BD0009BB2ADF80630224B1C469D8080212046CA
:103BE000FFF7E0FF0028F9D04FF4FA7002F074F903
:103BF0001B4C02E002F0A4F928B920212046FFF76F
:103C0000D1FF0028F6D002F09BF920B9144B9B8815
:103C10009BB2ADF80630BDF806309BB29D4203D092
:103C20004FF6FF7003B030BD4FF4FA7002F054F954
:103C30000B4C02E002F084F928B920212046FFF75E
:103C4000B1FF0028F6D002F07BF90028E8D1044B40
:103C5000988880B2281A18BF4FF0FF3080B2E1E791
:103C6000003801402DE9F04104264FF48063254CD3
:103C700086B080460DEB06012046ADF804300325E2
:103C80008DF80760FEF7BAFA4FF400721C230DEBB3
:103C900006012046ADF804208DF807308DF8065057
:103CA000FEF7ACFA00230C22174F02A93846ADF8F4
:103CB0000C30ADF80E30ADF81030ADF81430ADF872
:103CC0001220CDF80880FFF701FF38460121FFF7E9
:103CD0005BFF30460121FFF73FFE4FF4807218234F
:103CE0000DEB06012046ADF804208DF807308DF865
:103CF0000650FEF783FA0620FFF75EFE06B0BDE829
:103D0000F08100BF000801400038014070B5032277
:103D10000E4601200B2102F0B9F801224FF4006594
:103D2000074C10460B2102F0B1F83220656102F019
:103D3000FDF82561322002F0F9F80023338070BDD0
:103D4000000C014010B503220C4601200B2102F0AB
:103D50009DF80023238010BD2DE9F041D0F80080AC
:103D60000F46B8F5803F456800F1080423D005B33D
:103D70004544492034F8026BFFF71AFF20B14FF693
:103D8000FF703880BDE8F081C8F30720FFF710FF0F
:103D90000028F4D15FFA88F0FFF70AFF0028EED17F
:103DA000F0B2FFF705FF0028E9D108F10108A845A6
:103DB000DFD10020E5E715B9FBE70028E1D134F8B1
:103DC000020BC0B2FFF7F4FE013DF6D13880BDE82A
:103DD000F08100BF2DE9F04746680C460768002EC9
:103DE0004ED00025DFF89C9007EB060801F1020A8F
:103DF0004A200135FFF7DCFE58B14FF6FF7605F09B
:103E0000010303EB550302339BB226806380BDE8B8
:103E1000F087C7F30720FFF7CBFE58B14FF6FF76C8
:103E200005F0010202EB550302339BB2268063804A
:103E3000BDE8F087F8B2FFF7BBFE06460028EDD1DB
:103E40004FF4FA7002F048F802E002F079F828B96D
:103E500020214846FFF7A6FE0028F6D002F070F8B1
:103E60000028DBD1B9F804300137B8452AF8023F01
:103E7000BED105F0010202EB550302339BB2C4E749
:103E80000223C2E70038014000204FF43F4310B442
:103E90000349044C044A20600B8010BC1360704737
:103EA000141C0020445C0040405C004070B500F0F1
:103EB0007F0528460E46FEF7CBF804462846FEF757
:103EC000B5F822460146304601F0D0FE204670BDCE
:103ED00008B503220B21012001F0D8FF00220D219B
:103EE000012001F0D3FF4FF400514FF40062024B68
:103EF00019611A6108BD00BF000C014010B5FFF741
:103F0000E7FF01220B21104601F0C0FF4FF40063D0
:103F10000D4C3220636102F009F8FFF7D9FF4FF42E
:103F2000FA7001F0D9FF02E002F00AF810B9A368B4
:103F30001B05F9D5044B4FF211009B6813F4006F79
:103F400018BF002010BD00BF000C0140082370B551
:103F50000025104C0E46206022792371637965712B
:103F6000A3792046A571E379E571FFF73DFD1023A4
:103F700026602279237163796571A3792046A57142
:103F8000E379E571FFF730FD034B1868FDF718FF83
:103F9000284670BD341C0020D41200206FF0370278
:103FA000F8B500250823164C074620782270627861
:103FB0006570A278A570E278E57022792371637943
:103FC0006571A3792046A5710E46E379E571FFF787
:103FD0000BFD10232279237163796571A379204643
:103FE000A571E379E5712760FFF7FEFC20462660A6
:103FF000FFF7FAFC034B5868FDF7E2FE2846F8BDD0
:10400000341C0020D41200206FF0170270B5002578
:104010000823164C06462178227062786570A278D3
:10402000A570E278E5702279237163796571A379CF
:104030002046A571E379E571FFF7D6FC10232660D1
:104040002279237163796571A3792046A571E3799B
:10405000E571FFF7C9FC064B5868FDF7B1FE204635
:10406000FFF7FCFC206880B270BD00BF341C00204C
:10407000D412002038B508230025104C2060227986
:10408000237163796571A3792046A571E379E571A0
:10409000FFF7AAFC0A4B9868FDF792FE10232279DD
:1040A000237163796571A3792046A571E379E57180
:1040B000FFF7D4FC206880B238BD00BF341C00205C
:1040C000D41200204FF0FF322DE9F84F4FF00F0AC5
:1040D00005460121102704204FF00C0E4FF0080C6C
:1040E000402300266FF01F094FF01408364C94F857
:1040F00018B0227694F819B0627694F81AB084F861
:104100001AA094F81BA084F82C00E2762077A177FF
:1041100084F8221084F8261084F82A102A464FF0DA
:104120008141384684F828C084F81DE084F821E0F5
:1041300084F825E084F829E0E37784F8233084F8D4
:10414000273084F82B3084F82F9084F8208084F86E
:104150002D7084F8247084F82E60FDF7B9F80346BA
:104160002A461A491320A360FDF7B2F803462A46EF
:1041700017493846E360FDF7ABF803462A46154970
:1041800011202361FDF7A4F803462A461249304660
:104190006361FDF79DF8114C2A4660604FF0854140
:1041A0003046FDF795F82A46E0600D493046FDF7A8
:1041B0008FF82A46A0604FF084413046FDF788F81A
:1041C0002060BDE8F88F00BF341C002000001041C3
:1041D000000040400000C04000001643D412002000
:1041E0000000304210B50C46FFF772FE002323801A
:1041F00010BD00BF10B50C46FFF780FE208010BD3B
:1042000038B50D46FFF764FE01220B21104601F080
:104210003DFE4FF40063174C0A20636101F086FEF7
:1042200001220D21104601F031FE4FF400533220DF
:10423000636101F07BFE03220B21012001F026FEC9
:104240004FF4FA7001F048FE02E001F079FE10B977
:10425000A3681B05F9D5642001F068FEFFF738FE5E
:10426000044A4FF21103926812F4006F18BF002342
:104270002B8038BD000C01402DE9F84F50220F462D
:10428000002306684068B1B206EB00097A80BB8063
:104290004520FFF75BFE4E4524D201204FF08008F9
:1042A0006FF0004B07F10A0AA9EB0603984528BFF7
:1042B00098464FEA5804651DC7F806603D80A8B9C6
:1042C0004CB1544607EB45056220FFF7D3FE24F8B6
:1042D000020BAC42F8D13846FEF7ECF9464400BB7D
:1042E000B145E1D800233B80BDE8F88FB0B2FFF7BD
:1042F0008BFEB8F1020F7881EDD9012CEBD95C442B
:1043000007F10C0505EB44046220FFF7B3FE25F826
:10431000020BA542F8D13846FEF7CCF946440028F6
:10432000DED04FF222033B80BDE8F88F2DE9F04F3D
:10433000D0F804A083B001910668BAF1000F00F034
:104340009F800027664CDFF89C8100F10803BAF1DA
:10435000010F9B465CD9B6F5803F45D32546CDF885
:1043600000806FF03303082021783BF8029B237014
:1043700094F801E0677094F802E0A77094F803E005
:10438000E77094F804E0207160796771A079A771F3
:10439000204694F807E0E771FFF726FB102094F819
:1043A00004E0207160796771A0791FFA86FEA77119
:1043B000204694F807C0E771C4F800E0FFF714FB4B
:1043C0002046C4F80090FFF70FFBD8F80400FDF773
:1043D000F7FCBAF1020A06F1020651D0BAF1010F58
:1043E00019D0B6F5803FBCD2B0B2BBF80010FFF7D1
:1043F000D5FDBAF1020A0BF1020380B206F1020602
:1044000001D00028A3D0019B188003B0BDE8F08F35
:10441000344B334D0093B6F5803F37D36FF03B01FB
:10442000002408222B789BF8007029706B786C7040
:10443000AB78AC70EB78EC702B792A716B796C717E
:10444000AB792748AC71EB79EC71FFF7CDFA10230B
:104450002A792B716B796C71AB792148AC71B3B24D
:10446000EA79EC712B60FFF7BFFAF20736D43B0212
:104470001B482B60FFF7B8FA009B5868FDF7A0FCBB
:104480000020019B188003B0BDE8F08F6FF03F0162
:10449000002408222B789BF8007029706B786C70D0
:1044A000AB78AC70EB78EC702B792A716B796C710E
:1044B000AB790B48AC71EB79EC71FFF795FA1023EF
:1044C0002A792B716B796C71AB790548AC71EB79FA
:1044D000EC712E60FFF788FAF307C8D53B46C7E7B3
:1044E000341C0020D41200202DE9F84FD0F804909D
:1044F0008B460668B9F1000F00F0AA800027554CE2
:104500003D46DFF854A101F1060835E06FF01302D3
:1045100008232178227062786570A278A570E2780D
:10452000E5702279237163796571A3794948A57192
:10453000E379E571FFF758FA1023B2B222602279CD
:10454000237163796571A3794248A571E379E571B7
:10455000FFF74AFADAF80400FDF732FC3D48FFF7AE
:104560007DFA206880B20237B94528F8020C06F1BE
:10457000020608F1020845D9B9F1010F06D9B6F5CE
:10458000803FC3D2B0B2FFF73FFDECE7B6F5803F06
:1045900045D36FF01B020823217822706278657082
:1045A000A278A570E278E57022792371637965714C
:1045B000A3792848A571E379E571FFF715FA10236F
:1045C000B2B222602279237163796571A379A571F2
:1045D000E3792048E571FFF707FADAF80400FDF700
:1045E000EFFB1C48FFF73AFA2368F2074CBFDBB237
:1045F000C3F3072301379BB2B94528F8023C08F101
:104600000208B9D807F0010303EB57070237BFB21E
:104610000023ABF80270ABF80030BDE8F88F6FF004
:104620001F0208232178227062786570A278A57035
:10463000E278E5702279237163796571A379054881
:10464000A571E379E571FFF7CFF910232660B9E78B
:104650000227DDE7341C0020D41200202DE9F041B0
:104660000546064635F80A7B4468884645203946A3
:10467000FFF76CFC38463189FFF790FC023C06D00E
:1046800035F8021B4220FFF761FC023CF8D1002301
:10469000A8F80030BDE8F08138B50388A3F14202E4
:1046A000052A06D84588022D07D04FF240030B801B
:1046B00038BD4FF470430B8038BD0C468188D8B2AA
:1046C000FFF744FC00236580238038BD0388A3F1F5
:1046D0006202052A06D84288022A07D04FF2400318
:1046E0000B8070474FF470430B80704710B5D8B201
:1046F0000C46FFF7BFFC00220323A08022806380CA
:1047000010BD00BF082238B500240D460C4B1978A7
:104710001A7059785C7099789C70D978DC70197926
:104720001A715A795C719A7918469C71DA79DC7140
:10473000FFF75AF9034BD868FDF742FB2C8038BDD0
:10474000341C0020D412002010B50C46FFF7D6FB15
:10475000208010BD044A05491368002B08BF0B4692
:104760001844106018467047E4120020941C002082
:104770004FF0FF30704700BF4FF4005300204B60F4
:10478000704700BF012070470020704710467047F7
:1047900010467047704700BFFEE700BFFEE700BF4E
:1047A000FEE700BFFEE700BF704700BF704700BFD5
:1047B000704700BF704700BF01F036BD4FF4802046
:1047C000FFF77EB92DE9704F8A46012105469146D3
:1047D00086B003930AF1FF3301FA03F3584E0493B2
:1047E000B3685804FCD44FF4004B4FF40058554CB8
:1047F000C6F810B0C6F810802068FDF7E1FAC6F8D8
:1048000014802068FDF7DCFAE907B3684CBFC6F8EE
:1048100010B0C6F814B04FF4005B494EC3F38038B3
:10482000C6F810B02068FDF7CBFAC6F814B02068BF
:10483000FDF7C6FAB36813F4804F0CBF00230223C0
:1048400043EA080301934FF40043AA074CBF3361C6
:1048500073614FF400563A4DD0462E612068FDF743
:10486000AFFA6E612068FDF7ABFA019B002B0CBF1D
:10487000202307230293BAF1000F3AD000960026B6
:10488000B046AB46CDF814A05546DDF810A0DBF8D5
:1048900008301AEA090FC3F3803343EA48084FF49B
:1048A000004314BFCBF81030CBF814304FF4005352
:1048B000CBF810302068FDF783FA009B0136CBF867
:1048C00014302068FDF77CFAAE424FEA4909DED188
:1048D000029B4546B342DDF814800BD84FF40042EA
:1048E000CBF81420039B03B11D60019806B0BDE80E
:1048F000708F55464FF00509134E304602F0D2F93D
:10490000B9F10109F9D14FF400594FF40043CA46F7
:104910000B4EDDF808B07361B368C6F810A0C3F39E
:104920008033206843EA4505FDF74AFAC6F814903B
:1049300008F101082068FDF743FAC345ECD1D1E73F
:10494000000C0140E812002060C0000830B50546A8
:10495000062483B000232A4618462021FFF732FFA1
:1049600001AB002207210320FFF72CFF01380128AB
:1049700005D8013CEED14FF6FF7003B030BD0020EA
:1049800003B030BD70B506460D46052482B0002345
:10499000324618462021FFF715FF01AB2A68202177
:1049A0000220FFF70FFF0138012808D901AB0022D0
:1049B00007210320FFF706FF0138012806D80CB1B4
:1049C000013CE4E74FF6FF7002B070BD002002B07A
:1049D00070BD70B506460D460624002332461846C3
:1049E0002021FFF7EFFE2B464FF0C0422021002090
:1049F000FFF7E8FE18B1013CEFD14FF6FF7070BD34
:104A000000232DE9704183B002AD45F8043D064610
:104A100088461C482946FFF7DCFF18BB41461A4868
:104A2000FFF7B0FF0446B0B9730103F47873C6F31F
:104A3000441616481E4340EAC620FFF787FF044687
:104A4000C0B929461048FFF79DFF044630B1104811
:104A500002F028F902E00F4802F024F9204603B0E2
:104A6000BDE8708104460C4802F01CF9204603B0F2
:104A7000BDE87081094802F015F9204603B0BDE891
:104A8000708100BFA69B167CA69A167CA603007CAC
:104A900000C10008B0C0000888C00008DCC00008E1
:104AA00000232DE9704183B002AD45F8043D064670
:104AB00088461C482946FFF78CFF18BB730103F496
:104AC0007873C6F344161848334340EAC320FFF70F
:104AD0003DFF044678B941461248FFF77AFF044685
:104AE000C0B929461148FFF74DFF044630B11048C0
:104AF00002F0D8F802E00F4802F0D4F8204603B0E4
:104B0000BDE8708104460C4802F0CCF8204603B0A2
:104B1000BDE87081094802F0C5F8204603B0BDE841
:104B2000708100BFA69B167CA602007CA69A167C0C
:104B300088C10008DCC0000830C100085CC1000862
:104B40002DE970439F4D82B02B8804386FEA834370
:104B50006FEA93439BB22B80AC889B4B24F00104FB
:104B60002404240CAC809C686604FCD44FF40055EB
:104B70004FF400441C611D615D6100BF00BF00BFB8
:104B80009E685C611D615D6100BF00BF00BF4FF0AA
:104B9000020CDFF838E2DFF83882744602AED3F850
:104BA00008901D615D6146F8048DCEF80C60CEF86A
:104BB00004C05D6845F0004545F400055D60DEF821
:104BC000003043F00103CEF800306368002BFCD1C5
:104BD0007C4C23891D06FCD47B4DDFF8F0E12B468D
:104BE000DEF8004024F00104CEF800406C6824F0A8
:104BF000004424F400046C609C686404FCD44FF40A
:104C000000444FF400551C611D615D615C6100BF93
:104C100000BF00BF1D615D611C6100BF00BF00BF20
:104C20004FF0020CDFF8A4E14FEA304074461D61FA
:104C30005D610190CEF80C60CEF804C0586840F079
:104C4000004040F400005860DEF8003043F00103FB
:104C5000CEF800306368002BFCD15A4803891B064C
:104C6000FCD45948594C0546236823F001032360BE
:104C7000436823F0004323F400034360AB685E0401
:104C8000FCD44FF4005C4FF400432B61C5F810C016
:104C9000C5F814C000BF00BF00BFC5F810C0C5F8FC
:104CA00014C000BF00BF00BF0724664663209E46B5
:104CB000454BC5F810C0C5F814C045064CBFC3F835
:104CC00010E0C3F814E0013C1E614FEA40005E6151
:104CD000F3D1104601F040FA3B4C80B2A3685D046A
:104CE000FCD44FF4005E4FF400462661C4F810E097
:104CF000C4F814E000BF00BF00BFC4F810E0C4F85F
:104D000014E000BF00BF00BF0721754643222E4BB1
:104D1000C4F810E0C4F814E054064CBF1E615E6194
:104D200001391D614FEA42025D61F5D1264A93685F
:104D300013F48043FBD14FF400414FF40054116150
:104D400014615461516100BF00BF00BF1461546120
:104D5000116100BF00BF00BF4FF0020E1B4D02AE3D
:104D600029461461546146F8083DEE60C5F804E038
:104D7000536843F0004343F4000353602B6843F04F
:104D800001032B604B68002BFCD10E4A13891B06D4
:104D9000FCD40E4C0C49236823F0010323604B68BC
:104DA00023F0004323F400034B6093889BB243F04D
:104DB000010393801388C3F30D03138002B0BDE891
:104DC000708300BF00380040000C014058000240D2
:104DD000D67FA69A002370B584B001900D46214875
:104DE00002A9164602930393FFF7F3FD044610B1A0
:104DF000204604B070BD03A91B48FFF7EAFD044636
:104E00000028F5D101A91948FFF7BCFD044650B1AF
:104E100002A91748FFF7B6FD03A91448FFF7B2FD32
:104E2000204604B070BD31461148FFF7ABFD044683
:104E30000028EDD1012D06D0022D09D0042D0CD073
:104E40004FF20204E4E70B48FFF780FD0446DFE77A
:104E50000948FFF77BFD0446DAE70848FFF776FDCF
:104E60000446D5E7A69B167CA69B367CA69A367C84
:104E7000A69A167C00000198000001B00000019085
:104E8000002370B584B001900D46214802A9164652
:104E900002930393FFF79DFD044610B1204604B032
:104EA00070BD03A91B48FFF794FD04460028F5D107
:104EB00001A91948FFF766FD044638B9012D1CD039
:104EC000022D1FD0042D0CD04FF2020402A913486A
:104ED000FFF758FD03A91048FFF754FD204604B022
:104EE00070BD0F48FFF732FD0446002CEED131466D
:104EF0000748FFF76EFD0446E8E70A48FFF726FD7E
:104F00000446F2E70848FFF721FD0446EDE700BF3D
:104F1000A69B167CA69B367CA69A367CA69A167C07
:104F20000000018000000188000001A008B50022F7
:104F30000B21012000F0AAFF00220D21012000F02A
:104F4000A5FF00220F21012000F0A0FF00220E216A
:104F5000012000F09BFF002008BD70B5002482B046
:104F600002AD064645F8044D23462246072103209C
:104F7000FFF728FC2B46224607210320FFF722FCDF
:104F8000033818BF4FF0FF30019B80B2C3F380138A
:104F9000338002B070BD0000002330B585B004AC92
:104FA00044F8083D214695200193FFF779FD054619
:104FB00010B1284605B030BD029B214623F40033D2
:104FC00043F0207343F0010395200293FFF718FD8F
:104FD00005460028EDD101A91B20FFF761FD05461C
:104FE0000028E6D1019B01A923F48C431B200193E7
:104FF000FFF706FD05460028DBD14FF0406304AC07
:1050000044F8043D21464FF40C70FFF7F9FC0546C7
:105010000028CED121469420FFF742FD0546002806
:10502000C7D10346024A2021FFF7CCFBC1E700BFEE
:105030006400004C10B50C46FFF778FF208010BDCF
:1050400070B50E46FFF772FF01220B21104600F0EB
:105050001DFF4FF40063154C6420636100F066FF90
:1050600001220D21104600F011FF01220F211046F0
:1050700000F00CFF4FF400554FF40043032263612E
:105080000B210120256100F001FF322000F04EFFCE
:1050900001220D211046656100F0F8FE01220F216A
:1050A000104600F0F3FE0023338070BD000C014079
:1050B00010B50C46FFF770FF208010BD10B5081D1D
:1050C0000C46FFF74AFF03232080638010BD0000D9
:1050D00030B501230024054685B001A8ADF80A309B
:1050E000ADF80C30ADF80410ADF80640ADF808404E
:1050F000FDF7A0FB2A464FF07C511820FCF7E8F89A
:10510000014B186005B030BDE81200204388042B25
:1051100003D04FF240030B807047038810B51F2B5C
:105120000C4606D9011DA3F12000FFF769FC208081
:1051300010BD044A011D42EA4350FFF723FC2080C2
:1051400010BD00BFA69A167C38B54588042D03D043
:105150004FF470430B8038BD00880C461F2806D9D9
:1051600020380431FFF79CFC6580208038BD044B5B
:10517000043143EA4050FFF72CFC6580208038BDA5
:10518000A69B167C2DE9784144688846066824B3BE
:1051900000F10805032C2A460FD8012C15D0022156
:1051A00030460D44FFF716FE023C02360CB10028D3
:1051B000F0D0A8F80000BDE87881042130460D4405
:1051C000043CFFF707FE0436F0E721463046FFF7C0
:1051D00001FEA8F80000BDE878812046E9E72DE946
:1051E000784746688A46D0F80080B6B300250C1D83
:1051F000A9460CE0012E25D0022140460D440C4466
:10520000FFF73EFE08F10208AE420FD970B9032E37
:10521000A4F800902246EDD9042140460D440C44E8
:10522000FFF72EFEAE4208F10408EFD805F00103A7
:1052300003EB550302339BB2AAF80000AAF8023030
:10524000BDE8788740463146FFF71AFE23780135DE
:1052500008F1010824F8023BD6E730460223EBE7C9
:1052600010B500F108020C4603C8FFF769FC208066
:1052700010BD000070B5026882B002AB043A43F87A
:10528000042D05460C4629481946FFF77BFB20B143
:105290004FF22203238002B070BD254A9368580460
:1052A000FCD44FF400534FF400411161136153617A
:1052B00000BF00BF00BF90685161C0F38030136130
:1052C000536100BF00BF00BF9168DFF868E011F4D0
:1052D000804118BF022148F2014C7246144E084327
:1052E00033617361736843F0004343F400037360F8
:1052F000AEF80CC01389D907FCD504230D49968953
:1053000093810B89DB07FCD5094A8B8953680328F5
:1053100023F0004323F400035360B9D195E806005D
:10532000204600F06DFE0028B5D0B1E7A69A367C85
:10533000000C01400038004038B54388042B03D0EE
:105340004FF202030B8038BD04880D464368A4B1B8
:10535000012C08D0022C1BD0002004464B8828804A
:105360001C446C8038BD0289042AE9D100F10A018D
:105370001846FFF707FB002402E01846FFF7E6FA9D
:10538000002818BF00246B8828801C446C8038BD1E
:105390000289042AD4D118460431FFF71AFBEFE73B
:1053A00001232DE9704F41680568826805EB01090A
:1053B00084B04D450292D0F80CA0D0F81080019333
:1053C00080F0B380DFF86CB141462846FBF7A4FFBC
:1053D0000646002859D04EF6602000F07DFD0023DF
:1053E00004AC44F80C3D04E0019B7BB900F0A8FD3F
:1053F00060B92046FFF7B1FD0028F5D001464FF215
:105400004300FBF7C3FF04B0BDE8708F00F098FDC8
:10541000002832D121465846FFF7DBFA0028EDD1AB
:10542000019B012B39D102A91A20FFF7E9FA0028C4
:10543000E4D1324641465046FFF782FB0028DDD1D9
:10544000FFF7AAFD002868D14544A945BCD8002330
:105450004EF66020019300F03FFD04E0019B43B94C
:1054600000F06EFD28B92046FFF777FD0028F5D043
:10547000C4E700F065FD00283BD000214FF6FE7028
:10548000FBF784FF04B0BDE8708F01464FF6017052
:10549000FBF77CFF04B0BDE8708F04AE46F8040D46
:1054A000DFF8949031462248FFF793FA0399484673
:1054B00009F1080A01F0F6FB0124DFF8748000E02E
:1054C0000134202C48EA4450A5B21ED000233146B6
:1054D000039305F00305FFF77CFA0399484601F0B2
:1054E000E1FB032DECD12246E11E504601F0DAFB30
:1054F000E6E721460F48FFF76CFA014600287FF4E3
:105500007EAF019B012B3FF47CAF00214FF21200D4
:10551000FBF73CFF04B0BDE8708F01464FF211006D
:10552000FBF734FF04B0BDE8708F01AC8FE700BF1C
:10553000A69B167CA69B767CB4C1000810B5FFF72D
:10554000F5FC01220D21104600F0A0FC01220F21E4
:10555000104600F09BFC01224FF400534FF4004131
:105560000C4C104621610B21636100F08FFC4FF45D
:1055700000636420636100F0D9FC03220B21012049
:1055800000F084FC642000F0D1FCBDE81040FBF783
:1055900079BE00BF000C01402DE9F8434FF480694B
:1055A0008025C8464FF400560D4F0E4CC4F81080AD
:1055B00026613868FCF704FC013D6661F6D1C4F849
:1055C000149026613868FCF7FBFB6661C4F8149000
:1055D00026613868FCF7F4FB66612846BDE8F8836D
:1055E000EC120020000C014088B32DE9F84F002494
:1055F0004FF400590E46A346471E1FFA87F8DFF8FE
:1056000054A0134D08F101084FF40042E30604BF13
:10561000D6F800B004361BF0010F14BF2A616A618E
:10562000A74208BF4FF480624FF4005308BF2A61BD
:105630002B610134DAF80000FCF7C2FBA045AA6830
:105640004FEA5B0BC5F81490DED1BDE8F88F7047C8
:10565000000C0140EC1200204FF400422DE9F84FFD
:10566000254B5A61002844D00024461EB7B20D468F
:105670009A46A3464FF40059013715E01F4BCAF86C
:1056800010901868FCF79CFBDAF8083008F01F014E
:10569000C3F380338B401F294BEA030BCAF81490E5
:1056A0001CD00134A74222D0A6421FFA84F8E5D1CB
:1056B0004FF48063CAF81030104BCAF81090186885
:1056C000FCF77EFBDAF8083008F01F01C3F38033E3
:1056D00003FA01F14BEA010BCAF814900134A74216
:1056E000C5F800B04FF0000B05F10405DCD1BDE8B2
:1056F000F88FBDE8F88F00BF000C0140EC120020CD
:1057000008B502464FF07E511020FBF7E1FD014B3A
:10571000186008BDEC12002010B503220C460120D1
:105720000B2100F0B3FB00220D21012000F0AEFBA5
:1057300000220F21012000F0A9FB00220E210120F0
:1057400000F0A4FB00220A21012000F09FFB0022B0
:105750000921012000F09AFB322000F0E7FB002332
:10576000238010BD012238B510460D460B2100F0F4
:105770008DFB4FF40063184C0520636100F0D6FBED
:1057800001220D21104600F081FB01220F2110465D
:1057900000F07CFB00220E21012000F077FB0122AB
:1057A0000A21104600F072FB01220921104600F088
:1057B0006DFB4FF400434FF400720B212261012076
:1057C0000322636100F062FB4FF4FA7000F0AEFB5D
:1057D000FFF7E2FE288038BD000C014010B50C46F2
:1057E000FFF7DAFE208010BD2DE9F84300230B807F
:1057F00003880646002B37D0012B30D14FF4806848
:105800004FF40055204C214FB0F80290C4F810809E
:1058100025613868FCF7D4FA6561C4F81480256105
:105820003868FCF7CDFA6561C4F8148025613868E2
:10583000FCF7C6FA311D48466561FFF7D5FEC4F88E
:10584000108025613868FCF7BBFA6561C4F81480E4
:1058500025613868FCF7B4FA6561BDE8F8834FF458
:1058600070430B80BDE8F8834FF400554FF4806817
:10587000054C064FB0F80290C4F8108025613868D6
:10588000FCF79EFA6561C1E7000C0140EC120020B4
:105890002DE9F84300230B8042880E4612F00F03D7
:1058A00018BF012303EB121302334B800388002B34
:1058B00037D0012B30D14FF480684FF40055214C84
:1058C000214FB0F80290C4F8108025613868FCF7C9
:1058D00077FA6561C4F8148025613868FCF770FABE
:1058E0006561C4F8148025613868FCF769FA311DD8
:1058F00048466561FFF7B0FEC4F81080256138683E
:10590000FCF75EFA6561C4F8148025613868FCF71D
:1059100057FA6561BDE8F8834FF470430B80BDE82A
:10592000F8834FF400554FF48068064C064FB0F8EA
:105930000290C4F8108025613868FCF741FA65616F
:10594000C1E700BF000C0140EC12002010B44FF67C
:10595000FE74002302683A492240884202600360D4
:1059600043608360C36028D0364B98422CD0364BBE
:1059700098422FD0354B984232D0354B98423BD08D
:10598000344B98423ED0344B984210D0334B98421F
:105990003ED0334B984241D0324B984244D0324BA8
:1059A000984247D0314B984220D010BC7047304AC3
:1059B000536843F070635360F7E72D4A10BC536897
:1059C00043F00F0353607047294A536843F0F003D4
:1059D0005360EAE7264A536843F470635360E4E790
:1059E000234A536843F470435360DEE7214A536807
:1059F00043F470235360D8E71D4A536843F470237F
:105A00005360D2E71A4A536843F470035360CCE7FB
:105A1000184A536843F00F035360C6E7154A5368AA
:105A200043F0F0035360C0E7124A536843F47063D5
:105A30005360BAE70F4A536843F470435360B4E7C6
:105A4000080002401C0002403000024044000240B6
:105A5000580002406C0002408000024008040240EE
:105A60001C04024030040240440402405804024036
:105A700000000240000402408B6830B40C6A0A69DE
:105A800023434C6913438A692343CC694D6A13430A
:105A9000026823438C6A2B4322F4FF42CD682343E0
:105AA00022F070020C68496813430360456084600B
:105AB000C16030BC704700BF002303604360836057
:105AC000C360036143618361C361036243628362B4
:105AD000704700BF40F0BF60024B40F40030D86018
