:020000040800F2
:10000000FC040020A9050008351D0008391D000862
:100010003D1D0008411D0008451D000800000000AE
:10002000000000000000000000000000491D000862
:100030004D1D000800000000511D0008551D00085E
:10004000A5050008A5050008A5050008A5050008E8
:10005000A5050008A5050008A5050008A5050008D8
:10006000A5050008A5050008A5050008A5050008C8
:10007000A5050008A5050008A5050008A5050008B8
:10008000A5050008A5050008A5050008A5050008A8
:10009000591D0008A5050008A5050008A5050008CC
:1000A000A5050008A5050008A5050008A505000888
:1000B00081050008A5050008A5050008A50500089C
:1000C000A5050008A5050008A5050008A505000868
:1000D000A5050008A5050008A5050008A505000858
:1000E000A5050008A50500085D1D0008000000002A
:1000F0000000000000000000000000000000000000
:1001000000000000000000005FF808F1704700BF29
:10011000704700BFF8B504886400402C21D0F4B1CA
:1001200040250646A5422B4624BF2346E5B2E41AE5
:10013000012001F047FC3028FAD0AFB23A463046F1
:10014000C02101F0CBFB3946012001F0A3FC0120C6
:1001500001F042FC05F0FE031E44002CE2D1002019
:10016000F8BD3E25DDE700BF70B5154C256805B12B
:1001700070BD144E0320316801F02AFD636863B13D
:10018000984213D81B1A6360326883B1024432600C
:100190000320BDE8704001F033BC326813885B0077
:1001A000402BA36003DD403B6360EFE76560A3681D
:1001B000054A236032600320BDE8704001F020BC96
:1001C000FC04002000000020900D0020F0B5044643
:1001D00091B05B4800F092FC23896189002B14BF29
:1001E0000020802000294FF00001A288E38814BF7E
:1001F0004FF4006E4FF0000E002A14BF02270027B4
:100200005B1A18BF01234FF482764FF40075226801
:10021000ADF80E004B48ADF804E08242ADF8067030
:10022000ADF80830ADF80010ADF81010ADF8026070
:10023000ADF80A5071D8444B9A4213D8434B9A42B6
:1002400072D8434B9A426BD8424B9A4270D8424B79
:100250009A4271D8414B9A428CBF30233823ADF873
:100260000C3002E00823ADF80C306946344800F049
:100270007BFC0021324800F0AFFC0121304800F047
:1002800093FC002203212E4800F09CFC0121344DF8
:100290000846344C00F0F0FB284600F06FFA204688
:1002A00000F06CFA05A800F01FFB00234FF0800E51
:1002B0004FF480664FF400524FF480770793089311
:1002C00009930D930F93284B05A92846CDF828E0F4
:1002D0000E9205930B970C9600F0E6FA4FF44052FD
:1002E000102305A920460E9207930C9600F0DCFA25
:1002F0002B681E4823F001032B602368012223F0A2
:10030000010323600368032123F408330360A0F58D
:10031000E43000F057FC11B0F0BDADF80C10A4E7CC
:100320001823ADF80C30A0E71023ADF80C309CE793
:100330002023ADF80C3098E72823ADF80C3094E773
:1003400000380040FF1AB7007F8D5B00BFC62D004C
:100350005FE31600AF710B00D7B805006BDC02003D
:1003600044000240580002400C38004000000240A7
:10037000F0B5012187B041F21D0000F089FB012199
:10038000084600F079FB01214FF4804000F080FB2B
:1003900004240121424800F087FB08230DEB0401EF
:1003A0004048ADF804308DF8074000F0B1FA032260
:1003B00018230DEB04013B48ADF804408DF80620EE
:1003C00000248DF8073000F0A3FA0C234FF46122CB
:1003D00002A93548ADF812300292ADF80C40ADF8E4
:1003E0000E40ADF81040ADF8144000F077FC01214C
:1003F0002D4800F0D1FC0121084600F055FB2146B4
:100400004FF0804000F04CFC01214FF0804000F0A4
:1004100061FC01224FF08040114600F059FC1C2184
:100420000123022202A88DF808108DF80B308DF8F8
:100430000A408DF8092000F06FF91C49CB6813F0D1
:10044000807309D1C8681A4A40F08070C860536050
:10045000136843F00103136001F0E6FB0C21022056
:10046000012200F02DF84FF48052124B124D5A61C8
:1004700001F00AFC2F4601F013FC002601F052F9AE
:1004800001F014FF01F0A6FF0C4C2368002BFCD0F8
:100490006B790BB12660F8E7384601F0ADFFF9E75C
:1004A000054002000008014000440040F0ED00E07B
:1004B000001000E000140140900D0020FC0400201A
:1004C000012300B503FA01F183B09A42ADF804109C
:1004D00014D0022A16D0032A14BF042348238DF80F
:1004E0000730032300F580104230800201A98DF807
:1004F000063000F00DFA03B05DF804FB10238DF810
:100500000730EEE728238DF80730EAE730B5002101
:1005100085B004464FF0804000F0C2FB00254BF64A
:100520008032102301A9013C4FF08040ADF8042037
:10053000ADF80630ADF80840ADF80A5000F05AFBAF
:1005400001214FF0804000F0C5FB044B01214FF02A
:1005500080401D6000F0A4FB05B030BD0805002000
:1005600008B5FFF7D3FF024A1368002BFCD008BD83
:1005700008050020014B1868704700BF08050020DF
:1005800008B500214FF0804000F08AFB01214FF0B8
:10059000804000F09FFB0122014B1A6008BD00BFA4
:1005A00008050020FEE700BF08B5104A104B934233
:1005B0000CD2D843104420F0030004300D4A1844F4
:1005C00052F8041B43F8041B8342F9D10A480B4933
:1005D0004FF000028842B8BF40F8042BFADB00F06D
:1005E0000FF8BDE80840FFF7C3BE00BFFC000020C5
:1005F00000000020B8660008FC04002080160020DF
:1006000030B400244FF41F053A4B3B49186882B0C0
:1006100040F00100186058681A4601405960196896
:1006200021F0847121F480311960196821F480214E
:100630001960596821F4FE0159609D60009401948D
:10064000196841F48031196003E0009BB3F5A06F95
:1006500009D0136803F400330193009B0133009326
:10066000019B002BF1D0234B1B6813F4003318BF00
:1006700001230193019B012B06D04FF000621F4B19
:100680009A6002B030BC70471D491A4B08681A4680
:1006900040F010000860086820F007000860086853
:1006A00040F00100086059685960596859605968FC
:1006B00041F480615960596821F47C11596059688E
:1006C00041F488115960196841F08071196013680C
:1006D0009B01FCD55368074923F00303536053681B
:1006E00043F0020353604B6803F00C03082BFAD16C
:1006F000C3E700BF001002400000FFF800ED00E07B
:100700000020024040F0BF60024B40F40030D8604F
:10071000704700BF00ED00E0C3785BB901210378AA
:1007200014485A0903F01F03203201FA03F340F87A
:1007300022307047104B0F21DA6870B4D243012485
:1007400085784378C2F30222C2F1040621FA02F24C
:100750002A40B34001781343064A1B0101F01F05EC
:100760005018DBB2AC4080F80033490942F8214010
:1007700070BC704700E100E000ED00E010B44FF6FF
:10078000FE74002302683A492240884202600360F6
:1007900043608360C36028D0364B98422CD0364BE0
:1007A00098422FD0354B984232D0354B98423BD0AF
:1007B000344B98423ED0344B984210D0334B984241
:1007C0003ED0334B984241D0324B984244D0324BCA
:1007D000984247D0314B984220D010BC7047304AE5
:1007E000536843F070635360F7E72D4A10BC5368B9
:1007F00043F00F0353607047294A536843F0F003F6
:100800005360EAE7264A536843F470635360E4E7B1
:10081000234A536843F470435360DEE7214A536828
:1008200043F470235360D8E71D4A536843F47023A0
:100830005360D2E71A4A536843F470035360CCE71D
:10084000184A536843F00F035360C6E7154A5368CC
:1008500043F0F0035360C0E7124A536843F47063F7
:100860005360BAE70F4A536843F470435360B4E7E8
:10087000080002401C0002403000024044000240D8
:10088000580002406C000240800002400804024010
:100890001C04024030040240440402405804024058
:1008A00000000240000402408B6830B40C6A0A6900
:1008B00023434C6913438A692343CC694D6A13432C
:1008C000026823438C6A2B4322F4FF42CD68234302
:1008D00022F070020C68496813430360456084602D
:1008E000C16030BC704700BF002303604360836079
:1008F000C360036143618361C361036243628362D6
:10090000704700BF014B5861704700BF00040140B1
:100910002DE9F041CD78EB0648BF8B78098805F0CA
:100920000F0E48BF4EEA030E11F0FF0F20D0002338
:1009300001274FF00F08066802E00133082B16D09C
:1009400007FA03F232EA0104F7D19C0008FA04FC2A
:1009500026EA0C060EFA04F4282D46EA040632D0E4
:10096000482D03F1010308BF0261082BE8D106609E
:10097000FF2924D90022082301274FF00F084668D9
:1009800004E00133102B02F1040217D007FA03F43C
:1009900034EA010CF5D108FA02FC26EA0C06282DEF
:1009A0000EFA02FC4CEA06060BD0482D03F10103B7
:1009B00008BF0461102B02F10402E7D14660BDE8D4
:1009C000F0814461DDE74261B7E700BF0161704734
:1009D00041617047014B1860704700BFD800424228
:1009E000214A10B4536803F00C03042B06D0082BE3
:1009F00025D01BB11D4A1346026001E01B4B03606A
:100A000019491B4A4C68C4F30314145DE340436066
:100A10004C68C4F30224145D23FA04F484604C6827
:100A2000C4F3C224145DE340C360496810BCC1F341
:100A300081310A44127CB3FBF2F3036170475368BF
:100A40005168C3F38343C90303F1020307D5526816
:100A5000920304D4054A02FB03F30360D0E7054A7E
:100A600002FB03F30360CBE70010024000127A00A0
:100A70000400002000093D00044A536919B923EA23
:100A800000005061704718435061704700100240E9
:100A9000044A936919B923EA00009061704718432A
:100AA0009061704700100240044AD36919B923EAE3
:100AB0000000D06170471843D061704700100240B9
:100AC000044AD36819B923EA0000D060704718437C
:100AD000D060704700100240044A136919B923EA34
:100AE0000000106170471843106170470010024009
:100AF000014B1870704700BF0710024008B5174B34
:100B0000984212D0164B98421BD0164B984200D0F8
:100B100008BD01214FF40040FFF7DEFFBDE80840AB
:100B200000214FF40040FFF7D7BF01214FF4805060
:100B3000FFF7C6FFBDE8084000214FF48050FFF7E3
:100B4000BFBF01214FF48040FFF7C6FFBDE808405A
:100B500000214FF48040FFF7BFBF00BF00300140CD
:100B600000380040003C00404A880B8830B48C8834
:100B70001343CA8823430C8913434A898D8923432D
:100B80001343CC8902882B43234302F4415213437D
:100B90009BB20380838B0A8A23F400631B041B0C23
:100BA000838330BC02827047038829B923F0400355
:100BB0001B041B0C038070479BB243F0400303806F
:100BC000704700BF83889BB21AB923EA0101818074
:100BD0007047194381807047038829B923F4005373
:100BE0001B041B0C038070479BB243F4005303802B
:100BF000704700BF274A038890429BB212D002F58B
:100C0000006290420ED0B0F1804F0BD0A2F5983226
:100C1000904207D002F58062904203D002F58062D4
:100C2000904203D14A8823F0700313431A4A90423A
:100C300027D002F58062904223D070B423F4407331
:100C4000CE888D880C889BB202F58C32334390425B
:100C50000380858504850ED0104B98420BD003F598
:100C60004063984207D003F58063984203D003F5B0
:100C70008063984201D10B7A0386012370BC838282
:100C8000704703808B8883850B88038501238382CB
:100C9000704700BF002C01400010004000340140AC
:100CA000038829B923F001031B041B0C0380704740
:100CB0009BB243F001030380704700BF83899BB25E
:100CC0001AB923EA01018181704719438181704774
:100CD000FFF7F4BFC94389B20182704770B50D4672
:100CE0000446038ACA889BB223F44053134389897C
:100CF00003828289AE8822F4B05323F00C031B04D4
:100D000028891B0C6A893343034313439BB2A38195
:100D1000A38A86B09BB223F440730B4301A8A3823D
:100D2000FFF75EFE04991A48039BA289844208BF1C
:100D30000B4612F4004F2A6803EB830314BF5200E2
:100D4000920003EB8303B3FBF2F36422114DA189FC
:100D5000A5FB0360400902FB10330A044FEA0010B0
:100D60000AD41B013233A5FB0323C3F3431303430C
:100D70009BB2238106B070BDD9003231A5FB013191
:100D8000C1F3421242EA00039BB2238106B070BD58
:100D9000003801401F85EB51838929B923F40053A2
:100DA0001B041B0C838170479BB243F40053838167
:100DB000704700BF0388194214BF0120002070470C
:100DC00008B538B1064B1B681B689847054B186877
:100DD0000A3008BD0122034B1B681A8208BD00BF00
:100DE000BC150020C015002008B538B1064B1B68A3
:100DF0009B689847054B18680C3008BD0122034BCF
:100E00001B681A8208BD00BFBC150020C015002059
:100E100008B5002833D000211E4B1F481A680180F6
:100E2000137813F07F0316D0012B27D0022B24D187
:100E3000527902F00F039B0003F1804303F5B8439E
:100E400012061B6820D403F44053B3F5805F0ED123
:100E5000012303700BE0527A93064CBF0223037800
:100E600051064CBF43F0010323F0010303700B4B09
:100E70001B681B699847084808BD084608BD022240
:100E8000044B1B681A8208BD03F03003102BEED10F
:100E9000DEE700BFC015002090150020BC15002023
:100EA0002DE9F041244F3D682C8A2CB92E7A042E6E
:100EB0002BD0AB8A042604E0AB8A9C428CBF02266E
:100EC00004269C4228BF1C46AB69204698478046B2
:100ED000002000F041FE22460146404600F0FEFCA4
:100EE0002146002000F0D6FD30204FF440522B8ADE
:100EF000698A1B1B2B820C44104B11496C820880A1
:100F00003D681A802E72BDE8F0810E4B1A78012AD6
:100F100006D0102207260A4B1A802E72BDE8F081F7
:100F200030270949094A0968054889B20A4452002C
:100F300014601C700780E5E7C0150020C61500206E
:100F4000C81500200C050020505C00400230002035
:100F50000B4B0C4A1B685178DA78914201D202207F
:100F6000704799780029FAD110B59C880CB10220FD
:100F700010BD05499A720B685B689847204610BD02
:100F8000C0150020F8000020BC15002010B5114A43
:100F9000114C1268236882B0D978587993699847C0
:100FA00023689A7A12B9022002B010BD0028FAD143
:100FB0001A79002AF7D19B78002BF4D1074B0190C6
:100FC0001B68DB689847236801985979DA78D972E9
:100FD0001A73E9E798150020C0150020BC15002001
:100FE00038B5344B1B68187810F07F0003D0022806
:100FF00006D0022038BD5A7A22F020025A7238BD3B
:101000005A88002AF6D11A79002AF3D158792A4D44
:1010100044B220F08000810001F1804202F5B84224
:1010200012682D78002CB4BF02F0300202F4405256
:10103000A842DED2002ADCD09B7A002BD9D0002C2B
:101040000FDB01F1804404F5B844236803F44053F6
:10105000B3F5805F17D0194B1B685B699847002078
:1010600038BD01F1804101F5B8410B6803F0300350
:10107000102BF0D1C4B2204600F0FAFC20463021FB
:1010800000F06CFCE7E790B90D4B93F82C1000F0E2
:101090000FFD236823F4804323F070039BB283F495
:1010A000405343F4004343F080032360D3E700F050
:1010B000CDFCEEE7C0150020F8000020BC15002094
:1010C0007400002038B5234B234D19682D784B79D7
:1010D0005CB223F08003980000F1804202F5B84230
:1010E0001268002CB4BF02F0300202F44052AB424E
:1010F00001D3022038BD4B88002BFAD1002AF8D04A
:101100008B7A002BF5D000F1804000F5B840002C20
:10111000036811DB23F4804323F070039BB283F454
:10112000805343F4004343F0800303600B4B1B6880
:101130009B699847002038BD23F4E04323F0400327
:101140009BB283F0100343F4004343F08003036039
:10115000ECE700BFC0150020F8000020BC150020FF
:10116000054B1B685A8A10B108681044704789887B
:101170008A1A1A82704700BFC015002010B50C4BA8
:10118000002093F82C1000F093FC0A4B1B68187A8F
:10119000082806D14FF4805410220749074B0C80D1
:1011A0001A80A0F10900B0FA80F0400910BD00BF1C
:1011B00074000020C0150020C6150020C8150020AE
:1011C00070B5A84EA84B34681A68237A82B0092BF0
:1011D0003CD0A64B92B213445B001D886D0005F114
:1011E000804505F5C0452B7823706B786370A8881F
:1011F00000F0D6FC60802889346800F0D1FC012220
:10120000A080AB893468E380227223B3607806281B
:1012100000F0858000283AD16188002900F095808F
:10122000934D2B681B699847032800F0E5804FF623
:10123000FF723468238A934200F08580022836D1F9
:1012400008232372FFF79AFF02B070BD0122E388E2
:101250002272002BDAD12278657812F07F0236D024
:10126000012A00F0BC80022A00F0DF80804B284673
:101270001B685B699847032800F00F8134680028D9
:1012800040D008232372FFF779FF02B070BD082811
:101290006DD123785B06C3D1764B0020A3616082B9
:1012A00098474FF6FF723468238A93424BD0002B45
:1012B000C6D094F90020002A7CDB03214FF4405271
:1012C0006D4B21721A80FFF759FF02B070BD092DD6
:1012D00000F0C580052D00F09680032D00F0AD8054
:1012E000012DC3D1E278012AC0D1A288002ABDD144
:1012F000627A9206BAD5614A5360FFF771FE002800
:10130000B4D1346800253020574A5D4B12685D49DE
:1013100092B213445B001D6006230880B2E7237875
:101320005D067FF47DAFA378514D012B00F0B280B4
:10133000022B65D0032B7FF474AF2B685B6A002B04
:10134000ABD106206DE709239CE7636823F47F4354
:10135000B3F5003F7FF464AF207810F07F0040F0D9
:101360009F80A388002B7FF45BAF474B95E70A284B
:101370007FF456AF237803F07F03012B7FF450AF47
:10138000A37A002B3FF44CAF618800297FF448AF6B
:101390006368374D23F47F43B3F5803F7FF441AF5B
:1013A0002B6860799B699847002840F0B8803468C2
:1013B000364B72E7E288019201998B4215D89A4226
:1013C00074D92B4A126892F82C108AB29A4272D9B8
:1013D00000212A4B1970A282FFF762FD53E70B2D03
:1013E0007FF444AFFFF7D2FD89E7214B019A1B68D8
:1013F000228293F82C20EEE7092233681A7242E722
:101400002B681B6A9BE794F90330002BFFF639AF7A
:10141000A378002B7FF435AFA388002B7FF431AF86
:10142000A37A002B3FF46EAF2BE7012D67D0032D7D
:101430007FF41CAFFFF746FE61E7E378012B7FF4F2
:1014400015AFA388002B7FF411AF637A104A43F0E5
:10145000200312686372D3699847346852E7FFF734
:1014600077FD4CE7C0150020505C004004300020A0
:1014700098150020C10D0008C61500200C0500209D
:1014800002300020C8150020110E0008E90D0008E8
:10149000BC1500202B68DB6951E734680923F1E6AD
:1014A00001282FD0022810D00020B9E61D4B1B6860
:1014B00093F82C208FE793FBF1F001FB1033002B06
:1014C00089D10121184B197085E7607900F00F026E
:1014D0009300010603F18043144903F5B8431B68E8
:1014E00009784CBF03F0300303F440538A42DBD247
:1014F00010F07000D8D1002B7FF437AF90E6FFF7E3
:101500006FFDFCE6074D60792B689B69984730B901
:101510003468A37A002B7FF428AF607881E63368C3
:1015200058787EE6981500200C050020F800002071
:10153000F8B53B4D2C68237A022B07D0042B05D03D
:10154000032B09D0052B07D0072B37D00823237294
:10155000BDE8F840FFF712BEA369228ABBB1002A9A
:1015600033D0A68A964228BF164630469847228A2C
:10157000638A921B3344074622826382002000F074
:10158000FBFA32460146384600F0BCF9228A0AB31B
:1015900000214FF44052234B08461A8000F07AFA9B
:1015A0003022238AA18A204E994232802A6834D977
:1015B000002B30D0052314461372C8E71B4B1B6861
:1015C000DB6898472C680823C1E7A38A33B9032353
:1015D0002372BCE7A38A2C68002BF8D0124E062297
:1015E000124B22721B689B6898472C68237A082B41
:1015F0000AD0002530200E490E4A096889B20A44F3
:10160000520015603080A2E74FF480501022054947
:10161000088032809BE71446E1E71446D7E700BF15
:10162000C0150020C6150020C81500209815002000
:10163000505C004002300020F8B5234C23681A7A31
:10164000022A17D0042A15D0062A05D008221A72B9
:10165000BDE8F840FFF792BD5A78052A13D01B4B1E
:101660001B689B689847082223681A72BDE8F840F7
:10167000FFF784BDFFF714FC23681A7A1A72BDE8DD
:10168000F840FFF77BBD1A7812F07F02E7D11049CE
:1016900093F803E00D7875B140F60F7748F28006B5
:1016A0000C490B6842EA06003B4001320343954275
:1016B00041F8043BF5D10849084A4EF080030B601D
:1016C00013681B6A9847CAE7C015002098150020C8
:1016D000F8000020005C00404C5C0040BC1500207D
:1016E000F0B40C4B1D787DB1002240F60F7748F224
:1016F000800609490B6842EA06043B400132234355
:10170000954241F8043BF5D1044B40F0800018604D
:10171000F0BC7047F8000020005C00404C5C0040CA
:10172000704700BF70B40226064A074D074C084BAD
:1017300008490948167223602A601B68086070BC5B
:10174000184700BFA0150020C015002098150020E4
:1017500074000020BC150020D400002000232DE9D7
:10176000F047564E84B0DFF86C91DFF86C81544F2F
:10177000ADF80E30D9F80030524C99B21B04524DDE
:10178000524A318040F18E80338803F00F03990074
:1017900001F1804101F5B84188F80030002B30D1CB
:1017A0004BF6BF7A23689BB22B802B8803F0300363
:1017B00013802B8803F440532B80236803EA0A0329
:1017C00083F4005383F0200343F4004343F0800389
:1017D00023603388D8063CD523689BB2ADF80E3021
:1017E000BDF80E30190560D4BDF80E301B04C1D50C
:1017F00040F68F71236801920B402360FFF798FE3B
:101800002FE00A6892B2ADF80E20BDF80E20100449
:1018100014D4BDF80E301A06ACD548F60F7098F8FF
:101820000020930003F1804303F5B8431968013A9F
:10183000014057F82220196090479BE740F68F74CB
:101840000A6823482240013B50F823300A60984739
:10185000DFE748F60F71236801920B402360FFF722
:10186000EBFE2368298803EA0A0A019A2B8811F4FF
:10187000805F18BF8AF4805A9E04138848BF8AF498
:10188000005ADD06138848BF8AF0100A9C0648BF3C
:101890008AF0200A4AF4004A4AF0800A094A1FFAEC
:1018A0008AF3136004B0BDE8F08740F68F712368B7
:1018B00001920B402360FFF783FCD2E7CA1500209A
:1018C00050000020005C0040C6150020C815002014
:1018D00034000020445C00409C150020013252106E
:1018E0000ED0002310B401F1005101F54051490020
:1018F00030F8024B21F8234001339A42F8D110BC52
:10190000704700BF01F10051013201F54051521002
:101910004FEA410105D051F8043B013A20F8023B5F
:10192000F9D17047014B1860704700BF445C00401C
:101930004FF6F873014A034013607047505C004053
:10194000800000F1804000F5B840036823F4EC43C8
:1019500023F07003194389B201607047800000F1E1
:10196000804000F5B8400368CA0623F4E04323F042
:1019700040039BB248BF83F010038A0648BF83F040
:10198000200343F4004343F080030360704700BF2B
:10199000800000F1804000F5B8400368CA0423F4D9
:1019A000804323F070039BB248BF83F480538A04C2
:1019B00048BF83F4005343F4004343F080030360C3
:1019C000704700BF800000F1804000F5B84000681B
:1019D00000F03000704700BF800000F1804000F54B
:1019E000B840036823F4E04323F040039BB283F044
:1019F000300343F4004343F080030360704700BFAB
:101A0000800000F1804000F5B840036823F4804373
:101A100023F070039BB283F4405343F4004343F03C
:101A200080030360704700BF40F60F63800000F141
:101A3000804000F5B8400268134043F4004343F08F
:101A400080030360704700BFFFF7EEBF800000F126
:101A5000804000F5B84003685B0408D540F60F727B
:101A60000368134043F4404343F08003036070472E
:101A7000800000F1804000F5B84003685B0608D59F
:101A800040F60F720368134043F4004343F0C00371
:101A900003607047044A054B126892B202EBC00023
:101AA00003445B0019607047505C00400230002026
:101AB0000E4A0F4B12683E2992B202EBC00003445B
:101AC0004FEA43030AD94A09C80604BF02F1FF32AC
:101AD00092B2920242F400421A6070474A08C90763
:101AE00048BF013292021A60704700BF505C00404C
:101AF00006300020064B49081B6849009BB203EBE7
:101B0000C00000F1005000F54050400001607047F7
:101B1000505C0040FFF7EEBF054A064B12684908CB
:101B200092B202EBC002134449005B001960704797
:101B3000505C004004300020FFF7EEBF054B1B68EF
:101B40009BB203EBC00000F1005000F54050400094
:101B500000887047505C0040FFF7F0BF044A054B17
:101B6000126892B202EBC00003445B001888704711
:101B7000505C004004300020FFF7F0BF054A064BE0
:101B8000126892B202EBC00003445B001868C0F315
:101B900009007047505C004006300020FFF7EEBFA0
:101BA000C3B2000A40EA0320704700BF00204FF490
:101BB0003F4310B40349044C044A20600B8010BC1E
:101BC00013607047C4150020445C0040405C004036
:101BD00070B500F07F0528460E46FFF7DFFF04468C
:101BE0002846FFF7C9FF224601463046FFF78AFE26
:101BF000204670BDB2B1002370B41E46541EE4B23C
:101C000001346400020F092A02F1300586BF373221
:101C1000CA54CD54CA1802339C424FEA0010567081
:101C2000F0D170BC704700BF10B5012182B0042014
:101C3000FEF72EFF03244FF4C052182301A91048C9
:101C4000ADF804208DF807308DF80640FEF760FEF1
:101C500001217C20FEF71CFF4FF40072142301A920
:101C60000848ADF804208DF807308DF80640FEF7DF
:101C70004FFE01212020FEF70BFF02B010BD00BF78
:101C8000000801400014014008B50120FEF7A2FE43
:101C9000BDE8084001214FF40000FEF705BF00BF7A
:101CA00010B54FF4A06082B0FEF72CFD0124142281
:101CB000002301A88DF804208DF805308DF806303A
:101CC0008DF80740FEF728FD2A2301A88DF805406E
:101CD0008DF80430FEF720FD02B010BD4FF4007106
:101CE00010B90348FEF772BE0148FEF771BE00BF8F
:101CF000001401400A4A0B4B10681B68C01800D141
:101D0000704710B5084B08221C680849FFF772FF9E
:101D10002046BDE8104004220549FFF76BBF00BF15
:101D2000E8F7FF1FF0F7FF1FECF7FF1F1A00002076
:101D30002A000020704700BFFEE700BFFEE700BF9B
:101D4000FEE700BFFEE700BF704700BF704700BF5F
:101D5000704700BF704700BF00F004B84FF4802008
:101D6000FEF7D0BD574930B50B68574C9BB2574D65
:101D7000238022882B8889B01A40920554D4228867
:101D80001A4010044CD4228802F4806213423ED1DF
:101D9000228802F40052134203D04DF6FF71494AE3
:101DA0001160228802F48052134227D1228802F463
:101DB000006213420AD0464B1B78E3B9022000F0C0
:101DC000FFF94FF2FF723F4B1A602B88228802F412
:101DD000807213420DD04FF6FF613A4A3D4B1160BD
:101DE0001B6819042CD400223B4B5A60072000F0DA
:101DF000E7F909B030BD00F0A1F9E2E74EF6FF7255
:101E0000304B00201A6000F0DBF92B88CEE74FF64C
:101E1000FF312C4A314B11605B6898472B88B7E73C
:101E2000FFF79CFC2B88AEE74FF6FF532A4A0B6066
:101E300013780133DBB21370FEF76AF92B889EE743
:101E400025494B6801334B604B68032BCED952F8C0
:101E5000043C043A13F00803C8D11268204892B237
:101E60008A6050F8042B08AC04EB8304013392B26F
:101E7000082B44F8202CF4D18B681A4843F0010356
:101E80008B608B680F4A9BB203608B6823F0010361
:101E90008B608B689BB2036013685B05FCD54FF6C3
:101EA000FF3400230E48146008AA02EB830252F8A4
:101EB000202C013392B2082B40F8042BF4D10023DC
:101EC0004B6093E7445C0040CA150020C415002015
:101ED000FA000020485C0040140500207400002037
:101EE000005C0040405C0040034B9B7A13B105222C
:101EF000024B1A60704700BFA01500202805002083
:101F00000422014B1A60704728050020034B1A7801
:101F1000202A04BF00221A70704700BF200500204D
:101F2000704700BF212804D02028034611D002208A
:101F300070470F4B1A68137803F07F03212BF6D1FB
:101F40000C4910B5002491615482204688472046F0
:101F500010BD074A1268117801F07F01212903D0D2
:101F6000054A022013707047034804490370E8E7EC
:101F7000C0150020CD1F000820050020B51F000857
:101F8000074B1B681B7803F07F03212B01D0022035
:101F9000704700F0DF00022814BF022000207047C5
:101FA000C015002009B10220704701288CBF022013
:101FB0000020704708B1034870470822024B1B6895
:101FC0001A8270476C000020C0150020FFF7F2BF96
:101FD00010B50024FFF78EFE044B1B689C7200F0C6
:101FE00095F8FFF7E3FD024B1C6010BDC015002003
:101FF0002805002010B50024324B334A1B68D279E3
:102000009C725A72DC722046FFF792FC20464FF415
:102010000071FFF795FC20461021FFF79FFC20463A
:102020004021FFF789FD80212046FFF773FD204600
:10203000FFF70AFD254B204693F83410FFF738FDD3
:102040002046FFF7DDFC21460120FFF779FCC02187
:102050000120FFF75FFD20210120FFF77FFC2146D3
:102060000120FFF795FC4FF4C0610220FFF768FCE8
:102070004FF480710220FFF74DFD21460220FFF74B
:1020800087FC20210220FFF769FC21460320FFF78F
:1020900057FC4FF488710320FFF74EFD40210320C9
:1020A000FFF706FD4FF440510320FFF771FC214676
:1020B0000320FFF753FC2046FFF712FB0122044BDD
:1020C0001A6010BDC0150020606600086C0000207A
:1020D000280500200149FFF743B800BFA4000020F5
:1020E0000149FFF73DB800BFAC000020054B1B685D
:1020F000DB78032B04D8044901EBC301FFF730B8A8
:1021000000207047C0150020B400002070B50120E9
:10211000FFF7E4FD00240123064D074E2B60204607
:1021200034802C60FFF7FEFB4FF4E05320463380F1
:102130002B6070BD405C0040C415002000231C4A89
:1021400070B414681B491C48A4B251F8042B92B215
:1021500040F823200133082BF7D144F4806124F0A8
:1021600001050C46124BADB245F4806641F0010109
:10217000124A1C6019601E6013685B05FCD54FF69F
:10218000FF3400230B49146050F82320013392B22E
:10219000082B41F8042BF7D1054A45F481651560F9
:1021A000136870BC9BB243F004031360704700BF18
:1021B000405C0040005C0040D0150020445C0040C2
:1021C000314B0728F0B418BF18701A78052A54D874
:1021D000DFE802F017274D3741035A78013AD2B2AF
:1021E0005A705A7802F0FF014AB94FF6EF7206258D
:1021F0002648274C0668324002601D702160F0BC02
:102200007047234A1268002A3BD14FF6FB714FF406
:102210003F4406201D4A156829401160146018705B
:10222000EDE74FF6FB714FF43F4604250124174AB2
:10223000174817683940116016601D700460F0BCC3
:1022400070475A78013AD2B25A705A78002AD6D1D9
:1022500004221A70D3E705240A200C490A6892B2B6
:1022600042F010020A601C705870F0BC70470221E6
:1022700003225970F0BC1A7070470622F0BC1A7025
:10228000704705221A70BAE7CC150020405C004068
:102290002405002000230B80704700BF4FF201038C
:1022A0000B8070474FF470430B80704708B50222D3
:1022B0000C210120FEF704F9002209210120FEF77C
:1022C000FFF800220A210120FEF7FAF800220F2170
:1022D0000120FEF7F5F800220E210120FEF7F0F8AC
:1022E00000220D210120FEF7EBF8BDE80840002296
:1022F0000B210120FEF7E4B838B50C46054611461F
:102300000C4804F063F8214603F0ACFF044628466D
:1023100003F050FF05460146204604F041F930B96C
:102320002946204603F094FE04F062F938BD0120EE
:1023300038BD00BF001B374C70B50D4600224FF46E
:10234000A9710726164B174CC3F80600C3F80A50AC
:1023500018461E8059809A802260FDF7DBFE4FF4FC
:10236000FA60FEF7D3F802E0FEF704F910B923682B
:10237000002BF9D0206888B10B486D08028803351E
:10238000AA4209D14288012A06D182880630B2F5D4
:10239000A97F18BF002070BD002070BD70BD00BFB8
:1023A0008C050020FC040020900D002070B4042651
:1023B0004FF480750024054B054A98801E805D808F
:1023C0001460184670BCD980FDF7A4BE8C050020AF
:1023D000FC040020054A064806491346D0633C32F7
:1023E00043F8041B9342FBD1704700BF2C0500202B
:1023F000A08601009D2200082DE9F047924F01239D
:102400003C46DFF85092468824F8023B051D09F14E
:102410003C080223A3802B88013B702B00F25481DF
:10242000DFE813F0B900520152015201520152018A
:102430005201520152015201520152015201520104
:1024400052015201B300AD00A700A1009B0095000E
:1024500052015201520152015201520152015201E4
:1024600052015201520152015201520152015201D4
:1024700052015201520152015201520152015201C4
:1024800052015201520152015201520152015201B4
:1024900052015201520152015201520152015201A4
:1024A00052014101310152015201520152015201C6
:1024B0005201520152015201520152015201520184
:1024C00052014801FD001E01520152015201520108
:1024D0005201520152015201520152015201520164
:1024E00052010601260152015201520152015201CC
:1024F0005201520152015201520152015201520144
:1025000052018E0071006B88022B00F0EE804FF2BA
:10251000020363800323A3802A88013E22803A8835
:10252000B6B21A443A80002E00F0D3806288002AA6
:1025300040F0CF806A8804EB430405EB420568E76E
:10254000EB8801335B08E2D0D9F8343069E06B885E
:10255000022BDCD1D9F8143063E06B88022BD6D182
:10256000D9F810305DE06B88022BD0D1D9F80C304F
:1025700057E06B88022BCAD1D9F8043051E06B8840
:10258000022BC4D1D9F808304BE06B88022BBED1A6
:10259000D9F8003045E02D492D4A2E4BC9F83C10A2
:1025A00043F8042B4345FBD12B4A2A4B43F8042B19
:1025B0004345FBD1002363806B88284A062BC9F86A
:1025C0003820A4D1A868AB88C9F83C00232B00F2BE
:1025D0006181DFE813F0DB00AC005F01360124010C
:1025E0005F015F015F015F015F015F015F015F01EB
:1025F0005F015F015F010D015F015F015F015F012D
:102600005F015F015F015F015F015F015F015F01CA
:102610005F015F015F015F010901A8008D00D9F82A
:102620002830A11C281D9847A38801339BB272E76C
:102630006B88042B7FF46BAFEB88002B3FF467AF04
:10264000D9F81C30EDE700BF8C050020A086010002
:102650009D2200082C050020A522000895220008D4
:102660006B880C2B3AD04FF202036380BDE8F087F1
:102670006B88042B7FF64BAFEB88002B3FF447AF02
:10268000D9F81830CDE76B88062B7FF640AF298943
:10269000063B01F0010202EB510293427FF437AF97
:1026A000D9F82030BDE76B88062B7FF430AFD9F81E
:1026B0002430B6E76B88062BD5D1794BA11C281D99
:1026C000DB6ABDE8F04718474FF47042032362808D
:1026D00021E77448BDE8F047FDF71CBD704BA11C15
:1026E000281D1B6BBDE8F0471847D9F8383098E72C
:1026F00003F060FD032103F06BF86B496B4AC9F8E6
:102700000810C9F820206A496A4AA388C9F8241029
:10271000C9F818206849694A01339BB2C9F81C10EE
:10272000C9F83420F7E603F045FD0221E3E703F0A2
:1027300041FD01F019FA624A6249C9F80020624A73
:10274000C9F80410C9F80C206049614AC9F814108E
:10275000C9F838205F49604AC9F82010C9F8242018
:102760005E495F4AC9F82810C9F82C205D495E4AC5
:10277000A388C9F81810C9F81C205C495C4A0133C9
:102780009BB2C9F83410C9F83020C4E603F012FD3A
:1027900001F0CCFE5749584AC9F800105749C9F80A
:1027A0000820C9F81020C9F80410554A5549C9F83D
:1027B0002020C9F81410544A5449C9F82820C9F8EF
:1027C0002410534A5349A3885348C9F82C10C9F818
:1027D00018205249524A01339BB2C9F80C00C9F87B
:1027E0001C10C9F8302096E603F0E4FC012182E7D2
:1027F00003F0E0FC02F0BCFA4A4A4B49C9F8002059
:102800004A4AA388C9F80810C9F804204849494A27
:1028100001339BB2C9F81810C9F81C207BE603F0FD
:1028200001FB4549454AA388C9F80010C9F80420AE
:102830004349444A01339BB2C9F82010C9F8242007
:1028400069E603F0B7FC00F09BF93F4A3F49C9F83D
:1028500000203F4AC9F80410C9F808203D493E4A03
:10286000C9F80C10C9F838203C493D4AC9F8201075
:10287000C9F824203B493C4AA388C9F82810C9F864
:102880002C203A493A4A01339BB2C9F81810C9F8CA
:102890001C2040E64FF47043638003233BE600BFF7
:1028A0002C0500208C050020F55700084D5C000821
:1028B000DD5B0008AD5A000809590008B15C00084A
:1028C000CD3A0008D93A0008493B0008553B0008BA
:1028D000713F0008213C00087B3C0008FD3C0008DB
:1028E000113D0008A93B0008E53B0008D53D000864
:1028F0003D3E0008DD430008E94300088944000824
:10290000F9450008F9440008C94600084D4600088A
:10291000E547000815470008ED4400082548000871
:1029200065480008894D00084D4E0008D54D000847
:10293000594E0008014F0008055F0008CD5E0008F1
:10294000195F0008955F0008A12C0008B12C000851
:10295000BD2C0008C131000805320008E92D00082F
:10296000A52F000819310008352D00085531000841
:1029700089310008044B1B681A681968891A81425A
:10298000FBD47047041000E08429000808B5032236
:102990000B210120FDF794FD00220D210120FDF700
:1029A0008FFD4FF400514FF40062024B19611A6120
:1029B00008BD00BF000C014010B5FFF7E7FF012282
:1029C0000B211046FDF77CFD4FF400630D4C3220C7
:1029D0006361FDF7C5FDFFF7D9FF4FF4FA70FDF70E
:1029E00095FD02E0FDF7C6FD10B9A3681B05F9D5FA
:1029F000044B4FF211009B6813F4006F18BF0020C6
:102A000010BD00BF000C0140082370B50025104C1C
:102A10000E4620602279237163796571A37920467F
:102A2000A571E379E57100F005FC10232660227999
:102A3000237163796571A3792046A571E379E57106
:102A400000F0F8FB034B1868FFF794FF284670BDB1
:102A5000F01500206C0500206FF03702F8B5002556
:102A60000823164C07462078227062786570A27899
:102A7000A570E278E5702279237163796571A37995
:102A80002046A5710E46E379E57100F0D3FB1023D3
:102A90002279237163796571A3792046A571E37961
:102AA000E571276000F0C6FB2046266000F0C2FBFF
:102AB000034B5868FFF75EFF2846F8BDF01500206D
:102AC0006C0500206FF0170270B500250823164C26
:102AD00006462178227062786570A278A570E27847
:102AE000E5702279237163796571A3792046A57118
:102AF000E379E57100F09EFB1023266022792371B3
:102B000063796571A3792046A571E379E57100F0D9
:102B100091FB064B5868FFF72DFF204600F0C4FBE1
:102B2000206880B270BD00BFF01500206C05002049
:102B300038B508230025104C206022792371637971
:102B40006571A3792046A571E379E57100F072FB08
:102B50000A4B9868FFF70EFF1023227923716379DF
:102B60006571A3792046A571E379E57100F09CFBBE
:102B7000206880B238BD00BFF01500206C05002031
:102B80004FF0FF322DE9F84F4FF00F0A05460121B3
:102B9000102704204FF00C0E4FF0080C40230026A5
:102BA0006FF01F094FF01408364C94F818B02276D5
:102BB00094F819B0627694F81AB084F81AA094F8D0
:102BC0001BA084F82C00E2762077A17784F82210ED
:102BD00084F8261084F82A102A464FF0814138469E
:102BE00084F828C084F81DE084F821E084F825E00A
:102BF00084F829E0E37784F8233084F8273084F8D8
:102C00002B3084F82F9084F8208084F82D7084F87D
:102C1000247084F82E60FFF76FFB03462A461A499A
:102C20001320A360FFF768FB03462A46174938467E
:102C3000E360FFF761FB03462A4615491120236133
:102C4000FFF75AFB03462A46124930466361FFF7F5
:102C500053FB114C2A4660604FF085413046FFF728
:102C60004BFB2A46E0600D493046FFF745FB2A46FC
:102C7000A0604FF084413046FFF73EFB2060BDE886
:102C8000F88F00BFF0150020000010410000404008
:102C90000000C040000016436C05002000003042D8
:102CA00010B50C46FFF772FE0023238010BD00BF55
:102CB00010B50C46FFF780FE208010BD38B50D46DC
:102CC000FFF764FE01220B211046FDF7F9FB4FF4DC
:102CD0000063174C0A206361FDF742FC01220D21BD
:102CE0001046FDF7EDFB4FF4005332206361FDF712
:102CF00037FC03220B210120FDF7E2FB4FF4FA70B1
:102D0000FDF704FC02E0FDF735FC10B9A3681B05D4
:102D1000F9D56420FDF724FCFFF738FE044A4FF292
:102D20001103926812F4006F18BF00232B8038BD86
:102D3000000C01402DE9F84F50220F460023066891
:102D40004068B1B206EB00097A80BB804520FFF7EE
:102D50005BFE4E4524D201204FF080086FF0004BFF
:102D600007F10A0AA9EB0603984528BF98464FEADF
:102D70005804651DC7F806603D80A8B94CB154469B
:102D800007EB45056220FFF7D3FE24F8020BAC42A7
:102D9000F8D13846FDF7BEF9464400BBB145E1D84D
:102DA00000233B80BDE8F88FB0B2FFF78BFEB8F18F
:102DB000020F7881EDD9012CEBD95C4407F10C05A9
:102DC00005EB44046220FFF7B3FE25F8020BA54291
:102DD000F8D13846FDF79EF946440028DED04FF280
:102DE00022033B80BDE8F88F2DE9F04FD0F804A016
:102DF00083B001910668BAF1000F00F09F800027B0
:102E0000664CDFF89C8100F10803BAF1010F9B4684
:102E10005CD9B6F5803F45D32546CDF800806FF0EC
:102E20003303082021783BF8029B237094F801E0DB
:102E3000677094F802E0A77094F803E0E77094F8E4
:102E400004E0207160796771A079A771204694F839
:102E500007E0E77100F0EEF9102094F804E020712B
:102E600060796771A0791FFA86FEA771204694F8F1
:102E700007C0E771C4F800E000F0DCF92046C4F8B0
:102E8000009000F0D7F9D8F80400FFF773FDBAF10D
:102E9000020A06F1020651D0BAF1010F19D0B6F5B7
:102EA000803FBCD2B0B2BBF80010FFF7D5FDBAF13D
:102EB000020A0BF1020380B206F1020601D00028DB
:102EC000A3D0019B188003B0BDE8F08F344B334D85
:102ED0000093B6F5803F37D36FF03B010024082202
:102EE0002B789BF8007029706B786C70AB78AC70A5
:102EF000EB78EC702B792A716B796C71AB79274880
:102F0000AC71EB79EC7100F095F910232A792B71F3
:102F10006B796C71AB792148AC71B3B2EA79EC7121
:102F20002B6000F087F9F20736D43B021B482B6078
:102F300000F080F9009B5868FFF71CFD0020019B02
:102F4000188003B0BDE8F08F6FF03F010024082225
:102F50002B789BF8007029706B786C70AB78AC7034
:102F6000EB78EC702B792A716B796C71AB790B482B
:102F7000AC71EB79EC7100F05DF910232A792B71BB
:102F80006B796C71AB790548AC71EB79EC712E60A3
:102F900000F050F9F307C8D53B46C7E7F01500200D
:102FA0006C0500202DE9F84FD0F804908B46066898
:102FB000B9F1000F00F0AA800027554C3D46DFF81C
:102FC00054A101F1060835E06FF0130208232178BF
:102FD000227062786570A278A570E278E570227937
:102FE000237163796571A3794948A571E379E57126
:102FF00000F020F91023B2B22260227923716379A4
:103000006571A3794248A571E379E57100F012F981
:10301000DAF80400FFF7AEFC3D4800F045F92068FF
:1030200080B20237B94528F8020C06F1020608F111
:10303000020845D9B9F1010F06D9B6F5803FC3D2D0
:10304000B0B2FFF73FFDECE7B6F5803F45D36FF038
:103050001B0208232178227062786570A278A5701F
:10306000E278E5702279237163796571A379284844
:10307000A571E379E57100F0DDF81023B2B22260AA
:103080002279237163796571A379A571E379204869
:10309000E57100F0CFF8DAF80400FFF76BFC1C488C
:1030A00000F002F92368F2074CBFDBB2C3F3072339
:1030B00001379BB2B94528F8023C08F10208B9D89B
:1030C00007F0010303EB57070237BFB20023ABF849
:1030D0000270ABF80030BDE8F88F6FF01F020823D4
:1030E0002178227062786570A278A570E278E57028
:1030F0002279237163796571A3790548A571E37914
:10310000E57100F097F810232660B9E70227DDE7A4
:10311000F01500206C0500202DE9F041054606461B
:1031200035F80A7B4468884645203946FFF76CFC31
:1031300038463189FFF790FC023C06D035F8021B77
:103140004220FFF761FC023CF8D10023A8F80030D0
:10315000BDE8F08138B50388A3F14202052A06D8FC
:103160004588022D07D04FF240030B8038BD4FF445
:1031700070430B8038BD0C468188D8B2FFF744FC01
:1031800000236580238038BD0388A3F16202052AED
:1031900006D84288022A07D04FF240030B807047BE
:1031A0004FF470430B80704710B5D8B20C46FFF750
:1031B000BFFC00220323A0802280638010BD00BFDB
:1031C000082238B500240D460C4B19781A7059782E
:1031D0005C7099789C70D978DC7019791A715A7979
:1031E0005C719A7918469C71DA79DC7100F022F8EA
:1031F000034BD868FFF7BEFB2C8038BDF0150020CC
:103200006C05002010B50C46FFF7D6FB208010BDE2
:103210008269C369012424051D68154025431D608A
:1032200070478269C369062424051D68154025433B
:103230001D60704772B6FEB5476806682025ED1B15
:10324000AE40FFF7E5FF026A20231B02136082688D
:10325000C36A1C681D682D1B9542FBD4361C04D420
:10326000026A20231B02136003E0426A20231B0230
:103270001360C268C36A1C681D682D1B9542FBD48D
:10328000426A20231B0213600269C36A1C681D681E
:103290002D1B9542FBD47600013FD4D162B6FFF7D7
:1032A000C0FFFEBC01BC004772B6FEB547680026F1
:1032B000FFF7B7FF026A20231B0213608268C36A0C
:1032C0001C681D682D1B9542FBD4426A20231B02FB
:1032D00013604269C36A1C681D682D1B9542FBD4AC
:1032E000826A01231268520B1A4076001643426923
:1032F000C36A1C681D682D1B9542FBD4013FD9D1C0
:1033000062B60660FEBC01BC004700002DE9704FAC
:103310008A4601210546914686B003930AF1FF33A0
:1033200001FA03F34F4E0493B3685804FCD44FF4EE
:10333000004B4FF400584C4CC6F810B0C6F8108043
:103340002068FFF717FBC6F814802068FFF712FB10
:10335000E907B3684CBFC6F810B0C6F814B04FF414
:10336000005B404EC3F38038C6F810B02068FFF70A
:1033700001FBC6F814B02068FFF7FCFAB36813F439
:10338000804F0CBF0023022343EA080301934FF44C
:103390000043AA074CBF336173614FF40056314DAF
:1033A000D0462E612068FFF7E5FA6E612068FFF7CE
:1033B000E1FA019B002B0CBF202307230293BAF1F3
:1033C000000F4AD000960026B346CDF814A0DDF8D1
:1033D00010A0AB681AEA090FC3F3803343EA4B0B22
:1033E0004FF4004314BF2B616B614FF400532B610A
:1033F0002068FFF7BFFA009B01366B612068FFF77A
:10340000B9FA46454FEA4909E3D14FF40041029B1E
:10341000DDF81480B342696117D94FF40056B14604
:10342000104DDDF808A0AB68C5F81090C3F38033E9
:10343000206843EA4B0BFFF79DFA6E6108F1010823
:103440002068FFF797FAD045EDD3039B0BB1C3F883
:1034500000B0019806B0BDE8708F4FF40043D3462A
:103460006B61DAE7000C01407C05002030B50546B1
:10347000062483B000232A4618462021FFF746FF82
:1034800001AB002207210320FFF740FF013801288C
:1034900005D8013CEED14FF6FF7003B030BD0020DF
:1034A00003B030BD70B506460D46052482B000233A
:1034B000324618462021FFF729FF01AB2A68202158
:1034C0000220FFF723FF0138012808D901AB0022B1
:1034D00007210320FFF71AFF0138012806D80CB195
:1034E000013CE4E74FF6FF7002B070BD002002B06F
:1034F00070BD70B506460D460624002332461846B8
:103500002021FFF703FF2B464FF0C042202100206F
:10351000FFF7FCFE18B1013CEFD14FF6FF7070BD14
:10352000002370B582B002AC44F8043D05460E4657
:103530000F482146FFF7DDFF08B102B070BD3146EC
:103540000C48FFF7AFFF0028F7D16B0103F4787345
:10355000C5F3441508481D4340EAC520FFF786FF20
:103560000028EAD121460348FFF79CFFE5E700BFAA
:10357000A69B167CA69A167CA603007C002370B539
:1035800082B002AC44F8043D05460E460F48214681
:10359000FFF7AFFF08B102B070BD6B0103F47873A1
:1035A000C5F344150A481D4340EAC520FFF75EFFF6
:1035B0000028F0D131460548FFF79BFF0028EAD1EB
:1035C00021460448FFF76EFFE5E700BFA69B167C87
:1035D000A602007CA69A167C2DE970439F4D82B00E
:1035E0002B8804386FEA83436FEA93439BB22B80A6
:1035F000AC889B4B24F001042404240CAC809C6810
:103600006604FCD44FF400554FF400441C611D6166
:103610005D6100BF00BF00BF9E685C611D615D61B0
:1036200000BF00BF00BF4FF0020CDFF838E2DFF848
:103630003882744602AED3F808901D615D6146F889
:10364000048DCEF80C60CEF804C05D6845F00045EE
:1036500045F400055D60DEF8003043F00103CEF86C
:1036600000306368002BFCD17C4C23891D06FCD400
:103670007B4DDFF8F0E12B46DEF8004024F001043A
:10368000CEF800406C6824F0004424F400046C6020
:103690009C686404FCD44FF400444FF400551C6152
:1036A0001D615D615C6100BF00BF00BF1D615D61A8
:1036B0001C6100BF00BF00BF4FF0020CDFF8A4E1A7
:1036C0004FEA304074461D615D610190CEF80C6098
:1036D000CEF804C0586840F0004040F40000586044
:1036E000DEF8003043F00103CEF800306368002BB1
:1036F000FCD15A4803891B06FCD45948594C05464D
:10370000236823F001032360436823F0004323F47C
:1037100000034360AB685E04FCD44FF4005C4FF4DC
:1037200000432B61C5F810C0C5F814C000BF00BF2E
:1037300000BFC5F810C0C5F814C000BF00BF00BF6F
:103740000724664663209E46454BC5F810C0C5F861
:1037500014C045064CBFC3F810E0C3F814E0013CA8
:103760001E614FEA40005E61F3D1104600F0F4FCA8
:103770003B4C80B2A3685D04FCD44FF4005E4FF470
:1037800000462661C4F810E0C4F814E000BF00BF92
:1037900000BFC4F810E0C4F814E000BF00BF00BFD1
:1037A0000721754643222E4BC4F810E0C4F814E0FC
:1037B00054064CBF1E615E6101391D614FEA420231
:1037C0005D61F5D1264A936813F48043FBD14FF431
:1037D00000414FF40054116114615461516100BF04
:1037E00000BF00BF14615461116100BF00BF00BF82
:1037F0004FF0020E1B4D02AE29461461546146F88B
:10380000083DEE60C5F804E0536843F0004343F41C
:10381000000353602B6843F001032B604B68002BBF
:10382000FCD10E4A13891B06FCD40E4C0C492368AC
:1038300023F0010323604B6823F0004323F40003CB
:103840004B6093889BB243F0010393801388C3F3CA
:103850000D03138002B0BDE8708300BF0038004044
:10386000000C014058000240D67FA69A002370B594
:1038700084B001900D46214802A916460293039395
:10388000FFF737FE044610B1204604B070BD03A90F
:103890001B48FFF72EFE04460028F5D101A9194860
:1038A000FFF700FE044650B102A91748FFF7FAFDE2
:1038B00003A91448FFF7F6FD204604B070BD314659
:1038C0001148FFF7EFFD04460028EDD1012D06D089
:1038D000022D09D0042D0CD04FF20204E4E70B486E
:1038E000FFF7C4FD0446DFE70948FFF7BFFD0446C4
:1038F000DAE70848FFF7BAFD0446D5E7A69B167C31
:10390000A69B367CA69A367CA69A167C0000019867
:10391000000001B000000190002370B584B0019058
:103920000D46214802A9164602930393FFF7E1FDD5
:10393000044610B1204604B070BD03A91B48FFF730
:10394000D8FD04460028F5D101A91948FFF7AAFDC2
:10395000044638B9012D1CD0022D1FD0042D0CD0E7
:103960004FF2020402A91348FFF79CFD03A9104877
:10397000FFF798FD204604B070BD0F48FFF776FDB5
:103980000446002CEED131460748FFF7B2FD04464D
:10399000E8E70A48FFF76AFD0446F2E70848FFF740
:1039A00065FD0446EDE700BFA69B167CA69B367C12
:1039B000A69A367CA69A167C000001800000018839
:1039C000000001A008B500220B210120FCF778FDC2
:1039D00000220D210120FCF773FD00220F210120A0
:1039E000FCF76EFD00220E210120FCF769FD00208E
:1039F00008BD70B5002482B002AD064645F8044DFE
:103A00002346224607210320FFF780FC2B4622464F
:103A100007210320FFF77AFC033818BF4FF0FF306F
:103A2000019B80B2C3F38013338002B070BD0000ED
:103A3000002330B585B004AC44F8083D21469520FC
:103A40000193FFF79BFD054610B1284605B030BD38
:103A5000029B214623F4003343F0207343F001031B
:103A600095200293FFF75CFD05460028EDD101A9E2
:103A70001B20FFF783FD05460028E6D1019B01A925
:103A800023F48C431B200193FFF74AFD05460028D1
:103A9000DBD14FF0406304AC44F8043D21464FF4C1
:103AA0000C70FFF73DFD05460028CED1214694203D
:103AB000FFF764FD05460028C7D10346024A2021CE
:103AC000FFF724FCC1E700BF6400004C10B50C46B2
:103AD000FFF778FF208010BD70B50E46FFF772FF2C
:103AE00001220B211046FCF7EBFC4FF40063154C50
:103AF00064206361FCF734FD01220D211046FCF7C0
:103B0000DFFC01220F211046FCF7DAFC4FF40055D0
:103B10004FF40043032263610B2101202561FCF770
:103B2000CFFC3220FCF71CFD01220D2110466561FF
:103B3000FCF7C6FC01220F211046FCF7C1FC002354
:103B4000338070BD000C014010B50C46FFF770FFCC
:103B5000208010BD10B5081D0C46FFF74AFF032357
:103B60002080638010BD000010B584B0044602F0D0
:103B70003FFD01230021019001A8ADF80C30ADF804
:103B80000E30ADF80810ADF80A10FCF71FFB224606
:103B90004FF07C511820FEF7AFFB024B186004B0C9
:103BA00010BD00BF7C0500204388042B03D04FF2DA
:103BB00040030B807047038810B51F2B0C4606D9B5
:103BC000011DA3F12000FFF7ABFC208010BD044ACB
:103BD000011D42EA4350FFF765FC208010BD00BF85
:103BE000A69A167C38B54588042D03D04FF470434F
:103BF0000B8038BD00880C461F2806D920380431B8
:103C0000FFF7BCFC6580208038BD044B043143EADB
:103C10004050FFF76EFC6580208038BDA69B167C67
:103C20002DE9784144688846066824B300F1080508
:103C3000032C2A460FD8012C15D0022130460D4402
:103C4000FFF714FE023C02360CB10028F0D0A8F8B1
:103C50000000BDE87881042130460D44043CFFF7A4
:103C600005FE0436F0E721463046FFF7FFFDA8F8D1
:103C70000000BDE878812046E9E72DE978474668ED
:103C80008A46D0F80080B6B300250C1DA9460CE08A
:103C9000012E25D0022140460D440C44FFF73CFE86
:103CA00008F10208AE420FD970B9032EA4F80090B3
:103CB0002246EDD9042140460D440C44FFF72CFE6A
:103CC000AE4208F10408EFD805F0010303EB5503F9
:103CD00002339BB2AAF80000AAF80230BDE8788748
:103CE00040463146FFF718FE2378013508F10108F8
:103CF00024F8023BD6E730460223EBE710B500F18B
:103D000008020C4603C8FFF767FC208010BD0000C6
:103D100070B5026882B002AB043A43F8042D054640
:103D20000C4629481946FFF7BDFB20B14FF222038C
:103D3000238002B070BD254A93685804FCD44FF428
:103D400000534FF4004111611361536100BF00BF84
:103D500000BF90685161C0F380301361536100BFB0
:103D600000BF00BF9168DFF868E011F4804118BF20
:103D7000022148F2014C7246144E084333617361CC
:103D8000736843F0004343F400037360AEF80CC063
:103D90001389D907FCD504230D49968993810B8992
:103DA000DB07FCD5094A8B895368032823F00043BD
:103DB00023F400035360B9D195E80600204600F0D3
:103DC0001FF90028B5D0B1E7A69A367C000C014057
:103DD0000038004038B54388042B03D04FF202036B
:103DE0000B8038BD04880D464368A4B1012C08D06F
:103DF000022C1BD0002004464B8828801C446C8079
:103E000038BD0289042AE9D100F10A011846FFF7FA
:103E100049FB002402E01846FFF728FB002818BFE2
:103E200000246B8828801C446C8038BD0289042AD9
:103E3000D4D118460431FFF75CFBEFE701232DE9ED
:103E4000704F41680568826805EB010982B04D45F5
:103E50000192D0F80CA0D0F81080009380F08380FD
:103E6000DFF808B141462846FEF766FA0646002804
:103E700069D04EF66020FCF749FB002302AC44F801
:103E8000083D04E0009B7BB9FCF774FB60B9204659
:103E9000FFF7AFFD0028F5D001464FF24300FEF7D3
:103EA00085FA02B0BDE8708FFCF764FB88BB214641
:103EB0005846FFF71EFB0028EED1009B012B3AD19C
:103EC00001A91A20FFF72CFB0028E5D13246414614
:103ED0005046FFF781FB0028DED1FFF7A9FD00283F
:103EE00039D14544A945BDD800234EF66020009342
:103EF000FCF70CFB04E0009B43B9FCF73BFB28B943
:103F00002046FFF776FD0028F5D0C5E7FCF732FB29
:103F100038B100214FF6FE70FEF748FA02B0BDE856
:103F2000708F21461148FFF7E4FA01460028B4D10A
:103F3000009B012BB3D000214FF21200FEF736FA9E
:103F400002B0BDE8708F01464FF60170FEF72EFA01
:103F500002B0BDE8708F01464FF21100FEF726FA5D
:103F600002B0BDE8708F6C46BEE700BFA69B767CB2
:103F700010B5FFF727FD01220D211046FCF7A0FA2E
:103F800001220F211046FCF79BFA01224FF4005347
:103F90004FF400410C4C104621610B216361FCF78A
:103FA0008FFA4FF4006364206361FCF7D9FA0322AF
:103FB0000B210120FCF784FA6420FCF7D1FABDE85C
:103FC0001040FEF773B900BF000C01400000000074
:103FD00000000000000000000000000000000000E1
:103FE00000000000000000000000000000000000D1
:103FF00000000000000000000000000000000000C1
:10400000F0B58BB0800880000230089006919208CD
:1040100007928449CA680B691E688D68354300950C
:10402000012517686FF3000702972F43039757691D
:104030006FF3000704972F4305972D020A9500BFE1
:104040000A9D079FBD4200DD3D1C09957F1B079718
:104050006F000537078002305024069F10C00760AC
:10406000AD007F19069700BFAFF30080AFF300806B
:1040700002270430D060576011629761039C14607E
:10408000C0465F797F06FCD4C04680241C7320277D
:104090001F73A0241C74C046C046C0465C791F73C1
:1040A0001F74A4095D791F731F746D092C43009F51
:1040B0001F60059F57615768002FFCD1C046029FC3
:1040C0001760049F57611E60032C40D102270D1D0D
:1040D000D060576015629761039C14605F797F061A
:1040E000FCD4C04680241C7320271F73A0241C749A
:1040F000C046C046C0465C791F731F74A4095D7931
:104100001F731F746D092C43009F1F60059F57612B
:104110005768002FFCD1C046029F1760049F57616B
:104120001E60A4B9C046C046099F013F09979FD1B0
:1041300008980FB4FBF7EEFF00280FBC07D1079FCC
:1041400007B17DE740400BB0F0BC02BC0847FF2040
:104150000BB0F0BC02BC0847F0B587B08908314FFE
:10416000FA683B691E68BD6835430095BF690697CC
:10417000012517686FF3000702972F4303975769CC
:104180006FF3000704972F43059700BFAFF300803C
:1041900002271062043097615F797F06FCD4802586
:1041A0001D7320271F73A0241C74C046C046C04640
:1041B0005C791F731F741D7364085D791F731F740E
:1041C0002C436FF3C714009F1F60059F57619769C9
:1041D000002FFCD18025069F3F882F40FBD1049FF4
:1041E00057611E60592C08DD0139D1D180251D741D
:1041F000404007B0F0BC02BC084780251D74FF207A
:1042000007B0F0BC02BC0847167CA69B01840400E2
:104210000000808044000240040C01401460004013
:1042200008380040084200084FF4005108B50E4B12
:104230000322196101200B21FCF742F900220D2114
:104240000120FCF73DF902220C210120FCF738F98E
:1042500000220F210120FCF733F900220E2101205A
:10426000FCF72EF9002008BD000C014038B50025F0
:104270000A4C204625706570A570E57000F0C7FBFC
:104280000C23204663702570A570E57000F0BFFB1D
:10429000034B986810F48050FBD138BD48160020BD
:1042A000000C0140F8B506460F46274C154620463F
:1042B000266000F0ACFB002F3BD10023237063701D
:1042C000A370E37033060AD51F4E00E0C3B9304631
:1042D00000F09DFB80B223680028F7D16B8000239B
:1042E000194E23706370A370E37000E0D3B93046B9
:1042F00000F08DFB80B223680028F7D12B80F8BD39
:104300009BB2012B6B8011D009D34FF6FF714FF296
:1043100022024FF221008B4218BF1046F8BD4FF227
:104320002300F8BD9BB2012B2B80EDD14FF2200072
:10433000F8BD3B0C2046236000F069FB2046276057
:1043400000F065FBB9E700BF48160020F8B5054648
:104350000E46214C17462046256000F058FB56BB00
:104360002B0622D43B881C48236000F050FB00231E
:10437000194D23706370A370E37001E0236833B9B3
:10438000284600F044FB80B20028F7D1F8BD9BB26C
:10439000012B1AD01CD34FF6FF714FF222024FF2BD
:1043A00021008B4218BF1046F8BD7B880A48236065
:1043B00000F02DFBD6E7330C2046236000F027FBEE
:1043C0002046266000F023FBCAE74FF22000F8BD2C
:1043D0004FF22300F8BD00BF4816002010B50C4670
:1043E000FFF722FF208010BD012270B510460D4658
:1043F0000D21FCF765F801224FF40056214C1046C0
:104400000F21FCF75DF826610A20FCF7A9F8666128
:104410000A20FCF7A5F84FF4FA70FCF777F802E0F1
:10442000FCF7A8F810B9A368D904F9D5154CA3680E
:10443000DA0409D5134A4FF21003926812F4805F30
:1044400018BF00232B8070BD01220B211046FCF702
:1044500037F84FF4006319206361FCF781F80322F9
:104460000B210120FCF72CF84FF4FA70FCF74EF802
:1044700003E0FCF77FF80028DCD1A368DB04D9D483
:10448000F7E700BF000C014038B50D46FFF7CCFE42
:1044900001220B211046FCF713F801220D211046D2
:1044A000FCF70EF84FF400524FF400630E4C192045
:1044B00022616361FCF754F8FFF7B6FE4FF4FA701F
:1044C000FCF724F802E0FCF755F810B9A3681B05C7
:1044D000F9D5054A4FF21103926812F4006F18BF24
:1044E00000232B8038BD00BF000C014010B50C46E6
:1044F000FFF7BCFE208010BD0022032310B40A4841
:104500000A804B800024826802F48052836803F49E
:1045100080539A42F6D10134052CF7D1003218BFEE
:10452000012210BC8A807047000C01402DE9F04F39
:1045300085B0834602F05CF80125019001A8ADF832
:104540000850ADF80A50ADF80C50ADF80E50FBF71E
:104550003DFE0021102040260C274FF0080E4FF0A2
:10456000040C4FF014086FF01F0A4FF03809204B6D
:10457000204C587599759971997060752072A17564
:104580005A464FF07C5118209D739D749D7283F89C
:104590000C805F735F745F721F71DE73DE74DE7296
:1045A000DE71DE7083F810E083F800E083F814C059
:1045B00083F808C084F814C083F817A083F8059026
:1045C00083F801906772A572E67284F817A084F8E8
:1045D0000C806773A573E67384F810E06774A574A4
:1045E000E674FDF789FE606005B0BDE8F08F00BF9E
:1045F0002416002048160020F8B544680F460668C7
:104600000CB300F10805032C2A4631460DD8012CC5
:1046100013D04FF4C250023C02350236FFF796FE2B
:104620000CB10028EFD03880F8BD4FF4C450043CE2
:1046300004350436FFF78AFEF2E74FF4C050FFF767
:1046400085FE3880F8BD2046EDE700BF2DE9F0413A
:1046500090E8C00088469FB30C1D00250BE0012F99
:1046600024D04FF4CA50023502340236FFF71AFE46
:10467000AF420FD970B9032F22463146EFD94FF41C
:10468000CC500435FFF70EFEAF4204F1040406F1EE
:104690000406EFD805F0010303EB550302339BB288
:1046A000A8F80000A8F80230BDE8F0814FF4C85027
:1046B000FFF7F8FD23780135013624F8023BD7E7F0
:1046C00038460223ECE700BFF8B544680E46A3075E
:1046D0000546016800F1080206D0002013190134D4
:1046E000A70703F8010BFAD14FF4C450FFF72EFED1
:1046F000043C074600D008B13780F8BD044B0C35A8
:10470000A4081846DD611C6200F00CFA3780F8BD81
:10471000241600202DE9F04F50220E460023016898
:10472000476885B00F44B94203917280B38043D289
:10473000DFF8AC8006F10A03039DC34601244FF461
:10474000806ADFF89890019310E05846C4EB9A0411
:10475000C8F81C20C8F8204000F0A1F93046FBF74B
:10476000D9FC554498BBAF42044625D97A1B9245E3
:1047700028BF92464FEA5A0205323280C6F80650E8
:10478000019A002CE1D029464FF4CC50FFF78AFD66
:1047900000226FF07F0E1D2189F8022089F8032086
:1047A0000E4806F10E02029289F800E089F8011025
:1047B00000F02DF9029AC8E7039932464FF4CA5027
:1047C000FFF770FD0023338005B0BDE8F08F4FF296
:1047D0002203338005B0BDE8F08F00BF48160020EB
:1047E0002416002038B5058825F00F039BB2B3F5D9
:1047F000025F06D0B3F5125F03D04FF470430B8015
:1048000038BD4388042B03D04FF240030B8038BDE2
:104810000C46021D00212846FFF798FD0223208048
:10482000638038BD028838B522F00F039BB2B3F520
:10483000065F06D0B3F5165F03D04FF470430B80CC
:1048400038BD4588042D03D04FF240030B8038BD9E
:104850000C4610460A1D0021FFF724FD65802080CC
:1048600038BD00BF2DE9F04790E8A00083682F44D1
:1048700082B0BD420193D0F80C90D0F8108062D283
:10488000A8F10406DFF87CA1B60841462846FDF7EA
:1048900053FD0446002800F086804EF66020FBF7AA
:1048A00035FE0021DAF8082002F48052DAF80830E8
:1048B00003F480539A42F4D101310529F6D192B91B
:1048C000FBF758FE78B90021DAF8082002F480528C
:1048D000DAF8083003F480539A42F4D10131052903
:1048E000F6D1002AECD0FBF745FE0146002852D154
:1048F0006A464FF40650FFF7D5FC0146002878D1F0
:10490000009B012B61D101AA4FF41250FFF71EFD4D
:10491000014600286DD1494622464FF4C450FFF7A6
:1049200015FD0146002864D1354B04341846DC617E
:104930001E6200F0F7F8FFF799FC0146002851D1FC
:104940004544AF42A1D84EF66020FBF7DFFD2D486D
:104950000022836803F48053816801F480518B4204
:10496000F6D10132052AF7D18BB9264CFBF702FEAE
:1049700068B90021A26802F48052A36803F480534E
:104980009A42F6D101310529F7D1002AEED0FBF782
:10499000F1FD014678B100214FF6FE70FDF706FDEE
:1049A00002B0BDE8F08701464FF60170FDF7FEFC4E
:1049B00002B0BDE8F0876A464FF40650FFF772FC7C
:1049C0000146B0B9009B012B07D000214FF2120025
:1049D000FDF7ECFC02B0BDE8F087FDF7E7FC02B0A4
:1049E000BDE8F0874FF21100FDF7E0FC02B0BDE832
:1049F000F0874FF24300FDF7D9FC02B0BDE8F08725
:104A000024160020000C0140013AFDD17047FEB58C
:104A100010270668F603C268A0231370C0464268D8
:104A2000FFF7F2FF026952789209026952789209FF
:104A3000151C826820231370C0464268FFF7E4FF0C
:104A4000026952789209026952789209C046C26896
:104A500020231370760003D582688023137004E04E
:104A6000C26880231370C046C0464268FFF7CCFF7F
:104A700002695278920916438268202313700269F2
:104A8000527892094268FFF7BFFF02695278920993
:104A9000013FDCD10660281CFEBC02BC0847F0B513
:104AA00084682568C769C268A0231370802636020F
:104AB0008022164336042E43C046C046026952780F
:104AC00092092660111C42680023138001230668A6
:104AD0003688DE41FBD516882560D941E3D47E8037
:104AE000C268A02313708026360280221643360443
:104AF0002E431D231B0213432660426813800123AB
:104B000006683688DE41FBD5168825603E8004376E
:104B10000522FFF779FF026A013A0262C3D1F0BCB5
:104B200002BC0847F0B584682568C7692CE0C268F4
:104B3000A0231370802636028022164336042E43AB
:104B4000266042687B881380012301680E88DE415D
:104B5000FCD516882560C268A02313708026360213
:104B60008022164336042E43266042683B88138019
:104B7000012301680E88DE41FCD5168825600437C4
:104B8000026A013A02621FD0C268A0231370802615
:104B900036028022164336042E43C046C0460269C0
:104BA000527892092660111C1C231B028022134399
:104BB00042681380012306683688DE41FBD51688DB
:104BC0002560D941E0D4B2E7C268A02313708026E3
:104BD00036028022164336042E43C046C046026980
:104BE000527892092660111C002342681380012329
:104BF00006683688DE41FBD516882560D941E3D4A6
:104C0000F0BC02BC084700002DE9F8434FF480696E
:104C10008025C8464FF400560D4F0E4CC4F8108046
:104C200026613868FDF7A6FE013D6661F6D1C4F83D
:104C3000149026613868FDF79DFE6661C4F81490F3
:104C400026613868FDF796FE66612846BDE8F88360
:104C500080050020000C014088B32DE9F84F0024A6
:104C60004FF400590E46A346471E1FFA87F8DFF897
:104C700054A0134D08F101084FF40042E30604BFAD
:104C8000D6F800B004361BF0010F14BF2A616A6128
:104C9000A74208BF4FF480624FF4005308BF2A6157
:104CA0002B610134DAF80000FDF764FEA045AA6824
:104CB0004FEA5B0BC5F81490DED1BDE8F88F704762
:104CC000000C0140800500204FF400422DE9F84F10
:104CD000254B5A61002844D00024461EB7B20D4629
:104CE0009A46A3464FF40059013715E01F4BCAF806
:104CF00010901868FDF73EFEDAF8083008F01F0142
:104D0000C3F380338B401F294BEA030BCAF814907E
:104D10001CD00134A74222D0A6421FFA84F8E5D164
:104D20004FF48063CAF81030104BCAF8109018681E
:104D3000FDF720FEDAF8083008F01F01C3F38033D6
:104D400003FA01F14BEA010BCAF814900134A742AF
:104D5000C5F800B04FF0000B05F10405DCD1BDE84B
:104D6000F88FBDE8F88F00BF000C014080050020DF
:104D700008B502464FF07E511020FDF7BDFA014BF9
:104D8000186008BD8005002010B503220C460120E4
:104D90000B21FBF795FB00220D210120FBF790FB77
:104DA00000220F210120FBF78BFB00220E210120A6
:104DB000FBF786FB00220A210120FBF781FB002282
:104DC00009210120FBF77CFB3220FBF7C9FB002304
:104DD000238010BD012238B510460D460B21FBF78C
:104DE0006FFB4FF40063184C05206361FBF7B8FBC1
:104DF00001220D211046FBF763FB01220F21104613
:104E0000FBF75EFB00220E210120FBF759FB01227C
:104E10000A211046FBF754FB012209211046FBF73B
:104E20004FFB4FF400434FF400720B21226101202D
:104E300003226361FBF744FB4FF4FA70FBF790FB2E
:104E4000FFF7E2FE288038BD000C014010B50C468B
:104E5000FFF7DAFE208010BD2DE9F84300230B8018
:104E600003880646002B37D0012B30D14FF48068E1
:104E70004FF40055204C214FB0F80290C4F8108038
:104E800025613868FDF776FD6561C4F814802561F9
:104E90003868FDF76FFD6561C4F8148025613868D6
:104EA000FDF768FD311D48466561FFF7D5FEC4F882
:104EB000108025613868FDF75DFD6561C4F81480D8
:104EC00025613868FDF756FD6561BDE8F8834FF44C
:104ED00070430B80BDE8F8834FF400554FF48068B1
:104EE000054C064FB0F80290C4F810802561386870
:104EF000FDF740FD6561C1E7000C01408005002021
:104F00002DE9F84300230B8042880E4612F00F0370
:104F100018BF012303EB121302334B800388002BCD
:104F200037D0012B30D14FF480684FF40055214C1D
:104F3000214FB0F80290C4F8108025613868FDF761
:104F400019FD6561C4F8148025613868FDF712FD0C
:104F50006561C4F8148025613868FDF70BFD311DCB
:104F600048466561FFF7B0FEC4F8108025613868D7
:104F7000FDF700FD6561C4F8148025613868FDF710
:104F8000F9FC6561BDE8F8834FF470430B80BDE820
:104F9000F8834FF400554FF48068064C064FB0F884
:104FA0000290C4F8108025613868FDF7E3FC656164
:104FB000C1E700BF000C0140800500204FF2220035
:104FC00010B44FF24204114B1A78597812F0080FBE
:104FD00014BF0023034612F0100F18BF034612F04F
:104FE000200F18BF034612F0400F18BF034612F0FF
:104FF000800F18BF034611F0010F18BF234611F0B0
:10500000020F18BF184610BC704700BF840500206F
:105010002DE9F8434FF480694125C8464FF4005606
:105020000D4F0E4CC4F8108078682661FDF7A2FC85
:10503000013D6661F6D1C4F8149078682661FDF7E9
:1050400099FC66617868C4F814902661FDF792FCBB
:1050500066612846BDE8F88384050020000C014005
:1050600098B32DE9F84F00244FF400590E46254619
:10507000471E1FFA87F8DFF854A0DFF854B008F194
:105080000108E2064FF4004204BF35680436EB071E
:105090004CBFCBF81020CBF81420A74208BF4FF428
:1050A00080624FF4005308BFCBF81020DAF80400F8
:1050B0000134CBF81030FDF75DFCA0454FEA5505F3
:1050C000CBF81490DDD1BDE8F88F7047840500203F
:1050D000000C01402DE9F8434FF480664FF4005571
:1050E00089468046154C164F266178682561FDF784
:1050F00041FC6561786826612561FDF73BFC6561CF
:10510000786866612561FDF735FC656178686661E0
:105110002561FDF72FFC494640466561FFF7A0FF7A
:10512000266178682561FDF725FC65617868666110
:105130002561FDF71FFC6561BDE8F883000C0140A7
:10514000840500202DE9F8434FF480664FF40055A4
:1051500089468046124C134F266178682561FDF719
:1051600009FC6561786866612561FDF703FC65618E
:10517000786866612561FDF7FDFB4946404665613B
:10518000FFF76EFF266178682561FDF7F3FB656127
:10519000786866612561FDF7EDFB6561BDE8F88320
:1051A000000C0140840500204FF400422DE9F84F27
:1051B000254B5A61002844D00024461EB7B20D4644
:1051C0009A46A3464FF40059013715E01F4BCAF821
:1051D00010905868FDF7CEFBDAF8083008F01F0190
:1051E000C3F380338B401F294BEA030BCAF814909A
:1051F0001CD00134A74222D0A6421FFA84F8E5D180
:105200004FF48063CAF81030104B5868CAF81090F9
:10521000FDF7B0FBDAF8083008F01F01C3F3803364
:1052200003FA01F14BEA010BCAF814900134A742CA
:10523000C5F800B04FF0000B05F10405DCD1BDE866
:10524000F88FBDE8F88F00BF000C014084050020F6
:105250002DE9F8434FF480664FF4005589468046A7
:10526000124C134F266178682561FDF783FB656159
:10527000786866612561FDF77DFB65617868666128
:105280002561FDF777FB494640466561FFF78CFFD6
:10529000266178682561FDF76DFB65617868666158
:1052A0002561FDF767FB6561BDE8F883000C0140EF
:1052B000840500202DE9F04F81466FF03F004FF04C
:1052C000000E0F270D464FF00003152683B04FEA5E
:1052D000191102AC61F3C500CDF804E08DF80700A8
:1052E00004F8057D65F38F03214608209046ADF84C
:1052F00004308DF80260FFF725FF01A92020FFF799
:1053000021FF0E23214608208DF80330FFF71AFFF6
:1053100001A92020FFF79CFF9DF804309A0761D473
:105320006B1E1FFA83FB002D67D04FF48067344E4D
:10533000344C1FFA89FA4FEAD9094FF400554FF45B
:105340008063236125617068FDF714FB6561676107
:1053500025617068FDF70EFB656167612561706806
:10536000FDF708FB0DF1020108206561FFF778FEEB
:10537000276125617068FDF7FDFA65612761256188
:105380007068FDF7F7FA6561676125617068FDF780
:10539000F1FA6561676125617068FDF7EBFA4146D6
:1053A00050466561FFF75CFE276125617068FDF777
:1053B000E1FA4FF6FF720BF1FF331FFA83FB9345BF
:1053C000C8446561B9D14FF480634FF400550D4C6A
:1053D000636125617068FDF7CDFA0020656103B057
:1053E000BDE8F08F4FF2410213F0010F4FF242007F
:1053F00018BF104603B0BDE8F08F014EE3E700BFD1
:1054000084050020000C01402DE9F04F80466FF02C
:105410007F004FF0000E0F270D464FF000031426BB
:1054200085B04FEA181104AC61F3C500CDF80CE06B
:105430008DF80F0004F8057D65F38F0321460820E1
:105440000092ADF80C308DF80A60FFF77BFE03A9DF
:105450002020FFF777FE0E23214608208DF80B3021
:10546000FFF770FE03A92020FFF7F2FE9DF80C3035
:105470009A0700F187806B1E9BB20193002D00F00C
:105480008C809DE880044FF48066464DDFF818B1AB
:105490001FFA88F94FEAD8084FF400544FF480639C
:1054A000CBF81030CBF810406868FDF763FACBF802
:1054B0001440CBF81460CBF810406868FDF75AFA36
:1054C000CBF81440CBF81460CBF810406868FDF7B7
:1054D00051FA0DF10A010820CBF81440FFF7C0FD86
:1054E000CBF81060CBF810406868FDF743FACBF8B2
:1054F0001440CBF81060CBF810406868FDF73AFA1A
:10550000CBF81440CBF81460CBF810406868FDF776
:1055100031FACBF81440CBF81460CBF8104068682F
:10552000FDF728FA39464846CBF81440FFF73CFE11
:10553000CBF81060CBF810406868FDF71BFA4FF607
:10554000FF730AF1FF3A1FFA8AFA9A454744CBF8EB
:105550001440A1D1019B03FB0888009B434498465B
:1055600000244FF480634FF400570F4E88F800403A
:10557000736137616868FDF7FDF92046776105B012
:10558000BDE8F08F4FF2410213F0010F4FF24200DD
:1055900018BF104605B0BDE8F08FDDF80080014D62
:1055A000DEE700BF84050020000C01404FF480635B
:1055B0004FF400512DE9F04FDFF800B183B03E4EBB
:1055C0000DF1080929F8040DCBF810307068CBF8FC
:1055D000101088460091FDF7CDF94FF480630099D3
:1055E0000024CBF814107068CBF81030CBF81010F2
:1055F0000091FDF7BFF94FF4806300995D46CBF849
:1056000014107068CBF81430CBF810100091FDF72F
:10561000B1F94FF4806327460099CBF81410CBF80A
:1056200014307068CBF810100091FDF7A3F90099C1
:10563000CBF814101CB9D9F800A009F104094FF4F3
:1056400000431AF0010F14BF2B616B61092C0FD0BE
:10565000C5F810807068FDF78DF9AB684FEA5A0AFB
:10566000C3F38033A3401F43C5F814800134E1E73E
:105670004FF400554FF48068104C7068C4F81080E7
:105680002561FDF777F9A3687068C3F3803347EAB3
:10569000432765613760C4F810802561FDF76AF91A
:1056A00065617068C4F814802561FDF763F9656170
:1056B00003B0BDE8F08F00BF84050020000C01405E
:1056C00030B583B09DF800300C4660F306031846F1
:1056D00015469DF801306FF3C71003F0FE0343F049
:1056E00002038DF801308DF800000098FFF75EFF8F
:1056F0006001294680B2FFF7ABFD11229DF8003012
:1057000062F306038DF800300098FFF74FFF01A900
:105710002020FFF79DFD03B030BD00BFF0B5102580
:1057200083B09DF80530104C43F0010306460F4648
:105730006FF341032846224606218DF805308DF887
:105740000450FFF7BDFF00230198E7602661237531
:105750006375A375E375FFF729FF2146C02003B0E9
:10576000BDE8F040FFF7EEBC6416002030B50C46F3
:10577000154683B09DF8003060F306039DF80100E4
:105780006FF3C71300F0FE006FF341008DF8003097
:105790008DF801000098FFF709FF6001294680B2EB
:1057A000FFF7D0FC11219DF800209DF8013061F336
:1057B000060243F002038DF800208DF801300098B6
:1057C000FFF7F4FE01A92020FFF742FD03B030BD32
:1057D000024610B510200C464FF07E51FCF78CFDB0
:1057E000024B034A1C70506010BD00BFFB0000203C
:1057F000840500204FF4704270B5414B86B01B7891
:105800000C46012B0A8062D0032B01D006B070BD7C
:10581000002511223B4B8DF807201D80ADF8085064
:1058200003950495FFF7F4FB0DF107010520FFF741
:1058300051FC7E229DF8083062F306038DF8083093
:105840000298FFF7B3FE9DF810609DF8113005AA8D
:1058500043F0800346F00706012112208DF8106006
:105860008DF81130FFF72CFF059B049905AA0B4317
:10587000122001210593FFF779FF9DF80F3003AA4D
:1058800043F08003012131208DF80F30FFF76EFFC8
:1058900002219DF80F609DF80C3003AA61F30516F4
:1058A00043F00103012131208DF80C308DF80F6099
:1058B000FFF75CFF7C229DF8083062F306038DF849
:1058C00008300298FFF772FE258006B070BD1123E4
:1058D00000258DF81030ADF81450FFF799FB04A99E
:1058E0000520FFF7F7FB7E229DF8143062F30603D4
:1058F0008DF814300598FFF759FE258086E700BF24
:10590000FB000020840500200388102B08D042886B
:10591000042A08D0012B06D94FF202030B807047EE
:105920004388182BF8D1042300222DE9F0430A8084
:105930004B80038887B00C46162B0DD8DFE803F0A8
:105940001E5F6D0C0C0C0C0C0C0C0C0C0C0C0C0CD1
:10595000757F89939DA714004FF4704202230A803B
:105960004B8007B0BDE8F0836A4606211020FFF7A0
:10597000A7FE0022009B22806360F2E742884FF47A
:10598000005612F00F0318BF01234FF4806703EB9A
:105990001213444D0233DFF810814B80B0F80290AF
:1059A000D8F804002F612E61FCF7E4FF6E61D8F88F
:1059B00004002F612E61FCF7DDFF6E61D8F8040052
:1059C0006F612E61FCF7D6FF6E61D8F804006F613D
:1059D0002E61FCF7CFFF211D48466E61FFF7E4FB07
:1059E0002F61D8F804002E61FCF7C4FF6E61D8F86F
:1059F00004006F612E61FCF7BDFF6E61B1E7428864
:105A0000043112F00F0318BF012303EB121302330A
:105A100063804088FFF71CFCA3E70A1D02200121D8
:105A2000FFF74EFE002323809BE70A1D102006216E
:105A3000FFF746FE00220E232280638091E76A462C
:105A400006211020FFF73CFE0022059B22806360A8
:105A500087E76A4606211020FFF732FE0022049BEA
:105A6000228063607DE76A4606211020FFF728FE4A
:105A70000022039B2280636073E76A4606211020A0
:105A8000FFF71EFE0022029B2280636069E76A46E0
:105A900006211020FFF714FE0022019B2280636084
:105AA0005FE700BF000C0140840500200388102B35
:105AB00008D04288042A08D0012B06D94FF20203ED
:105AC0000B8070474388182BF8D1002330B50B802A
:105AD000038887B00D460446162B7AD8DFE803F01A
