:020000040800F2
:1000000040090020110100081D5F00081F5F000863
:10001000215F0008235F0008255F00080000000042
:10002000000000000000000000000000275F000842
:10003000295F0008000000002B5F00082D5F00080A
:100040000D0100080D0100080D0100080D01000858
:100050000D0100080D0100080D0100080D01000848
:100060000D0100080D0100080D0100080D01000838
:100070000D0100080D0100080D0100080D01000828
:100080000D0100080D0100080D0100080D01000818
:100090002F5F00080D0100080D0100080D01000888
:1000A0000D0100080D0100080D0100080D010008F8
:1000B0006DA800080D0100080D0100080D010008E1
:1000C0000D0100080D0100080D0100080D010008D8
:1000D0000D0100080D0100080D0100080D010008C8
:1000E0000D0100080D010008395F00080000000044
:1000F0000000000000000000000000000000000000
:1001000000000000000000005FF808F1FEE70000BA
:1001100008B50F4A0F4B9A420CD2581E801A20F095
:10012000030004300C4B184453F8041B42F8041B22
:100130008342F9D109480A494FF000028842B8BF0A
:1001400040F8042BFADB00F00DF80AF0D1FA08BDF4
:10015000000000204005002024BC000840090020C9
:10016000CC1A002082B03C4B1A6842F001021A609F
:1001700059683A4A0A405A601A6822F0847222F496
:1001800080321A601A6822F480221A605A6822F4B7
:10019000FE025A604FF41F029A6000220092019200
:1001A0001A6842F480321A601A46136803F4003366
:1001B0000193009B01330093019B1BB9009BB3F596
:1001C000A06FF2D1244B1B6813F4003F14BF01232E
:1001D00000230193019B012B05D0214B4FF00062BE
:1001E0009A6002B070471F4B1A6842F010021A6002
:1001F0001A6822F007021A601A6842F001021A60B7
:10020000A3F580535A685A605A685A605A6842F493
:1002100080625A605A6822F47C125A605A6842F42A
:1002200088125A601A6842F080721A601A4613687F
:1002300013F0007FFBD0084B5A6822F003025A608B
:100240005A6842F002025A601A46536803F00C03DF
:10025000082BFAD1C1E700BF001002400000FFF8F0
:1002600000ED00E0002002401D4B5B6803F00C0332
:10027000042B15D0082B17D01BB11A4B1A4A1A6041
:1002800002E0184B184A1A60154B5B68C3F303135E
:10029000144A13441B79D9B21368CB4013607047DA
:1002A000104B114A1A60EFE70D4A53685268C3F3C6
:1002B0008343023312F4803F05D10C4A02FB03F35F
:1002C000084A1360E0E7064A526812F4003F14BF80
:1002D000064A054A02FB03F3024A1360D4E700BF53
:1002E000001002400000002000127A0000093D00CA
:1002F00040F0BF6040F40030014BD860704700BF51
:1003000000ED00E0C3780BB3164BDA68D243C2F3BA
:100310000222C2F10401437803FA01F183784FF01D
:100320000F0C2CFA02F213400B4302781B01DBB2D4
:100330000D490A4482F800330378580903F01F037B
:10034000012202FA03F341F82030704703785A097A
:1003500003F01F03012101FA03F32032024941F89F
:100360002230704700ED00E000E100E021F0604144
:1003700021F07F010143014B9960704700ED00E0DF
:1003800021B1054B1A69104318617047024A13697D
:1003900023EA00001061704700ED00E004284FF0F0
:1003A000E02213690CBF43F0040323F0040313613C
:1003B0007047000008B5154B984206D0144B984280
:1003C0000ED0144B984216D008BD01214FF4007096
:1003D00002F0D6FC00214FF4007002F0D1FCF3E7EC
:1003E00001214FF4806002F0CBFC00214FF48060CB
:1003F00002F0C6FCE8E701214FF4004002F0C0FC27
:1004000000214FF4004002F0BBFCDDE70024014076
:1004100000280140003C014010B443680A7923F4ED
:10042000702323F4807343EA02230A681343436072
:100430008468CB688A681343084A224013434A7988
:1004400043EA42038360C36A23F470030A7C013ADF
:10045000D2B243EA0253C36210BC7047FDF7F1FF0A
:1004600000230360037143718360C360012303743D
:10047000704721B1836843F001038360704783684C
:1004800023F001038360704721B1836843F48073D4
:1004900083607047836823F4807383607047C9B2B8
:1004A0001AB14368194341607047436823EA010168
:1004B00041607047836843F0080383607047806839
:1004C000C0F3C0007047836843F004038360704743
:1004D0008068C0F38000704721B1836843F4A003B3
:1004E00083607047836823F4A0038360704780684B
:1004F000C0F380507047436823F46043013943EAF6
:1005000041334360704721B1436843F40063436063
:100510007047436823F400634360704710B50929AE
:100520001FD9C468A1F10A0C0CEB4C0C4FF0070E5C
:100530000EFA0CFE24EA0E0403FA0CF32343C36004
:10054000062A1DD8436B013A02EB82024FF01F0CC2
:100550000CFA02FC23EA0C0301FA02F21A4342638A
:1005600010BD046901EB410E4FF0070C0CFA0EFCB4
:1005700024EA0C0C03FA0EF343EA0C030361DFE7F1
:100580000C2A0CD8036B073A02EB82021F2494401A
:1005900023EA040301FA02F21A430263E0E7C36AA2
:1005A0000D3A02EB82021F24944023EA040401FA6C
:1005B00002F32343C362D3E721B1836843F480137A
:1005C00083607047836823F4801383607047C06C36
:1005D00080B27047014BD3F84C04704700200140B3
:1005E00021B1436843F4806343607047436823F458
:1005F00080634360704721B1436843F48053436094
:100600007047436823F4805343607047836823F442
:10061000E0430B438360704721B1836843F4004398
:1006200083607047836823F400438360704721B17F
:10063000836843F4021383607047836823F40213D2
:10064000836070478068C0F34050704730B4092918
:100650001FD9C568A1F10A0404EB44044FF0070C4C
:100660000CFA04FC25EA0C0CA34043EA0C03C3601B
:10067000846B931CC4F301529B1ADBB203EB83031C
:100680001F229A4024EA020499402143816330BC2E
:100690007047046901EB41054FF0070C0CFA05FCAB
:1006A00024EA0C04AB4023430361E1E7836B23F4AA
:1006B0004013013943EA01538363704782B000233A
:1006C00001930190019B19440191019B1A6002B0B2
:1006D000704782B0002301930190019B28330B44A3
:1006E0000193019B186880B202B07047436823F4FD
:1006F000400323F400730B434360704741628262FE
:100700007047436823F01F0319434160704700009E
:1007100028B1064A936843F4000393607047034A84
:10072000936823F400039360704700BF00240140E6
:100730000368194214BF012000207047C9430160BB
:1007400070474268036813EA112305D0C9B2114209
:1007500014BF012000207047002070476FEA11216C
:100760000160704708B5012002F026FB002002F06E
:1007700023FB08BD014BC3F80406704700800D42FF
:10078000014BC3F80006704700800D42014BC3F8CF
:100790008806704700800D42044A938D23F46073ED
:1007A0001B041B0C03439385704700BF006C004083
:1007B000044A938D23F07F031B041B0C0343938592
:1007C000704700BF006C004082B000230193044BCF
:1007D0000193019B18440190019B196002B070477E
:1007E000006C004082B000230193054B0193019BF4
:1007F00018440190019B188880B202B0704700BF76
:10080000006C0040024BD3F8A006C0B2704700BF96
:1008100000800D42034A938E9BB243F001039386FE
:10082000704700BF006C0040024BD3F8A406C0B272
:10083000704700BF00800D42034A938E9BB243F085
:1008400002039386704700BF006C004008B50C4B54
:1008500098420AD001214FF0806002F09FFA0021F7
:100860004FF0806002F09AFA08BD01214FF000704D
:1008700002F094FA00214FF0007002F08FFAF3E7D3
:1008800000640040036823F002030360036843F040
:1008900001030360436813F0010F07D14FF6FF73A4
:1008A000426812F0010F01D1013BF9D1436813F006
:1008B000010F5AD08B79012B03680CBF43F08003E2
:1008C00023F080030360CB79012B03680CBF43F056
:1008D000400323F0400303600B7A012B03680CBF35
:1008E00043F0200323F0200303604B7A012B0368BD
:1008F0000CBF43F0100323F0100303608B7A012B2D
:1009000003680CBF43F0080323F008030360CB7AAD
:10091000012B03680CBF43F0040323F004030360BE
:100920008A78CB781B0643EA82730A7943EA02434A
:100930004A7943EA02530A88013A1343C3610368C0
:1009400023F001030360436813F0010F07D04FF653
:10095000FF73426812F0010F01D0013BF9D14068EA
:1009600080F0010000F00100704700207047000097
:1009700010B5837A012202FA03F33F4AD2F800123B
:1009800041F00101C2F80012D2F81C126FEA030C08
:1009900021EA0301C2F81C12027BD2B9364AD2F80E
:1009A0000C120CEA0101C2F80C12817AB0F806E0D0
:1009B000448844EA0E44483142F8314090F80AE055
:1009C0008488018841EA04410EF1480E02EBCE0210
:1009D0005160027B012A20D0C27A002A37D12649F1
:1009E000D1F804220CEA0202C1F80422028932B9C9
:1009F0002149D1F814220CEA0202C1F8142202891A
:100A0000012A2BD0427B012A2FD01B4AD2F8003278
:100A100023F00103C2F8003210BD174AD2F80C12BD
:100A20001943C2F80C12817AB0F800E0448844EA15
:100A30000E44483142F83140847AB0F804E0C1886D
:100A400041EA0E41483402EBC4025160C4E70A494E
:100A5000D1F804221A43C1F80422C7E70649D1F8A5
:100A600014221A43C1F81422CCE70349D1F81C22FE
:100A70001343C1F81C32C8E70064004000238371AF
:100A8000C371037243728372C3728370C370032392
:100A90000371022343710123038070470D4BD3F888
:100AA000001241F00101C3F80012D3F8002222F431
:100AB0007C5222F00E02C3F80022D3F8002242EA50
:100AC0000022C3F80022D3F8002222F00102C3F86A
:100AD000002270470064004021B1036843F4803372
:100AE00003607047036823F4803303607047B1B13B
:100AF000036843F080030360D0F8843143F48073CB
:100B0000C0F88431D0F8943143F48073C0F8943144
:100B1000D0F8A43143F48073C0F8A431704703685F
:100B200023F080030360D0F8843123F48073C0F88D
:100B30008431D0F8943123F48073C0F89431D0F824
:100B4000A43123F48073C0F8A4317047024683684F
:100B500013F0806F09D1836813F0006F55D183685B
:100B600013F0805F61D0022000E0002030B58446A1
:100B700002EB0013D3F8804104F00104C3F8804174
:100B80000C7A002C43D1D3F880514C7AD1F800E094
:100B900044EA4E542C43C3F880418C7A04F00F048D
:100BA0008C72D3F8844124F00F04C3F88441D3F845
:100BB00084518C7A2C43C3F8844191F80EE04C7B2D
:100BC000240444EA0E6491F80BE044EA0E0491F820
:100BD0000CE044EA0E2402EB0C12C2F888418C7C33
:100BE00091F811C04FEA0C4C4CEA046CCC7B4CEAF7
:100BF000040C097C4CEA0121C2F88C11D3F8802145
:100C000042F00102C3F8802130BD0120AEE7D3F8E5
:100C10008051D1F804E044EACE0491F809E044EAB6
:100C20000E042C43C3F88041B7E70420704700004E
:100C3000012914D002291AD009B102207047806816
:100C400020F07B4020F47F0020F47F4020F0FC0067
:100C5000E8B1104B984214BF002001207047826811
:100C60000D4B02EA03009343F2D1012070478068E4
:100C700020F06F4020F47C00000C0004064B9842EA
:100C8000E6D9064B984214BF00200120704702208D
:100C9000704700BF030000040003000800000310B9
:100CA000012908D002290BD001B17047836843F0B5
:100CB000800383607047836843F400438360704718
:100CC000836843F400038360EFE710B400EB011383
:100CD000D3F8B04104F004041472C4BBD3F8B0419B
:100CE000640D1460D3F8B04104F002045472D3F8D8
:100CF000B44104F00F049472D3F8B4311B0AD374D6
:100D000000EB0113D3F8B841D472D3F8B841240AE8
:100D10001473D3F8B841240C5473D3F8B841240E9B
:100D20009473D3F8BC41D473D3F8BC41240A14742F
:100D3000D3F8BC41240C5474D3F8BC311B0E93740B
:100D400051B9C36843F02003C36010BC7047D3F8A7
:100D5000B041E4085460C5E7036943F02003036130
:100D6000F3E721B9C36843F02003C3607047036908
:100D700043F020030361704719B9C06800F0030015
:100D80007047012906BF006900F00300002070478A
:100D9000D9B9036823F0030343F0010303604368F8
:100DA00003F00303012B08D04FF6FF72436803F0F2
:100DB0000303012B01D0013AF8D1406800F0030091
:100DC000012814BF002001207047012903D0022907
:100DD00018D000207047036823F0030303604368C2
:100DE00013F0030F07D04FF6FF73426812F0030FA2
:100DF00001D0013BF9D1436813F0030F0CBF012070
:100E000000207047036823F0030343F002030360EC
:100E1000436803F00303022B08D04FF6FF724368C8
:100E200003F00303022B01D0013AF8D1406800F02F
:100E30000300022814BF002001207047036823F03C
:100E4000030343F002030360406800F0030002283C
:100E500014BF002001207047036823F002030360E1
:100E6000436813F0020F07D04FF6FF73426812F089
:100E7000020F01D0013BF9D1406880F00200C0F3BD
:100E800040007047806900F0700070478069000E74
:100E900070478069C0F3074070471AB1436919432E
:100EA00041617047436923EA01014161704703468C
:100EB00011F4700F07D080690840C0F313000038A8
:100EC00018BF0120704711F0807F07D040680840AC
:100ED000C0F31300003818BF0120704711F0006FF5
:100EE00007D080680840C0F31300003818BF012005
:100EF000704711F0007F14BFC06818690840C0F344
:100F00001300003818BF0120704700000B4B9942B6
:100F100006D0C1F3130311F0007F04D0C360704703
:100F200000238361704711F0806F01D00361704727
:100F300011F0006F14BF8360436070477000F030A1
:100F400043690B4279D0B1F5807F6AD01ED8202941
:100F500014D801391F2972D8DFE801F03E47714DDE
:100F600071717151717171717171715571717171AD
:100F700071717171717171717171715B402903D1FE
:100F80000069C0F30010704700207047B1F5004FB2
:100F90004FD009D9B1F5803F3FD0B1F5003F19D10D
:100FA0004068C0F300107047B1F5806F3DD0B1F5D7
:100FB000006F06D1836913F0700F14BF0120002069
:100FC0007047B1F5007F03D18069C0F340007047DE
:100FD0000020704700207047806800F0013020F04A
:100FE0008070003818BF01207047C06810F00300FF
:100FF00018BF01207047C068C0F3C0007047C068C8
:10100000C0F300107047006910F0030018BF012002
:1010100070470069C0F3C00070474068C0F3C0006B
:101020007047806900F0010070478069C0F380005C
:1010300070474068C0F38000704700207047002070
:1010400070470000B1F5007F4ED021D8202916D876
:10105000002953D001391F2950D8DFE801F0334F60
:101060004F364F4F4F394F4F4F4F4F4F4F4F4F4FBF
:101070004F4F4F4F4F4F4F4F4F4F4F4F4F3C4029C8
:101080002CD0B1F5807F02D10423436070477047B4
:10109000B1F5004F2ED008D9B1F5803F21D0B1F580
:1010A000003F0ED1102343607047B1F5806F1ED012
:1010B000B1F5006F04D100238361042343607047BE
:1010C000704770470E4B836070470823C3607047BA
:1010D0001023C36070470823036170471023036126
:1010E000704708234360704704234360704704231C
:1010F000436070470023836104234360704700BF4F
:101100000101010008B501214FF0804001F046FEC9
:1011100000214FF0804001F041FE08BD05490B68F9
:1011200003F0F30302884088024313439BB20B6031
:10113000704700BF00780040044B186020B9044A93
:10114000136813F0010FFBD1704700BF00000F427E
:1011500000780040014B5860704700BF00000F420C
:10116000014B5860704700BF00780040014B986009
:10117000704700BF00780040014B5861704700BFC6
:1011800000780040014B9869C0B270470078004079
:10119000024B0122C3F80022704700BF00000F423B
:1011A000014BC3F80402704700000F4220F07F4358
:1011B000020F1ABF1B0C044A044A12681A4214BFD9
:1011C00001200020704700BF0C78004010780040DC
:1011D00010B4064A11691469C34323F0030301F0F4
:1011E00002010B432340136110BC7047007800409C
:1011F000044A13681269104214BFC3F34000002070
:10120000704700BF0078004010B4064A11691469A5
:10121000C34323F0030301F002010B432340136196
:1012200010BC704700780040014B01229A60704763
:1012300000300240014B18601868704700300240CF
:1012400041B1043800EB8102044950F8043F0B60BF
:101250009042FAD1014B1868704700BF003002403D
:10126000014B1868704700BF00300240014B1871F5
:10127000704700BF00300240014B1879704700BF33
:101280000030024008B501214FF0005001F086FD0A
:1012900000214FF0005001F081FD08BD30B40A4C30
:1012A000226840F6FE73834022EA03020B684D6811
:1012B0002B438D682B43C9680B4303FA00F010439E
:1012C000206030BC704700BF007400400023036002
:1012D00043608360C360704739B1084A11680123D5
:1012E00003FA00F008431060704704490B680122BC
:1012F00002FA00F023EA0000086070470074004022
:1013000041B1094A11684FF4805303FA00F00843D1
:101310001060704704490B684FF4805202FA00F0E5
:1013200023EA0000086070470074004041B1094A98
:1013300051680009012303FA00F008435060704728
:1013400004494B680009012202FA00F023EA000078
:10135000486070470074004028B1064A536843F063
:10136000030353607047034A536823F00303536039
:10137000704700BF007400402AB1064B1A688140D4
:10138000114319607047034A1368814023EA010141
:10139000116070470074004082B000230193054B38
:1013A0000193019B083303440193019B196002B030
:1013B000704700BF0074004082B000230193054BCA
:1013C0000193019B143303440193019B196002B004
:1013D000704700BF0074004008280CBF42EA012299
:1013E00042EA0142014BC250704700BF20740040E6
:1013F00082B000230193064B0193019B2C3303EB36
:1014000090030193019B186880B202B0704700BF3F
:1014100000740040014B1868000C7047002004E085
:10142000024B1868C0F30B00704700BF002004E0B7
:1014300021B1054A5368184350607047024A536807
:1014400023EA000050607047002004E0036823F0A6
:1014500001031B041B0C03600023036043608360D3
:10146000C360364B984221D0354B984224D0354B3F
:10147000984227D0344B98422AD0344B98422DD0F2
:10148000334B984230D0334B984233D0324B984252
:1014900036D0324B984239D0314B98423CD0314B08
:1014A00098423FD0304B984242D070472F4A536801
:1014B00043F00F03536070472C4A536843F0F00326
:1014C00053607047294A536843F470635360704710
:1014D000264A536843F4704353607047234A536865
:1014E00043F4702353607047204A536843F47003F9
:1014F000536070471D4A536843F0706353607047F0
:101500001B4A536843F00F0353607047184A5368EF
:1015100043F0F00353607047154A536843F4706317
:1015200053607047124A536843F4704353607047E6
:101530000F4A536843F470235360B6E70800024033
:101540001C000240300002404400024058000240AB
:101550006C00024080000240080402401C0402406B
:10156000300402404404024058040240000002409B
:101570000004024010B4026822F4FF4222F070021C
:101580008B680C6A23430C6923434C6923438C69A1
:101590002343CC6923434C6A23438C6A234313437C
:1015A0000360CB6843600B6883604B68C36010BC0A
:1015B00070470023036043608360C360036143613D
:1015C0008361C361036243628362704721B1036830
:1015D00043F0010303607047036823F001031B0419
:1015E0001B0C036070471AB1036819430160704710
:1015F000036823EA01010160704741607047406859
:1016000080B2704710F0805F14BF044B044B1B681E
:10161000034214BF01200020704700BF00040240B5
:101620000000024010F0805F14BF024B024B586074
:10163000704700BF000402400000024010F0805FCD
:1016400014BF044B044B1B68034214BF012000204D
:10165000704700BF000402400000024010F0805FAD
:1016600014BF024B024B5860704700BF0004024099
:1016700000000240044B00221A605A609A60DA604F
:10168000024A5A61704700BF00040140FFFF0F008B
:101690008379002B35D010B41F4B1A68016822EAF9
:1016A00001021A605A68016822EA01025A6002794E
:1016B00002F1804202F58232116804682143116010
:1016C0009A68016822EA01029A60DA68016822EAEF
:1016D0000102DA604379102B09D003F1804303F54E
:1016E00082331A6801680A431A6010BC70470A4BBB
:1016F0009A6801680A439A60DA6801680A43DA6006
:10170000F3E7037903F1804303F582331A68016834
:1017100022EA01021A6070470004014000230360BE
:1017200003710C224271837170470000024A1369F1
:1017300003431361704700BF00040140034B5B6922
:10174000034214BF01200020704700BF0004014085
:10175000014B5861704700BF00040140054B1A68F7
:101760005B69034204D0024214BF0120002070478D
:101770000020704700040140014B5861704700BFD2
:1017800000040140034A136803F038030343136065
:10179000704700BF00200240044B196821F0080187
:1017A00019601A6802431A60704700BF00200240A7
:1017B000044B196821F0100119601A6802431A607D
:1017C000704700BF00200240034B044A5A6002F1F8
:1017D00088325A60704700BF0020024023016745ED
:1017E000034B044A5A6002F188325A60704700BFC6
:1017F0000020024023016745024A136943F0800339
:101800001361704700200240024A136943F08003CD
:101810001361704700200240014BD869800870476F
:1018200000200240014B186A704700BF00200240B0
:10183000024BD869C0F34000704700BF002002404F
:10184000024B1868C0F34010704700BF00200240F0
:1018500021B1054A1369184310617047024A1369A0
:1018600023EA00001061704700200240012806D0E2
:10187000054BDB68034214BF012000207047024B78
:10188000D86900F00100704700200240014BD86089
:10189000704700BF002002400A4BDB6813F0010FC5
:1018A0000CD1084BDB6813F0040F09D1054BDB6842
:1018B00013F0100F14BF032004207047012070475D
:1018C00002207047002002400A4BDB6813F0010F32
:1018D0000CD1084BDB6813F0040F09D1054BDB6812
:1018E00013F0100F14BF032004207047012070472D
:1018F000022070470020024010B50446FFF7E4FFC5
:10190000012809D134B1FFF7DFFF013C012803D1E1
:10191000002CF8D1052002E0002C08BF052010BDE6
:1019200038B504464FF43020FFF7E6FF042800D016
:1019300038BD0A4D2B6943F002032B616C612B69A2
:1019400043F040032B614FF43020FFF7D5FF2B69A4
:1019500023F00203DB04DB0C2B61E9E700200240EB
:1019600010B54FF43020FFF7C7FF042800D010BD9A
:10197000094C236943F004032361236943F04003C6
:1019800023614FF43020FFF7B7FF236923F00403EE
:10199000DB04DB0C2361EAE70020024010B5FFF70F
:1019A00047FF00280CBFA52400244FF43020FFF788
:1019B000A3FF042800D010BD1C4B1D4A9A6002F101
:1019C00088329A601A6942F020021A611A6942F05C
:1019D00040021A614FF43020FFF78EFF042809D02F
:1019E0000528E8D0114A136923F01003DB04DB0C4F
:1019F0001361E0E70D4B1A6922F02002D204D20CE9
:101A00001A611A6942F010021A610A4B1C804FF4E5
:101A10000050FFF771FF0528CDD0044A136923F069
:101A20001003DB04DB0C1361C5E700BF002002409C
:101A30002301674500F8FF1F30B583B005460C460B
:101A4000002301934FF40050FFF756FF042801D004
:101A500003B030BD124A136943F001031361A3B20E
:101A60002B804FF40050FFF747FF042807D00C4AA3
:101A7000136923F00103DB04DB0C1361E8E7023593
:101A80000195019B210C19804FF40050FFF734FFA2
:101A9000034A136923F00103DB04DB0C1361D7E76E
:101AA0000020024070B504460D464FF40050FFF789
:101AB00023FF042800D070BD084E336943F00103B2
:101AC000336125804FF40050FFF716FF336923F090
:101AD0000103DB04DB0C3361EDE700BF00200240B3
:101AE00038B505460C464FF40050FFF705FF0428B3
:101AF00000D038BD0C4B0D4A9A6002F188329A60D2
:101B00001A6942F010021A61A1B229804FF4005004
:101B1000FFF7F2FE0528ECD0034A136923F0100307
:101B2000DB04DB0C1361E4E700200240230167457E
:101B300038B505464FF40050FFF7DEFE0446042892
:101B400001D0204638BDED43E9B2224B224A9A60CB
:101B500002F188329A601A6942F010021A61FF2974
:101B600012D1C5F30723FF2B21D1C5F30743FF2B68
:101B700026D12D0EFF2D12D0184BDD814FF40050D1
:101B8000FFF7BAFE044608E0144B19814FF40050E9
:101B9000FFF7B2FE0428E4D00446052CD1D00D4A4C
:101BA000136923F01003DB04DB0C1361C9E70B4A54
:101BB00053814FF40050FFF79FFE0428D5D0EBE788
:101BC000064A93814FF40050FFF796FE0428D0D0C8
:101BD0000446E2E7002002402301674500F8FF1FAA
:101BE00010B504464FF43020FFF786FE042800D0DD
:101BF00010BD1F4B1F4A9A6002F188329A601A6921
:101C000042F020021A611A6942F040021A614FF450
:101C10003020FFF771FE042809D00528E8D0144AC7
:101C2000136923F02003DB04DB0C1361E0E7104BA6
:101C30001A6922F02002D204D20C1A611A6942F009
:101C400010021A6184B10C4B00221A804FF430202C
:101C5000FFF752FE0528CBD0054A136923F0100385
:101C6000DB04DB0C1361C3E7034BA5221A80EDE70D
:101C7000002002402301674500F8FF1F70B50546AC
:101C80000C461646134B1449996001F1883199604E
:101C90004FF40050FFF730FE042800D070BD0D4A0D
:101CA000136943F01003136146EA0502144344F03C
:101CB000F8040A4B5C804FF40050FFF71DFE052826
:101CC000ECD0044A136923F01003DB04DB0C13612E
:101CD000E4E700BF002002402301674500F8FF1F32
:101CE00010B50446FFF7F0FD012809D134B1FFF724
:101CF000EBFD013C012803D1002CF8D1052002E0C6
:101D0000002C08BF052010BD10B54FF43020FFF7A0
:101D1000E7FF042800D010BD094C236943F00403F9
:101D20002361236943F0400323614FF43020FFF720
:101D3000D7FF236923F00403DB04DB0C2361EAE70C
:101D400000200240034680B94FF0204243F2DB01FD
:101D50001160581C6FF070424FF0204141F8202074
:101D60009B000B44C3F8042170474FF0204243F21C
:101D7000D20142F82010ECE710280ED04FF020439B
:101D80001822C3F880204022C3F884204FF0FC3290
:101D9000C3F88820C3F88C2070474FF020431822E6
:101DA0001A6640225A664FF0FC329A66DA6670472D
:101DB0004FF020431822C3F8A0200022C3F8A4202B
:101DC0004FF0FC32C3F8A820C3F8AC20C3F8B02011
:101DD000704710B40268436881680B43C1680B43C5
:101DE00001690B4341690B4381690B43C1690B4393
:101DF000016A0B43416A0B43816A0B43C16A0B437F
:101E0000016B0B434FF0204141F822308368082BCF
:101E100026D0426B016801311368946923435468EA
:101E200043EA0413946843EA0423D46843EA04436E
:101E3000146943EA0453526943EA02634FF02042B3
:101E400042F82130C36AB3F5804F13D003689B007A
:101E500003F120436FF07042C3F8042110BC7047B7
:101E600001684FF0204252F8213043F0400342F81D
:101E70002130CEE7816B02680B68886903434868AC
:101E800043EA0013886843EA0023086943EA0053E1
:101E9000496943EA0163920002F12042C2F8043129
:101EA000DCE730B4436882681343826943EA423313
:101EB000C268134302691343426943EA422343F071
:101EC0000803C469A2681104626841EA0221226819
:101ED0001143E26841EA0261046AA268120465687B
:101EE00042EA052225682A43E46842EA046200685F
:101EF000102809D04FF02040C0F88030C0F888107A
:101F0000C0F88C2030BC70474FF0204003668166DB
:101F1000C266F7E710B4426883685B0343EA422372
:101F20000268134343F010034FF02042C2F8A03080
:101F3000C1688B681B044C6843EA04230C68234384
:101F4000C96843EA0163C2F8A83001698B681B04C1
:101F50004C6843EA04230C682343C96843EA0163DD
:101F6000C2F8AC30416948688B681B0443EA00231F
:101F700008680343C96843EA0163C2F8B03010BC83
:101F8000704700230360022242608360C3600361E4
:101F900043618361C36103624FF4805242624FF434
:101FA00000528262C3620363416B0F220A60416B7D
:101FB0004A60FF21D0F834C0CCF80810D0F834C003
:101FC000CCF80C20D0F834C0CCF81020D0F834C0B5
:101FD000CCF81420D0F834C0CCF81830D0F838C081
:101FE000CCF80020D0F838C0CCF80420D0F838C0A5
:101FF000CCF80810816BCA60816B0A61816B4A6101
:10200000826B9361704710230360002343608360F9
:10201000C360036143618361C269FC231360C269C9
:102020005360C2699360C269D360026A1360026A36
:102030005360026A9360026AD360704700230360B2
:1020400043608360C268FC231360C2685360C26847
:102050009360C268D36002691360026953600269C9
:1020600093600269D36042691360426953604269B8
:1020700093604269D360704741B14FF0204252F8FB
:10208000203043F0010342F8203070474FF02042E7
:1020900052F82010024B0B4042F82030704700BF2E
:1020A000FEFF0F0089B1102808D04FF02042D2F86F
:1020B000803043F00403C2F8803070474FF0204274
:1020C000136E43F0040313667047102808D04FF0D6
:1020D0002042D2F88010064B0B40C2F88030704787
:1020E0004FF02042116E024B0B401366704700BF49
:1020F000FBFF0F0040B14FF02042D2F8A03043F078
:102100000403C2F8A03070474FF02042D2F8A0106C
:10211000024B0B40C2F8A030704700BFFBFF0F001E
:1021200089B1102808D04FF02042D2F8803043F017
:102130004003C2F8803070474FF02042136E43F0E6
:10214000400313667047102808D04FF02042D2F8A1
:102150008010064B0B40C2F8803070474FF0204291
:10216000116E024B0B401366704700BFBFFF0F009C
:1021700010284FF020430CBF586FD3F894007047DD
:10218000D2B110280AD0B0F5807F0DD04FF0204298
:10219000D2F8A4301943C2F8A41070474FF020427F
:1021A000536E1943516670474FF02042D2F8843085
:1021B0001943C2F88410704710280BD0B0F5807F07
:1021C0000FD04FF02042D2F8A43023EA0101C2F828
:1021D000A41070474FF02042536E23EA010151666C
:1021E00070474FF02042D2F8843023EA0101C2F850
:1021F0008410704710280DD0B0F5807F4FF0204339
:102200000CBFD3F88430D3F8A4300B4214BF0120A4
:10221000002070474FF020435B6EF6E710280BD08C
:10222000B0F5807F0FD04FF02042D2F8A43023EADF
:102230000101C2F8A41070474FF02042536E23EA08
:102240000101516670474FF02042D2F8843023EAF2
:102250000101C2F884107047102810D0B0F5807FBB
:102260004FF020430CBFD3F88430D3F8A4300B4296
:1022700009D013EAD10314BF0120002070474FF0AA
:1022800020435B6EF3E70020704710280BD0B0F5B9
:10229000807F0FD04FF02042D2F8A43023EAD10142
:1022A000C2F8A41070474FF02042536E23EAD101C8
:1022B000516670474FF02042D2F8843023EAD101B2
:1022C000C2F884107047000008B52B4B984212D01A
:1022D0002A4B984218D02A4B98421ED0294B98423C
:1022E00024D0294B98422AD0284B984230D0284BF2
:1022F000984236D008BD0121042000F041FD0021A4
:10230000042000F03DFDF5E70121082000F038FD34
:102310000021082000F034FDECE70121102000F03E
:102320002FFD0021102000F02BFDE3E701212020EC
:1023300000F026FD0021202000F022FDDAE7012137
:10234000402000F01DFD0021402000F019FDD1E7E4
:102350000121802000F014FD0021802000F010FDFC
:10236000C8E701214FF4807000F00AFD00214FF40E
:10237000807000F005FDBDE700080140000C014041
:10238000001001400014014000180140001C0140F1
:102390000020014008B50121084600F0F1FC0021B1
:1023A000012000F0EDFC08BDF0B5CB7803F00F0E76
:1023B00013F0100F1CBF8B784EEA030E0B7823B37B
:1023C0000468002301250F2703E042610133082B35
:1023D0001AD005FA03F2B1F800C032EA0C06F5D1C2
:1023E0004FEA830C07FA0CF624EA06040EFA0CFCFA
:1023F0004CEA040491F803C0BCF1280FE5D0BCF10D
:10240000480F08BF0261E1E704600B88FF2B28D961
:102410004468002301250F2602E00133082B1FD05A
:1024200003F1080205FA02F2B1F800C032EA0C0723
:10243000F3D14FEA830C06FA0CF724EA07040EFAEC
:102440000CFC4CEA040491F803C0BCF1280F08BF4F
:10245000426191F803C0BCF1480F08BF0261DCE79C
:102460004460F0BD4FF6FF730380022383700423A2
:10247000C37070478368194214BF01200020704761
:10248000806880B27047C368194214BF01200020E1
:102490007047C06880B27047016170474161704702
:1024A0000AB10161704741617047C160704741F4F2
:1024B0008033836181618361836983697047000030
:1024C000054A136823F07F031B041B0C0B4343EAEC
:1024D00000131360704700BF00000140014BD8613A
:1024E000704700BF0000204210B50028194BB4BF50
:1024F000DB695B681FFA80FE00F4401CBCF5401FDE
:102500000BD010F4801F1BD0C0F303440322A24061
:1025100023EA020343F0706306E023F070630D4C7E
:10252000626822F07062626021B1420D12010EFAFF
:1025300002F213430028074AB4BFD361536010BDB1
:10254000420D12010EFA02F223EA020343F0706315
:10255000EAE700BF0000014001F003039B0001F027
:10256000FC0101F1804101F580318A684FF00F0CC8
:102570000CFA03FC22EA0C028A608A689840104335
:1025800088607047014BC3F8DC00704700002042B0
:1025900008B50C4B98420AD001214FF4800000F09E
:1025A000FDFB00214FF4800000F0F8FB08BD012185
:1025B0004FF4001000F0F2FB00214FF4001000F087
:1025C000EDFBF3E70054004070B586B004460D46BD
:1025D000868826F03F063604360C01A800F04EFB34
:1025E00003982D4BA3FB0023990C46EA9346A68043
:1025F000228822F001021204120C22802B68274A42
:10260000934223D85B00B0FBF3F39BB2042B38BF9B
:10261000042301F1010CA4F820C0A38323889BB2FA
:1026200043F00103238023889BB223F4816323F0CA
:102630000203AA8869890A4313439BB22380AB89AA
:102640002A8913439BB2238106B070BDEE884BF6F6
:10265000FF7296421AD003EB830303EB8303B0FBB4
:10266000F3F39BB243F48043C3F30B020AB943F084
:10267000010343F400434FF4967202FB01F1084A50
:1026800082FB0121891101312184C6E703EB430359
:10269000B0FBF3F39BB2E7E783DE1B43A0860100A8
:1026A000D34D621041F288330360002383804BF6E0
:1026B000FF72C280038143814FF48043838170475E
:1026C00029B103889BB243F001030380704703885C
:1026D00023F001031B041B0C0380704729B183887E
:1026E0009BB243F4006383807047838823F40063C4
:1026F0001B041B0C8380704729B183889BB243F471
:10270000805383807047838823F480531B041B0C01
:102710008380704729B103889BB243F480730380A0
:102720007047038823F480731B041B0C03807047DD
:1027300029B103889BB243F4007303807047038878
:1027400023F400731B041B0C0380704729B103881A
:102750009BB243F4806303807047038823F4806353
:102760001B041B0C0380704783899BB201F0FE01A0
:1027700023F0FE0319438181704729B183899BB2FD
:1027800043F0010383817047838923F001031B0415
:102790001B0C8381704729B103889BB243F040032F
:1027A00003807047038823F040031B041B0C038045
:1027B000704722B183889BB2194381807047838818
:1027C0009BB223EA01018180704701827047008A31
:1027D000C0B2704722B141F0010189B20182704755
:1027E00001F0FE01F9E782B0002301930190019B03
:1027F00019440191019B188880B202B0704739B129
:1028000003886FEA43436FEA53439BB203807047E8
:102810000388C3F30E0303807047B1F5006F06D041
:10282000038823F400631B041B0C03807047038898
:102830009BB243F4006303807047B1F5005F06D09C
:10284000038823F400531B041B0C03807047038888
:102850009BB243F400530380704729B103889BB2B5
:1028600043F4805303807047038823F480531B0490
:102870001B0C03807047B1F5006F06D0038823F46A
:1028800000631B041B0C0380704703889BB243F456
:1028900000630380704729B103889BB243F0200393
:1028A00003807047038823F020031B041B0C038064
:1028B0007047008BC0F30720704729B103889BB293
:1028C00043F0100303807047038823F010031B04B8
:1028D0001B0C0380704729B903889BB243F0800327
:1028E00003807047038823F080031B041B0C0380C4
:1028F0007047B1F5804F06D0838B23F480431B04CF
:102900001B0C83837047838B9BB243F48043838388
:102910007047838A9BB2008B43EA00430B4023F04D
:102920007F438B4214BF002001207047838A9BB2F3
:10293000008B43EA004020F07F40704782B00023C4
:102940000193009300900B0F019321F07F41019BB5
:1029500053B1009B14330093009B1B680B4214BFC0
:102960000120002002B07047090C009B183300932F
:10297000F2E7C94389B28182704783889BB2828A19
:1029800092B20A4207D003EA114313F4E06F14BF76
:1029900001200020704700207047C94389B281821E
:1029A00070470000014B1860704700BF00300040C6
:1029B000014B5860704700BF00300040014B9860E9
:1029C000704700BF00300040024B4AF6AA221A604E
:1029D000704700BF00300040024B4CF6CC421A60FA
:1029E000704700BF00300040034BDB68184214BF43
:1029F00001200020704700BF0030004008B50121D1
:102A00004FF0805000F0CAF900214FF0805000F0E4
:102A1000C5F908BD014B1862704700BF00000E42A7
:102A2000014B1861704700BF00000E42034A136853
:102A300023F0E00303431360704700BF00700040C1
:102A4000014BC3F8A000704700000E420A4A136809
:102A500023F0030303431360084A136943F004039C
:102A60001361012906D020BF044A136923F004032F
:102A70001361704730BFF7E70070004000ED00E0E1
:102A8000074B1A6842F004021A601A6842F0020208
:102A90001A60044A136943F00403136130BF70479E
:102AA0000070004000ED00E0034B5B68034214BF80
:102AB00001200020704700BF00700040024A1368E8
:102AC00043EA800313607047007000400D4B1A68A2
:102AD00042F001021A6059680B4A0A405A601A68AB
:102AE00022F0847222F480321A601A6822F4802262
:102AF0001A605A6822F4FE025A604FF41F029A606C
:102B0000704700BF001002400000FFF80D4B1A682C
:102B100022F480321A601A6822F480221A60B0F51A
:102B2000803F03D0B0F5802F06D07047054A136868
:102B300043F4803313607047024A136843F4A023C0
:102B40001360704700100240034A136823F0F80333
:102B500043EAC0031360704700100240014B186045
:102B6000704700BF00004242034A536823F47C13BD
:102B70000B4303435360704700100240014B18663B
:102B8000704700BF00004242034A536823F003032A
:102B900003435360704700BF00100240024B586867
:102BA00000F00C00704700BF00100240034A536859
:102BB00023F0F00303435360704700BF001002404E
:102BC000034A536823F4E06303435360704700BF34
:102BD00000100240034A536823F4605343EAC003E1
:102BE000536070470010024021B1054A537A1843E0
:102BF00050727047024A537A23EA000050727047BD
:102C000000100240014BC3F8D80070470000424258
:102C1000034A536823F4404303435360704700BFA3
:102C2000001002400A4B002283F8202083F8202065
:102C3000012802D0042805D07047054B012283F8F3
:102C400020207047024B052283F82020704700BFE8
:102C500000100240014BC3F880047047000042425C
:102C6000024A136A03431362704700BF0010024018
:102C7000014BC3F83C0470470000424210B4274B9C
:102C80005B6803F00C03042B2BD0082B2CD013B162
:102C9000234B036001E0224B0360204C6368C3F3C5
:102CA0000313204AD35CD9B20368CB404360616808
:102CB000C1F30221515CC9B223FA01F1816061685C
:102CC000C1F3C221515CC9B2CB40C3606168C1F39A
:102CD00081310A44127CD2B2B3FBF2F3036110BC1F
:102CE00070470F4B0360D8E70C4A53685268C3F330
:102CF0008343023312F4803F04D10B4A02FB03F3F7
:102D00000360CAE7054A526812F4003F14BF064A3E
:102D1000034A02FB03F30360BFE700BF0010024059
:102D200000127A001400002000093D0021B1054A7C
:102D30005369184350617047024A536923EA0000FF
:102D4000506170470010024021B1054A9369184351
:102D500090617047024A936923EA000090617047CE
:102D60000010024021B1054AD3691843D061704771
:102D7000024AD36923EA0000D06170470010024084
:102D800021B1054AD3681843D0607047024AD3681E
:102D900023EA0000D06070470010024021B1054ACC
:102DA0001369184310617047024A136923EA00004F
:102DB0001061704700100240014BC3F84004704797
:102DC00000004242014BD864704700BF00004242FD
:102DD000014BD871704700BF001002404309012B1E
:102DE0000BD0022B064B0CBF1B6A5B6A00F01F0066
:102DF00023FA00F000F001007047014B1B68F5E773
:102E00000010024010B582B0002301933124204607
:102E1000FFF7E4FF019B01330193019BB3F5A06F22
:102E200001D00028F3D03120FFF7D8FF003818BFB9
:102E3000012002B010BD0000024A536A43F08073C3
:102E40005362704700100240034B9B68184214BF46
:102E500001200020704700BF00100240014B987213
:102E6000704700BF0010024029B1064A13889BB288
:102E7000184310807047034A13889BB223EA00006E
:102E80001080704700280040034A93889BB243F0AB
:102E900010039380704700BF00280040034A9388C6
:102EA00023F010031B041B0C938070470028004084
:102EB000084B188B82B2988B80B21B8B9BB29A42C4
:102EC00005D0044A908B80B240EA0340704740EA44
:102ED000024070470028004010B50446FFF7D4FFB9
:102EE000220C034B1A83A4B29C83FFF7D7FF10BDBB
:102EF0000028004010B50446FFF7C6FFC4F30342A4
:102F0000034B1A81A4B29C81FFF7C8FF10BD00BF1C
:102F10000028004010B50446FFF7B6FF220C034B13
:102F20001A84A4B29C84FFF7B9FF10BD00280040AA
:102F3000044A138A1B0403F47023908A80B2184356
:102F4000704700BF00280040024A938813F0200F0A
:102F5000FBD0704700280040054A938823F00803FF
:102F60001B041B0C9380938813F0080FFBD0704751
:102F700000280040034B9B88184214BF012000200A
:102F8000704700BF00280040034A93889BB223EAA1
:102F900000039380704700BF00280040074A9388D1
:102FA0009BB21288104206D0034013F0FF0F14BFEB
:102FB0000120002070470020704700BF002800401B
:102FC000034A93889BB223EA00039380704700BFB3
:102FD00000280040064B00221A605A609A60DA60AE
:102FE0005A629A62DA6203499963DA63704700BFF2
:102FF00000800140FF07C00010B40A494A68836896
:103000004468234322F4FD4222F07F021343C26846
:1030100013430268134302691343027D13434B6059
:1030200010BC7047008001400023037503604360BB
:103030008360C36003617047014BC3F8A000704711
:1030400000003042014B1860704700BF0080014013
:10305000024B186800F00300704700BF0080014079
:1030600021B1054AD36B1843D0637047024AD36B32
:1030700023EA0000D063704700800140014BC3F891
:103080008C0570470000304210B4036808498B601B
:10309000CA6843688468234322F4FF6222F007026F
:1030A0001343C268134302691343CB6010BC7047DB
:1030B000008001400023036043608360C3600361BC
:1030C00070470000014B1869C0B270470080014092
:1030D00082B000230193034B03440193019B1868C2
:1030E00002B070471480014010B40368084A53626C
:1030F00043689362D16A8368C468234321F0F7016F
:103100000B4301690B4341690B43D36210BC704709
:10311000008001404FF0FF33036000234360836071
:10312000C360036143617047014B186B704700BF78
:1031300000800140014BD3F88000704700800140BF
:10314000014BC3F88000704700800140014B986C30
:10315000704700BF00800140014BC3F8A0057047D5
:1031600000003042014BC3F8A40570470000304214
:10317000014BC3F8A805704700003042014BC3F86B
:10318000AC05704700003042014BC3F8AC017047FA
:1031900000003042014BC3F8B001704700003042DC
:1031A00080F0010000F00100014BC3F8B40170474A
:1031B00000003042014BC3F8B801704700003042B4
:1031C000034B5B6B034214BF01200020704700BF1C
:1031D00000800140014B9863704700BF00800140B0
:1031E000034B5B6B034214BF01200020704700BFFC
:1031F00000800140014B9863704700BF0080014090
:1032000008B5154B984206D0144B98420ED0144B7B
:10321000984216D008BD01214FF48050FFF7B0FD51
:1032200000214FF48050FFF7ABFDF3E701214FF48D
:103230008040FFF7B3FD00214FF48040FFF7AEFD63
:10324000E8E701214FF40040FFF7A8FD00214FF40B
:103250000040FFF7A3FDDDE70030014000380040EB
:10326000003C0040038803F441520B88B1F802C0CF
:1032700043EA0C03B1F804C043EA0C03B1F806C0FA
:1032800043EA0C03B1F808C043EA0C03B1F80AC0E2
:1032900043EA0C03B1F80CC043EA0C03B1F80EC0CA
:1032A00043EA0C0313439BB20380838B23F4006334
:1032B0001B041B0C83830B8A03827047F0B587B015
:1032C00006460D46838B9BB223F47B6323F00F03EA
:1032D0009BB2838302230384848BA4B28B68022B6A
:1032E00038D08B88002B0CBF0127022701A8FFF7DD
:1032F000C5FC019BEA88B2F5007F0EBF1B0A7F0167
:10330000B3FBF7F303EB83035B00AA68B3FBF2F3B1
:1033100005339BB2114AA2FB0323C3F3C0021B096E
:10332000991E89B2FD2913D9002202231343EA888A
:10333000134333842B886A8813432343AC88234385
:10334000AC8923439BB243F40063B38307B0F0BD61
:103350001202EBE700220223E8E700BFCDCCCCCC81
:103360000023038043808380C38003814381838162
:10337000C381072303827047002303804380838037
:10338000C380022282608381704729B103889BB287
:1033900043F0400303807047038823F040031B047D
:1033A0001B0C0380704729B1838B9BB243F480636D
:1033B00083837047838B23F480631B041B0C8383FC
:1033C00070470B090121994089B222B183889BB2D1
:1033D00019438180704783889BB223EA0101818071
:1033E000704722B183889BB21943818070478388DC
:1033F0009BB223EA010181807047818170478089F7
:1034000080B270474FF6FF63994205D003889BB2A4
:1034100043F4807303807047038823F480731B0494
:103420001B0C0380704729B183889BB243F00403CF
:1034300083807047838823F004031B041B0C838064
:103440007047038823F400631B041B0C038003886C
:103450009BB20B430380704703889BB243F48053B5
:103460000380704729B103889BB243F40053038063
:103470007047038823F400531B041B0C0380704720
:10348000012914BF008B808A80B27047008A80B205
:103490007047B1F5804F06D0038823F480431B04A6
:1034A0001B0C0380704703889BB243F48043038066
:1034B00070470389194214BF012000207047C94397
:1034C00089B20181704783881FFA83FC028992B216
:1034D00001F00F00012383401A4209D0090901239A
:1034E00003FA01F11CEA010F14BF184600207047CF
:1034F0000020704701F00F0101238B40DB439BB29A
:103500000381704700B5B0F820E02EF0010E4FEABD
:103510000E4E4FEA1E4EA0F820E0B0F818C0B0F8EA
:1035200020E01FFA8EFE2CF0F30C4FEA0C4C4FEA11
:103530001C4C42EA03124CEA020C1FFA8CFC124AA1
:10354000904217D0114B984214D0B0F1804F11D057
:10355000A3F5983398420DD003F58063984209D0C3
:1035600003F58063984205D02EF00A03194341F019
:10357000010104E02EF00203194341F00101A0F81B
:1035800018C001845DF804FB002C014000340140A8
:1035900030B5B0F820C02CF0100C4FEA0C4C4FEABC
:1035A0001C4CA0F820C0B0F818C0048CA5B20C01C7
:1035B0001FFA84FE2CF4407C4FEA0C5C4FEA1C5C42
:1035C000120242EA03324CEA020C1FFA8CFC134C42
:1035D000A04218D0124B984215D0B0F1804F12D0B3
:1035E000A3F5983398420ED003F5806398420AD031
:1035F00003F58063984206D025F0A00241EA020359
:1036000043F0100305E025F020034EEA030343F0E6
:103610001003A0F818C0038430BD00BF002C014087
:103620000034014008B5724B984240D0B0F1804F51
:1036300048D0704B98424ED06F4B984254D06F4B4D
:1036400098425AD06E4B984260D06E4B984266D0EA
:103650006D4B98426CD06D4B984274D06C4B984235
:103660007CD06C4B984200F084806B4B984200F009
:103670008B806A4B984200F09080694B984200F032
:103680009580684B984200F09C80674B984200F010
:10369000A380664B984214D101214FF48020FFF79C
:1036A0006FFB00214FF48020FFF76AFB09E0012146
:1036B0004FF40060FFF764FB00214FF40060FFF758
:1036C0005FFB08BD01210846FFF768FB00210120D0
:1036D000FFF764FBF5E701210220FFF75FFB002104
:1036E0000220FFF75BFBECE701210420FFF756FB0C
:1036F00000210420FFF752FBE3E701210820FFF738
:103700004DFB00210820FFF749FBDAE701211020DB
:10371000FFF744FB00211020FFF740FBD1E7012118
:103720002020FFF73BFB00212020FFF737FBC8E7F5
:1037300001214FF40050FFF723FB00214FF400500C
:10374000FFF71EFBBDE701214FF40020FFF718FB38
:1037500000214FF40020FFF713FBB2E701214FF4E3
:103760008010FFF70DFB00214FF48010FFF708FBDE
:10377000A7E701214FF40010FFF702FB00214FF4EF
:103780000010FFF7FDFA9CE701214020FFF706FB40
:1037900000214020FFF702FB93E701218020FFF783
:1037A000FDFA00218020FFF7F9FA8AE701214FF4A2
:1037B0008070FFF7F3FA00214FF48070FFF7EEFA04
:1037C0007FE701214FF48030FFF7DAFA00214FF450
:1037D0008030FFF7D5FA74E701214FF40030FFF78E
:1037E000CFFA00214FF40030FFF7CAFA69E700BFB3
:1037F000002C01400004004000080040000C004084
:10380000001000400014004000340140004C014012
:10381000005001400054014000180040001C0040CE
:1038200000200040004001400044014000480140A9
:1038300003889BB2244A904212D002F50062904263
:103840000ED0B0F1804F0BD0A2F59832904207D045
:1038500002F58062904203D002F58062904203D16B
:1038600023F070034A881343184A904226D002F589
:103870008062904222D023F440739BB2CA881343E3
:1038800003808B8883850B8803850F4B98420BD070
:1038900003F50063984207D003F54063984203D0D4
:1038A00003F58063984204D10B7A03860123838257
:1038B000704703F580639842F6D0F7E703808B8862
:1038C00083850B880385F1E7002C01400010004040
:1038D00010B5038C23F001031B041B0C0384038C21
:1038E000B0F804C01FFA8CFC028B22F073021204A1
:1038F000120C0C88224323F002031B041B0CB1F8AA
:1039000008E04C884EEA040E43EA0E039BB2164CC4
:10391000A0420FD004F50064A0420BD004F540642F
:10392000A04207D004F58064A04203D004F580646F
:10393000A04212D123F008034C89234323F004034F
:103940008C8823432CF4407CB1F80CE0CC894EEAFF
:10395000040E4CEA0E0C1FFA8CFCA0F804C0028383
:10396000CA888286038410BD002C014010B5038CE8
:1039700023F010031B041B0C0384038CB0F804C059
:103980001FFA8CFC028B22F4E6421204120C0C8803
:1039900042EA042292B223F020031B041B0CB1F86C
:1039A00008E04C884EEA040E43EA0E139BB2134C17
:1039B000A04203D004F50064A04217D123F0800395
:1039C0004C8943EA04134FF6BF7E03EA0E0E8B8840
:1039D0004EEA03139BB22CF4406CB1F80CE0CC8996
:1039E0004EEA040E4CEA8E0C1FFA8CFCA0F804C0C0
:1039F0000283CA880287038410BD00BF002C0140E7
:103A000010B5038C23F480731B041B0C0384038CFC
:103A1000B0F804C01FFA8CFC828B22F073021204EF
:103A2000120C0C88224323F400731B041B0CB1F806
:103A300008E04C884EEA040E43EA0E239BB2134C76
:103A4000A04203D004F50064A04217D123F4006320
:103A50004C8943EA04234FF6FF3E03EA0E0E8B889F
:103A60004EEA03239BB22CF4405CB1F80CE0CC8905
:103A70004EEA040E4CEA0E1C1FFA8CFCA0F804C09F
:103A80008283CA888287038410BD00BF002C014056
:103A900010B5038C23F480531B041B0C0384038C8C
:103AA000B0F804C01FFA8CFC828B22F4E6421204A8
:103AB000120C0C8842EA042292B223F400531B0435
:103AC0001B0CB1F808E04C884EEA040E43EA0E33B2
:103AD0009BB20B4CA04203D004F50064A04206D177
:103AE0002CF4804C8C894CEA841C1FFA8CFCA0F8C6
:103AF00004C08283CA88A0F84020038410BD00BFA0
:103B0000002C01400B884A8813438A881343CA88D3
:103B100013430A8913434A8913438A8913439BB287
:103B2000A0F8443070474FF6FF7383800023038072
:103B3000C3804380037270470023038043808380E7
:103B4000C380038143818381C38170470023038045
:103B5000438001228280C380038170470023038059
:103B600043808380C380038143818381704729B16F
:103B700003889BB243F0010303807047038823F05E
:103B800001031B041B0C0380704749B1B0F844309B
:103B90006FEA43436FEA53439BB2A0F84430704747
:103BA000B0F84430C3F30E03A0F84430704722B19C
:103BB00083899BB219438181704783899BB223EA31
:103BC000010181817047818270471143A0F848103C
:103BD000704722B183899BB21943818170478389E1
:103BE0009BB223EA010181817047038923F0070317
:103BF0001B041B0C03817047038923F070031B0413
:103C00001B0C0B43038103899BB243F00703038121
:103C1000704738B504460D461146602D0FD001227D
:103C2000FFF770FC238923F070031B041B0C2B434C
:103C3000238123899BB243F00703238138BD0122EE
:103C4000FFF7A6FCEEE7B0F808C05FFA8CFC0A4369
:103C500042EA03224CEA020C1FFA8CFCA0F808C0CE
:103C6000704710B50446FFF7EEFF238923F0770372
:103C70001B041B0C43F07703238110BD10B50446D1
:103C8000FFF7E1FF23899BB243F48043238110BDFA
:103C9000018582827047038823F070031B041B0C8C
:103CA0000B4303807047038923F070031B041B0C34
:103CB0000B430381704710B50489B0F818E01FFA70
:103CC0008EFEB0F820C024F007042404240C0C431A
:103CD0002EF4407E2EF0030E4EF4807E4EF0010E48
:103CE0002CF0220C4FEA0C4C4FEA1C4C42EA031217
:103CF0004CEA020C1FFA8CFC0481A0F818E0A0F832
:103D000020C010BD038B23F070031B041B0C0B435E
:103D100003837047038B23F4E0431B041B0C43EA2B
:103D200001239BB203837047838B23F070031B0432
:103D30001B0C0B4383837047838B23F4E0431B04EA
:103D40001B0C43EA01239BB28383704729B103888C
:103D50009BB243F0800303807047038823F0800305
:103D60001B041B0C0380704729B183889BB243F06E
:103D7000040383807047838823F004031B041B0C17
:103D80008380704729B183889BB243F00803838006
:103D90007047838823F008031B041B0C8380704743
:103DA00029B183889BB243F00103838070478388E5
:103DB00023F001031B041B0C83807047038B23F04B
:103DC00008031B041B0C0B4303837047038B23F472
:103DD00000631B041B0C43EA01239BB2038370475F
:103DE000838B23F008031B041B0C0B438383704756
:103DF000838B23F400631B041B0C43EA01239BB257
:103E000083837047038B23F004031B041B0C0B43B9
:103E100003837047038B23F480631B041B0C43EA6A
:103E200001239BB203837047838B23F004031B049D
:103E30001B0C0B4383837047838B23F480631B0429
:103E40001B0C43EA01239BB283837047038B23F04F
:103E500080031B041B0C0B4303837047038BC3F3CA
:103E60000E0343EA01239BB203837047838B23F045
:103E700080031B041B0C0B4383837047838BC3F3AA
:103E80000E0343EA01239BB283837047038C23F024
:103E900002031B041B0C0B4303847047038C23F0A9
:103EA00008031B041B0C0B4303847047038C23F093
:103EB00020031B041B0C43EA01139BB203847047CD
:103EC000038C23F080031B041B0C43EA01139BB2F9
:103ED00003847047038C23F400731B041B0C43EA18
:103EE00001239BB203847047038C23F400631B04FB
:103EF0001B0C43EA01239BB203847047038C23F419
:103F000000531B041B0C43EA01339BB2038470472C
:103F1000038C9BB24FF0010C0CFA01FC23EA0C035A
:103F20000384038C8A401A4392B202847047038C44
:103F30009BB24FF0040C0CFA01FC23EA0C0303843F
:103F4000038C8A401A4392B20284704700B500F194
:103F5000180C038C9BB24FF0010E0EFA01FE23EAFF
:103F60000E03038421F008039BB26BB9490851F892
:103F70000C3023F0700341F80C3051F80C301A4328
:103F800041F80C205DF804FB0439C1F34E0151F8EF
:103F90000C3023F4E04341F80C3051F80C3012029D
:103FA00092B21A4341F80C20ECE729B103889BB286
:103FB00043F0020303807047038823F002031B04CD
:103FC0001B0C0380704729B103889BB243F00403A4
:103FD00003807047038823F004031B041B0C038039
:103FE000704729B183889BB243F080038380704778
:103FF000838823F080031B041B0C83807047038895
:1040000023F008031B041B0C038003889BB20B43A3
:1040100003807047838823F070031B041B0C83808C
:1040200083889BB20B4383807047038923F0070387
:104030001B041B0C038103899BB20B430381704754
:10404000038923F080031B041B0C038103899BB2AB
:104050000B43038170478184704781857047818657
:1040600070470187704781877047A0F840107047FC
:10407000038B23F00C031B041B0C0383038B9BB2E9
:104080000B4303837047028B22F440621204120C2C
:104090000283038B9BB243EA01239BB203837047E5
:1040A000F8B505460C46498800290CBF02260026B3
:1040B000A288012A0CBF0227012723888BB92389F4
:1040C000FFF720FAE1882846FFF7D2FF23893A4616
:1040D00031462846FFF75CFAE1882846FFF7D3FF10
:1040E000F8BD2389FFF754FAE1882846FFF7CBFF94
:1040F00023893A4631462846FFF704FAE1882846E4
:10410000FFF7B6FFECE7838B23F00C031B041B0CBB
:104110008383838B9BB20B4383837047828B22F410
:1041200040621204120C8283838B9BB243EA012308
:104130009BB283837047000070B504460D460B8820
:10414000002B39D0042B41D0082B49D04888B1F836
:1041500004C00989228C22F480521204120C228499
:10416000A38B228C96B24FEA003E1FFA8EFE23F4F8
:1041700040731B051B0D0A0342EA0C2213439BB23A
:104180003D498C426AD03D4A944267D0B4F1804F99
:1041900064D0A2F59832944260D002F580629442D5
:1041A0005CD002F58062944258D047F6FF5232400C
:1041B000024342F4805257E00B898A884988FFF70E
:1041C000A1F9E9882046FFF753FF53E00B898A885D
:1041D0004988FFF7DDF9E9882046FFF754FF49E0F9
:1041E00048888B88B1F808C0228C22F480721204AF
:1041F000120C2284A18B89B2228C92B20602B6B232
:1042000021F0F3010B4343EA0C139BB21A498C4291
:1042100018D001F500618C4214D0B4F1804F11D058
:10422000A1F598318C420DD001F580618C4209D006
:1042300001F580618C4205D022F42062024342F4F1
:10424000807204E022F40072324342F48072A3834D
:104250002284E9882046FFF756FF0BE026F400523F
:104260004EEA020242F48052A3832284E988204667
:10427000FFF754FF70BD00BF002C01400034014027
:10428000038823F440731B041B0C038003889BB238
:104290000B4303807047808E80B27047008F80B2DE
:1042A0007047808F80B27047B0F8400080B270478E
:1042B000808C80B27047008D80B27047038A1942AB
:1042C00014BF012000207047C94389B201827047A2
:1042D000028A83899BB2114204D00B4214BF012091
:1042E0000020704700207047C94389B2018270479F
:1042F00008B5234B98420CD0224B984214D0224B45
:1043000098421CD0214B984224D0214B98422CD06B
:1043100008BD01214FF48040FEF732FD00214FF42B
:104320008040FEF72DFDF3E701214FF40030FEF74A
:1043300035FD00214FF40030FEF730FDE8E70121A4
:104340004FF48020FEF72AFD00214FF48020FEF775
:1043500025FDDDE701214FF40020FEF71FFD0021C0
:104360004FF40020FEF71AFDD2E701214FF4801030
:10437000FEF714FD00214FF48010FEF70FFDC7E794
:10438000003801400044004000480040004C00401C
:104390000050004030B587B004460D46038A9BB2FA
:1043A00023F44053CA881343038283899BB223F4C6
:1043B000B05323F00C038A8813430A8913434A89B4
:1043C00013439BB28381838A9BB223F440738A890F
:1043D0001343838201A8FEF751FC194B9C420CBF8A
:1043E000049B039BA28912F4004F03EB830303EBAE
:1043F00083032A6814BF52009200B3FBF2F3114A00
:10440000A2FB031252091101642000FB1233A2899E
:1044100012F4004F0BD11B0132330A4AA2FB0323D3
:10442000C3F343130B439BB2238107B030BDDB00C2
:104430003233044AA2FB0323C3F342130B43F2E7D4
:10444000003801401F85EB514FF4165303600023E1
:104450008380C38003810C22428183817047028A5A
:1044600092B20B88B1F802C043EA0C03B1F804C061
:1044700043EA0C03C9880B4322F4706213439BB2D6
:10448000038270470023038043808380C38070478A
:1044900029B183899BB243F4005383817047838998
:1044A00023F400531B041B0C83817047C1F3421C8F
:1044B00001F01F01012303FA01F19C4509D0BCF171
:1044C000020F0CBF103014302AB103681943016089
:1044D00070470C30F8E7036823EA01010160704778
:1044E00022B1838A9BB2194381827047838A9BB22F
:1044F00023EA010181827047038A23F00F031B0422
:104500001B0C0382038A9BB20B430382704783898F
:1045100023F400631B041B0C838183899BB20B4330
:104520008381704729B183899BB243F00203838161
:104530007047838923F002031B041B0C838170479F
:10454000038A23F020031B041B0C0382038A9BB203
:104550000B430382704729B1038A9BB243F4804323
:1045600003827047038A23F480431B041B0C0382DD
:104570007047C1F30801818070478088C0F308004C
:10458000704783899BB243F0010383817047028B9C
:10459000D2B20283038B9BB243EA012303837047A9
:1045A000028B02F47F420283038B9BB20B43038393
:1045B000704729B1838A9BB243F0200383827047FE
:1045C000838A23F020031B041B0C8382704729B1CC
:1045D000838A9BB243F0100383827047838A23F05F
:1045E00010031B041B0C8382704729B1838A9BB282
:1045F00043F0080383827047838A23F008031B0477
:104600001B0C8382704739B183896FEA43436FEA99
:1046100053439BB2838170478389C3F30E03838125
:10462000704729B1838A9BB243F400638382704749
:10463000838A23F400631B041B0C83827047838AE4
:1046400023F004031B041B0C8382838A9BB20B435D
:104650008382704729B1838A9BB243F0020383822D
:104660007047838A23F002031B041B0C838270476C
:104670000388194214BF012000207047C94389B242
:1046800001807047C1F3421201F01F0C012303FAAD
:104690000CF3012A11D0022A0CBF028A828A92B23C
:1046A0001340028892B263B1090A012303FA01F1AF
:1046B0000A4214BF184600207047828992B2134004
:1046C000EFE700207047090A01238B40DB439BB2D0
:1046D0000380704708B501214FF40060FEF75EFBD0
:1046E00000214FF40060FEF759FB08BD034A5368F0
:1046F00023F4C07303435360704700BF002C004095
:1047000082B000230193074A536823F07F0301938B
:10471000019B00F07F0018430190019B536002B0A1
:10472000704700BF002C0040024B0122C3F8A420B8
:10473000704700BF0080054200F07F00014B186009
:10474000704700BF002C004040F08000014B186013
:10475000704700BF002C0040014B9868C0B2704702
:10476000002C0040014B00229A607047002C004052
:1047700008B538B1064B1B681B689847054B18688D
:104780000A3008BD034B1B6801221A82F9E700BFFB
:104790006C0900204809002008B538B1064B1B6899
:1047A0009B689847054B18680C3008BD034B1B6885
:1047B00001221A82F9E700BF6C0900204809002095
:1047C00008B5F8B1274B00221A80274B1A681378D6
:1047D00013F07F031BD1537A13F0200F02D0214A2C
:1047E0000221117013F0400F1E4A137814BF43F0DA
:1047F000010323F0010313701C4B1B681B699847CE
:10480000184808BD184B1B6802221A82F9E7012BD1
:1048100024D0022B24D1527902F00F0312F0800F22
:104820000ED19B0003F1804303F5B8431B6803F4EA
:104830004053B3F5805FDFD10A4B01221A70DBE7EA
:104840009B0003F1804303F5B8431B6803F030037A
:10485000102BD1D1034B01221A70CDE70148D0E7CC
:104860000020CEE740090020480900206C09002004
:10487000F8B5264B1D682C8AF4B92B7A042B02D08C
:10488000AB8A04271DE0224B9B78012B04D0214BDF
:1048900010221A80072734E01F4BD3F8502C92B215
:1048A0001E4B13445B0000221A601A4B3021198002
:1048B000174B9A70042724E0AB8A9C4294BF0427CC
:1048C00002279C4228BF1C46AB69204698470646F3
:1048D000002001F005F801462246304600F0CCFDEC
:1048E0002146002001F01CF82B8A1B1B2B826B8AAF
:1048F0001C446C82074B30221A80094B4FF4405203
:104900001A80024B1B681F72F8BD00BF48090020C7
:1049100040090020780900200050004002300020AB
:104920007609002010B50C4B1B68DA780B494978E2
:1049300091420AD39C7854B9998851B99A72084B1C
:104940001B685B689847204610BD0224FBE70224E1
:10495000F9E70224F7E700BF48090020080100201A
:104960006C09002010B5124C2368124A1268926933
:10497000D9785879904723689A7A7AB188B91A79A0
:104980008AB99C788CB90C4B1B68DB689847084B3C
:104990001B685A79DA72DA781A7300E0022420462A
:1049A00010BD0224FBE70224F9E70224F7E700BF69
:1049B00048090020680900206C09002038B5424BE6
:1049C0001A68137813F07F0303D0022B08D0022457
:1049D00004E0537A23F0200353720024204638BDAC
:1049E0005388002B66D11479002C65D1537923F0BC
:1049F00080005BB2002B4FEA800101F1804101F59C
:104A0000B8410968B4BF01F0300101F440512F4DA5
:104A100095F800C0844551D9002951D0927A002AD6
:104A200050D0002B0FDB850005F1804505F5B8451A
:104A30002B6803F44053B3F5805F17D0244B1B68F9
:104A40005B699847CAE7830003F1804303F5B843E5
:104A50001B6803F03003102BF0D1C5B2284600F0DC
:104A6000EDFE3021284600F095FDE7E790B9194B9F
:104A700093F82C1000F07AFF2B6823F4804323F086
:104A800070039BB283F4405343F4004343F080032C
:104A90002B60D3E700F0BEFE2B6823F4804323F0A5
:104AA00070039BB283F4405343F4004343F080030C
:104AB0002B60C3E7022491E702248FE702248DE7ED
:104AC00002248BE7022489E748090020080100201E
:104AD0006C0900208400002010B5294B1868427929
:104AE00022F0800352B2002A4FEA830101F1804193
:104AF00001F5B8410968B4BF01F0300101F440513B
:104B0000204C94F800C09C4531D944888CBB91B3AB
:104B1000817A91B3002A17DB9B0003F1804303F5F0
:104B2000B8431A6822F4804222F0700292B282F4F2
:104B3000805242F4004242F080021A60124B1B681D
:104B40009B699847002010BD9B0003F1804303F54B
:104B5000B8431A6822F4E04222F0400292B282F096
:104B6000100242F4004242F080021A60E6E702209E
:104B7000E9E70220E7E70220E5E70220E3E700BFDC
:104B800048090020080100206C09002008B5064BE8
:104B90001A68537A43F020035372044B1B68DB6995
:104BA0009847002008BD00BF480900206C0900207C
:104BB000054B1B685A8A10B10868104470478888F2
:104BC000801A1882002070474809002008B50C4B55
:104BD00093F82C10002000F0C9FE0A4B1B68187ACD
:104BE000082804D0092814BF0020012008BD064B66
:104BF0004FF480521A80054B10221A80F2E700BF52
:104C0000840000204809002076090020780900204F
:104C100070B582B08F4BD3F8503C8F4A1268117A2E
:104C2000092923D18C4B1B6801221A72DA88002AC9
:104C300040F08D805C781A7812F07F024ED1092CFA
:104C400032D0052C34D0032C40D0012C4AD1DA7854
:104C5000012A47D19A88002A44D15B7A13F0200FA9
:104C600040D07E4B5A60FFF7A9FE1FE099B27C4B03
:104C70000B445B001C88640004F1804404F5C044CC
:104C800023781370744D2B6862785A702E68A08850
:104C900001F058F870802E68208901F053F8B08038
:104CA000A2892B68DA80BDE7FFF73CFE10B319E05C
:104CB00093F90320002A40DB9A78002A3FD19A8892
:104CC000002A3ED19B7AABB1082220E0DA78012A93
:104CD00008D19B8833B9FFF759FFE7E7012A1DD0B8
:104CE000022A20D05F4B1B685B6920469847032847
:104CF00029D050BB574BD3F8502C92B25A4B134487
:104D00005B0000221A60594B30221A800622524B57
:104D10001B681A72FFF75AFF02B070BD0B2CE1D16D
:104D2000FFF720FEC2E7012C04D0032CDAD1FFF7F5
:104D3000D3FEBBE7FFF742FEB8E70822E7E7082209
:104D4000E5E70822E3E70922E1E70822DFE75A78EE
:104D5000062A2ED0002A40F091805A882AB95A6833
:104D600022F47F42B2F5003F3CD03B4B1A683D4BEA
:104D70001B681B6950789847032800F0BA80364BAF
:104D80001B681A8A4FF6FF718A4200F08C80022855
:104D900000F0B480002A00F0B18093F900100029DF
:104DA000C0F2AF8003221A72314B4FF440521A8086
:104DB000B0E71A7812F07F0FD7D19B78012B07D07C
:104DC000022B0BD0032BD0D1264B1B685B6A02E071
:104DD000244B1B68DB69002BC7D057E0214B1B68B5
:104DE0001B6AF8E71A7812F07F0204D19B88002B27
:104DF000BBD1204B4AE0012A0ED11A4A12689269AF
:104E00000021587990470028AFD1134B1B689B7A3B
:104E1000002BAAD0174B39E0022AA6D15B7903F008
:104E20000F0113F0800F4FEA810202F1804202F578
:104E3000B842126814BF02F0300202F440520E4829
:104E40000078884291D913F0700F8ED1002A8CD04F
:104E5000084B1BE00050004048090020400900209A
:104E6000043000206809002002300020780900206A
:104E700076090020C147000808010020082A15D142
:104E80001B7813F07F0F7FF470AF314B314C2268E9
:104E9000002050829361984723681A8A4FF6FF7169
:104EA0008A427FF477AF09221A7233E70A2A7FF425
:104EB0005CAF1A7802F07F02012A7FF456AF9A7A2B
:104EC000002A3FF452AF5A88002A7FF44EAF5A6846
:104ED00022F47F42B2F5803F7FF447AF1E4A12684A
:104EE000926900215879904700287FF43EAF1B4B10
:104EF000CCE7184B1B6809221A720BE708221A72BA
:104F000008E7D98801910198824209D9019A1A8249
:104F1000114A126892F82C209A82FFF7A9FCF9E650
:104F20009142F5D90C49096891F82C1088B2904249
:104F300003D90B4A00219170EAE792FBF1F001FBE3
:104F40001022002AE4D1064A01219170E0E700BF57
:104F500071470008480900206809002099470008A7
:104F60004009002070B53E4B1C68237A022B62D0AA
:104F7000042B67D0032B05D0052B03D0072B54D06F
:104F8000082259E0A369BBB1258A002D5CD0A28A12
:104F9000954228BF1546284698470646238A5B1B3C
:104FA0002382638A2B446382002000F0A9FC01461F
:104FB0002A46304600F075FA238A002B44D0294B4C
:104FC0004FF440521A800021084600F0A9FC264BFD
:104FD00030221A80238AA28A9A4239D923B1204BDF
:104FE0001B6805221A7237E01D4C236806221A72CC
:104FF0001E4B1B689B68984723681B7A082B0CD0B4
:105000001B4BD3F8502C92B21A4B13445B00002276
:105010001A60154B30221A801EE0124B4FF480525A
:105020001A80114B10221A8016E0104B1B68DB68A7
:105030009847082200E00822094B1B681A72FFF704
:10504000C5FD70BD0822F7E7228AA38A9A42CBD316
:10505000034B1B6803221A72014B1B681A7AEBE799
:1050600048090020760900207809002068090020FE
:10507000005000400230002030B5104B1C78B4B115
:10508000002140F60F7548F2800E5FFA81FC4FEA6E
:105090008C0202F1804202F5B84213682B4043EAC9
:1050A0000C0343EA0E03136001318C42EDD140F052
:1050B0008000034BC3F84C0C30BD00BF080100203A
:1050C0000050004008B5154B1A68137A022B05D022
:1050D000042B03D0062B0CD0082204E0FFF7C8FBFA
:1050E0000E4B1B681A7A0D4B1B681A72FFF76EFD88
:1050F00008BD5378052B05D0094B1B689B68984762
:105100000822F0E7137813F07F0FF5D1D078FFF77E
:10511000B3FF044B1B681B6A9847EDE74809002062
:10512000680900206C0900207047000008B5064B94
:105130001A1D1A6002221A73044A1A62044959623B
:105140001368984708BD00BF48090020840000206C
:10515000E400002070B582B00023ADF80630984B13
:10516000D3F8443C99B2974A118013F4004F3CD0D5
:105170001446954D954EA1E01446D2F8003C23F418
:10518000E14323F070031B041B0CC2F8003CFFF743
:1051900099FFD4F8003C23F4804323F040031B0420
:1051A0001B0C8B4A128812F4805F18BF83F4805363
:1051B000874A128812F4005F18BF83F40053844AB0
:1051C000528812F0100F18BF83F01003804A5288E3
:1051D00012F0200F18BF83F0200343F4004343F084
:1051E00080039BB2764AC2F8003C02B070BD744C9A
:1051F000D4F8003C23F070031B051B0DC4F8003CE1
:10520000FFF706FDD4F8003C23F4804323F040036D
:105210001B041B0C6E4A128812F4805F18BF83F4C3
:1052200080536B4A128812F4005F18BF83F4005356
:10523000674A528812F0100F18BF83F01003644AB7
:10524000528812F0200F18BF83F0200343F400436C
:1052500043F080039BB25A4AC2F8003CC5E79B006A
:1052600003F1804303F5B8431A6892B2ADF8062003
:10527000BDF8062012F4004F40F09480BDF80630CF
:1052800013F0800F12D02B789B0003F1804303F5BD
:10529000B8431A6822F4E14222F070021204120CA0
:1052A0001A602B78013B56F823309847444BD3F8CB
:1052B000443C9AB2228013F4004F96D0238803F026
:1052C0000F032B70002BCAD13D4AD2F8001C89B2C3
:1052D0003F4B1980198801F030015980198801F479
:1052E00040511980D2F8003C23F4804323F040035E
:1052F0001B041B0C83F4005383F0200343F400438E
:1053000043F08003C2F8003C238813F0100F3FF4F1
:1053100033AF2B4BD3F8003C9BB2ADF80630BDF851
:10532000063013F4006F7FF462AFBDF8063013F45B
:10533000004FBBD0224CD4F8003C23F070031B0577
:105340001B0DC4F8003CFFF70DFED4F8003C23F41D
:10535000804323F040031B041B0C1D4A128812F4E7
:10536000805F18BF83F48053194A128812F4005FDB
:1053700018BF83F40053164A528812F0100F18BF5A
:1053800083F01003124A528812F0200F18BF83F0E6
:10539000200343F4004343F080039BB2084AC2F861
:1053A000003C22E71A6822F070021205120D1A6002
:1053B0002B78013B074A52F8233098475EE700BF3D
:1053C000005000408809002074090020600000207F
:1053D0007609002044000020F8B5224BD3F8443C65
:1053E00099B2214A118013F4004F39D01D4D47F670
:1053F000FF7714461D4E17E012F0800F0DD01A688B
:1054000022F4E14222F070021204120C1A60337886
:10541000013B174A52F823309847D5F8443C9AB2DA
:10542000228013F4004F1BD0C5F8447C238803F07E
:105430000F0333709B0003F1804303F5B8431A68F0
:1054400012F4004FD8D01A6822F070021205120D23
:105450001A603378013B074A52F823309847DCE75B
:10546000F8BD00BF005000408809002074090020EA
:105470006000002044000020013201F1005101F5DC
:105480004051490052100BD0023010F801CC10F8F6
:10549000023C43EA0C2321F8043B0230013AF4D1E8
:1054A0007047013201F1005101F54051490052109D
:1054B00005D00B68043120F8023B013AF9D170475E
:1054C000014BC3F8400C704700500040024BD3F82A
:1054D000400C80B2704700BF00500040014BC3F841
:1054E000440C704700500040024BD3F8440C80B28B
:1054F000704700BF00500040024BD3F8480C80B208
:10550000704700BF00500040014BC3F84C0C70477F
:1055100000500040024BD3F84C0C80B2704700BFE3
:105520000050004020F0070080B2024BC3F8500C3E
:10553000704700BF00500040024BD3F8500C80B2BF
:10554000704700BF00500040800000F1804000F52F
:10555000B84001607047800000F1804000F5B8401D
:10556000006880B27047800000F1804000F5B840CC
:10557000036823F4EC4323F070030B439BB20360F6
:105580007047800000F1804000F5B840006800F4EA
:10559000C0607047800000F1804000F5B8400368AB
:1055A00023F4E04323F040039BB211F0100F18BF27
:1055B00083F0100311F0200F18BF83F0200343F491
:1055C000004343F0800303607047800000F1804097
:1055D00000F5B840036823F4804323F070039BB2C6
:1055E00011F4805F18BF83F4805311F4005F18BF7B
:1055F00083F4005343F4004343F080030360704797
:10560000800000F1804000F5B8400368012902D015
:10561000022906D0704723F480531B041B0C03603F
:10562000704723F010031B041B0C0360F2E780009B
:1056300000F1804000F5B840006800F0300070478D
:10564000800000F1804000F5B840006800F4405050
:105650007047800000F1804000F5B840036823F4F3
:10566000E04323F040039BB283F0300343F4004354
:1056700043F0800303607047800000F1804000F534
:10568000B840036823F4804323F070039BB283F493
:10569000405343F4004343F08003036070478000AD
:1056A00000F1804000F5B840036843F4807323F0B4
:1056B000F0031B051B0D43F4004343F0800303601C
:1056C0007047800000F1804000F5B840036823F483
:1056D000F8731B051B0D43F4004343F08003036084
:1056E0007047800000F1804000F5B840036823F463
:1056F000F8731B051B0D43F4004343F08003036064
:105700007047800000F1804000F5B840036843F422
:10571000807323F0F0031B051B0D43F4004343F09B
:10572000800303607047800000F1804000F5B840BE
:10573000036843F4807323F0F0031B051B0D43F44F
:10574000004343F0800303607047800000F1804015
:1057500000F5B840036823F4F8731B051B0D43F4F0
:10576000004343F0800303607047800000F18040F5
:1057700000F5B840006800F03000102814BF002089
:1057800001207047800000F1804000F5B8400068BB
:1057900000F44050B0F5805F14BF00200120704736
:1057A000800000F1804000F5B840036823F07003EA
:1057B0001B051B0D03607047800000F1804000F561
:1057C000B840036823F4E14323F070031B041B0C6F
:1057D00003607047800000F1804000F5B840036826
:1057E00023F0F0031B051B0D43F4404343F08003FB
:1057F00003607047800000F1804000F5B840036806
:1058000023F0F0031B051B0D43F4004343F0C003DA
:1058100003607047800000F1804000F5B8400368E5
:1058200013F4804F09D0036823F0F0031B051B0D10
:1058300043F4404343F0800303607047800000F16D
:10584000804000F5B840036813F0400F09D00368AA
:1058500023F0F0031B051B0D43F4004343F0C0038A
:1058600003607047800000F1804000F5B840036895
:1058700023F0F0031B051B0D194341F4004141F0D7
:10588000800101607047800000F1804000F5B84061
:10589000006800F00F007047074BD3F8503C9BB2F4
:1058A00003EBC00000F1005000F5405040004908F3
:1058B00049000160704700BF00500040064BD3F81C
:1058C000503C9BB203EBC000044B03445B0049080F
:1058D00049001960704700BF0050004004300020AC
:1058E000064BD3F8503C9BB203EBC00000F10050D4
:1058F00000F5405040000088704700BF0050004055
:10590000054BD3F8503C9BB203EBC000034B034460
:105910005B001888704700BF005000400430002032
:10592000054BD3F8503C9BB203EBC000034B034440
:105930005B001960704700BF00500040023000203B
:105940003E290BD94B0911F01F0F04BF03F1FF33A0
:105950009BB29B0243F40043036070474B0811F075
:10596000010F18BF01339B02036070470F4BD3F840
:10597000503C9BB203EBC0000D4B03445B003E293F
:105980000BD94A0911F01F0F04BF02F1FF3292B286
:10599000920242F400421A6070474A0811F0010F67
:1059A00018BF013292021A60704700BF00500040D9
:1059B00006300020064BD3F8503C9BB203EBC000EE
:1059C000044B03445B001868C0F30900704700BF34
:1059D0000050004002300020064BD3F8503C9BB2F0
:1059E00003EBC000044B03445B001868C0F30900DC
:1059F000704700BF005000400630002010B40D4C2E
:105A0000D4F8503C9BB203EBC00303F1005303F501
:105A100040535B00490849001960D4F8503C9BB2E0
:105A200003EBC000044B03445B00520852001A60B1
:105A300010BC70470050004004300020074BD3F8E2
:105A4000503C9BB203EBC00000F1005000F5405009
:105A50004000490849000160704700BF0050004005
:105A6000064BD3F8503C9BB203EBC000044B0344FD
:105A70005B00490849001960704700BF00500040B2
:105A800004300020064BD3F8503C9BB203EBC0001F
:105A900000F1005000F5405040000088704700BF02
:105AA00000500040054BD3F8503C9BB203EBC000C4
:105AB000034B03445B001888704700BF0050004050
:105AC00004300020012902D002293FD070472D4B1D
:105AD000D3F8503C4FEAC00C9BB203EBC0002A4BFA
