:020000040800F2
:10000000FC040020AD050008411E0008431E000846
:10001000451E0008471E0008491E00080000000099
:100020000000000000000000000000004B1E00085F
:100030004D1E0008000000004F1E0008511E000861
:10004000A9050008A9050008A9050008A9050008D8
:10005000A9050008A9050008A9050008A9050008C8
:10006000A9050008A9050008A9050008A9050008B8
:10007000A9050008A9050008A9050008A9050008A8
:10008000A9050008A9050008A9050008A905000898
:10009000531E0008A9050008A9050008A9050008C5
:1000A000A9050008A9050008A9050008A905000878
:1000B00085050008A9050008A9050008A90500088C
:1000C000A9050008A9050008A9050008A905000858
:1000D000A9050008A9050008A9050008A905000848
:1000E000A9050008A90500085B1E00080000000023
:1000F0000000000000000000000000000000000000
:1001000000000000000000005FF808F17047704731
:100110002DE9F84305886D00402D24D005B3402615
:10012000074601244FF0C009AE4228BFEEB2AD1B16
:10013000204601F0DDFC3028FAD01FFA86F842464E
:100140004946384601F05AFC4146204601F074FD0C
:10015000204601F0D6FC06F0FE031F44002DE3D13B
:100160000020BDE8F8833E26DAE7000008B5174B0B
:100170001B6803B108BD164B1968032001F0B2FDDE
:10018000124B5A6852B9124B1B681A8852000F4B17
:100190009A60402A08D9403A5A6005E0904294BFDC
:1001A000121A0022094B5A60094A1368034413606B
:1001B000064B5B682BB9074A054B1A60034B9A68DC
:1001C0001A60032001F0B0FCD4E700BFFC0400205B
:1001D00000000020900D0020F0B591B004465A4870
:1001E00000F096FC0023ADF82C304FF48272ADF88D
:1001F0002E204FF40072ADF83620ADF83C30238944
:10020000002B14BF00238023ADF83A306389002B04
:1002100014BF4FF400630023ADF83030A388002BE7
:1002200014BF02230023ADF83230E388003318BF37
:100230000123ADF834302368444A934216D8444A27
:1002400093426CD8434A93426DD8434A93426ED846
:10025000424A93426FD8424A934270D8414A9342ED
:100260008CBF30233823ADF8383002E00023ADF8DE
:100270003830354C0BA9204600F07CFC002120468C
:1002800000F0B2FC0121204600F094FC0022032182
:10029000204600F09DFC0121084600F0EDFB324EA7
:1002A000304600F06FFA314D284600F06BFA684690
:1002B00000F01BFB2E4B0093002302930393049347
:1002C000802205924FF4807206924FF48067079760
:1002D00008934FF4005209920A936946304600F0A1
:1002E000E5FA07974FF440530993102302936946A8
:1002F000284600F0DBFA336823F0010333602B68F3
:1003000023F001032B601B4A136823F408331360A6
:1003100001220321204600F05BFC11B0F0BD082350
:10032000ADF83830A5E71023ADF83830A1E7182331
:10033000ADF838309DE72023ADF8383099E7282311
:10034000ADF8383095E700BF00380040FF1AB7001D
:100350007F8D5B00BFC62D005FE31600AF710B0001
:10036000D7B805006BDC0200440002405800024090
:100370000C3800400000024070B586B0012141F207
:100380001D0000F087FB0121084600F075FB0121EC
:100390004FF4804000F07EFB0121404800F088FBD4
:1003A0000823ADF8043004258DF807503C4C0DEBC4
:1003B0000501204600F0ACFAADF8045003238DF897
:1003C000063018238DF807300DEB0501204600F0AC
:1003D0009FFA4FF4E13302930024ADF80C40ADF8DE
:1003E0000E40ADF81040ADF814400C23ADF81230BB
:1003F0002C4D02A9284600F073FC0121284600F08C
:10040000CBFC0121084600F053FB21464FF0804011
:1004100000F048FC01214FF0804000F05DFC01221B
:1004200011464FF0804000F04BFC1C238DF8083043
:1004300002238DF809308DF80A4001238DF80B3026
:1004400002A800F06DF9184BDB6813F0807F0AD129
:10045000154AD36843F08073D360144B5C601A680C
:1004600042F001021A6001F067FC01F095FC01F016
:100470009DFC01F07BF901F0CEFF02F067F80C4C17
:100480000C4D002600E026602368002BFCD06B7921
:10049000002BF8D1284602F06BF8F4E70540020083
:1004A0000008014000440040F0ED00E0001000E0D2
:1004B000FC040020900D002000B583B0012303FA56
:1004C00001F1ADF804109A4216D0022A18D0032A7E
:1004D0001AD0042A14BF042314238DF807300323F1
:1004E0008DF8063000F58010423001A9800200F03E
:1004F0000FFA03B05DF804FB10238DF80730EEE728
:1005000028238DF80730EAE748238DF80730E6E71F
:1005100010B584B0044600214FF0804000F0C2FBCB
:10052000013CADF808404BF68033ADF804300024B0
:10053000ADF80A401023ADF8063001A94FF0804015
:1005400000F060FB01214FF0804000F0C5FB044B40
:100550001C6001214FF0804000F0A4FB04B010BDEE
:100560000805002008B5FFF7D3FF024A1368002BE7
:10057000FCD008BD08050020014B1868704700BF7B
:100580000805002008B500214FF0804000F08AFBEC
:1005900001214FF0804000F09FFB0122014B1A60C7
:1005A00008BD00BF08050020FEE7000008B5104B9D
:1005B000104A9A420DD213460F48801A20F00300C9
:1005C000043010440D4A52F8041B43F8041B8342C4
:1005D000F9D10B480B494FF000028842B8BF40F8F0
:1005E000042BFADB00F010F8FFF7C6FE08BD00BFD1
:1005F000FC00002000000020FB0000200C67000829
:10060000FC0400208016002082B03C4B1A6842F0A7
:1006100001021A6059683A4A0A405A601A6822F080
:10062000847222F480321A601A6822F480221A60DE
:100630005A6822F4FE025A604FF41F029A600022A8
:10064000009201921A6842F480321A601A461368C6
:1006500003F400330193009B01330093019B1BB90A
:10066000009BB3F5A06FF2D1244B1B6813F4003F3D
:1006700014BF012300230193019B012B05D04FF0F0
:100680000062204B9A6002B070471F4B1A6842F01C
:1006900010021A601A6822F007021A601A6842F003
:1006A00001021A60A3F580535A685A605A685A606A
:1006B0005A6842F480625A605A6822F47C125A6086
:1006C0005A6842F488125A601A6842F080721A60BE
:1006D0001A46136813F0007FFBD0084B5A6822F0CB
:1006E00003025A605A6842F002025A601A4653687E
:1006F00003F00C03082BFAD1C1E700BF0010024041
:100700000000FFF800ED00E00020024040F0BF6074
:1007100040F40030014BD860704700BF00ED00E0AE
:10072000C3785BB903785A0903F01F03012101FA6A
:1007300003F32032114941F822307047104BDA6838
:10074000D243C2F30222C2F1040143788B400F214D
:1007500021FA02F281780A40134302781B01DBB2CE
:1007600006490A4482F800330378580903F01F034E
:10077000012202FA03F341F82030704700E100E063
:1007800000ED00E0036823F001031B041B0C036071
:100790000023036043608360C360364B984221D0DE
:1007A000354B984224D0354B984227D0344B984251
:1007B0002AD0344B98422DD0334B984230D0334B13
:1007C000984233D0324B984236D0324B984239D08F
:1007D000314B98423CD0314B98423FD0304B9842FD
:1007E00042D070472F4A536843F00F03536070475D
:1007F0002C4A536843F0F00353607047294A53680A
:1008000043F4706353607047264A536843F470435F
:1008100053607047234A536843F470235360704712
:10082000204A536843F47003536070471D4A53686D
:1008300043F07063536070471B4A536843F00F03E3
:1008400053607047184A536843F0F0035360704791
:10085000154A536843F4706353607047124A5368F3
:1008600043F47043536070470F4A536843F4702356
:100870005360B6E7080002401C000240300002400E
:1008800044000240580002406C00024080000240D8
:10089000080402401C0402403004024044040240A8
:1008A00058040240000002400004024010B40268F4
:1008B00022F4FF4222F070028B680C6A23430C6919
:1008C00023434C6923438C692343CC6923434C6AFB
:1008D00023438C6A234313430360CB6843600B6854
:1008E00083604B68C36010BC7047002303604360A3
:1008F0008360C360036143618361C36103624362D8
:1009000083627047014B5861704700BF000401408B
:10091000F0B5CB7803F00F0713F0100F1CBF8B78E6
:100920001F430B78FBB10568002301264FF00F0C25
:1009300003E042610133082B14D006FA03F20C885D
:1009400032EA0404F6D19C000CFA04FE25EA0E05F6
:1009500007FA04F42543CC78282CEAD0482C08BFA9
:100960000261E7E705600B88FF2B22D94668002269
:1009700008234FF0010E4FF00F0C03E00133043257
:10098000102B15D00EFA03F40D8834EA0505F5D1C5
:100990000CFA02F526EA050607FA02F52E43CD7891
:1009A000282D08BF4461CD78482D08BF0461E5E7D4
:1009B0004660F0BD0161704741617047014B1860AE
:1009C000704700BFD800424210B4274B5B6803F069
:1009D0000C03042B2BD0082B2CD013B1234B03601A
:1009E00001E0224B0360204C6368C3F30313204AE9
:1009F000D35CD9B20368CB4043606168C1F3022184
:100A0000515CC9B223FA01F181606168C1F3C2216E
:100A1000515CC9B2CB40C3606168C1F381310A4403
:100A2000127CD2B2B3FBF2F3036110BC70470F4BE0
:100A30000360D8E70C4A53685268C3F38343023318
:100A400012F4803F0AD0084A526812F4003F14BFE3
:100A5000084A064A02FB03F30360C4E7054A02FBA7
:100A600003F30360BFE700BF0010024000127A00EA
:100A70000400002000093D0029B9054A536923EA12
:100A8000000050617047024A536918435061704733
:100A90000010024029B9054A936923EA00009061D9
:100AA0007047024A936918439061704700100240F2
:100AB00029B9054AD36923EA0000D0617047024A88
:100AC000D3691843D06170470010024029B9054A24
:100AD000D36823EA0000D0607047024AD368184305
:100AE000D06070470010024029B9054A136923EA13
:100AF000000010617047024A136918431061704783
:100B000000100240014B1870704700BF07100240F0
:100B100008B5154B984206D0144B98420ED0144B92
:100B2000984216D008BD01214FF48050FFF7CEFF48
:100B300000214FF48050FFF7C9FF08BD01214FF499
:100B40008040FFF7D1FF00214FF48040FFF7CCFF3A
:100B500008BD01214FF40040FFF7C6FF00214FF40C
:100B60000040FFF7C1FFDDE70030014000380040E2
:100B7000003C004010B4038803F441520B884C88B9
:100B800023438C882343CC8823430C8923434C89FB
:100B900023438C892343CC89234313439BB2038093
:100BA000838B23F400631B041B0C83830B8A038257
:100BB00010BC704731B9038823F040031B041B0CA1
:100BC0000380704703889BB243F040030380704763
:100BD0002AB983889BB223EA010181807047838808
:100BE0009BB219438180704731B9038823F40053C5
:100BF0001B041B0C0380704703889BB243F4005313
:100C00000380704703889BB2244A904212D002F5B9
:100C1000006290420ED0B0F1804F0BD0A2F5983216
:100C2000904207D002F58062904203D002F58062C4
:100C3000904203D123F070034A881343184A90422C
:100C400025D002F58062904221D023F440739BB2FC
:100C5000CA88134303808B8883850B8803850F4BD9
:100C600098420FD003F5006398420BD003F5406320
:100C7000984207D003F58063984203D003F5806360
:100C8000984201D10B7A0386012383827047038047
:100C90008B8883850B880385F6E700BF002C014015
:100CA0000010004031B9038823F001031B041B0C22
:100CB0000380704703889BB243F0010303807047B1
:100CC0002AB983899BB223EA010181817047838914
:100CD0009BB2194381817047C94389B20182704731
:100CE00030B587B004460D46038A9BB223F44053C7
:100CF000CA881343038283899BB223F4B05323F041
:100D00000C038A8813430A8913434A8913439BB20D
:100D10008381838A9BB223F440738A89134383823D
:100D200001A8FFF751FE1A4B9C420CBF049B039B8A
:100D3000A28912F4004F03EB830303EB83032968BA
:100D400014BF49008900B3FBF1F1124BA3FB01234F
:100D500058090501642300FB1313A28912F4004F04
:100D60000BD11B0132330B4AA2FB0323C3F3431302
:100D70002B439BB2238107B030BDD9003231054AE5
:100D8000A2FB0131C1F3421242EA0503F1E700BFC1
:100D9000003801401F85EB5131B9838923F400539A
:100DA0001B041B0C8381704783899BB243F400535F
:100DB000838170470388194214BF012000207047C7
:100DC00008B538B1064B1B681B689847054B186877
:100DD0000A3008BD034B1B6801221A8208BD00BF00
:100DE000BC150020C015002008B538B1064B1B68A3
:100DF0009B689847054B18680C3008BD034B1B686F
:100E000001221A8208BD00BFBC150020C0150020B9
:100E100008B5F8B10022274B1A80274B1A681378BF
:100E200013F07F031BD1537A13F0200F02D002215D
:100E3000204A117013F0400F1E4A137814BF43F07C
:100E4000010323F0010313701C4B1B681B699847B7
:100E5000184808BD184B1B6802221A8208BD012BD6
:100E600024D0022B24D1527902F00F0312F0800F0C
:100E70000ED19B0003F1804303F5B8431B6803F4D4
:100E80004053B3F5805FDFD101220A4B1A70DBE7D4
:100E90009B0003F1804303F5B8431B6803F0300364
:100EA000102BD1D10122034B1A70CDE7014808BDA8
:100EB000002008BD90150020C0150020BC150020A2
:100EC000F8B5254B1D682C8AECB92B7A042B02D07F
:100ED000AB8A04261CE0214B1B78012B04D0102286
:100EE0001F4B1A80072633E01E4B1A6892B21E4B26
:100EF00013445B0000221A603021194B1980174BF4
:100F00001A70042624E0AB8A9C4294BF0426022671
:100F10009C4228BF1C46AB692046984707460020E4
:100F200000F06EFE22460146384600F067FD21467D
:100F3000002000F081FE2B8A1B1B2B826B8A1C4435
:100F40006C823022064B1A804FF44052074B1A80B5
:100F5000014B1B681E72F8BDC01500200C05002057
:100F6000C8150020505C004002300020C61500204B
:100F700008B50C4B1B68DA780B494978914201D2CD
:100F8000022008BD997809B1022008BD998809B1ED
:100F9000022008BD9A72054B1B685B6898470020C9
:100FA00008BD00BFC0150020F8000020BC150020BF
:100FB00038B5124D2B68124A12689269D97858795F
:100FC00090472B689A7A12B90224204638BD04460D
:100FD00008B10224F9E71A790AB10224F5E79B78EF
:100FE0000BB10224F1E7074B1B68DB6898472B68BD
:100FF0005A79DA72DA781A73E7E700BFC015002071
:1010000098150020BC150020404B1A68137813F087
:101010007F0303D0022B07D002207047537A23F0BE
:10102000200353720020704753880BB10220704791
:1010300013790BB10220704710B5537923F080006B
:101040005BB2002B4FEA800101F1804101F5B8410C
:101050000968B4BF01F0300101F440512C4C2478F0
:10106000A04201D3022010BD09B9022010BD927A1E
:101070000AB9022010BD002B10DB840004F180446B
:1010800004F5B844236803F44053B3F5805F18D0E7
:10109000204B1B685B699847002010BD830003F15B
:1010A000804303F5B8431B6803F03003102BEFD1E6
:1010B000C4B2204600F06FFD3021204600F0E2FC73
:1010C000E6E790B9144B93F82C1000F0C3FD2368A9
:1010D00023F4804323F070039BB283F4405343F422
:1010E000004343F080032360D2E700F040FD236813
:1010F00023F4804323F070039BB283F4405343F402
:10110000004343F080032360C2E700BFC015002006
:10111000F8000020BC1500207400002010B5284BFA
:101120001868437923F080015BB2002B4FEA8102FB
:1011300002F1804202F5B8421268B4BF02F03002F8
:1011400002F440521F4C2478A14201D3022010BD6A
:1011500044880CB1022010BD0AB9022010BD827A69
:101160000AB9022010BD002B17DB8B0003F180436E
:1011700003F5B8431A6822F4804222F0700292B25A
:1011800082F4805242F4004242F080021A600E4B18
:101190001B689B699847002010BD8A0002F18042BD
:1011A00002F5B842136823F4E04323F040039BB2F6
:1011B00083F0100343F4004343F080031360E6E739
:1011C000C0150020F8000020BC15002008B5064B13
:1011D0001A68537A43F020035372044B1B68DB698F
:1011E0009847002008BD00BFC0150020BC15002096
:1011F000054B1B685A8A10B10868104470478888EC
:10120000801A188200207047C015002008B50C4BCA
:1012100093F82C10002000F01DFD0A4B1B68187A73
:10122000082804D0092814BF0020012008BD4FF46D
:101230008052054B1A801022044B1A80F2E700BF3F
:1012400074000020C0150020C6150020C81500201D
:1012500070B582B09D4B1B689D4A11680A7A092AB5
:101260001CD09AB29B4B13445B001C88640004F1B1
:10127000804404F5C04423780B70954D2B68627848
:101280005A702E68A08800F017FD70802E682089A3
:1012900000F012FDB080A2892B68DA808C4B1B68AD
:1012A00001221A72DA883AB35A78062A00F091803D
:1012B000002A40F0E8805A8832B95A6822F47F4206
:1012C000B2F5003F00F0A080814B1A68824B1B688A
:1012D0001B6950789847032800F031817C4B1B68CC
:1012E0001A8A4FF6FF718A4200F02E81022840F0E0
:1012F000DE8008221A724FE05C781A7812F07F02C2
:101300002FD1092C13D0052C15D0032C21D0012C62
:101310002BD1DA78012A28D19A8832BB5B7A13F074
:10132000200F22D06D4B5A60FFF76EFE01E0FFF7F1
:101330001FFE10B319E093F90320002A3FDB9A78CF
:10134000002A3ED19A88002A3DD19B7AABB108226F
:101350001FE0DA78012A08D19B8833B9FFF736FFFE
:10136000E7E7012A1CD0022A1FD05B4B1B685B6990
:1013700020469847032828D048BB544B1A6892B29D
:10138000574B13445B0000221A603022554B1A80E1
:1013900006224F4B1B681A72FFF738FF02B070BD70
:1013A0000B2CE2D1FFF704FEC3E7012C04D0032C81
:1013B000DBD1FFF7B3FEBCE7FFF726FEB9E7082253
:1013C000E7E70822E5E70822E3E70922E1E7082248
:1013D000DFE71A7812F07F0F7FF476AF9B78012B4E
:1013E00008D0022B0CD0032B7FF46EAF3A4B1B6856
:1013F0005A6A02E0384B1B68DA69002A4BD163E76E
:10140000354B1B681A6AF8E71A7812F07F0205D18B
:101410009B88002B7FF458AF334A3CE0012A21D04F
:10142000022A7FF451AF5A7902F00F0112F0800FB7
:101430004FEA810303F1804303F5B8431B6814BFEF
:1014400003F0300303F44053284800788142BFF48E
:101450003BAF12F0700F7FF437AF002B3FF434AF87
:10146000214A18E01C4A1268926900215879904775
:1014700000287FF429AF164B1B689B7A002B3FF4A2
:1014800023AF194A07E0082A36D11B7813F07F0FE3
:101490007FF41AAF164A0E4C2368002058829A61D6
:1014A000904723681A8A4FF6FF718A424CD0002A6F
:1014B0003FF41FAF93F90010002948DB03221A7292
:1014C0004FF440520B4B1A8066E700BF505C00405F
:1014D000C015002004300020981500200C050020C5
:1014E00002300020C8150020110E0008F80000206E
:1014F000C10D0008C61500200A2A7FF4E5AE1A784F
:1015000002F07F02012A7FF4DFAE9A7A002A3FF4CC
:10151000DBAE5A88002A7FF4D7AE5A6822F47F42A5
:10152000B2F5803F7FF4D0AE1C4A12689269002168
:101530005879904700287FF4C7AE194AABE7194B9A
:101540001B6809221A7227E709221A7224E7D98830
:1015500001910198824209D9019A1A820F4A1268B0
:1015600092F82C209A82FFF7ABFC15E79142F5D94F
:101570000A49096891F82C1088B2904203D90021D9
:10158000094A1170EAE792FBF1F001FB1022002AF0
:10159000E4D10121044A1170E0E700BF9815002052
:1015A000E90D0008C01500200C05002070B53E4B69
:1015B0001C68237A022B4DD0042B4DD0032B0AD06C
:1015C000052B08D0072B3FD00822374B1B681A7217
:1015D000FFF71CFE70BD238AA269B2B1002B57D061
:1015E000A58A9D4228BF1D46284690470646238A65
:1015F0005B1B2382638A2B446382002000F00EFB76
:101600002A460146304600F012FA238A33B34FF4DB
:101610004052264B1A800021084600F00DFB302274
:10162000234B1A80238AA28A9A4235D9C3B11E4B12
:101630001B6805221A7233E04FF480521B4B1A804C
:1016400010221B4B1A802BE01A4B1B68DB68984753
:101650000822BAE70822B8E70822B6E7A38ADBB176
:10166000114C236806221A72124B1B689B6898471C
:1016700023681B7A082BDFD00F4B1A6892B20F4BEE
:1016800013445B0000221A603022094B1A8007E0E5
:10169000228AA38A9A42E3D3034B1B6803221A725D
:1016A000014B1B681A7A90E7C0150020C615002070
:1016B000C815002098150020505C00400230002022
:1016C000F0B40E4B1D7895B1002440F60F7748F228
:1016D0008006E1B28B0003F1804303F5B8431A683A
:1016E0003A4031430A431A600134A542F1D140F037
:1016F0008000034B1860F0BC704700BFF80000206A
:101700004C5C004008B5154B1A68137A022B0AD0BE
:10171000042B08D0062B0CD00822104B1B681A7221
:10172000FFF774FD08BDFFF7CBFB0C4B1B681A7A63
:10173000F3E75378052B05D0094B1B689B68984746
:101740000822EAE7137813F07F0FF5D1D078FFF77E
:10175000B7FF044B1B681B6A9847EDE7C0150020D4
:1017600098150020BC1500207047000008B5074BF5
:10177000074A136002221A72064B074A1360074990
:10178000074A11601B68984708BD00BFA0150020DC
:10179000C01500207400002098150020D4000020FF
:1017A000BC15002070B582B00023ADF806308B4E1A
:1017B0008B4C8C4D7DE01446136823F4E14323F0F9
:1017C00070031B041B0C1360FFF79CFF236823F4BA
:1017D000804323F040031B041B0C834A128812F43D
:1017E000805F18BF83F480537F4A128812F4005F31
:1017F00018BF83F400537D4A128812F0100F18BFEF
:1018000083F01003794A128812F0200F18BF83F07A
:10181000200343F4004343F080039BB2744A1360F7
:1018200002B070BD724C236823F070031B051B0DC2
:101830002360FFF70DFD236823F4804323F040036A
:101840001B041B0C684A128812F4805F18BF83F4D3
:101850008053654A128812F4005F18BF83F4005366
:10186000624A128812F0100F18BF83F010035F4A0B
:10187000128812F0200F18BF83F0200343F40043B6
:1018800043F080039BB25A4A1360C9E79B0003F1FF
:10189000804303F5B8431A6892B2ADF80620BDF84C
:1018A000062012F4004F77D1BDF8063013F0800FF8
:1018B0007FD133689AB2228013F4004FB0D02388CE
:1018C00003F00F032B70002BE0D1494A116889B255
:1018D000454B1980198801F030014448018019886E
:1018E00001F440511980136823F4804323F040032E
:1018F0001B041B0C83F4005383F0200343F40043C8
:1019000043F080031360238813F0100F3FF453AFAC
:10191000374B1B689BB2ADF80630BDF8063013F4A8
:10192000006F7FF47FAFBDF8063013F4004FC0D0D6
:101930002F4C236823F070031B051B0D2360FFF75A
:1019400035FE236823F4804323F040031B041B0C63
:10195000254A128812F4805F18BF83F48053224A0C
:10196000128812F4005F18BF83F400531F4A1288D4
:1019700012F0100F18BF83F010031C4A128812F0E7
:10198000200F18BF83F0200343F4004343F080038B
:101990009BB2174A136043E71A6822F070021205DF
:1019A000120D1A602B78013B124A52F823309847E7
:1019B0007AE72B789B0003F1804303F5B8431A685C
:1019C00022F4E14222F070021204120C1A602B7809
:1019D000013B094A52F8233098476AE7445C0040CB
:1019E000CA1500209C150020C6150020C81500202F
:1019F000005C0040340000205000002001325210F2
:101A000014D030B401F1005101F5405149000230C9
:101A1000002310F8015C10F8024C44EA052421F878
:101A20002340013302309342F3D130BC704701327E
:101A300001F1005101F540514900521005D051F813
:101A4000043B20F8023B013AF9D17047014B186082
:101A5000704700BF445C00404FF6F8730340014AF2
:101A600013607047505C0040800000F1804000F53A
:101A7000B840036823F4EC4323F07003194389B2A0
:101A800001607047800000F1804000F5B8400368B5
:101A900023F4E04323F040039BB211F0100F18BF72
:101AA00083F0100311F0200F18BF83F0200343F4DC
:101AB000004343F0800303607047800000F18040E2
:101AC00000F5B840036823F4804323F070039BB211
:101AD00011F4805F18BF83F4805311F4005F18BFC6
:101AE00083F4005343F4004343F0800303607047E2
:101AF000800000F1804000F5B840006800F0300040
:101B00007047800000F1804000F5B840036823F47E
:101B1000E04323F040039BB283F0300343F40043DF
:101B200043F0800303607047800000F1804000F5BF
:101B3000B840036823F4804323F070039BB283F41E
:101B4000405343F4004343F0800303607047800038
:101B500000F1804000F5B840036823F4F8731B05DA
:101B60001B0D43F4004343F0800303607047800083
:101B700000F1804000F5B840036813F4804F09D0AD
:101B8000036823F0F0031B051B0D43F4404343F0AF
:101B9000800303607047800000F1804000F5B8408A
:101BA000036813F0400F09D0036823F0F0031B050E
:101BB0001B0D43F4004343F0C00303607047000073
:101BC000064B1B689BB203EBC00000F1005000F510
:101BD000405040004908490001607047505C004097
:101BE000054B1B689BB203EBC000044B03445B0036
:101BF0004908490019607047505C004004300020DB
:101C0000054B1B689BB203EBC00000F1005000F5D0
:101C10004050400000887047505C0040044B1B68F7
:101C20009BB203EBC000034B03445B001888704772
:101C3000505C004004300020044B1B689BB203EB57
:101C4000C000034B03445B0019607047505C0040C8
:101C5000023000200E4B1B689BB203EBC0000D4B03
:101C600003445B003E290BD94A0911F01F0F04BF42
:101C700002F1FF3292B2920242F400421A607047BF
:101C80004A0811F0010F18BF013292021A60704722
:101C9000505C004006300020054B1B689BB203EBF4
:101CA000C000044B03445B001868C0F30900704790
:101CB000505C004006300020C3B2000A40EA032016
:101CC000704700000020044B18604FF43F43034A64
:101CD0001380034A13607047445C0040C415002021
:101CE000405C004070B50E4600F07F052846FFF7C7
:101CF000D3FF04462846FFF791FF224601463046AF
:101D0000FFF795FE204670BDA2B110B44C1C531EC7
:101D1000DBB201EB430103310022030F092B94BF17
:101D20003033373304F8013C000104F8022B8C42B5
:101D3000F3D110BC7047000010B582B0012104201F
:101D4000FEF7A8FE4FF4C053ADF8043003248DF81D
:101D5000064018238DF8073001A90D48FEF7D8FD7D
:101D600001217C20FEF796FE4FF40073ADF804309D
:101D70008DF8064014238DF8073001A90548FEF7B9
:101D8000C7FD01212020FEF785FE02B010BD00BF77
:101D9000000801400014014008B50120FEF70EFEC6
:101DA00001214FF40000FEF783FE08BD10B582B09C
:101DB0004FF4A060FEF7AAFC14238DF80430002332
:101DC0008DF805308DF8063001248DF8074001A804
:101DD000FEF7A6FC2A238DF804308DF8054001A8F3
:101DE000FEF79EFC02B010BD08B528B94FF4007193
:101DF0000448FEF7DFFD08BD4FF400710148FEF70F
:101E0000DBFD08BD0014014038B50A4B18680833E3
:101E10001B68C01800D138BD074B1D68074C08224D
:101E20002146FFF771FF042204F110012846FFF755
:101E30006BFFF0E7E8F7FF1FECF7FF1F1A00002029
:101E40007047FEE7FEE7FEE7FEE770477047704722
:101E5000704708B500F008F808BD08B54FF48020B9
:101E6000FEF750FD08BD000000B589B0634B1B684C
:101E70009BB2634A13801388624A1288134013F49A
:101E8000007F4FD15E4B1B885E4A1288134013F4CB
:101E9000004F53D15A4B1B885A4A1288134013F4EF
:101EA000806F4ED1564B1B88564A1288134013F44C
:101EB000005F03D04DF6FF72504B1A60504B1B88E9
:101EC000504A1288134013F4805F42D14C4B1B8858
:101ED0004C4A1288134013F4006F09D04A4B1B7808
:101EE000002B3ED000F0DCF94FF2FF72434B1A603A
:101EF000434B1B88434A1288134013F4807F0ED053
:101F00004FF6FF623D4B1A6004331B6813F4004F19
:101F10002BD100223D4B5A60072000F011FA09B086
:101F20005DF804FB4FF6FF52344B1A60374A1378C2
:101F30000133DBB21370FEF7EAF8A3E7FFF732FCD8
:101F4000A8E74FF6FF322D4B1A60314B5B6898477C
:101F5000A8E74EF6FF72294B1A60002000F0F0F956
:101F6000B4E7022000F0ECF9BEE7284B5A680132D2
:101F70005A605B68032BCFD9264B1B6813F0080F00
:101F8000CAD1244B1B689BB2204A9360224900238C
:101F900051F8042B92B208A800EB830040F8202CE3
:101FA0000133082BF4D1194B9A6842F001029A6070
:101FB0009A6892B217490A609A6822F001029A6000
:101FC0009B689BB20B600D4A136813F4806FFBD0C3
:101FD0004FF6FF32094B1A600F49002308AA02EBA3
:101FE000830252F8202C92B241F8042B0133082BC3
:101FF000F4D10022054B5A608EE700BF445C0040DC
:10200000CA150020C4150020FA0000201405002085
:1020100074000020405C0040005C0040034B9B7A51
:1020200013B10522024B1A60704700BFA0150020B3
:10203000280500200422014B1A6070472805002063
:10204000044B1B78202B00D070470022014B1A70E4
:10205000FAE700BF2005002070470000212803D0C8
:1020600020280AD002207047124B1B681B7803F00F
:102070007F03212B0DD0022070470E4B1B681B786D
:1020800003F07F03212B0FD020220B4B1A7002206C
:1020900070470A4A10B5074B1B689A6100245C829E
:1020A00020469047204610BD2022034B1A70044A58
:1020B000F0E700BFC015002020050020F92000082F
:1020C00011210008074B1B681B7803F07F03212BAD
:1020D00001D00220704700F0DF00022814BF022068
:1020E00000207047C015002009B102207047012868
:1020F0008CBF02200020704708B103487047034B93
:102100001B6808221A8270476C000020C01500204E
:1021100008B103487047034B1B6808221A827047B6
:102120006C000020C015002010B5FFF76DFE054BB8
:102130001B6800249C7200F09BF8FFF7C3FD024B64
:102140001C6010BDC01500202805002010B5334BC1
:102150001B6800249C72324AD2795A72DC72204683
:10216000FFF77AFC4FF400712046FFF77DFC102149
:102170002046FFF787FC40212046FFF731FD8021F4
:102180002046FFF71DFD2046FFF7E1FC254B93F8A5
:1021900034102046FFF75EFD2046FFF7C5FC2146C0
:1021A0000120FFF761FCC0210120FFF709FD20217C
:1021B0000120FFF767FC21460120FFF77EFC4FF46A
:1021C000C0610220FFF750FC4FF480710220FFF73E
:1021D000F7FC21460220FFF770FC20210220FFF7C8
:1021E00051FC21460320FFF73FFC4FF48871032088
:1021F000FFF7F6FC40210320FFF72CFD4FF4405180
:102200000320FFF75AFC21460320FFF73BFC204642
:10221000FFF756FA0122044B1A6010BDC0150020CA
:10222000B46600086C0000202805002008B50249AB
:10223000FEF7DEFF08BD00BFA400002008B502497C
:10224000FEF7D6FF08BD00BFAC00002008B5064B66
:102250001B68DB78032B05D8044901EBC301FEF7AB
:10226000C7FF08BD002008BDC0150020B400002035
:1022700070B50120FFF7B8FD074D01232B60074E15
:10228000002434802C602046FFF7E0FB4FF4E0533D
:1022900033802B60204670BD405C0040C415002098
:1022A00010B41D4B186880B21C4900231C4C51F817
:1022B000042B92B244F823200133082BF7D140F4C9
:1022C0008062154B1A6042F001021A6020F0010092
:1022D00080B240F480621A60124A136813F4806F6F
:1022E000FBD04FF6FF320F4B1A600C4900230C4C09
:1022F00054F8232092B241F8042B0133082BF7D174
:1023000040F48160044A106013689BB243F00403F8
:10231000136010BC704700BF405C0040005C004090
:10232000D0150020445C0040044B19684FF6FB7246
:102330000A401A604FF43F421A607047405C004008
:1023400008B507281CBF2B4B18702A4B1B78DBB233
:10235000052B4BD8DFE803F00310191F2A36264B54
:102360001B681BB10522234B1A7008BDFFF7DCFF69
:102370000622204B1A7008BDFFF7D6FF04221D4B22
:102380001A7001221C4B1A6008BD1A4B02225A70A7
:1023900003221A7008BD174A5378013BDBB2537011
:1023A000537833BB0422134B1A7008BD134A1368C9
:1023B0009BB243F0100313600E4B05221A700A22E1
:1023C0005A7008BD0B4A5378013BDBB25370537807
:1023D0007BB90A4A11684FF6EF730B40136006226F
:1023E000044B1A700022044B1A6008BD0622014BF0
:1023F0001A7008BDCC15002024050020405C004068
:1024000000230B8070474FF201030B8070474FF49D
:1024100070430B80704708B502220C210120FEF7A3
:102420004BF8002209210120FEF746F800220A217C
:102430000120FEF741F800220F210120FEF73CF8B1
:1024400000220E210120FEF737F800220D21012085
:10245000FEF732F800220B210120FEF72DF808BD0F
:1024600038B50546084614460C4903F025FF2146B9
:1024700003F0D6FF0446284603F0C6FE0546014693
:10248000204604F0C1F830B92946204603F00AFE80
:1024900004F0D8F838BD012038BD00BF001B374C10
:1024A00038B50D461B4B07221A804FF4A9725A808B
:1024B00000229A80C3F80600C3F80A1016490A6081
:1024C0001846FDF725FE4FF4FA60FEF721F8124C8E
:1024D00023681BB9FEF750F80028F9D00E4B1B6893
:1024E0008BB10E4B1B886D080335AB420DD10B4BE6
:1024F0005B88012B0BD1094B9B88B3F5A97F08485A
:1025000018BF002038BD002038BD002038BD002095
:1025100038BD00BF8C050020FC040020900D002079
:10252000960D002008B5074B04221A804FF48072E4
:102530005A809880D9800021034A11601846FDF71F
:10254000E7FD08BD8C050020FC040020054B064A71
:10255000DA63064903F13C0243F8041B9342FBD1C2
:10256000704700BF2C050020A0860100072400084A
:102570002DE9F843051D4688C14C012324F8023B90
:10258000DFF80093DFF8048309F13C0751E06B8822
:10259000062B03D04FF20203638032E0D9F82430D7
:1025A000A11C281D98472CE06B88062B04D04FF205
:1025B00002036380BDE8F883B24BDB6AA11C281DCF
:1025C0009847BDE8F8836B88062B03D84FF20203C7
:1025D000638016E02989063B01F0010202EB5102FB
:1025E000934203D04FF2020363800AE0D9F820300F
:1025F000A11C281D984704E0D9F82830A11C281DEB
:102600009847A38801339BB2A3802A8822809C49E3
:102610000A881A440A80013EB6B2002E00F0CD822C
:102620006288002A40F0C9826A8805EB420504EB03
:1026300043040223A3802B88013B702B00F2B98254
:1026400001A252F823F000BF59280008B32B00085C
:10265000B32B0008B32B0008B32B0008B32B0008E2
:10266000B32B0008B32B0008B32B0008B32B0008D2
:10267000B32B0008B32B0008B32B0008B32B0008C2
:10268000B32B0008B32B0008C32A0008DD2A00087A
:10269000F72A0008112B00082B2B0008452B0008F7
:1026A000B32B0008B32B0008B32B0008B32B000892
:1026B000B32B0008B32B0008B32B0008B32B000882
:1026C000B32B0008B32B0008B32B0008B32B000872
:1026D000B32B0008B32B0008B32B0008B32B000862
:1026E000B32B0008B32B0008B32B0008B32B000852
:1026F000B32B0008B32B0008B32B0008B32B000842
:10270000B32B0008B32B0008B32B0008B32B000831
:10271000B32B0008B32B0008B32B0008B32B000821
:10272000B32B0008B32B0008B32B0008B32B000811
:10273000B32B0008B32B0008B32B0008B32B000801
:10274000B32B00088F250008C7250008B32B00080D
:10275000B32B0008B32B0008B32B0008B32B0008E1
:10276000B32B0008B32B0008B32B0008B32B0008D1
:10277000B32B0008B32B0008B32B0008B32B0008C1
:10278000B32B0008A9250008F92500085F2B0008D5
:10279000B32B0008B32B0008B32B0008B32B0008A1
:1027A000B32B0008B32B0008B32B0008B32B000891
:1027B000B32B0008B32B0008B32B0008B32B000881
:1027C000B32B00080D28000833280008B32B00089D
:1027D000B32B0008B32B0008B32B0008B32B000861
:1027E000B32B0008B32B0008B32B0008B32B000851
:1027F000B32B0008B32B0008B32B0008B32B000841
:10280000B32B00087D2B0008992B00086B88042B44
:1028100003D04FF202036380F3E6EB881BB94FF25B
:1028200002036380EDE6D9F81C30A11C281D9847EF
:10283000E7E66B88042B03D84FF202036380E0E6DF
:10284000EB881BB94FF202036380DAE6D9F818303F
:10285000A11C281D9847D4E6FFF778FE094B43F8E2
:10286000048BBB42FBD1084BC9F83830002363808E
:102870006B88062B0CD04FF202036380C1E600BFC9
:102880008C0500202C050020012400080F240008DE
:10289000A868C9F83C00AB88232B00F20E81DFE862
:1028A00013F024004F000C017B00A1000C010C016F
:1028B0000C010C010C010C010C010C010C010C01B0
:1028C0000C01B0000C010C010C010C010C010C01FD
:1028D0000C010C010C010C010C010C010C010C0190
:1028E0000C010C01C400DC00F40003F08DFC01F0CD
:1028F000A9FFB44BC9F80030B34BC9F80830B34A4C
:10290000C9F80420B24AC9F80C20C9F81030B14BFC
:10291000C9F81430B04BC9F82030B04BC9F8243096
:10292000AF4BC9F82830AF4BC9F82C30AE4BC9F8C3
:102930001830AE4BC9F81C30AD4BC9F8303060E6EA
:1029400003F062FC01F066FAAA4BC9F80030AA4B0A
:10295000C9F80430A94BC9F80C30A94BC9F8143098
:10296000A84BC9F83830A84BC9F82030A74BC9F894
:102970002430A74BC9F82830A64BC9F82C30A64BF9
:10298000C9F81830A54BC9F81C30A54BC9F834302C
:10299000A44BC9F8303034E603F036FC00F084FA7A
:1029A000A14BC9F80030A14BC9F80430A04BC9F8BD
:1029B0000830A04BC9F80C309F4BC9F838309F4BFA
:1029C000C9F820309E4BC9F824309E4BC9F82830F6
:1029D0009D4BC9F82C309D4BC9F818309C4BC9F859
:1029E0001C300EE603F05AFA9A4BC9F800309A4BA5
:1029F000C9F80430994BC9F82030994BC9F82430F4
:102A0000FFE503F001FC02F02BFB964BC9F8003008
:102A1000954BC9F80830954BC9F80430944BC9F868
:102A20001830944BC9F81C30EBE503F0EDFB0121A5
:102A300002F028FF904BC9F80830904BC9F82030BD
:102A40008F4BC9F824308F4BC9F818308E4BC9F81A
:102A50001C308E4BC9F83430D3E503F0D5FB02218E
:102A600002F010FF844BC9F80830844BC9F82030BD
:102A7000834BC9F82430834BC9F81830824BC9F80E
:102A80001C30824BC9F83430BBE503F0BDFB032199
:102A900002F0F8FE784BC9F80830784BC9F82030BE
:102AA000774BC9F82430774BC9F81830764BC9F802
:102AB0001C30764BC9F83430A3E54FF47043638083
:102AC0009FE56B88022B03D04FF20203638098E5E9
:102AD000D9F80030A11C281D984792E56B88022B7D
:102AE00003D04FF2020363808BE5D9F80830A11CB4
:102AF000281D984785E56B88022B03D04FF202030F
:102B000063807EE5D9F80430A11C281D984778E53C
:102B10006B88022B03D04FF20203638071E5D9F872
:102B20000C30A11C281D98476BE56B88022B03D045
:102B30004FF20203638064E5D9F81030A11C281D10
:102B400098475EE56B88022B03D04FF20203638047
:102B500057E5D9F81430A11C281D984751E56B881A
:102B60000C2B04D04FF202036380BDE8F883484B7E
:102B70001B6BA11C281D9847BDE8F883EB88013327
:102B80005B0803D14FF2020363803AE5D9F8343091
:102B9000A11C281D984734E56B88022B03D04FF207
:102BA000020363802DE5D9F83830A11C281D984711
:102BB00027E54FF47043638023E53648FDF7A8FA14
:102BC000BDE8F8830947000815470008BD4700081D
:102BD00025480008314800080D49000875490008DB
:102BE000F5490008414A00080D4B00084D4B00080C
:102BF0008D4B0008793D0008853D0008F53D000833
:102C0000013E00089D420008D13E0008393F0008FF
:102C1000BF3F0008D53F0008553E0008913E000820
:102C2000AD40000825410008A92F0008B72F000873
:102C3000C52F00083134000875340008FD30000845
:102C4000453200088533000841300008C3330008CE
:102C5000F9330008715F0008395F0008855F0008DC
:102C600009600008795000083D510008C55000086F
:102C700049510008BB510008A9580008B15C000880
:102C8000515C0008195B0008B9590008155D00087F
:102C90002C0500208C050020044B1B681A6819685D
:102CA000891A8142FBD47047041000E0A82C000868
:102CB00008B503220B210120FDF7FEFB00220D21A8
:102CC0000120FDF7F9FB044B4FF400521A614FF459
:102CD00000621A6108BD00BF000C014010B5FFF78B
:102CE000E7FF01220B211046FDF7E6FB4FF40062DF
:102CF0000E4B5A613220FDF735FCFFF7D9FF4FF438
:102D0000FA70FDF705FC094CA36813F4006F03D1BA
:102D1000FDF732FC0028F7D0044B9B6803F40063F6
:102D2000002B4FF2110018BF002010BD000C014015
:102D300070B50E46104C20602379002508232371BE
:102D400063796571A379A571E379E571204600F097
:102D5000A9FB266023791023237163796571A37918
:102D6000A571E379E571204600F09CFB034B1868E0
:102D7000FFF792FF284670BDF01500206C0500207B
:102D8000F8B507460E46174C237800256FF0370339
:102D9000237063786570A378A570E378E570237974
:102DA0000823237163796571A379A571E379E571CE
:102DB000204600F077FB2379102323716379657136
:102DC000A379A571E379E5712760204600F06AFBDD
:102DD0002660204600F066FB034B5868FFF75CFF57
:102DE0002846F8BDF01500206C05002070B5064699
:102DF000174C237800256FF01703237063786570F4
:102E0000A378A570E378E5702379082323716379AB
:102E10006571A379A571E379E571204600F042FB65
:102E2000266023791023237163796571A379A571D5
:102E3000E379E571204600F035FB064B5868FFF753
:102E40002BFF204600F068FB206880B270BD00BFF9
:102E5000F01500206C05002038B5114C2060237956
:102E600000250823237163796571A379A571E3793E
:102E7000E571204600F016FB0A4B9868FFF70CFF3F
:102E800023791023237163796571A379A571E3799F
:102E9000E571204600F040FB206880B238BD00BFDD
:102EA000F01500206C050020F8B50546374C0026CB
:102EB000042284F82C20102084F82D0084F82E6041
:102EC0006FF01F0384F82F30237E4FF0FF332376FB
:102ED000617E6376A17E0F21A176E17EE376227783
:102EE0000C2161770122A2774023E377142784F82D
:102EF000207084F8211084F8222084F8233084F88C
:102F0000240084F8251084F8262084F8273008202F
:102F100084F8280084F8291084F82A2084F82B30BB
:102F20002A464FF081411020FFF79AFAA0602A4606
:102F300017491320FFF794FAE0602A46154910203C
:102F4000FFF78EFA20612A4613491120FFF788FA0D
:102F500060612A4611493046FFF782FA104C6060E2
:102F60002A464FF085413046FFF77AFAE0602A465C
:102F70000C493046FFF774FAA0602A464FF08441AE
:102F80003046FFF76DFA2060F8BD00BFF015002055
:102F900000001041000040400000C0400000164307
:102FA0006C0500200000304210B50C46FFF780FE93
:102FB0000023238010BD10B50C46FFF78FFE208044
:102FC00010BD000038B50D46FFF772FE01220B213F
:102FD0001046FDF771FA194C4FF4006363610A2043
:102FE000FDF7C0FA01220D211046FDF765FA4FF4F6
:102FF000005363613220FDF7B5FA03220B21012053
:10300000FDF75AFA4FF4FA70FDF782FAA36813F449
:10301000006F03D1FDF7B0FA0028F7D06420FDF768
:10302000A1FAFFF745FE054B9B6803F40063002BF4
:103030004FF2110318BF00232B8038BD000C014054
:103040002DE9F84F8946D0F80080436808EB030B60
:1030500050234B8000238B801FFA88F14520FFF717
:1030600067FED84544D201234FF0800A62271DE055
:103070001FFA88F0FFF7BAFEA9F80A00BAF1020FAA
:103080000CD9012E0AD909F10C0501243846FFF7A5
:10309000E3FE25F8020B0134A642F7D1D04448469E
:1030A000FDF736F80346E8B9C34521D9ABEB080272
:1030B000924528BF92464FEA5A06721DA9F8002091
:1030C000C9F80680002BD3D1002EE7D009F10A05FC
:1030D00000243846FFF7C0FE25F8020B0134A64253
:1030E000F7D1DBE74FF22203A9F80030BDE8F88FF3
:1030F0000023A9F80030BDE8F88F00002DE9F84F53
:10310000894605684768002F00F0958000F10806A1
:103110004A4C4FF00008DFF828A10CE0002086E0C0
:103120003188A8B2FFF72CFE80B20235023F7ED074
:10313000023600287BD1012F3FD9B5F5803FEFD370
:10314000B6F800B023786FF033032370637884F807
:103150000180A37884F80280E37884F803802379DF
:1031600008232371637984F80580A37984F80680A5
:10317000E37984F80780204600F094F9237910233E
:103180002371637984F80580A37984F80680E37954
:1031900084F80780ABB22360204600F083F9C4F8BE
:1031A00000B0204600F07EF9DAF80400FFF774FD65
:1031B0000235023FB2D00236BDE7B5F5803F377821
:1031C0001E4C23784FF000062CBF6FF03B036FF0CE
:1031D0003F03237063786670A378A670E378E67087
:1031E00023790823237163796671A379A671E37942
:1031F000E671204600F056F9237910232371637994
:103200006671A379A671E379E671ABB223602046BB
:1032100000F048F915F0010F08BF3F0207480760AA
:1032200000F040F9064B5868FFF736FD0020A9F87A
:103230000000BDE8F88F0020F9E700BFF01500207E
:103240006C0500202DE9F04F83B001910668D0F89D
:103250000490B9F1000F00F0848001F10608002706
:10326000464C3D46DFF818B10AE0B0B2FFF7BEFDAC
:103270002AF8020C0237023608F10208B94571D962
:10328000B9F1010F31D9C246B6F5803FEDD32378AD
:103290006FF01303237063786570A378A570E378EB
:1032A000E57023790823237163796571A379A5718A
:1032B000E379E571204600F0F5F8B3B22360237995
:1032C0001023237163796571A379A571E379E571A1
:1032D000204600F0E7F8DBF80400FFF7DDFC2046AD
:1032E00000F01AF9206880B2C2E7B6F5803F237873
:1032F0002CBF6FF01B036FF01F03237063786570A2
:10330000A378A570E378E5702379082323716379A6
:103310006571A379A571E379E571204600F0C2F8E3
:10332000B3B2236023791023237163796571A37984
:10333000A571E379E571204600F0B4F8DBF80400EC
:10334000FFF7AAFC204600F0E7F816F0010F23680B
:1033500014BFDBB2C3F307239BB228F8023C01374A
:103360008AE74F46002301990B8007F0010303EB26
:10337000570702374F8003B0BDE8F08FF0150020EB
:103380006C0500202DE9F041064688464468054654
:1033900035F80A7B39464520FFF7CAFC31893846A3
:1033A000FFF7EEFC023C07D0422635F8021B304600
:1033B000FFF7BEFC023CF8D10023A8F80030BDE8BE
:1033C000F0810388A3F14202052A11D84288022A1B
:1033D00003D04FF240030B80704710B50C46818834
:1033E000D8B2FFF7A5FC002323800223638010BD21
:1033F0004FF470430B8070470388A3F16202052AE3
:1034000011D84288022A03D04FF240030B80704744
:1034100010B50C46D8B2FFF71FFDA0800023238013
:103420000323638010BD4FF470430B80704700008E
:1034300038B50D460D480378002408230370427800
:10344000447082788470C278C470027903714379C1
:10345000447183798471C379C47100F023F8044BFB
:10346000D868FFF719FC2C8038BD00BFF01500208C
:103470006C05002010B50C46FFF730FC208010BD15
:103480008269C369012424051D68154025431D6018
:1034900070478269C369062424051D6815402543C9
:1034A0001D60704772B6FEB5476806682025ED1BA3
:1034B000AE40FFF7E5FF026A20231B02136082681B
:1034C000C36A1C681D682D1B9542FBD4361C04D4AE
:1034D000026A20231B02136003E0426A20231B02BE
:1034E0001360C268C36A1C681D682D1B9542FBD41B
:1034F000426A20231B0213600269C36A1C681D68AC
:103500002D1B9542FBD47600013FD4D162B6FFF764
:10351000C0FFFEBC01BC004772B6FEB5476800267E
:10352000FFF7B7FF026A20231B0213608268C36A99
:103530001C681D682D1B9542FBD4426A20231B0288
:1035400013604269C36A1C681D682D1B9542FBD439
:10355000826A01231268520B1A40760016434269B0
:10356000C36A1C681D682D1B9542FBD4013FD9D14D
:1035700062B60660FEBC01BC004700002DE9704F3A
:1035800086B006460291914603934B1E012202FA31
:1035900003F304935A4A936813F4804FFBD1584CB9
:1035A0004FF4004323614FF40058C4F81080554D88
:1035B0002868FFF771FBC4F814802868FFF76CFBDC
:1035C000A468C4F3803416F0010F4FF400424C4B52
:1035D00014BF1A615A614A4D4FF4005AC5F810A041
:1035E000DFF82081D8F80000FFF756FBC5F814A0DB
:1035F000D8F80000FFF750FBAB6803F48043002BC2
:1036000014BF022300232343019316F0020F4FF44B
:10361000004219BF2B461A61394B5A61384D4FF49D
:1036200000562E61374C2068FFF736FB6E6120682C
:10363000FFF732FB019B002B14BF4FF0070B4FF03D
:10364000200B029B1D46002B53D04FF000082C4E40
:103650004FF400530093C246CDF814B0DDF810B01B
:10366000B368C3F3803343EA4A0A1BEA090F4FF4F5
:10367000004314BF336173614FEA4909009B336112
:10368000204C2068FFF708FB4FF40053736120685B
:10369000FFF702FB08F10108A845E1D15446DDF827
:1036A00014B04FF40042164B5A61029B5B4519D28D
:1036B000134E4FF40059CA46B368C3F3803343EA4C
:1036C0004404C6F810A0DFF83C80D8F80000FFF7EB
:1036D000E3FAC6F81490D8F80000FFF7DDFA0135D8
:1036E0005D45E9D3039B03B11C60019806B0BDE8BA
:1036F000708F4FF40042024B5A61029CD8E700BF22
:10370000000C01407C0500202DE9704183B080460B
:103710000624002520262B46424631462846FFF740
:103720002DFF01AB2A4607210320FFF727FF0138B1
:10373000012806D8013CEED14FF6FF7003B0BDE87A
:1037400070810020FAE72DE9704382B081468846F7
:1037500005240026202501E0F4B1013C33464A4609
:1037600029463046FFF70AFF01ABD8F8002029466A
:103770000220FFF703FF01380128EDD901AB3246E3
:1037800007210320FFF7FAFE0138012807D8002C93
:10379000E3D14FF6FF7003E04FF6FF7000E000202A
:1037A00002B0BDE870832DE9784782468946062439
:1037B000002620254FF0C048334652462946304661
:1037C000FFF7DCFE4B46424629463046FFF7D6FE61
:1037D00028B1013CF0D14FF6FF70BDE8788700209A
:1037E000BDE8788730B583B004460D4602A90023B2
:1037F00041F8043D1148FFF7D6FF034610B11846C3
:1038000003B030BD29460E48FFF79DFF0346002850
:10381000F5D1600100F47870C4F3441404430948FE
:1038200040EAC420FFF770FF03460028E7D101A952
:103830000348FFF788FF0346E1E700BFA69B167C1D
:10384000A69A167CA603007C30B583B004460D46CC
:1038500002A9002341F8043D1148FFF7A4FF0346E5
:1038600010B1184603B030BD600100F47870C4F3A5
:10387000441404430B4840EAC420FFF745FF0346C5
:103880000028EED129460648FFF78DFF03460028A1
:10389000E7D101A90448FFF756FF0346E1E700BF5F
:1038A000A69B167CA602007CA69A167C70B582B0F8
:1038B000974C23886FEA83436FEA93439BB223803C
:1038C000A38823F001031B041B0CA380043804F518
:1038D0005444A36813F4804FFBD18E4B4FF4004542
:1038E0001D614FF400541C615C6100BF00BF00BF4C
:1038F0009E685D611C615C6100BF00BF00BF9D6888
:103900001C615C6102AC844D44F8045D834DEC6045
:1039100002246C605C6844F0004444F400045C6081
:103920002B6843F001032B602C466368002BFCD10D
:10393000774C238913F0800FFBD1784C236823F058
:1039400001032360734C636823F0004323F40003F6
:103950006360A36813F4804FFBD16E4B4FF40045B6
:103960001D614FF400541C615C615D6100BF00BFCC
:1039700000BF1C615C611D6100BF00BF00BF1C6116
:103980005C614FEA304002AD45F8040D634CE560E0
:1039900002206060586840F0004040F40000586029
:1039A000236843F00103236020464368002BFCD1C9
:1039B0005748038913F0800FFBD15848036823F060
:1039C000010303605348436823F0004323F40003DA
:1039D0004360836813F4804FFBD14E4B4FF400409B
:1039E00018614FF400501861586100BF00BF00BF5C
:1039F0001861586100BF00BF00BF186158610724FB
:103A000063204FF400464FF4005510F0400F14BFF0
:103A10001E615E6140001D615D61013CF5D1104693
:103A200000F01AFD80B23B4A936813F4804FFBD13B
:103A3000384B4FF400421A614FF400521A615A6138
:103A400000BF00BF00BF1A615A6100BF00BF00BFC6
:103A50001A615A61072143224FF400454FF4005484
:103A600012F0400F14BF1D615D6152001C615C616A
:103A70000139F5D1274A936813F4804FFBD1254BC8
:103A80004FF4004119614FF400521A615A615961B3
:103A900000BF00BF00BF1A615A61196100BF00BFBB
:103AA00000BF1A615A6102AA002142F8081D1B4991
:103AB000CA6002224A605A6842F0004242F40002A0
:103AC0005A600B6843F001030B600A465368002BF1
:103AD000FCD10F4A138913F0800FFBD10F4A1368F2
:103AE00023F0010313600B4A536823F0004323F4CF
:103AF00000035360A2F5544293889BB243F0010344
:103B000093801388C3F30D03138002B070BD00BF10
:103B100000380040000C0140D67FA69A58000240B1
:103B200070B584B00D4616460390002302930193AE
:103B300002A91E48FFF737FE044610B1204604B024
:103B400070BD01A91A48FFF72EFE04460028F5D1E2
:103B500003A91848FFF7F7FD044640B102A916482B
:103B6000FFF7F1FD01A91348FFF7EDFDE6E7314648
:103B70001148FFF7E8FD04460028EFD1012D06D0DB
:103B8000022D09D0042D0CD04FF20204E6E70B48B9
:103B9000FFF7BAFD0446E1E70948FFF7B5FD044623
:103BA000DCE70848FFF7B0FD0446D7E7A69B167C84
:103BB000A69B367CA69A367CA69A167C00000198B5
:103BC000000001B00000019070B584B00D461646AB
:103BD000039000230293019302A91E48FFF7E3FD1F
:103BE000044610B1204604B070BD01A91A48FFF781
:103BF000DAFD04460028F5D103A91848FFF7A3FD14
:103C0000044638B9012D0ED0022D18D0042D1BD03A
:103C10004FF2020402A91248FFF795FD01A90F48CF
:103C2000FFF791FDDEE70F48FFF76EFD0446002C1D
:103C3000F0D131460748FFF7B6FD0446EAE70A48E7
:103C4000FFF762FD0446F2E70848FFF75DFD044612
:103C5000EDE700BFA69B167CA69B367CA69A367C19
:103C6000A69A167C00000188000001A000000180D7
:103C700008B500220B210120FCF71EFC00220D21BB
:103C80000120FCF719FC00220F210120FCF714FC95
:103C900000220E210120FCF70FFC002008BD70B5AA
:103CA00082B00646002402AD45F8044D2346224664
:103CB00007210320FFF762FC2B4622460721032041
:103CC000FFF75CFC019BC3F380133380033818BFFC
:103CD0004FF0FF3080B202B070BD000010B584B06C
:103CE0000023039304A941F8083D9520FFF7ACFD9C
:103CF000044610B1204604B010BD029B23F40033EB
:103D000043F0207343F0010304A941F8083D9520D6
:103D1000FFF768FD04460028ECD103A91B20FFF73C
:103D200093FD04460028E5D1039B23F48C4304A9AA
:103D300041F8043D1B20FFF755FD04460028D9D16A
:103D400004A94FF0406341F80C3D4FF40C70FFF7AD
:103D500049FD04460028CDD101A99420FFF774FD48
:103D600004460028C6D10023024A20211846FFF746
:103D700005FCBFE76400004C10B50C46FFF778FF68
:103D8000208010BD70B50E46FFF772FF01220B2197
:103D90001046FCF791FB164C4FF4006363616420FE
:103DA000FCF7E0FB01220D211046FCF785FB012208
:103DB0000F211046FCF780FB4FF4004363614FF482
:103DC0000055256103220B210120FCF775FB3220F1
:103DD000FCF7C8FB656101220D211046FCF76CFB66
:103DE00001220F211046FCF767FB0023338070BDD2
:103DF000000C014010B50C46FFF770FF208010BD8D
:103E000010B50C46081DFFF74AFF2080032363808E
:103E100010BD000010B584B0044602F013FC019000
:103E20000023ADF80830ADF80A300123ADF80C30AE
:103E3000ADF80E3001A8FCF7CFF922464FF07C51C7
:103E40001820FEF70DFB024B186004B010BD00BF38
:103E50007C0500204388042B03D04FF240030B80E5
:103E6000704710B50C4603881F2B06D9011DA3F11E
:103E70002000FFF7B7FC208010BD011D034840EA79
:103E80004350FFF760FC208010BD00BFA69A167C4F
:103E90004388042B03D04FF470430B80704710B558
:103EA0000C4600881F2807D904312038FFF7CCFCC6
:103EB00020800423638010BD0431044B43EA40504A
:103EC000FFF771FC20800423638010BDA69B167C45
:103ED0002DE9704F8B460668446844B300F108052D
:103EE0004FF004094FF0010A4FF0020812E02A4691
:103EF00049463046FFF714FE043C0436043507E01B
:103F00002A4641463046FFF70BFE023C0236023598
:103F100074B168B9032CEAD8012CF1D82A4651466D
:103F20003046FFF7FDFD013C01360235F0E7002089
:103F3000ABF80000BDE8708F2DE9704F8B46066826
:103F4000D0F80480B8F1000F2CD00C1D0025A94634
:103F50004FF0020A13E0224604213046FFF734FEF8
:103F600004350436043407E0224651463046FFF754
:103F70002BFE023502360234A84515D9A0B9A4F8A3
:103F80000090B8F1030FE6D8B8F1010FECD8224643
:103F900001213046FFF718FE237824F8023B013553
:103FA0000136E9E745460020ABF8000005F00103C3
:103FB00003EB55050235ABF80250BDE8708F10B524
:103FC0000C4600F1080241680068FFF76FFC208092
:103FD00010BD000030B583B004460D460368043BB5
:103FE00002A941F8043D2E48FFF7ADFB20B14FF286
:103FF00022032B8003B030BD2A4A936813F4804F0C
:10400000FBD1284B4FF4004018614FF400521A6165
:104010005A6100BF00BF00BF9968C1F38031586189
:104020001A615A6100BF00BF00BF9B6803F4804360
:10403000002B14BF0223002319431A4A4FF40053E4
:1040400013615361536843F0004343F4000353602A
:1040500048F20142144B9A811A46138913F0010F5A
:10406000FBD0114B9A8904229A811A46138913F0C6
:10407000010FFBD00C4B9B890A4A536823F0004385
:1040800023F4000353600329B1D1626821682846F4
:1040900000F036F90028ADD04FF222032B80A9E7BB
:1040A000A69A367C000C0140003800404388042B5F
:1040B00003D04FF202030B80704710B50C464268E4
:1040C000038853B1012B11D0022B1DD04A88002048
:1040D000034613446380208010BD1046FFF714FB95
:1040E00000236288002818BF0023F2E70389042B0D
:1040F00003D04FF202030B8010BD00F10A011046FD
:10410000FFF721FB0023ECE70389042B03D04FF2D8
:1041100002030B8010BD04311046FFF744FB02235D
:10412000DFE700002DE9704F82B00568436805EBBA
:1041300003090123019383680093D0F80CB006694A
:104140004D4528D24FF0000A84E000214FF601705F
:10415000FEF7E8F956E000214FF6FE70FEF7E2F9AF
:1041600050E04FF24300FEF7DDF94BE000214FF243
:104170001200FEF7D7F945E04FF24300FEF7D2F9FF
:1041800040E04FF24300FEF7CDF93BE04FF2110063
:10419000FEF7C8F936E002AC002344F8043D4EF6C1
:1041A0006020FCF7B5F92046FFF779FD01460028AD
:1041B0006DD1019B1BB9FCF7DFF90028F3D0FCF7A8
:1041C000DBF980B901A93448FFF7EDFA014680B95F
:1041D000019B012B4FF0000114BF4FF21200084663
:1041E000FEF7A0F90EE000214FF6FE70FEF79AF9F7
:1041F00008E04FF24300FEF795F903E04FF2430069
:10420000FEF790F902B0BDE8708FFCF7B5F9002811
:10421000A1D101A92048FFF7C6FA01460028A0D184
:10422000019B012BA2D169461A20FFF7DBFA014658
:104230000028A1D1424631465846FFF737FB0146D8
:1042400000289ED1FFF74AFD014600289ED1354443
:10425000A945A0D931462846FEF722F98046002814
:104260003FF473AF4EF66020FCF752F902AC44F80D
:1042700004AD2046FFF713FD01460028BED1019B87
:10428000002BC2D1FCF778F90028F2D0BDE74FF23D
:104290004300FEF747F9B5E7A69B767C10B5FFF71C
:1042A000E7FC01220D211046FCF706F901220F213F
:1042B0001046FCF701F90E4C4FF4004323614FF414
:1042C0000053636101220B211046FCF7F5F84FF40F
:1042D000006363616420FCF745F903220B21012090
:1042E000FCF7EAF86420FCF73DF9FEF794F810BDFE
:1042F000000C014000000000000000000000000071
:10430000F0B58BB0800880000230089006919208CA
:1043100007928449CA680B691E688D683543009509
:10432000012517686FF3000702972F43039757691A
:104330006FF3000704972F4305972D020A9500BFDE
:104340000A9D079FBD4200DD3D1C09957F1B079715
:104350006F000537078002305024069F10C00760A9
:10436000AD007F19069700BFAFF30080AFF3008068
:1043700002270430D060576011629761039C14607B
:10438000C0465F797F06FCD4C04680241C7320277A
:104390001F73A0241C74C046C046C0465C791F73BE
:1043A0001F74A4095D791F731F746D092C43009F4E
:1043B0001F60059F57615768002FFCD1C046029FC0
:1043C0001760049F57611E60032C40D102270D1D0A
:1043D000D060576015629761039C14605F797F0617
:1043E000FCD4C04680241C7320271F73A0241C7497
:1043F000C046C046C0465C791F731F74A4095D792E
:104400001F731F746D092C43009F1F60059F576128
:104410005768002FFCD1C046029F1760049F576168
:104420001E60A4B9C046C046099F013F09979FD1AD
:1044300008980FB4FBF76CFE00280FBC07D1079F4C
:1044400007B17DE740400BB0F0BC02BC0847FF203D
:104450000BB0F0BC02BC0847F0B587B08908314FFB
:10446000FA683B691E68BD6835430095BF690697C9
:10447000012517686FF3000702972F4303975769C9
:104480006FF3000704972F43059700BFAFF3008039
:1044900002271062043097615F797F06FCD4802583
:1044A0001D7320271F73A0241C74C046C046C0463D
:1044B0005C791F731F741D7364085D791F731F740B
:1044C0002C436FF3C714009F1F60059F57619769C6
:1044D000002FFCD18025069F3F882F40FBD1049FF1
:1044E00057611E60592C08DD0139D1D180251D741A
:1044F000404007B0F0BC02BC084780251D74FF2077
:1045000007B0F0BC02BC0847167CA69B01840400DF
:104510000000808044000240040C01401460004010
:10452000083800400845000801280BD068B14FF258
:1045300022024FF221034FF6FF7188420CBF18464A
:10454000104670474FF2200070474FF2230070472B
:10455000084A06E0013909D0936803F48053984271
:10456000F8D0906800F480500521F5E7003018BFBE
:1045700001207047000C014008B54FF400520E4B6B
:104580001A6103220B210120FBF796FF00220D2167
:104590000120FBF791FF02220C210120FBF78CFF89
:1045A00000220F210120FBF787FF00220E210120AE
:1045B000FBF782FF002008BD000C014038B50C4C11
:1045C000002525706570A570E570204600F097FB0A
:1045D00025700C236370A570E570204600F08FFBFA
:1045E000044A936813F4805FFBD1002038BD00BFFC
:1045F00048160020000C0140F8B504460D4616464A
:104600001748046000F07BFBCDB914F0800F21D176
:10461000134C33882360204600F071FB0023237085
:104620006370A370E370204600F069FB80B228B18C
:1046300020680028F7D080B2FFF776FFF8BD084F5A
:104640002B0C3B60384600F05AFB3D60384600F0CA
:1046500056FBDAE702487388036000F050FBD7E7A7
:1046600048160020F8B504460E4615462548046055
:1046700000F045FB76BB234B00221A705A709A70EB
:10468000DA7014F0800F0ED01C46204600F037FB85
:1046900080B2002832D02368002BF6D0194B1A685C
:1046A0006A80186808BB174B00221A705A709A70FB
:1046B000DA701C46204600F022FB80B2D0B123689D
:1046C000002BF7D02B800F4B186890B180B2FFF70A
:1046D0002BFFF8BD0B4F330C3B60384600F00FFB4F
:1046E0003E60384600F00BFBC5E780B2FFF71CFFC9
:1046F000F8BDF8BD034B1B682B80F8BD014B1B6850
:104700006B80D0E74816002010B50C46FFF734FF49
:10471000208010BD70B50D4601220D211046FBF71B
:10472000CBFE01220F211046FBF7C6FE224C4FF4B0
:10473000005626610A20FBF715FF66610A20FBF789
:1047400011FF4FF4FA70FBF7E3FEA36813F4805FE8
:1047500003D1FBF711FF0028F7D0174B9B6813F428
:10476000805F0AD0144B9B6803F48053002B4FF2F8
:10477000100318BF00232B8070BD01220B211046AF
:10478000FBF79AFE4FF400620B4B5A611920FBF7BE
:10479000E9FE03220B210120FBF78EFE4FF4FA7095
:1047A000FBF7B6FE044CA36813F4805FDAD1FBF785
:1047B000E3FE0028F7D0D5E7000C014038B50D46E0
:1047C000FFF7DAFE01220B211046FBF775FE0122EE
:1047D0000D211046FBF770FE114B4FF400521A6189
:1047E0004FF400625A611920FBF7BCFEFFF7C4FECC
:1047F0004FF4FA70FBF78CFE094CA36813F4006FBA
:1048000003D1FBF7B9FE0028F7D0054B9B6803F4F2
:104810000063002B4FF2110318BF00232B8038BD1B
:10482000000C014010B50C46FFF7C8FE208010BDFB
:1048300010B50C4600230B8003234B80FFF788FE46
:10484000A08010BD2DE9F04385B0064601F0FAFEC8
:1048500001900123ADF80830ADF80A30ADF80C3006
:10486000ADF80E3001A8FBF7B7FC264B00254FF042
:10487000140883F80C800C2159730120987340228E
:10488000DA7308271F7459749874DA744FF0040CA3
:1048900083F814C04FF0100E83F815E09D756FF08B
:1048A0001F0983F8179083F808C059729872DA725A
:1048B000197138245C719D71DA711F705C709D7084
:1048C000DA70114C84F814C084F815E0A57584F8EA
:1048D000179084F808E06172A072E27284F80C808C
:1048E0006173A073E27327746174A074E27432463A
:1048F0004FF07C511820FDF7B3FD606005B0BDE8B6
:10490000F08300BF24160020481600202DE9F04750
:1049100089460668446844B300F108054FF4C4585A
:104920004FF4C05A4FF4C25712E02A46314640466F
:10493000FFF762FE043C0436043507E02A463146A0
:104940003846FFF759FE023C0236023574B168B9A9
:10495000032CEAD8012CF1D82A4631465046FFF7FD
:104960004BFE013C01360235F0E70020A9F80000BB
:10497000BDE8F0872DE9F84F8946066847685FB3C0
:104980000D1D00244FF4C85B4FF4CA584FF4CC5AA5
:1049900013E02A4631465046FFF764FE04340436DD
:1049A000043507E02A4631464046FFF75BFE0234F5
:1049B00002360235A74211D980B9032FE9D8012F59
:1049C000F0D82A4631465846FFF74CFE2B7825F89A
:1049D000023B01340136EDE73C460020A9F8000017
:1049E00004F0010303EB54040234A9F80240BDE8CB
:1049F000F88F0000F8B505460E460168446800F1DE
:104A0000080214F0030F07D013190020013403F833
:104A1000010B14F0030FF9D14FF4C450FFF7ECFD74
:104A20000746043C00D008B13780F8BD03480C3578
:104A3000C561A408046200F0EDF9F5E72416002032
:104A40002DE9F04F83B00F46036819460193436880
:104A500001EB030950237B800023BB80494546D2EC
:104A60000C4601264FF4806507F10A030093DFF836
:104A700094B0DFF8948010E0C8F81CA0C6EB95064F
:104A8000C8F82060404600F082F92C443846FBF715
:104A90003FFB40BB0026A14529D9A9EB04039D4259
:104AA00028BF1D466B0805333B80C7F80640DDF87C
:104AB00000A0002EE0D0524621464FF4CC50FFF724
:104AC000D1FD07F10E0A00236FF07F028BF8002062
:104AD0001D228BF801208BF802308BF803305846EA
:104AE00000F00DF9C8E74FF222033B8007E03A4699
:104AF00001994FF4CA50FFF7B5FD00233B8003B086
:104B0000BDE8F08F481600202416002038B505882F
:104B100025F00F039BB2B3F5025F06D0B3F5125F29
:104B200003D04FF470430B8038BD4388042B03D06F
:104B30004FF240030B8038BD0C46021D0021284671
:104B4000FFF75AFD20800223638038BD38B5058801
:104B500025F00F039BB2B3F5065F06D0B3F5165FE1
:104B600003D04FF470430B8038BD4388042B03D02F
:104B70004FF240030B8038BD0C460A1D0021284629
:104B8000FFF770FD20800423638038BD2DE9F04FCE
:104B900083B00568436805EB030883680093D0F889
:104BA0000CB00769454576D2A7F104094FEA990987
:104BB0004EF6602A4F4E37E000214FF60170FDF7A8
:104BC000B1FC03B0BDE8F08FFBF7D6FC002842D162
:104BD00001AA00214FF40650FFF744FD01460028CA
:104BE0003FD1019B012B41D16A4600214FF4125065
:104BF000FFF702FD014600283ED1224659464FF4F8
:104C0000C450FFF7F9FC014600283AD10434F4619E
:104C1000C6F82090304600F0FDF8FFF7CFFC0146C3
:104C2000A0BB3D44A84536D939462846FDF738FC97
:104C300004460028C0D05046FBF76AFCFFF788FC0A
:104C40000028C1D1FBF798FC0028BDD1FFF780FCFC
:104C50000028F7D0B8E700214FF6FE70FDF762FCA0
:104C6000AFE74FF24300FDF75DFCAAE700214FF2EA
:104C70001200FDF757FCA4E74FF24300FDF752FC8A
:104C80009FE74FF24300FDF74DFC9AE74FF211000A
:104C9000FDF748FC95E74EF66020FBF739FCFFF77F
:104CA00057FC30B9FBF768FC18B9FFF751FC002836
:104CB000F8D0FBF761FC28B100214FF6FE70FDF73C
:104CC00031FC7EE701AA00214FF40650FFF7CAFC31
:104CD000014650B9019B012B4FF0000114BF4FF268
:104CE00012000846FDF71EFC6BE74FF24300FDF78C
:104CF00019FC66E724160020013AFDD17047FEB585
:104D000010270668F603C268A0231370C0464268E5
:104D1000FFF7F2FF0269527892090269527892090C
:104D2000151C826820231370C0464268FFF7E4FF19
:104D3000026952789209026952789209C046C268A3
:104D400020231370760003D582688023137004E05B
:104D5000C26880231370C046C0464268FFF7CCFF8C
:104D600002695278920916438268202313700269FF
:104D7000527892094268FFF7BFFF026952789209A0
:104D8000013FDCD10660281CFEBC02BC0847F0B520
:104D900084682568C769C268A0231370802636021C
:104DA0008022164336042E43C046C046026952781C
:104DB00092092660111C42680023138001230668B3
:104DC0003688DE41FBD516882560D941E3D47E8044
:104DD000C268A02313708026360280221643360450
:104DE0002E431D231B0213432660426813800123B8
:104DF00006683688DE41FBD5168825603E8004377C
:104E00000522FFF779FF026A013A0262C3D1F0BCC2
:104E100002BC0847F0B584682568C7692CE0C26801
:104E2000A0231370802636028022164336042E43B8
:104E3000266042687B881380012301680E88DE416A
:104E4000FCD516882560C268A02313708026360220
:104E50008022164336042E43266042683B88138026
:104E6000012301680E88DE41FCD5168825600437D1
:104E7000026A013A02621FD0C268A0231370802622
:104E800036028022164336042E43C046C0460269CD
:104E9000527892092660111C1C231B0280221343A6
:104EA00042681380012306683688DE41FBD51688E8
:104EB0002560D941E0D4B2E7C268A02313708026F0
:104EC00036028022164336042E43C046C04602698D
:104ED000527892092660111C002342681380012336
:104EE00006683688DE41FBD516882560D941E3D4B3
:104EF000F0BC02BC0847000038B568B94FF48062C6
:104F0000084B5A61074C4FF400552561064B186851
:104F1000FDF7C2FE656138BD4FF48062014B1A6136
:104F2000F0E700BF000C01408005002038B5802468
:104F300001252846FFF7E0FF013CFAD10020FFF7EA
:104F4000DBFF0020FFF7D8FF002038BD88B32DE934
:104F5000F84F814600F1FF381FFA88F808F1010880
:104F60000F4600242646134D4FF4005AD34614F042
:104F70001F0F04BF3E68043716F0010F4FF40043C3
:104F800014BF2B616B6109F1FF33A34204BF4FF4DF
:104F900080632B61C5F810B0074B1868FDF77CFEE5
:104FA0007608AB68C5F814A001344445DFD1BDE8EC
:104FB000F88F7047000C0140800500202DE9F84F64
:104FC0004FF40042244B5A61002842D000F1FF3BCD
:104FD0001FFA8BFB0BF1010B89460024274600F1D9
:104FE000FF3A1E461CE04FF4806333614FF40058D3
:104FF000C6F81080194B1868FDF74EFEB368C3F36E
:10500000803305F01F0503FA05F52F43C6F8148019
:10501000C9F8007009F1040900270134A34516D02E
:10502000A5B25445DFD04FF40058C6F810800B4BA2
:105030001868FDF731FEB36805F01F05C3F3803330
:10504000AB401F43C6F814801F2DE6D1E0E7BDE852
:10505000F88FBDE8F88F00BF000C014080050020EC
:1050600008B502464FF07E511020FDF7F9F9014BCB
:10507000186008BD8005002010B50C4603220B21E6
:105080000120FBF719FA00220D210120FBF714FA89
:1050900000220F210120FBF70FFA00220E21012030
:1050A000FBF70AFA00220A210120FBF705FA002289
:1050B00009210120FBF700FA3220FBF753FA002305
:1050C000238010BD38B50D4601220B211046FBF799
:1050D000F3F9194C4FF4006363610520FBF742FAC2
:1050E00001220D211046FBF7E7F901220F2110469E
:1050F000FBF7E2F900220E210120FBF7DDF9012286
:105100000A211046FBF7D8F9012209211046FBF7C6
:10511000D3F94FF4007323614FF40043636103221A
:105120000B210120FBF7C8F94FF4FA70FBF71AFACC
:10513000FFF7FCFE288038BD000C014010B50C467E
:10514000FFF7F4FE208010BD38B5044600230B8025
:1051500003882BB1012B1BD04FF470430B8038BD5B
:1051600045880120FFF7C8FE0120FFF7C5FE00209B
:10517000FFF7C2FE0020FFF7BFFE211D2846FFF704
:10518000E5FE0120FFF7B8FE0020FFF7B5FE38BDB1
:1051900045880120FFF7B0FE0020FFF7ADFE00209C
:1051A000FFF7AAFE211D2846FFF7D0FE0120FFF7DA
:1051B000A3FE0020FFF7A0FE38BD38B50C46002343
:1051C0000B80428812F00F0318BF012303EB121368
:1051D00002334B8003882BB1012B1BD04FF470435B
:1051E0000B8038BD45880120FFF786FE0120FFF7C0
:1051F00083FE0020FFF780FE0020FFF77DFE211DCB
:105200002846FFF7DBFE0120FFF776FE0020FFF7C0
:1052100073FE38BD45880120FFF76EFE0020FFF7C2
:105220006BFE0020FFF768FE211D2846FFF7C6FE33
:105230000120FFF761FE0020FFF75EFE38BD000091
:10524000184B1A7802F00803002B4FF2220318BF04
:10525000002302F010004FF22201002818BF0B4675
:1052600002F02000002818BF0B4602F04000002882
:1052700018BF0B4652B233EA220328BF0B46094A35
:10528000507800F001014FF24202002918BF134686
:1052900000F002004FF22202002814BF1846104608
:1052A000704700BF8405002038B568B94FF48062AC
:1052B000084B5A61074C4FF400552561064B58685E
:1052C000FDF7EAFC656138BD4FF48062014B1A615D
:1052D000F0E700BF000C01408405002038B54124F0
:1052E00001252846FFF7E0FF013CFAD10020FFF737
:1052F000DBFF0020FFF7D8FF002038BD80B32DE989
:10530000F84F814600F1FF381FFA88F808F10108CC
:105310000F4600242546134E4FF4005AD34614F08E
:105320001F0F04BF3D68043715F0010F4FF4004311
:1053300014BF3361736109F1FF33A34204BF4FF41B
:1053400080633361C6F810B0074B5868FDF7A4FCC2
:105350006D08C6F814A001344445E0D1BDE8F88FCB
:10536000704700BF000C01408405002038B504469A
:105370000D460120FFF798FF0120FFF795FF002061
:10538000FFF792FF0020FFF78FFF29462046FFF727
:10539000B5FF0120FFF788FF0020FFF785FF38BD2C
:1053A00038B504460D460120FFF77EFF0020FFF7C9
:1053B0007BFF0020FFF778FF29462046FFF79EFF7E
:1053C0000120FFF771FF0020FFF76EFF38BD10B519
:1053D00082B00C46400040F0010002A901F8010D26
:1053E0000820FFF7DDFF21462020FFF7D9FF02B09C
:1053F00010BD00002DE9F04F83B00DF1080A2AF826
:10540000040D0120FFF750FF0120FFF74DFF0020A2
:10541000FFF74AFF0020FFF747FF0025DFF8A4B0A1
:105420002F46274C1CE04FF4806323614FF4005952
:10543000C4F81090234B5868FDF72EFCA368C3F303
:10544000803303FA08F847EA08077608C4F814908E
:10545000CBF800700BF1040B002701350A2D25D085
:10546000ABB213F01F0804BFDAF800600AF1040AB7
:1054700016F0010F4FF4004214BF22616261092B44
:10548000D1D04FF40059C4F810900E4B5868FDF776
:1054900003FCA368C3F3803303FA08F31F437608C1
:1054A000C4F81490B8F11F0FD7D1D1E70120FFF74E
:1054B000FBFE0020FFF7F8FE03B0BDE8F08F00BF51
:1054C000000C0140840500202DE9F84F4FF4004204
:1054D000244B5A61002842D000F1FF3B1FFA8BFB9E
:1054E0000BF1010B89460024274600F1FF3A1E46C6
:1054F0001CE04FF4806333614FF40058C6F810800D
:10550000194B5868FDF7C8FBB368C3F3803305F047
:105510001F0503FA05F52F43C6F81480C9F800707B
:1055200009F1040900270134A34516D0A5B254455A
:10553000DFD04FF40058C6F810800B4B5868FDF7C9
:10554000ABFBB36805F01F05C3F38033AB401F43CB
:10555000C6F814801F2DE6D1E0E7BDE8F88FBDE85E
:10556000F88F00BF000C01408405002038B50446C8
:105570000D460120FFF798FE0020FFF795FE002062
:10558000FFF792FE29462046FFF79EFF0120FFF716
:105590008BFE0020FFF788FE38BD30B583B00C4687
:1055A00015469DF8043060F306036FF3C7138DF8BA
:1055B00004309DF8053003F0FE0343F002038DF83C
:1055C00005300198FFF716FF600180B22946FFF70A
:1055D000CDFF9DF80430112262F306038DF80430EC
:1055E0000198FFF707FF69462020FFF7BFFF03B0D0
:1055F00030BD000070B582B005460E469DF80430FF
:10560000102060F306036FF3C7138DF804309DF884
:10561000053043F001036FF341038DF805300A4C68
:1056200022460621FFF7B9FFE660256100232375B6
:105630006375A375E3750198FFF7DCFE2146C02072
:10564000FFF7AEFE02B070BD6416002030B583B027
:105650000C4615469DF8043060F306036FF3C7133C
:105660008DF804309DF8053003F0FE036FF341031D
:105670008DF805300198FFF7BDFE600180B2294624
:10568000FFF78EFE9DF8053043F002038DF80530DC
:105690009DF80430112262F306038DF8043001985E
:1056A000FFF7A8FE69462020FFF760FF03B030BD7A
:1056B0002DE9F04383B081460D4617460023019340
:1056C00015238DF803304FEAD0084FEA58026FF0E7
:1056D0003F0362F3C5038DF807304FF0000361F319
:1056E0008F0302AC24F8043D21460720FFF76FFE2C
:1056F00002A90E2301F8063D0820FFF751FE2146BE
:105700002020FFF733FF9DF8043013F0020F31D152
:105710006C1EA4B24DB3012600253046FFF7C4FD30
:105720002846FFF7C1FD2846FFF7BEFD0DF1030136
:105730000820FFF7E3FD3046FFF7B6FD3046FFF7E0
:10574000B3FD2846FFF7B0FD2846FFF7ADFD39460B
:105750004846FFF7D3FD47443046FFF7A5FD013C1F
:10576000A4B24FF6FF739C42D7D10020FFF79CFDF7
:10577000002007E013F0010F4FF242034FF2410007
:1057800008BF184603B0BDE8F0832DE9F04F85B09F
:1057900081460D4601920023039314238DF80B30AC
:1057A0004FEAD0084FEA58026FF07F0362F3C50357
:1057B0008DF80F304FF0000361F38F0304AC24F831
:1057C000043D21460720FFF702FE04A90E2301F83D
:1057D000063D0820FFF7E4FD21462020FFF7C6FE26
:1057E0009DF80C3013F0020F40D105F1FF3B1FFA7A
:1057F0008BFBC5B35C46019F012600253046FFF7B1
:1058000053FD2846FFF750FD2846FFF74DFD0DF1EB
:105810000B010820FFF772FD3046FFF745FD3046CB
:10582000FFF742FD2846FFF73FFD2846FFF73CFD06
:1058300039464846FFF748FE47443046FFF734FDF7
:10584000013CA4B24FF6FF739C42D7D10BFB088AF0
:10585000019B53449A4600248AF800402046FFF7F3
:1058600023FD20460AE0DDF804A0F4E713F0010F61
:105870004FF242044FF2410008BF204605B0BDE898
:10588000F08F000010B50C4602464FF07E511020FC
:10589000FCF7E6FD024B5860024B1C7010BD00BFC8
:1058A00084050020FB00002030B587B00C464FF483
:1058B00070430B803E4B1B78012B03D0032B19D078
:1058C00007B030BD11238DF810300025ADF814500D
:1058D000FFF704FD04A90520FFF748FD9DF81430EB
:1058E0007E2262F306038DF814300598FFF782FDDF
:1058F0002580E5E711238DF807300025ADF8085025
:10590000039504952B4B1D80FFF7E8FC0DF1070173
:105910000520FFF72BFD9DF808307E2262F3060379
:105920008DF808300298FFF765FD9DF8103043F0C0
:1059300007038DF810309DF8113043F080038DF887
:10594000113005AA01211220FFF727FE049A059BBA
:105950001343059305AA01211220FFF777FE9DF856
:105960000F3043F080038DF80F3003AA012131205E
:10597000FFF76CFE9DF80F30022262F305138DF8DD
:105980000F309DF80C3043F001038DF80C3003AA62
:1059900001213120FFF75AFE9DF808307C2262F386
:1059A00006038DF808300298FFF724FD258087E76D
:1059B000FB000020840500200388102B1DD04288A6
:1059C000042A01D0012B1FD830B587B00C46002324
:1059D0000B8004234B800388162B00F29680DFE8AF
:1059E00003F01738469494949494949494949494D3
:1059F00094944E58626C76808A004388182BE3D0CA
:105A00004FF202030B8070474FF202030B80704786
:105A1000428812F00F0318BF012303EB1213023365
:105A20004B8045880120FFF73FFC0120FFF73CFC3D
:105A30000020FFF739FC0020FFF736FC211D284627
:105A4000FFF742FD0120FFF72FFC0020FFF72CFCA1
:105A500060E0428812F00F0318BF012303EB12131A
:105A600002334B8004314088FFF780FD52E00A1D6D
:105A700001210220FFF791FD002323804AE00A1D47
:105A800006211020FFF789FD002323800E23638069
:105A900040E06A4606211020FFF77FFD059B63600A
:105AA0000023238036E06A4606211020FFF775FDAB
:105AB000049B6360002323802CE06A4606211020AB
:105AC000FFF76BFD039B63600023238022E06A469F
:105AD00006211020FFF761FD029B636000232380F5
