:020000040800F2
:10000000FC04002011010008151A0008171A000846
:10001000191A00081B1A00081D1A00080000000029
:100020000000000000000000000000001F1A00088F
:10003000211A000800000000231A0008251A0008F1
:100040000D0100080D0100080D0100080D01000858
:100050000D0100080D0100080D0100080D01000848
:100060000D0100080D0100080D0100080D01000838
:100070000D0100080D0100080D0100080D01000828
:100080000D0100080D0100080D0100080D01000818
:10009000271A00080D0100080D0100080D010008D5
:1000A0000D0100080D0100080D0100080D010008F8
:1000B0000D5F00080D0100080D0100080D0100088A
:1000C0000D0100080D0100080D0100080D010008D8
:1000D0000D0100080D0100080D0100080D010008C8
:1000E0000D0100080D0100082F1A00080000000093
:1000F0000000000000000000000000000000000000
:1001000000000000000000005FF808F1FEE70000BA
:1001100008B50F4A0F4B9A420CD2581E801A20F095
:10012000030004300C4B184453F8041B42F8041B22
:100130008342F9D109480A494FF000028842B8BF0A
:1001400040F8042BFADB00F00DF805F05BFE08BD6B
:1001500000000020FC000020C4660008FC04002011
:100160007816002082B03C4B1A6842F001021A60F7
:1001700059683A4A0A405A601A6822F0847222F496
:1001800080321A601A6822F480221A605A6822F4B7
:10019000FE025A604FF41F029A6000220092019200
:1001A0001A6842F480321A601A46136803F4003366
:1001B0000193009B01330093019B1BB9009BB3F596
:1001C000A06FF2D1244B1B6813F4003F14BF01232E
:1001D00000230193019B012B05D0214B4FF00062BE
:1001E0009A6002B070471F4B1A6842F010021A6002
:1001F0001A6822F007021A601A6842F001021A60B7
:10020000A3F580535A685A605A685A605A6842F493
:1002100080625A605A6822F47C125A605A6842F42A
:1002200088125A601A6842F080721A601A4613687F
:1002300013F0007FFBD0084B5A6822F003025A608B
:100240005A6842F002025A601A46536803F00C03DF
:10025000082BFAD1C1E700BF001002400000FFF8F0
:1002600000ED00E00020024040F0BF6040F40030AC
:10027000014BD860704700BF00ED00E0C3780BB3BE
:10028000164BDA68D243C2F30222C2F1040143786A
:1002900003FA01F183784FF00F0C2CFA02F21340AD
:1002A0000B4302781B01DBB20D490A4482F800338C
:1002B0000378580903F01F03012202FA03F341F8FF
:1002C0002030704703785A0903F01F03012101FA17
:1002D00003F32032024941F82230704700ED00E07C
:1002E00000E100E0036823F001031B041B0C036022
:1002F0000023036043608360C360364B984221D083
:10030000354B984224D0354B984227D0344B9842F5
:100310002AD0344B98422DD0334B984230D0334BB7
:10032000984233D0324B984236D0324B984239D033
:10033000314B98423CD0314B98423FD0304B9842A1
:1003400042D070472F4A536843F00F035360704701
:100350002C4A536843F0F00353607047294A5368AE
:1003600043F4706353607047264A536843F4704304
:1003700053607047234A536843F4702353607047B7
:10038000204A536843F47003536070471D4A536812
:1003900043F07063536070471B4A536843F00F0388
:1003A00053607047184A536843F0F0035360704736
:1003B000154A536843F4706353607047124A536898
:1003C00043F47043536070470F4A536843F47023FB
:1003D0005360B6E7080002401C00024030000240B3
:1003E00044000240580002406C000240800002407D
:1003F000080402401C04024030040240440402404D
:1004000058040240000002400004024010B4026898
:1004100022F4FF4222F070028B680C6A23430C69BD
:1004200023434C6923438C692343CC6923434C6A9F
:1004300023438C6A234313430360CB6843600B68F8
:1004400083604B68C36010BC704700230360436047
:100450008360C360036143618361C361036243627C
:1004600083627047014B5861704700BF0004014030
:10047000F0B5CB7803F00F0E13F0100F1CBF8B7884
:100480004EEA030E0B7823B30468002301250F27DF
:1004900003E042610133082B1AD005FA03F2B1F8E8
:1004A00000C032EA0C06F5D14FEA830C07FA0CF6CD
:1004B00024EA06040EFA0CFC4CEA040491F803C08A
:1004C000BCF1280FE5D0BCF1480F08BF0261E1E79D
:1004D00004600B88FF2B28D94468002301250F26D0
:1004E00002E00133082B1FD003F1080205FA02F2E3
:1004F000B1F800C032EA0C07F3D14FEA830C06FAD8
:100500000CF724EA07040EFA0CFC4CEA040491F8F8
:1005100003C0BCF1280F08BF426191F803C0BCF1D1
:10052000480F08BF0261DCE74460F0BD016170471D
:1005300041617047014BC3F8D80070470000424248
:1005400010B4274B5B6803F00C03042B2BD0082B53
:100550002CD013B1234B036001E0224B0360204CED
:100560006368C3F30313204AD35CD9B20368CB405A
:1005700043606168C1F30221515CC9B223FA01F101
:1005800081606168C1F3C221515CC9B2CB40C360D4
:100590006168C1F381310A44127CD2B2B3FBF2F339
:1005A000036110BC70470F4B0360D8E70C4A5368D7
:1005B0005268C3F38343023312F4803F04D10B4AE1
:1005C00002FB03F30360CAE7054A526812F4003FD6
:1005D00014BF064A034A02FB03F30360BFE700BFF0
:1005E0000010024000127A000000002000093D00C7
:1005F00021B1054A5369184350617047024A536953
:1006000023EA0000506170470010024021B1054A02
:100610009369184390617047024A936923EA000086
:10062000906170470010024021B1054AD369184318
:10063000D0617047024AD36923EA0000D061704755
:100640000010024021B1054AD3681843D0607047BA
:10065000024AD36823EA0000D060704700100240CD
:1006600021B1054A1369184310617047024A1369A2
:1006700023EA00001061704700100240014BD8715E
:10068000704700BF0010024008B5154B984206D0D5
:10069000144B98420ED0144B984216D008BD01213D
:1006A0004FF48050FFF7CEFF00214FF48050FFF74A
:1006B000C9FFF3E701214FF48040FFF7D1FF00218C
:1006C0004FF48040FFF7CCFFE8E701214FF40040F2
:1006D000FFF7C6FF00214FF40040FFF7C1FFDDE741
:1006E0000030014000380040003C0040038803F423
:1006F00041520B88B1F802C043EA0C03B1F804C0C0
:1007000043EA0C03B1F806C043EA0C03B1F808C091
:1007100043EA0C03B1F80AC043EA0C03B1F80CC079
:1007200043EA0C03B1F80EC043EA0C0313439BB237
:100730000380838B23F400631B041B0C83830B8ACD
:100740000382704729B103889BB243F040030380C2
:100750007047038823F040031B041B0C0380704781
:1007600022B183889BB219438180704783889BB2F2
:1007700023EA01018180704729B103889BB243F4C9
:10078000005303807047038823F400531B041B0CA1
:100790000380704703889BB2244A904212D002F52E
:1007A000006290420ED0B0F1804F0BD0A2F598328B
:1007B000904207D002F58062904203D002F5806239
:1007C000904203D123F070034A881343184A9042A1
:1007D00026D002F58062904222D023F440739BB26F
:1007E000CA88134303808B8883850B8803850F4B4E
:1007F00098420BD003F50063984207D003F540639D
:10080000984203D003F58063984204D10B7A0386A3
:1008100001238382704703F580639842F6D0F7E79F
:1008200003808B8883850B880385F1E7002C0140CA
:100830000010004029B103889BB243F001030380FC
:100840007047038823F001031B041B0C03807047CF
:1008500022B183899BB219438181704783899BB2FE
:1008600023EA010181817047C94389B2018270473F
:1008700030B587B004460D46038A9BB223F440533B
:10088000CA881343038283899BB223F4B05323F0B5
:100890000C038A8813430A8913434A8913439BB282
:1008A0008381838A9BB223F440738A8913438382B2
:1008B00001A8FFF745FE194B9C420CBF049B039B0C
:1008C000A28912F4004F03EB830303EB83032A682E
:1008D00014BF52009200B3FBF2F3114AA2FB0312C1
:1008E00052091101642000FB1233A28912F4004F57
:1008F0000BD11B0132330A4AA2FB0323C3F3431378
:100900000B439BB2238107B030BDDB003233044A76
:10091000A2FB0323C3F342130B43F2E70038014069
:100920001F85EB5129B183899BB243F40053838126
:100930007047838923F400531B041B0C8381704789
:100940000388194214BF01200020704708B538B150
:10095000064B1B681B689847054B18680A3008BD92
:10096000034B1B6801221A82F9E700BF280500200B
:100970000405002008B538B1064B1B689B689847F2
:10098000054B18680C3008BD034B1B6801221A8206
:10099000F9E700BF280500200405002008B5F8B1DC
:1009A000274B00221A80274B1A68137813F07F0315
:1009B0001BD1537A13F0200F02D0214A022111706B
:1009C00013F0400F1E4A137814BF43F0010323F0C5
:1009D000010313701C4B1B681B699847184808BD1E
:1009E000184B1B6802221A82F9E7012B24D0022B34
:1009F00024D1527902F00F0312F0800F0ED19B0028
:100A000003F1804303F5B8431B6803F44053B3F587
:100A1000805FDFD10A4B01221A70DBE79B0003F1F4
:100A2000804303F5B8431B6803F03003102BD1D18A
:100A3000034B01221A70CDE70148D0E70020CEE732
:100A4000FC0400200405002028050020F8B5264BF2
:100A50001D682C8AF4B92B7A042B02D0AB8A0427A8
:100A60001DE0224B9B78012B04D0214B10221A80D1
:100A7000072734E01F4BD3F8502C92B21E4B13447F
:100A80005B0000221A601A4B30211980174B9A70B4
:100A9000042724E0AB8A9C4294BF042702279C428F
:100AA00028BF1C46AB69204698470646002000F048
:100AB00085FE01462246304600F07CFD214600209E
:100AC00000F09CFE2B8A1B1B2B826B8A1C446C82C1
:100AD000074B30221A80094B4FF440521A80024BC8
:100AE0001B681F72F8BD00BF04050020FC04002035
:100AF0003405002000500040023000203205002064
:100B000010B50C4B1B68DA780B49497891420AD32F
:100B10009C7854B9998851B99A72084B1B685B68E4
:100B20009847204610BD0224FBE70224F9E702247F
:100B3000F7E700BF04050020F4000020280500208E
:100B400010B5124C2368124A12689269D978587904
:100B5000904723689A7A7AB188B91A798AB99C78C9
:100B60008CB90C4B1B68DB689847084B1B685A799B
:100B7000DA72DA781A7300E00224204610BD0224EB
:100B8000FBE70224F9E70224F7E700BF0405002091
:100B9000240500202805002038B5424B1A68137838
:100BA00013F07F0303D0022B08D0022404E0537A11
:100BB00023F0200353720024204638BD5388002BB5
:100BC00066D11479002C65D1537923F080005BB293
:100BD000002B4FEA800101F1804101F5B84109681D
:100BE000B4BF01F0300101F440512F4D95F800C021
:100BF000844551D9002951D0927A002A50D0002B37
:100C00000FDB850005F1804505F5B8452B6803F439
:100C10004053B3F5805F17D0244B1B685B6998473E
:100C2000CAE7830003F1804303F5B8431B6803F070
:100C30003003102BF0D1C5B2284600F086FD3021DC
:100C4000284600F0F9FCE7E790B9194B93F82C100F
:100C500000F0E4FD2B6823F4804323F070039BB283
:100C600083F4405343F4004343F080032B60D3E705
:100C700000F057FD2B6823F4804323F070039BB2F0
:100C800083F4405343F4004343F080032B60C3E7F5
:100C9000022491E702248FE702248DE702248BE7E8
:100CA000022489E704050020F40000202805002024
:100CB0007000002010B5294B1868427922F080039B
:100CC00052B2002A4FEA830101F1804101F5B84197
:100CD0000968B4BF01F0300101F44051204C94F890
:100CE00000C09C4531D944888CBB91B3817A91B3C3
:100CF000002A17DB9B0003F1804303F5B8431A6811
:100D000022F4804222F0700292B282F4805242F4C5
:100D1000004242F080021A60124B1B689B699847A0
:100D2000002010BD9B0003F1804303F5B8431A680F
:100D300022F4E04222F0400292B282F0100242F429
:100D4000004242F080021A60E6E70220E9E7022052
:100D5000E7E70220E5E70220E3E700BF0405002003
:100D6000F40000202805002008B5064B1A68537AC5
:100D700043F020035372044B1B68DB699847002043
:100D800008BD00BF0405002028050020054B1B6896
:100D90005A8A10B10868104470478888801A1882EF
:100DA000002070470405002008B50C4B93F82C1068
:100DB000002000F033FD0A4B1B68187A082804D085
:100DC000092814BF0020012008BD064B4FF48052B3
:100DD0001A80054B10221A80F2E700BF7000002035
:100DE00004050020320500203405002070B582B0D3
:100DF0008F4BD3F8503C8F4A1268117A092923D1BE
:100E00008C4B1B6801221A72DA88002A40F08D8010
:100E10005C781A7812F07F024ED1092C32D0052C62
:100E200034D0032C40D0012C4AD1DA78012A47D1A2
:100E30009A88002A44D15B7A13F0200F40D07E4B71
:100E40005A60FFF7A9FE1FE099B27C4B0B445B0090
:100E50001C88640004F1804404F5C04423781370B6
:100E6000744D2B6862785A702E68A08800F00CFDD3
:100E700070802E68208900F007FDB080A2892B6861
:100E8000DA80BDE7FFF73CFE10B319E093F90320C9
:100E9000002A40DB9A78002A3FD19A88002A3ED166
:100EA0009B7AABB1082220E0DA78012A08D19B882E
:100EB00033B9FFF759FFE7E7012A1DD0022A20D0F6
:100EC0005F4B1B685B6920469847032829D050BBBD
:100ED000574BD3F8502C92B25A4B13445B0000226C
:100EE0001A60594B30221A800622524B1B681A7224
:100EF000FFF75AFF02B070BD0B2CE1D1FFF720FEC7
:100F0000C2E7012C04D0032CDAD1FFF7D3FEBBE7F4
:100F1000FFF742FEB8E70822E7E70822E5E70822E4
:100F2000E3E70922E1E70822DFE75A78062A2ED014
:100F3000002A40F091805A882AB95A6822F47F42E8
:100F4000B2F5003F3CD03B4B1A683D4B1B681B6918
:100F500050789847032800F0BA80364B1B681A8AED
:100F60004FF6FF718A4200F08C80022800F0B480B6
:100F7000002A00F0B18093F900100029C0F2AF8080
:100F800003221A72314B4FF440521A80B0E71A789C
:100F900012F07F0FD7D19B78012B07D0022B0BD0FB
:100FA000032BD0D1264B1B685B6A02E0244B1B68E5
:100FB000DB69002BC7D057E0214B1B681B6AF8E7A1
:100FC0001A7812F07F0204D19B88002BBBD1204BF2
:100FD0004AE0012A0ED11A4A126892690021587912
:100FE00090470028AFD1134B1B689B7A002BAAD0E7
:100FF000174B39E0022AA6D15B7903F00F0113F0F9
:10100000800F4FEA810202F1804202F5B842126875
:1010100014BF02F0300202F440520E4800788842B9
:1010200091D913F0700F8ED1002A8CD0084B1BE0A1
:101030000050004004050020FC0400200430002083
:101040002405002002300020340500203205002055
:101050009D090008F4000020082A15D11B7813F020
:101060007F0F7FF470AF314B314C226800205082EB
:101070009361984723681A8A4FF6FF718A427FF47A
:1010800077AF09221A7233E70A2A7FF45CAF1A7825
:1010900002F07F02012A7FF456AF9A7A002A3FF4C9
:1010A00052AF5A88002A7FF44EAF5A6822F47F422A
:1010B000B2F5803F7FF447AF1E4A12689269002163
:1010C0005879904700287FF43EAF1B4BCCE7184B74
:1010D0001B6809221A720BE708221A7208E7D988DE
:1010E00001910198824209D9019A1A82114A126823
:1010F00092F82C209A82FFF7A9FCF9E69142F5D9E3
:101100000C49096891F82C1088B2904203D90B4A17
:1011100000219170EAE792FBF1F001FB1022002A16
:10112000E4D1064A01219170E0E700BF4D090008B3
:10113000040500202405002075090008FC04002097
:1011400070B53E4B1C68237A022B62D0042B67D00B
:10115000032B05D0052B03D0072B54D0082259E0D0
:10116000A369BBB1258A002D5CD0A28A954228BF15
:101170001546284698470646238A5B1B2382638AC6
:101180002B446382002000F029FB01462A463046AA
:1011900000F025FA238A002B44D0294B4FF440520B
:1011A0001A800021084600F029FB264B30221A80C5
:1011B000238AA28A9A4239D923B1204B1B6805227F
:1011C0001A7237E01D4C236806221A721E4B1B68E8
:1011D0009B68984723681B7A082B0CD01B4BD3F8CD
:1011E000502C92B21A4B13445B0000221A60154B2C
:1011F00030221A801EE0124B4FF480521A80114B9D
:1012000010221A8016E0104B1B68DB6898470822F2
:1012100000E00822094B1B681A72FFF7C5FD70BD7C
:101220000822F7E7228AA38A9A42CBD3034B1B6892
:1012300003221A72014B1B681A7AEBE7040500209F
:101240003205002034050020240500200050004015
:101250000230002030B5104B1C78B4B1002140F6AC
:101260000F7548F2800E5FFA81FC4FEA8C0202F1A2
:10127000804202F5B84213682B4043EA0C0343EA6C
:101280000E03136001318C42EDD140F08000034B1E
:10129000C3F84C0C30BD00BFF400002000500040EB
:1012A00008B5154B1A68137A022B05D0042B03D00E
:1012B000062B0CD0082204E0FFF7C8FB0E4B1B687E
:1012C0001A7A0D4B1B681A72FFF76EFD08BD537832
:1012D000052B05D0094B1B689B6898470822F0E74F
:1012E000137813F07F0FF5D1D078FFF7B3FF044BDD
:1012F0001B681B6A9847EDE70405002024050020C1
:10130000280500207047000008B5064B1A1D1A601A
:1013100002221A73044A1A620449596213689847F0
:1013200008BD00BF0405002070000020D000002090
:1013300070B582B00023ADF80630984BD3F8443C2A
:1013400099B2974A118013F4004F3CD01446954D42
:10135000954EA1E01446D2F8003C23F4E14323F07B
:1013600070031B041B0CC2F8003CFFF799FFD4F874
:10137000003C23F4804323F040031B041B0C8B4AE6
:10138000128812F4805F18BF83F48053874A128852
:1013900012F4005F18BF83F40053844A528812F09D
:1013A000100F18BF83F01003804A528812F0200FEC
:1013B00018BF83F0200343F4004343F080039BB243
:1013C000764AC2F8003C02B070BD744CD4F8003CC0
:1013D00023F070031B051B0DC4F8003CFFF706FD4E
:1013E000D4F8003C23F4804323F040031B041B0C7F
:1013F0006E4A128812F4805F18BF83F480536B4AE0
:10140000128812F4005F18BF83F40053674A5288B1
:1014100012F0100F18BF83F01003644A528812F0C4
:10142000200F18BF83F0200343F4004343F08003F0
:101430009BB25A4AC2F8003CC5E79B0003F18043C7
:1014400003F5B8431A6892B2ADF80620BDF806203D
:1014500012F4004F40F09480BDF8063013F0800F76
:1014600012D02B789B0003F1804303F5B8431A6830
:1014700022F4E14222F070021204120C1A602B785E
:10148000013B56F823309847444BD3F8443C9AB27A
:10149000228013F4004F96D0238803F00F032B70A3
:1014A000002BCAD13D4AD2F8001C89B23F4B1980AB
:1014B000198801F030015980198801F440511980D0
:1014C000D2F8003C23F4804323F040031B041B0CA0
:1014D00083F4005383F0200343F4004343F080037C
:1014E000C2F8003C238813F0100F3FF433AF2B4BAE
:1014F000D3F8003C9BB2ADF80630BDF8063013F4CB
:10150000006F7FF462AFBDF8063013F4004FBBD01C
:10151000224CD4F8003C23F070031B051B0DC4F8CB
:10152000003CFFF70DFED4F8003C23F4804323F089
:1015300040031B041B0C1D4A128812F4805F18BF65
:1015400083F48053194A128812F4005F18BF83F4A1
:101550000053164A528812F0100F18BF83F0100380
:10156000124A528812F0200F18BF83F0200343F470
:10157000004343F080039BB2084AC2F8003C22E7D4
:101580001A6822F070021205120D1A602B78013BC6
:10159000074A52F8233098475EE700BF00500040EA
:1015A00038050020300500204C00002032050020C6
:1015B00030000020013201F1005101F54051490095
:1015C00052100BD0023010F801CC10F8023C43EA64
:1015D0000C2321F8043B0230013AF4D17047013268
:1015E00001F1005101F540514900521005D00B683E
:1015F000043120F8023B013AF9D17047014BC3F89E
:10160000440C70470050004020F0070080B2024BAD
:10161000C3F8500C704700BF00500040800000F13C
:10162000804000F5B840036823F4EC4323F07003D6
:101630000B439BB203607047800000F1804000F5CF
:10164000B840036823F4E04323F040039BB211F059
:10165000100F18BF83F0100311F0200F18BF83F094
:10166000200343F4004343F080030360704780008D
:1016700000F1804000F5B840036823F4804323F074
:1016800070039BB211F4805F18BF83F4805311F490
:10169000005F18BF83F4005343F4004343F080031A
:1016A00003607047800000F1804000F5B84000689A
:1016B00000F030007047800000F1804000F5B84035
:1016C000036823F4E04323F040039BB283F030032C
:1016D00043F4004343F0800303607047800000F14F
:1016E000804000F5B840036823F4804323F0700382
:1016F0009BB283F4405343F4004343F08003036000
:101700007047800000F1804000F5B840036823F482
:10171000F8731B051B0D43F4004343F08003036083
:101720007047800000F1804000F5B840036813F472
:10173000804F09D0036823F0F0031B051B0D43F411
:10174000404343F0800303607047800000F1804015
:1017500000F5B840036813F0400F09D0036823F088
:10176000F0031B051B0D43F4004343F0C00303606B
:1017700070470000074BD3F8503C9BB203EBC0000E
:1017800000F1005000F54050400049084900016058
:10179000704700BF00500040064BD3F8503C9BB24E
:1017A00003EBC000044B03445B0049084900196087
:1017B000704700BF0050004004300020064BD3F8B3
:1017C000503C9BB203EBC00000F1005000F54050CC
:1017D00040000088704700BF00500040054BD3F820
:1017E000503C9BB203EBC000034B03445B001888E2
:1017F000704700BF0050004004300020054BD3F874
:10180000503C9BB203EBC000034B03445B001960E8
:10181000704700BF00500040023000200F4BD3F84B
:10182000503C9BB203EBC0000D4B03445B003E29D0
:101830000BD94A0911F01F0F04BF02F1FF3292B217
:10184000920242F400421A6070474A0811F0010FF8
:1018500018BF013292021A60704700BF005000406A
:1018600006300020064BD3F8503C9BB203EBC0007F
:10187000044B03445B001868C0F30900704700BFC5
:101880000050004006300020C3B2000A40EA0320A6
:1018900070470000054B0020C3F8440C4FF43F4252
:1018A00003490A80C3F8402C704700BF0050004035
:1018B0002C05002070B50E4600F07F052846FFF786
:1018C000D1FF04462846FFF789FF014622463046ED
:1018D000FFF785FE204670BDB2B14B1C02F1FF3C04
:1018E0005FFA8CFC033101EB4C014FF0000C020F4E
:1018F000B0F1204F34BF3032373203F8012C0001F1
:1019000003F802CB8B42F2D17047000010B582B0D1
:1019100001210420FEF77AFE4FF4C053ADF80430E5
:1019200003248DF8064018238DF8073001A90D48CF
:10193000FEF79EFD01217C20FEF768FE4FF4007348
:10194000ADF804308DF8064014238DF8073001A956
:101950000548FEF78DFD01212020FEF757FE02B05D
:1019600010BD00BF000801400014014008B501206F
:10197000FEF7E0FD01214FF40000FEF755FE08BD23
:1019800010B582B04FF4A060FEF76EFC14238DF802
:10199000043000238DF805308DF8063001248DF8D1
:1019A000074001A8FEF76AFC2A238DF804308DF861
:1019B000054001A8FEF762FC02B010BD08B528B1D1
:1019C0004FF400710448FEF7B3FD08BD4FF40071F9
:1019D0000148FEF7ABFDF8E70014014038B50B4BAA
:1019E000D3F8E807D3F8F037C01800D138BD074B5B
:1019F000D3F8EC57064C08222146FFF76DFF04226E
:101A000004F110012846FFF767FFEFE700F0FF1F22
:101A1000160000207047FEE7FEE7FEE7FEE770478E
:101A200070477047704708B500F008F808BD08B562
:101A30004FF48020FEF716FD08BD000000B589B008
:101A4000694BD3F8443C9BB2684A13801388684AB8
:101A50001288134013F4007F5AD1644B1B88644AE8
:101A60001288134013F4004F5FD1604B1B88604A0B
:101A70001288134013F4806F07D05B4B4FF6FF3290
:101A8000C3F8442C5B4B5B689847584B1B88584AFB
:101A90001288134013F4005F04D0534B4DF6FF72CD
:101AA000C3F8442C514B1B88514A1288134013F43D
:101AB000805F3DD14D4B1B884D4A1288134013F473
:101AC000006F0AD04C4B1B78002B3AD000F0E2F9A3
:101AD000454B4FF2FF72C3F8442C444B1B88444AD9
:101AE0001288134013F4807F0FD03F4B4FF6FF62F4
:101AF000C3F8442CD3F8483C13F4004F25D13B4B9A
:101B000000225A60072000F01FFA09B05DF804FBBC
:101B1000354B4FF6FF52C3F8442C344A93780133C7
:101B2000DBB2937003F0D9FF97E7FFF701FC9CE766
:101B30002D4B4EF6FF72C3F8442C002000F004FA3F
:101B4000B8E7022000F000FAC2E7284B5A680132D9
:101B50005A605B68032BD5D9234BD3F8403C13F074
:101B6000080FCFD1204BD3F8403C9BB21F4A936063
:101B70002249002351F8042B92B208A800EB8300FD
:101B800040F8202C0133082BF4D1184B9A6842F00E
:101B900001029A609A6892B21349C1F8402C9A687F
:101BA00022F001029A609B689BB2C1F8403C0A4651
:101BB000D2F8443C13F4806FFAD00B4B4FF6FF324F
:101BC000C3F8442C0D49002308AA02EB830252F803
:101BD000202C92B241F8042B0133082BF4D1034B93
:101BE00000225A608EE700BF0050004038050020F8
:101BF0002C05002070000020F6000020005C004052
:101C0000034B9B7A13B1034B05221A60704700BF48
:101C10000805002070050020014B04221A6070475F
:101C200070050020044B1B78202B00D07047024B1E
:101C300000221A70FAE700BF440500207047000038
:101C4000212816D0202824D1134B1B681B7803F0C1
:101C50007F03212B18D1114B20221A70104B10B585
:101C60000D4A12689361002454822046984720460A
:101C700010BD094B1B681B7803F07F03212B01D19A
:101C8000084BECE702207047044B20221A70022018
:101C900070470220704700BF040500204405002063
:101CA000F91C0008E11C0008074B1B681B7803F0B7
:101CB0007F03212B01D00220704700F0DF000228B3
:101CC00014BF022000207047040500200346084688
:101CD00021B9022B34BF084602207047022070470A
:101CE00008B103487047034B1B6808221A827047EB
:101CF000680000200405002008B103487047034B2A
:101D00001B6808221A827047680000200405002022
:101D100010B5FFF763FE054B1B6800249C7200F0B2
:101D20009BF8FFF7B7FD024B1C6010BD04050020B7
:101D30007005002010B5334B1B6800249C72324A9A
:101D4000D2795A72DC722046FFF75EFC4FF40071C4
:101D50002046FFF763FC10212046FFF76DFC402171
:101D60002046FFF719FD80212046FFF703FD20469E
:101D7000FFF7C7FC254B93F834102046FFF74EFDC4
:101D80002046FFF7ABFC21460120FFF747FCC021AE
:101D90000120FFF7EFFC20210120FFF74DFC214639
:101DA0000120FFF764FC4FF4C0610220FFF736FC0E
:101DB0004FF480710220FFF7DDFC21460220FFF77F
:101DC00056FC20210220FFF737FC21460320FFF7B5
:101DD00025FC4FF488710320FFF7DEFC402103202F
:101DE000FFF71CFD4FF440510320FFF740FC214654
:101DF0000320FFF721FC2046FFF72CFA044B0122B9
:101E00001A6010BD040500206C6600086800002000
:101E10007005002008B50249FEF7B8FF08BD00BFF5
:101E2000A000002008B50249FEF7B0FF08BD00BFC2
:101E3000A800002008B5064B1B68DB78032B05D8EB
:101E4000044901EBC301FEF7A1FF08BD0020FCE738
:101E500004050020B000002070B50120FFF7AEFDA2
:101E60000A4D0123C5F8403C094E00243480C5F8D2
:101E7000404CD5F8443C2046FFF7C0FB4FF4E053FC
:101E80003380C5F8403C204670BD00BF0050004084
:101E90002C05002010B4214BD3F8400C80B220490F
:101EA0000023204C51F8042B92B244F82320013334
:101EB000082BF7D140F48062184BC3F8402C42F055
:101EC0000102C3F8402C20F0010084B240F480608D
:101ED000C3F8400C1A46D2F8443C13F4806FFAD091
:101EE0000E4B4FF6FF32C3F8442C0D4900230D482A
:101EF00050F8232092B241F8042B0133082BF7D17C
:101F000044F48164054AC2F8404CD2F8403C9BB28C
:101F100043F00403C2F8403C10BC7047005000403E
:101F2000005C004048050020064BD3F8401C4FF6EB
:101F3000FB720A40C3F8402C4FF43F42C3F8402CD8
:101F4000704700BF0050004008B507281CBF364B43
:101F500083F82000344B93F82030DBB2052B5ED899
:101F6000DFE803F003121B2333432F4B5B6A23B1DB
:101F70002D4B052283F820200EE0FFF7D5FF2A4BDA
:101F8000062283F8202007E0FFF7CEFF264B04222D
:101F900083F8202001225A6208BD234B022283F8D5
:101FA0002120032283F82020F6E71F4A92F82130EF
:101FB000013BDBB282F8213092F82130002BEBD1CB
:101FC0001346042283F82020E6E7184AD2F8403C62
:101FD0009BB243F01003C2F8403C134B052283F838
:101FE00020200A2283F82120D6E70F4A92F82130D8
:101FF000013BDBB282F8213092F82130002BCBD1AB
:102000000A4AD2F8401C4FF6EF730B40C2F8403C2E
:10201000054B062283F8202000225A62BCE7024BBF
:10202000062283F82020B7E7480500200050004032
:1020300000230B8070474FF201030B8070474FF471
:1020400070430B80704708B502220C21012003F079
:10205000FDFE00220921012003F0F8FE00220A21E2
:10206000012003F0F3FE00220F21012003F0EEFE19
:1020700000220E21012003F0E9FE00220D210120A3
:1020800003F0E4FE00220B21012003F0DFFE08BD77
:1020900038B505460C4611460B4804F06BF921464D
:1020A00004F09CF80446284604F026F8054621462C
:1020B00004F08EFA30B92946204603F03DFF04F0C3
:1020C00093FA38BD0120FCE7001B374C38B50D46AC
:1020D0001B4B07221A804FF4A9725A8000229A8063
:1020E000C3F80600C3F80A1016490A60184603F040
:1020F000F5FC4FF4FA6003F0CFFE124C23681BB9D5
:1021000003F0FEFE0028F9D00E4B1B688BB10E4B7E
:102110001B886D080335AB420DD10B4B5B88012B3F
:102120000BD1094B9B88B3F5A97F084818BF002045
:1021300038BD0020FCE70020FAE70020F8E700BFE8
:1021400074050020680E0020740E00207A0E002016
:1021500008B5074B04221A804FF480725A80988089
:10216000D980044A00211160184603F0B7FC08BD6D
:1021700074050020680E0020064B074AC3F840286B
:1021800003F60403054903F13C0243F8041B9342A0
:10219000FBD1704774050020A0860100372000089D
:1021A0002DE9F047051D4688BF4C012324F8023B6A
:1021B000BD4FDFF8F89207F504684FE06B88062BF7
:1021C00003D04FF20203638031E0D7F82838A11C16
:1021D000281D98472BE06B88062B03D04FF2020393
:1021E0006380D0E3B04BD3F83038A11C281D98474A
:1021F000C9E36B88062B03D84FF20203638016E015
:102200002989063B01F0010202EB5102934203D0FF
:102210004FF2020363800AE0D7F82438A11C281D7E
:10222000984704E0D7F82C38A11C281D9847A388AC
:1022300001339BB2A3802A8822803A881A443A80CC
:10224000013EB6B2002E00F09B836288002A40F067
:1022500097836A8805EB420504EB43040223A380BD
:102260002B88013B702B00F2878301A252F823F0E8
:1022700081240008792900087929000879290008B3
:1022800079290008792900087929000879290008A6
:102290007929000879290008792900087929000896
:1022A0007929000879290008792900087929000886
:1022B0009F270008A5280008BF280008D928000883
:1022C000F32800080D290008792900087929000859
:1022D0007929000879290008792900087929000856
:1022E0007929000879290008792900087929000846
:1022F0007929000879290008792900087929000836
:102300007929000879290008792900087929000825
:102310007929000879290008792900087929000815
:102320007929000879290008792900087929000805
:1023300079290008792900087929000879290008F5
:1023400079290008792900087929000879290008E5
:1023500079290008792900087929000879290008D5
:10236000792900087929000879290008BD21000889
:10237000F321000879290008792900087929000843
:1023800079290008792900087929000879290008A5
:102390007929000879290008792900087929000895
:1023A000792900087929000879290008D72100082F
:1023B0002522000827290008792900087929000822
:1023C0007929000879290008792900087929000865
:1023D0007929000879290008792900087929000855
:1023E000792900087929000879290008352400088E
:1023F0005B24000879290008792900087929000858
:102400007929000879290008792900087929000824
:102410007929000879290008792900087929000814
:10242000792900087929000879290008432900083A
:102430005F2900086B88042B03D04FF202036380EE
:10244000F5E6EB881BB94FF202036380EFE6D7F89D
:102450002038A11C281D9847E9E66B88042B03D877
:102460004FF202036380E2E6EB881BB94FF20203EE
:102470006380DCE6D7F81C38A11C281D9847D6E6F7
:10248000FFF77AFE07F6040343F8049B4345FBD1AC
:10249000074BC7F83C38002363806B88072B09D0B3
:1024A0004FF202036380C2E6740500203F2000085B
:1024B00031200008EB88142B6BD8DFE803F00B3ACF
:1024C00040466A6A6A6A6A6A6A6A6A6A6A6A4C52F0
:1024D000585E6400B84BC7F840384FF0380AAB88F4
:1024E000232B00F25881DFE813F0580086005601D4
:1024F000B500DD0056015601560156015601560140
:1025000056015601560156015601EE00560156017C
:102510005601560156015601560156015601560103
:10252000560156015601560156015601050120017A
:102530003B01A24BC7F840384FF0300ACFE7A04B21
:10254000C7F840384FF0280AC9E7AB68C7F84038E9
:102550004FF0380AC3E79B4BC7F840384FF0200ACA
:10256000BDE7994BC7F840384FF0180AB7E7974BCB
:10257000C7F840384FF0100AB1E7954BC7F840381C
:102580004FF0080AABE7934BC7F840384FF0000A0A
:10259000A5E74FF47043638049E6D7F8400803F09D
:1025A000ABFD514601F0C0FE8B4BC7F804388B4B96
:1025B000C7F80C388A4AC7F808288A4AC7F810288A
:1025C000C7F81438884BC7F81838884BC7F8243830
:1025D000874BC7F82838874BC7F82C38864BC7F885
:1025E0003038864BC7F81C38854BC7F82038854BE8
:1025F000C7F834381BE6D7F8400803F07DFD514694
:1026000001F070F9804BC7F80438804BC7F80838E0
:102610007F4BC7F810387F4BC7F818387E4BC7F888
:102620003C387E4BC7F824387D4BC7F828387D4BA3
:10263000C7F82C387C4BC7F830387C4BC7F81C38AF
:102640007B4BC7F820387B4BC7F838387A4BC7F834
:102650003438ECE5D7F8400803F04EFD00F048FAB6
:10266000764BC7F80438764BC7F80838754BC7F86F
:102670000C38754BC7F81038744BC7F83C38744B9E
:10268000C7F82438734BC7F82838734BC7F82C3871
:10269000724BC7F83038724BC7F81C38714BC7F80B
:1026A0002038C4E5D7F8400803F00EF96E4BC7F8A0
:1026B00004386E4BC7F808386D4BC7F824386D4B9B
:1026C000C7F82838B3E5D7F8400803F015FD5146A0
:1026D00002F002FA684BC7F80438684BC7F80C38A8
:1026E000674BC7F80838674BC7F81C38664BC7F804
:1026F00020389CE5D7F8400803F0FEFC0122514643
:1027000002F0E0FD614BC7F80C38614BC7F8243884
:10271000604BC7F82838604BC7F81C385F4BC7F8C8
:1027200020385F4BC7F8383881E5D7F8400803F008
:10273000E3FC0222514602F0C5FD544BC7F80C38A9
:10274000534BC7F82438534BC7F82838524BC7F8B7
:102750001C38524BC7F82038514BC7F8383866E55B
:10276000D7F8400803F0C8FC0322514602F0AAFD46
:10277000464BC7F80C38464BC7F82438454BC7F8CA
:102780002838454BC7F81C38444BC7F82038444B11
:10279000C7F838384BE54FF47043638047E56B88E2
:1027A000022B03D04FF20203638040E5D7F80438D0
:1027B000A11C281D98473AE5366E01006CDC02002A
:1027C000D8B80500B0710B0060E31600C0C62D003C
:1027D000808D5B00001BB700ED410008F941000847
:1027E000A142000809430008154300089D43000862
:1027F0000544000885440008E144000891450008AC
:10280000D14500081146000849380008553800082D
:10281000C5380008D1380008593D00089D39000826
:10282000053A00088B3A0008A13A0008213900084F
:102830005D390008753B0008E93B0008992B00084A
:10284000A72B0008B52B0008412F0008652F0008B2
:10285000E12C0008B92D0008912E0008312C000849
:10286000D52E00080B2F00089D5900086559000857
:10287000B1590008315A0008F14A0008B54B000868
:102880003D4B0008C14B0008334C0008E9520008DA
:10289000DF5600087D56000845550008E55300083E
:1028A000355700086B88022B03D04FF20203638078
:1028B000BDE4D7F80C38A11C281D9847B7E46B88F5
:1028C000022B03D04FF202036380B0E4D7F808383C
:1028D000A11C281D9847AAE46B88022B03D04FF255
:1028E00002036380A3E4D7F81038A11C281D984781
:1028F0009DE46B88022B03D04FF20203638096E4C1
:10290000D7F81438A11C281D984790E46B88022B37
:1029100003D04FF20203638089E4D7F81838A11C72
:10292000281D984783E46B880C2B03D04FF20203D9
:10293000638028E0154BD3F83438A11C281D984734
:1029400021E0EB8801335B0805D0D7F83838A11CAB
:10295000281D98476BE44FF20203638067E46B889D
:10296000022B03D04FF20203638060E4D7F83C38B7
:10297000A11C281D98475AE44FF47043638056E425
:10298000024803F0ABF8BDE8F08700BF74050020F3
:10299000044B1B681A681968891A8142FBD4704776
:1029A000041000E0A029000808B503220B21012033
:1029B00003F04CFA00220D21012003F047FA044BEA
:1029C0004FF400521A614FF400621A6108BD00BF53
:1029D000000C014010B5FFF7E7FF01220B21104664
:1029E00003F034FA0F4B4FF400625A61322003F0C7
:1029F0007DFAFFF7D9FF4FF4FA7003F04DFA094C56
:102A0000A36813F4006F03D103F07AFA0028F7D01B
:102A1000044B9B6813F4006F4FF2110018BF0020A5
:102A200010BD00BF000C014038B50D46084C2060B9
:102A300008236360204600F0ADFA25601023636030
:102A4000204600F0A7FA606BFFF7A2FF002038BD18
:102A5000B80D002070B506460D460B4CC823236008
:102A600008236360204600F095FA10236360266017
:102A7000204600F08FFA2560204600F08BFAA06B0C
:102A8000FFF786FF002070BDB80D002038B5054661
:102A90000B4CE823236008236360204600F07AFA99
:102AA000256010236360204600F074FAA06BFFF7E6
:102AB0006FFF204600F0A8FA206880B238BD00BF42
:102AC000B80D002010B5094C206008236360204633
:102AD00000F060FAE06BFFF75BFF102363602046B5
:102AE00000F092FA206880B210BD00BFB80D00203F
:102AF00038B50546204C214BE3626FF47003A361A7
:102B00001F4BE36110332362043B6362083BA36203
:102B100002464FF081411020FFF7BAFAA0602A4622
:102B200018491320FFF7B4FAE0602A46164910202E
:102B3000FFF7AEFA20612A4614491120FFF7A8FAE0
:102B400060612A4612490020FFF7A2FAA0632A46D4
:102B50004FF085410020FFF79BFA20642A460D497B
:102B60000020FFF795FAE0632A464FF084410020E9
:102B7000FFF78EFA606338BDB80D0020041000E046
:102B8000040C014000001041000040400000C04023
:102B9000000016430000304210B50C46FFF704FF5A
:102BA0000023238010BD10B50C46FFF713FF2080D3
:102BB00010BD000038B50D46FFF7F6FE01220B21CF
:102BC000104603F043F9194C4FF4006363610A2087
:102BD00003F08CF901220D21104603F037F94FF470
:102BE00000536361322003F081F903220B2101209D
:102BF00003F02CF94FF4FA7003F04EF9A36813F4C4
:102C0000006F03D103F07CF90028F7D0642003F0B3
:102C10006DF9FFF7C9FE054B9B6813F4006F4FF287
:102C2000110318BF00232B8038BD00BF000C0140EA
:102C30002DE9F84F8A460768436807EB030B5023DA
:102C40004B8000238B80B9B24520FFF7EDFE4FF09B
:102C5000800801234FF0620913E0B8F1010F0AD98F
:102C60000AF10A0500244846FFF72CFF25F8020B5D
:102C70000134A642F7D84744504602F02FFF0346DE
:102C800018BBBB4526D9ABEB0702904528BF904641
:102C90004FEA5806721DAAF80020CAF80670002BE9
:102CA000DBD0B8B2FFF7F2FEAAF80A00B8F1030FC2
:102CB000E1D90AF10C0501244846FFF703FF25F886
:102CC000020B0134A642F7D8D5E74FF22203AAF847
:102CD000003002E00023AAF80030BDE8F88F0000C1
:102CE0002DE9F84F894602684368002B60D000F157
:102CF000080523F001071744144602EB03082D4E84
:102D00004FF0CC0A0CE000204EE02988A0B2FFF77B
:102D1000A1FE80B20234A04546D00235002843D13E
:102D20002B46BC421FD0B4F5803FEED3B5F800B0BF
:102D3000C6F800A008237360304600F02BF910237A
:102D40007360A3B23360304600F024F9C6F800B0D7
:102D5000304600F01FF9B06BFFF71AFE023444450D
:102D6000D1D00235DCE7B7F5803F2D78114C2CBF70
:102D7000C423C023236008236360204600F00AF9BF
:102D800010236360BBB22360204600F003F917F004
:102D9000010F08BF2D02074C2560204600F0FAF80D
:102DA000A06BFFF7F5FD0020A9F80000BDE8F88F43
:102DB0000020F9E7B80D00202DE9F84F8A46056894
:102DC000D0F80480B8F1000F53D08F1D00262F4C8F
:102DD0004FF0E00B4FF0080909E0A8B2FFF756FEEC
:102DE00027F8020C023602350237B04542D9B8F155
:102DF000010F19D9B5F5803FEFD3EC232360C4F858
:102E00000490204600F0C6F8ABB223601023636044
:102E1000204600F0BFF8A06BFFF7BAFD204600F097
:102E2000F3F8206880B2DBE7B5F5803F26BFE423E6
:102E30002360C4F800B0C4F80490204600F0AAF85B
:102E4000ABB2236010236360204600F0A3F8A06BB0
:102E5000FFF79EFD204600F0D7F815F0010F23681C
:102E600014BFDBB2C3F307239BB227F8023C013641
:102E7000BAE746460023AAF8003006F0010303EB48
:102E800056060236AAF80260BDE8F88FB80D002099
:102E90002DE9F041054688464668044634F80A7B29
:102EA00039464520FFF7C0FD29893846FFF7D2FD96
:102EB000022E0AD0422734F8021B3846FFF7B4FD31
:102EC000C4F108033344DD42F5D10023A8F80030F3
:102ED000BDE8F08110B50C460388A3F14202052A33
:102EE0000FD84288022A03D04FF240030B800BE038
:102EF0008188D8B2FFF798FD0023238002236380E6
:102F000002E04FF470430B8010BD10B50C460388EF
:102F1000A3F16202052A0FD84288022A03D04FF299
:102F200040030B800BE0D8B2FFF7CCFDA08000235C
:102F300023800323638002E04FF470430B8010BDB5
:102F400038B50D46064C082323606360204600F028
:102F500021F8206CFFF71CFD00232B8038BD00BF3B
:102F6000B80D002010B50C46FFF734FD208010BDD1
:102F70008269C369012424051D68154025431D602D
:102F800070478269C369062424051D6815402543DE
:102F90001D60704772B6FEB5476806682025ED1BB8
:102FA000AE40FFF7E5FF026A20231B021360826830
:102FB000C36A1C681D682D1B9542FBD4361C04D4C3
:102FC000026A20231B02136003E0426A20231B02D3
:102FD0001360C268C36A1C681D682D1B9542FBD430
:102FE000426A20231B0213600269C36A1C681D68C1
:102FF0002D1B9542FBD47600013FD4D162B6FFF77A
:10300000C0FFFEBC01BC004772B6FEB54768002693
:10301000FFF7B7FF026A20231B0213608268C36AAE
:103020001C681D682D1B9542FBD4426A20231B029D
:1030300013604269C36A1C681D682D1B9542FBD44E
:10304000826A01231268520B1A40760016434269C5
:10305000C36A1C681D682D1B9542FBD4013FD9D162
:1030600062B60660FEBC01BC004708B500220B2119
:10307000012002F0EBFE00220D21012002F0E6FE0D
:1030800000220F21012002F0E1FE00220E2101208A
:1030900002F0DCFE002008BD2DE9704F86B0054629
:1030A0000391904605934B1E012202FA03F301930C
:1030B0005B4B9C6814F48044FBD1594E4FF40043A1
:1030C00033614FF4005AC6F810A0DFF85891D9F8D0
:1030D0000000FFF75DFCC6F814A0D9F80000FFF768
:1030E00057FCB368C3F3803B15F0010F00F08880F4
:1030F0004FF4004232614A4E4FF4005AC6F810A015
:10310000DFF82091D9F80000FFF742FCC6F814A0C0
:10311000D9F80000FFF73CFCB36813F4804F14BFEC
:103120000223002343EA0B03029315F0020F6CD035
:103130004FF4004232613A4E4FF40059C6F81090F5
:10314000384D2868FFF724FCC6F814902868FFF76C
:103150001FFC029B002B14BF072320230493039B17
:103160001D46002B56D0A1464FF4005BA246B36823
:10317000C3F3803343EA4A0A019B13EA080F4FF472
:10318000004314BF336173614FEA4808C6F810B0BA
:10319000244C2068FFF7FCFBC6F814B02068FFF74A
:1031A000F7FB09F10109A945E1D154461C4B4FF445
:1031B00000425A61049B039A93421AD9184E4FF465
:1031C0000059DDF81080B368C3F3803343EA440448
:1031D000C6F81090DFF84CA0DAF80000FFF7D8FB33
:1031E000C6F81490DAF80000FFF7D2FB0135A845C5
:1031F000E9D8059B03B11C60029806B0BDE8708F4A
:10320000074B4FF400425A6175E7054B4FF40042FB
:103210005A6190E7024B4FF400425A61039CCDE79C
:10322000000C0140FC0D00202DE9704183B00646E2
:10323000062400254FF020082B46324641462846FA
:10324000FFF72AFF01AB2A4607210320FFF724FFDF
:103250000138012806D8013CEED14FF6FF7003B0CB
:10326000BDE870810020FAE770B582B0984C2388E1
:103270006FEA83436FEA93439BB22380A38823F0D2
:1032800001031B041B0CA380043804F55444A368F9
:1032900013F4804FFBD18F4B4FF400451D614FF469
:1032A00000541C615C6100BF00BF00BF9E685D618F
:1032B0001C615C6100BF00BF00BF9D681C615C6158
:1032C000854C0194854D01AC6C660224EC655C680C
:1032D00044F0004444F400045C60AB6D43F001032F
:1032E000AB652C46E36D002BFCD1794C238913F0A0
:1032F000800FFBD1794CA36D23F00103A365A4F5E6
:103300007444636823F0004323F400036360A368FC
:1033100013F4804FFBD16F4B4FF400451D614FF408
:1033200000541C615C615D6100BF00BF00BF1C6197
:103330005C611D6100BF00BF00BF1C615C614FEAA2
:1033400030400190654C01A860660220E065586835
:1033500040F0004040F400005860A36D43F00103CA
:10336000A3652046C36D002BFCD15948038913F097
:10337000800FFBD15948836D23F001038365A0F5CD
:103380007440436823F0004323F4000343608368E0
:1033900013F4804FFBD14F4B4FF4004018614FF4B2
:1033A00000501861586100BF00BF00BF186158612C
:1033B00000BF00BF00BF186158614FF0070E4FF00B
:1033C000630C4FF400441CF0400F14BF1C615C619F
:1033D0004FEA4C0C18615861BEF1010EF3D1104652
:1033E00000F0BAFD80B23B4A936813F4804FFBD1E2
:1033F000384B4FF400421A614FF400521A615A617F
:1034000000BF00BF00BF1A615A6100BF00BF00BF0C
:103410001A615A61072143224FF400454FF40054CA
:1034200012F0400F14BF1D615D6152001C615C61B0
:103430000139F5D1274A936813F4804FFBD1254B0E
:103440004FF4004119614FF400521A615A615961F9
:1034500000BF00BF00BF1A615A61196100BF00BF01
:1034600000BF1A615A61002200921C49C1F864D061
:103470000222CA655A6842F0004242F400025A60D1
:103480008B6D43F001038B650A46D36D002BFCD195
:103490000F4A138913F0800FFBD1104A936D23F06C
:1034A00001039365A2F57442536823F0004323F4AB
:1034B00000035360A2F5544293889BB243F001038A
:1034C00093801388C3F30D03138002B070BD00BF57
:1034D00000380040000C0140D67FA69A0000024050
:1034E00030B583B0054600240194234622460721C7
:1034F0000320FFF7D1FD01AB224607210320FFF790
:10350000CBFD019BC3F380132B80033818BF4FF012
:10351000FF3080B203B030BD2DE9704382B08146E8
:1035200088460524002620250AE001AB3246072103
:103530000320FFF7B1FD013801281BD8BCB1013CC5
:1035400033464A4629463046FFF7A6FD01ABD8F878
:10355000002029460220FFF79FFD01380128E4D80A
:10356000002CECD14FF6FF7002B0BDE870834FF62F
:10357000FF70F9E70020F7E72DE978478146884694
:103580000624002620254FF0C04A33464A462946E5
:103590003046FFF781FD4346524629463046FFF745
:1035A0007BFD28B1013CF0D14FF6FF70BDE8788774
:1035B0000020FBE770B584B00E461546039000234B
:1035C0000293019302A91E48FFF7D6FF044610B1EB
:1035D000204604B070BD01A91A48FFF7CDFF04468C
:1035E0000028F5D103A91848FFF796FF044638B91B
:1035F000012E0ED0022E18D0042E1BD04FF2020442
:1036000002A91248FFF788FF01A90F48FFF784FFBE
:10361000DEE70F48FFF708FE0446002CF0D12946EC
:103620000748FFF7A9FF0446EAE70A48FFF7FCFD51
:103630000446F2E70848FFF7F7FD0446EDE700BF50
:10364000A69B167CA69B367CA69A367CA69A167CF0
:1036500000000188000001A00000018070B584B066
:103660000E461546039000230293019302A91E48BB
:10367000FFF782FF044610B1204604B070BD01A9D7
:103680001A48FFF779FF04460028F5D103A9184826
:10369000FFF742FF044640B102A91648FFF73CFF7E
:1036A00001A91348FFF738FFE6E729461148FFF75D
:1036B00033FF04460028EFD1012E06D0022E09D098
:1036C000042E0CD04FF20204E6E70B48FFF7ACFDE6
:1036D0000446E1E70948FFF7A7FD0446DCE7084890
:1036E000FFF7A2FD0446D7E7A69B167CA69B367C77
:1036F000A69A367CA69A167C00000198000001B0BC
:103700000000019030B583B005460C4600230193BC
:1037100001A90F48FFF730FF08B103B030BD2146C3
:103720000C48FFF7F9FE0028F7D1680100F4787320
:10373000C5F344101843084B43EAC020FFF774FD5B
:103740000028EAD101A90348FFF7E6FEE5E700BF3C
:10375000A69B167CA69A167CA603007C30B583B087
:1037600004460D460023019301A90F48FFF704FF0B
:1037700008B103B030BD600100F47870C4F34414A4
:1037800004430A4840EAC420FFF74EFD0028F0D168
:1037900029460548FFF7F0FE0028EAD101A90448B0
:1037A000FFF7BAFEE5E700BFA69B167CA602007CE9
:1037B000A69A167C10B584B000230393029302A945
:1037C0009520FFF7CBFF044610B1204604B010BD92
:1037D000029B23F4003343F0207343F00103029370
:1037E00002A99520FFF78EFF04460028EDD103A91A
:1037F0001B20FFF7B3FF04460028E6D1039B23F408
:103800008C43039303A91B20FFF77CFF0446002889
:10381000DBD14FF04063019301A94FF40C70FFF727
:1038200071FF04460028D0D101A99420FFF796FF2C
:1038300004460028C9D10023024A20211846FFF778
:103840002BFCC2E76400004C10B50C46FFF70DFCE2
:10385000208010BD70B50D46FFF707FC01220B213B
:10386000104602F0F3FA164C4FF4006363616420D3
:1038700002F03CFB01220D21104602F0E7FA012282
:103880000F21104602F0E2FA4FF4004363614FF457
:103890000056266103220B21012002F0D7FA3220C4
:1038A00002F024FB666101220D21104602F0CEFADF
:1038B00001220F21104602F0C9FA00232B8070BDAF
:1038C000000C014010B50C46FFF774FF208010BDBE
:1038D00010B50C46081DFFF703FE2080032363800C
:1038E00010BD000010B584B00446ADF804100023EC
:1038F000ADF80630ADF808300123ADF80A30ADF868
:103900000C3001A802F0A4F922464FF07C51182097
:10391000FEF7BEFB014B186004B010BDFC0D00208B
:1039200010B50C464388042B03D04FF240030B80A4
:1039300010BD03881F2B07D8011D074840EA4350DC
:10394000FFF7EAFD2080F3E7011DA3F12000FFF758
:10395000D9FE2080ECE700BFA69A167C10B50C4675
:103960004388042B03D04FF470430B8010BD0088B4
:103970001F2809D80431084B43EA4050FFF7FCFDEB
:10398000208004236380F1E704312038FFF7E6FE4E
:10399000208004236380E9E7A69B167C2DE9704F05
:1039A00089460668446844B300F108054FF0010BEE
:1039B0004FF002084FF0040A09E02A46514630460B
:1039C000FFF74CFE043C04360435BCB1B0B9032CFF
:1039D000F3D8012C08D92A4641463046FFF73EFE6F
:1039E000023C02360235F0E72A4659463046FFF7D8
:1039F00035FE013C01360235E7E70020A9F800005A
:103A0000BDE8708F2DE9704F8A460668D0F80480B3
:103A1000B8F1000F2CD00C1D0025A9464FF0020B69
:103A20000AE0224604213046FFF7C4FD043504367F
:103A30000434A8451ED9E8B9A4F80090B8F1030FE2
:103A4000EFD8B8F1010F08D9224659463046FFF7A2
:103A5000B1FD023502360234EBE722460121304641
:103A6000FFF7A8FD237824F8023B01350136E0E793
:103A700045460020AAF8000005F0010303EB5505B8
:103A80000235AAF80250BDE8708F10B50C4600F15F
:103A9000080241680068FFF7E7FB208010BD0000C6
:103AA00030B583B004460D460368043B019301A979
:103AB0002D48FFF731FD20B14FF222032B8003B0D8
:103AC00030BD2A4A936813F4804FFBD1274B4FF443
:103AD000004018614FF400521A615A6100BF00BFE4
:103AE00000BF9968C1F3803158611A615A6100BF03
:103AF00000BF00BF9B6813F4804F14BF0223002354
:103B000019431A4A4FF4005313615361536843F049
:103B1000004343F400035360154B48F201429A817D
:103B20001A46138913F0010FFBD0114B9A89042216
:103B30009A811A46138913F0010FFBD00C4B9B8915
:103B40000A4A536823F0004323F400035360032917
:103B5000B2D162682168284600F052F90028AED040
:103B60004FF222032B80AAE7A69A367C000C014074
:103B70000038004038B50C464388042B03D04FF280
:103B800002030B8038BD436805883DB1012D10D07C
:103B9000022D1CD04B880020054606E01846FFF792
:103BA00043FB6388002818BF00251D4465802080E2
:103BB000E8E70289042A03D04FF202030B80E1E711
:103BC00000F10A011846FFF7A7FC0025E9E7028982
:103BD000042A03D04FF202030B80D3E704311846C6
:103BE000FFF7CAFCDDE700002DE9704F82B00468E2
:103BF000466826440123019383680093D0F80CB0F3
:103C00000569B4422CD24EF660294FF0000886E0D8
:103C100000214FF60170FEF79BFA02B0BDE8708FED
:103C200000214FF6FE70FEF793FAF6E74FF24300DD
:103C3000FEF78EFAF1E700214FF21200FEF788FA44
:103C4000EBE74FF24300FEF783FAE6E74FF243005B
:103C5000FEF77EFAE1E74FF21100FEF779FADCE7B2
:103C6000002301934EF6602002F016F901A8FFF739
:103C700037FC014620BB019B1BB902F041F900282B
:103C8000F4D002F03DF980B901A93248FFF774FC85
:103C9000014680B9019B012B4FF0000114BF4FF288
:103CA00012000846FEF754FAB7E700214FF6FE70FF
:103CB000FEF74EFAB1E74FF24300FEF749FAACE7E0
:103CC0004FF24300FEF744FAA7E74FF24300FEF736
:103CD0003FFAA2E702F014F90028A1D101A91D487A
:103CE000FFF74AFC01460028A0D1019B012BA2D17D
:103CF00069461A20FFF706FD01460028A1D1524669
:103D000029465846FFF7B0FA014600289ED1FFF732
:103D100051FD014600289ED12C44A642A0D9294637
:103D20002046FEF7D3F9824600283FF471AF48469B
:103D300002F0B2F8CDF8048001A8FFF7D1FB0146EC
:103D40000028C2D1019B002BC4D102F0D9F8002871
:103D5000F2D0BFE7A69B767C10B5FFF786F901226B
:103D60000D21104602F072F801220F21104602F0D8
:103D70006DF80E4C4FF4004323614FF40053636120
:103D800001220B21104602F061F84FF400636361D9
:103D9000642002F0ABF803220B21012002F056F858
:103DA000642002F0A3F8FEF74EF910BD000C0140AC
:103DB0000000000000000000000000000000000003
:103DC00000000000000000000000000000000000F3
:103DD00000000000000000000000000000000000E3
:103DE00000000000000000000000000000000000D3
:103DF00000000000000000000000000000000000C3
:103E0000F0B58BB0800880000230089006919208CF
:103E100007928449CA680B691E688D68354300950E
:103E2000012517686FF3000702972F43039757691F
:103E30006FF3000704972F4305972D020A95C0469C
:103E40000A9D079FBD4200DD3D1C09957F1B07971A
:103E50006F000537078002305024069F10C00760AE
:103E6000AD007F190697C046C046C046C046C04652
:103E700002270430D060576011629761039C146080
:103E8000C0465F797F06FCD4C04680241C7320277F
:103E90001F73A0241C74C046C046C0465C791F73C3
:103EA0001F74A4095D791F731F746D092C43009F53
:103EB0001F60059F57615768002FFCD1C046029FC5
:103EC0001760049F57611E60032C40D102270D1D0F
:103ED000D060576015629761039C14605F797F061C
:103EE000FCD4C04680241C7320271F73A0241C749C
:103EF000C046C046C0465C791F731F74A4095D7933
:103F00001F731F746D092C43009F1F60059F57612D
:103F10005768002FFCD1C046029F1760049F57616D
:103F20001E60A4B9C046C046099F013F09979FD1B2
:103F300008980FB401F0D2FD00280FBC07D1079FED
:103F400007B17DE740400BB0F0BC02BC0847FF2042
:103F50000BB0F0BC02BC0847F0B587B08908314F00
:103F6000FA683B691E68BD6835430095BF690697CE
:103F7000012517686FF3000702972F4303975769CE
:103F80006FF3000704972F430597C046C046C0460D
:103F900002271062043097615F797F06FCD4802588
:103FA0001D7320271F73A0241C74C046C046C04642
:103FB0005C791F731F741D7364085D791F731F7410
:103FC0002C436FF3C714009F1F60059F57619769CB
:103FD000002FFCD18025069F3F882F40FBD1049FF6
:103FE00057611E60592C08DD0139D1D180251D741F
:103FF000404007B0F0BC02BC084780251D74FF207C
:1040000007B0F0BC02BC0847167CA69B01840400E4
:104010000000808044000240040C01401460004015
:104020000838004008400008034601280BD04FF62E
:10403000FF7290420AD04FF222004FF22302002B6F
:1040400008BF104670474FF2200070474FF2210022
:1040500070470000084906E0013A09D08B6803F474
:1040600080538342F8D0886800F480500522F5E739
:10407000003818BF01207047000C014008B50F4BF5
:104080004FF400521A6103220B21012001F0DEFEE1
:1040900000220D21012001F0D9FE02220C21012075
:1040A00001F0D4FE00220F21012001F0CFFE0022FA
:1040B0000E21012001F0CAFE002008BD000C0140C5
:1040C00010B5094C00232360204600F05CFB4FF440
:1040D00040632360204600F056FB044A936813F4C3
:1040E000805FFBD1002010BD000E0020000C0140BD
:1040F000F8B504460D4616461648046000F043FB2A
:10410000B5B914F0800F1ED1124C338823602046BD
:1041100000F039FB00232360204600F034FB80B21E
:1041200028B120680028F7D080B2FFF77DFFF8BDE6
:10413000084F2B0C3B60384600F025FB3D603846AD
:1041400000F021FBDDE703487388036000F01BFBF0
:10415000DAE700BF000E0020F8B504460E4615460B
:104160002148046000F00FFBB6B91F4B00221A6013
:1041700014F0800F22D01C46204600F004FB80B2D1
:10418000C8B12368002BF7D06B80174B1868A8B113
:1041900080B2FFF749FF0DE0134F330C3B60384608
:1041A00000F0F1FA3E60384600F0EDFADDE70E4B24
:1041B0001B682B80F8BD0C4B1B686B800A4B0022E0
:1041C0001A601C46204600F0DEFA80B20028EED0CD
:1041D0002368002BF6D02B80034B18680028E9D009
:1041E00080B2FFF721FFE5E7000E002010B50C4676
:1041F000FFF744FF208010BD70B50D4601220D2150
:10420000104601F023FE01220F21104601F01EFE90
:10421000224C4FF4005626610A2001F067FE6661C9
:104220000A2001F063FE4FF4FA7001F035FEA36836
:1042300013F4805F03D101F063FE0028F7D0174B21
:104240009B6813F4805F09D0144B9B6813F4805F64
:104250004FF2100318BF00232B8070BD01220B21E9
:10426000104601F0F3FD0D4B4FF400625A61192026
:1042700001F03CFE03220B21012001F0E7FD4FF489
:10428000FA7001F009FE054CA36813F4805FDBD1DE
:1042900001F036FE0028F7D0D6E700BF000C014041
:1042A00038B50D46FFF7EAFE01220B21104601F05A
:1042B000CDFD01220D21104601F0C8FD114B4FF438
:1042C00000521A614FF400625A61192001F00EFE8B
:1042D000FFF7D4FE4FF4FA7001F0DEFD094CA3683D
:1042E00013F4006F03D101F00BFE0028F7D0054B4B
:1042F0009B6813F4006F4FF2110318BF00232B804B
:1043000038BD00BF000C014010B50C46FFF7D8FEC9
:10431000208010BD10B50C4600230B8003234B807A
:10432000FFF798FEA08010BD30B585B00546ADF80A
:1043300004100123ADF80630ADF80830ADF80A30AE
:10434000ADF80C3001A801F083FC0E4C0E4AA262BD
:104350000E4BE3620E4921630E486062A0F55340A4
:10436000F83820620438E06161610B49A160E260C5
:1043700023612A464FF07C511820FDF789FE6060CA
:1043800005B030BD000E0020140C0140080C0140A7
:10439000041000E0040C0140100C01402DE9F0472E
:1043A00088460668446844B300F108054FF4C05AD3
:1043B0004FF4C2574FF4C45909E02A4631464846E3
:1043C000FFF796FE043C04360435BCB1B0B9032CAB
:1043D000F3D8012C08D92A4631463846FFF788FE23
:1043E000023C02360235F0E72A4631465046FFF7D6
:1043F0007FFE013C01360235E7E70020A8F8000007
:10440000BDE8F0872DE9F84F8846066847685FB336
:104410000C1D00254FF4C85B4FF4CA594FF4CC5A19
:104420000AE0224631465046FFF796FE0435043630
:104430000434AF421AD9C8B9032FF2D8012F08D9D2
:10444000224631464846FFF787FE023502360234DF
:10445000EFE7224631465846FFF77EFE237824F8E0
:10446000023B01350136E4E73D460020A8F8000094
:1044700005F0010303EB55050235A8F80250BDE82D
:10448000F88F0000F8B505460E460168446800F153
:10449000080214F0030F0DD013196FF0060EAEEBE7
:1044A000000E4FF0000C0EEB030403F801CB14F0E8
:1044B000030FF8D14FF4C450FFF71AFE0746043C2F
:1044C00000D008B13780F8BD04480C358563A408D6
:1044D000C4631C3000F0E2F9F4E700BF000E0020D6
:1044E0002DE9F04F83B00F4604680194436804EB54
:1044F000030950234B8000238B8001264FF48065F5
:1045000001F10A030093DFF8848008F11C0B1DE021
:10451000524621464FF4CC50FFF71EFE07F10E0A1B
:104520004FF4EC53C8F80030404600F02CF9C8F8BE
:1045300038A0C6EB9506C8F83C60584600F06BF909
:104540002C44384601F0CAFA002680B9A14512D998
:10455000A9EB04039D4228BF1D466B0805333B8031
:10456000C7F80640DDF800A0002EE0D0D0E74FF2FB
:1045700022033B8007E03A4601994FF4CA50FFF707
:10458000EBFD00233B8003B0BDE8F08F000E002060
:1045900010B50C46B0F800C02CF4816323F007037B
:1045A0009BB2B3F5025F03D04FF470430B8010BD94
:1045B0004388042B03D04FF240030B80F7E7021D22
:1045C00000216046FFF794FD208002236380EEE720
:1045D00010B50C46B0F800C02CF4816323F007033B
:1045E0009BB2B3F5065F03D04FF470430B8010BD50
:1045F0004388042B03D04FF240030B80F7E70A1DDA
:1046000000216046FFF7A8FD208004236380EEE7C9
:104610002DE9F04F85B00568436805EB0308836812
:104620000293C36801930669454578D2A6F104094F
:104630004FEA99094EF6602A504F07F11C0B37E0FC
:1046400000214FF60170FDF783FD05B0BDE8F08F46
:1046500001F056FC002842D103AA00214FF4065075
:10466000FFF77AFD014600283FD1039B012B41D182
:1046700002AA00214FF41250FFF73AFD014600282C
:104680003ED1224601994FF4C450FFF731FD014657
:1046900000283AD10434BC63C7F83C90584600F077
:1046A000FDF8FFF70DFD0146A0BB3544A84536D9FE
:1046B00031462846FDF70AFD04460028C0D0504682
:1046C00001F0EAFBFFF7C6FC0028C1D101F018FC9D
:1046D0000028BDD1FFF7BEFC0028F7D0B8E70021C5
:1046E0004FF6FE70FDF734FDAFE74FF24300FDF7E4
:1046F0002FFDAAE700214FF21200FDF729FDA4E7E4
:104700004FF24300FDF724FD9FE74FF24300FDF712
:104710001FFD9AE74FF21100FDF71AFD95E74EF6DF
:10472000602001F0B9FBFFF795FC30B901F0E8FB20
:1047300018B9FFF78FFC0028F8D001F0E1FB90B921
:1047400003AA00214FF40650FFF706FD014680B989
:10475000039B012B4FF0000114BF4FF212000846DB
:10476000FDF7F6FC71E700214FF6FE70FDF7F0FC57
:104770006BE74FF24300FDF7EBFC66E7000E00200D
:10478000013AFDD17047FEB510270668F603C268EE
:10479000A0231370C0464268FFF7F2FF0269527807
:1047A0009209026952789209151C826820231370BD
:1047B000C0464268FFF7E4FF026952789209026935
:1047C00052789209C046C26820231370760003D540
:1047D00082688023137004E0C26880231370C0468F
:1047E000C0464268FFF7CCFF02695278920916432F
:1047F0008268202313700269527892094268FFF799
:10480000BFFF026952789209013FDCD10660281C83
:10481000FEBC02BC0847F0B584682568C769C26859
:10482000A0231370802636028022164336042E43BE
:10483000C046C0460269527892092660111C42683F
:1048400000231380012306683688DE41FBD51688D5
:104850002560D941E3D47E80C268A02313708026EE
:1048600036028022164336042E431D231B021343B7
:10487000266042681380012306683688DE41FBD536
:10488000168825603E8004370522FFF779FF026A0B
:10489000013A0262C3D1F0BC02BC0847F0B584689B
:1048A0002568C7692CE0C268A023137080263602F1
:1048B0008022164336042E43266042687B8813808C
:1048C000012301680E88DE41FCD516882560C26888
:1048D000A0231370802636028022164336042E430E
:1048E000266042683B881380012301680E88DE4100
:1048F000FCD5168825600437026A013A02621FD08F
:10490000C268A02313708026360280221643360424
:104910002E43C046C0460269527892092660111C97
:104920001C231B0280221343426813800123066864
:104930003688DE41FBD516882560D941E0D4B2E740
:10494000C268A023137080263602802216433604E4
:104950002E43C046C0460269527892092660111C57
:10496000002342681380012306683688DE41FBD5A8
:1049700016882560D941E3D4F0BC02BC084700008A
:1049800038B568B1094B4FF480621A61074C4FF497
:1049900000552561064B1868FDF7FAFF656138BDC3
:1049A000024B4FF480625A61F0E700BF000C0140F7
:1049B000400E002038B5802401252846FFF7E0FF8F
:1049C000013CFAD10020FFF7DBFF0020FFF7D8FF02
:1049D000002038BD68B32DE9F84389460746002416
:1049E0002646144D4FF4005819E016F0010F4FF40D
:1049F000004314BF2B616B617B1EA34204BF4FF4C5
:104A000080632B61C5F810800B4B1868FDF7C0FF61
:104A10007608AB68C5F814800134BC4207D014F0A6
:104A20001F0FE2D1494651F8046B8946DDE7BDE826
:104A3000F8837047000C0140400E00202DE9F04F34
:104A400083B00191224B4FF400425A6100283CD0C0
:104A500081460024274600F1FF3A1E46DFF874B075
:104A60001CE04FF4806333614FF40058C6F81080A7
:104A7000DBF80000FDF78CFFB368C3F3803305F06B
:104A80001F0503FA05F52F43C6F81480019941F874
:104A9000047B0191002701344C4516D0A5B2A245F4
:104AA000DFD04FF40058C6F81080DBF80000FDF7A7
:104AB0006FFFB36805F01F05C3F38033AB401F439E
:104AC000C6F814801F2DE6D1E0E703B0BDE8F08FF3
:104AD000000C0140400E002008B502464FF07E5108
:104AE0001020FDF7D5FA014B186008BD400E0020DC
:104AF00010B50C4603220B21012001F0A7F900227A
:104B00000D21012001F0A2F900220F21012001F066
:104B10009DF900220E21012001F098F900220A21BE
:104B2000012001F093F900220921012001F08EF902
:104B3000322001F0DBF90023238010BD38B50C468C
:104B400001220B21104601F081F9194D4FF4006349
:104B50006B61052001F0CAF901220D21104601F018
:104B600075F901220F21104601F070F900220E2183
:104B7000012001F06BF901220A21104601F066F9CB
:104B800001220921104601F061F94FF400732B61F5
:104B90004FF400436B6103220B21012001F056F911
:104BA0004FF4FA7001F0A2F9FFF704FF208038BD3E
:104BB000000C014010B50C46FFF7FCFE208010BD34
:104BC00038B5044600230B8003882BB1012B1BD082
:104BD0004FF470430B8016E045880120FFF7D0FEAC
:104BE0000120FFF7CDFE0020FFF7CAFE0020FFF7EF
:104BF000C7FE211D2846FFF7EDFE0120FFF7C0FE8E
:104C00000020FFF7BDFE38BD45880120FFF7B8FE44
:104C10000020FFF7B5FE0020FFF7B2FE211D284659
:104C2000FFF7D8FE0120FFF7ABFE0020FFF7A8FE3C
:104C3000E9E738B50C4600230B80428812F00F03D9
:104C400018BF012303EB121302334B8003882BB1EF
:104C5000012B1BD04FF470430B8016E045880120D8
:104C6000FFF78EFE0120FFF78BFE0020FFF788FE86
:104C70000020FFF785FE211D2846FFF7DFFE0120FB
:104C8000FFF77EFE0020FFF77BFE38BD4588012040
:104C9000FFF776FE0020FFF773FE0020FFF770FE9F
:104CA000211D2846FFF7CAFE0120FFF769FE0020FC
:104CB000FFF766FEE9E70000144B1A7812F0080FC0
:104CC0004FF2220318BF002312F0100F4FF22201FF
:104CD00018BF0B4612F0200F18BF0B4612F0400F02
:104CE00018BF0B4612F0800F18BF0B46074A5278C8
:104CF00012F0010F4FF2420118BF0B4612F0020FE3
:104D00004FF2220018BF1846704700BF440E002023
:104D100038B568B1094B4FF480621A61074C4FF403
:104D200000552561064B5868FDF732FE656138BDB8
:104D3000024B4FF480625A61F0E700BF000C014063
:104D4000440E002038B5412401252846FFF7E0FF36
:104D5000013CFAD10020FFF7DBFF0020FFF7D8FF6E
:104D6000002038BD60B32DE9F8438946074600248A
:104D70002546144E4FF4005818E015F0010F4FF47B
:104D8000004314BF336173617B1EA34204BF4FF421
:104D900080633361C6F810800B4B5868FDF7F8FD4F
:104DA0006D08C6F814800134BC4207D014F01F0F00
:104DB000E3D1494651F8045B8946DEE7BDE8F88354
:104DC000704700BF000C0140440E002038B5044677
:104DD0000D460120FFF79CFF0120FFF799FF0020FF
:104DE000FFF796FF0020FFF793FF29462046FFF7C5
:104DF000B9FF0120FFF78CFF0020FFF789FF38BDC6
:104E000038B504460D460120FFF782FF0020FFF76A
:104E10007FFF0020FFF77CFF29462046FFF7A2FF17
:104E20000120FFF775FF0020FFF772FF38BD10B5B6
:104E300082B00C46400040F001008DF807000DF1F3
:104E400007010820FFF7DCFF21462020FFF7D8FFED
:104E500002B010BD2DE9F04F85B0ADF80C00012077
:104E6000FFF756FF0120FFF753FF0020FFF750FF29
:104E70000020FFF74DFF0024294B0193A04603AB10
:104E80000293284DDFF898B01BE04FF480632B614C
:104E90004FF400562E61DBF80400FDF779FDAB6896
:104EA000C3F3803303FA09F948EA09087F086E6101
:104EB000019B43F8048B01934FF0000801340A2C46
:104EC00024D0A146A6B21EB9029B53F8047B0293DC
:104ED00017F0010F4FF4004314BF2B616B61092ED3
:104EE000D3D04FF4005AC5F810A0DBF80400FDF74A
:104EF0004FFDAB68C3F3803303FA09F948EA0908A8
:104F00007F08C5F814A01F2ED8D1D1E70120FFF7E4
:104F1000FFFE0020FFF7FCFE05B0BDE8F08F00BFEC
:104F2000440E0020000C01402DE9F04F83B00191A8
:104F3000224B4FF400425A6100283CD081460024A5
:104F4000274600F1FF3A1E46DFF874B01CE04FF42C
:104F5000806333614FF40058C6F81080DBF804001A
:104F6000FDF716FDB368C3F3803305F01F0503FAA0
:104F700005F52F43C6F81480019941F8047B01918F
:104F8000002701344C4516D0A5B2A245DFD04FF41E
:104F90000058C6F81080DBF80400FDF7F9FCB36890
:104FA00005F01F05C3F38033AB401F43C6F81480E0
:104FB0001F2DE6D1E0E703B0BDE8F08F000C014003
:104FC000440E002038B504460D460120FFF7A0FE30
:104FD0000020FFF79DFE0020FFF79AFE294620469D
:104FE000FFF7A2FF0120FFF793FE0020FFF790FEDE
:104FF00038BD30B583B00C4615469DF8043060F3DB
:1050000006036FF3C7138DF804309DF8053003F0E5
:10501000FE0343F002038DF805300198FFF71AFFF5
:10502000600180B22946FFF7CDFF9DF804301122C0
:1050300062F306038DF804300198FFF70BFF694611
:105040002020FFF7BFFF03B030BD0000F0B583B0F4
:1050500005460E469DF80430102060F306036FF3FA
:10506000C7138DF804309DF8053043F001036FF34A
:1050700041038DF805300A4C04F108073A46062131
:10508000FFF7B7FF6661A5610023E3610198FFF7B1
:10509000E1FE3946C020FFF7B3FE03B0F0BD00BF0C
:1050A000440E002030B583B00C4615469DF8043000
:1050B00060F306036FF3C7138DF804309DF80530D5
:1050C00003F0FE036FF341038DF805300198FFF7FD
:1050D000C1FE600180B22946FFF792FE9DF80530BF
:1050E00043F002038DF805309DF80430112262F37D
:1050F00006038DF804300198FFF7ACFE69462020C6
:10510000FFF760FF03B030BD2DE9F04383B0804668
:105110000D4617460023019315238DF803304FEAFF
:10512000D00902096FF03F0362F3C5038DF8073021
:105130004FF0000361F38F03ADF8043001A907209D
:10514000FFF775FE0E238DF802300DF102010820E5
:10515000FFF756FE01A92020FFF734FF9DF8043029
:1051600013F0020F33D16C1EA4B24DB301260025FB
:105170003046FFF7CDFD2846FFF7CAFD2846FFF76A
:10518000C7FD0DF103010820FFF7ECFD3046FFF7E6
:10519000BFFD3046FFF7BCFD2846FFF7B9FD2846A6
:1051A000FFF7B6FD39464046FFF7DCFD4F44304679
:1051B000FFF7AEFD013CA4B24FF6FF739C42D7D17E
:1051C0000020FFF7A5FD002003B0BDE8F08303F049
:1051D0000100C0F57040423080B2F5E72DE9F04F94
:1051E00083B080460C4692460023019314238DF829
:1051F00003304FEAD00902096FF07F0362F3C50361
:105200008DF807304FF0000361F38F03ADF80430E1
:1052100001A90720FFF70BFE0E238DF802300DF1D8
:1052200002010820FFF7ECFD01A92020FFF7CAFECC
:105230009DF8043013F0020F3DD104F1FF3B1FFA3B
:105240008BFB74B35C465746012600253046FFF7BA
:105250005FFD2846FFF75CFD2846FFF759FD0DF17D
:1052600003010820FFF77EFD3046FFF751FD304671
:10527000FFF74EFD2846FFF74BFD2846FFF748FD98
:1052800039464046FFF750FE4F443046FFF740FD99
:10529000013CA4B24FF6FF739C42D7D10BFB099996
:1052A000CA4400248AF800402046FFF731FD20461A
:1052B00003B0BDE8F08F03F00100C0F5704042304C
:1052C00080B2F5E710B5144602464FF07E5110202B
:1052D000FCF7DEFE024B5860024B1C7010BD00BF95
:1052E000440E0020F700002030B585B00C464FF486
:1052F00070430B80394B1B78012B03D0032B19D043
:1053000005B030BD11238DF808300025ADF80C50E4
:10531000FFF718FD02A90520FFF758FD9DF80C3096
:105320007E2262F306038DF80C300398FFF792FD9E
:105330002580E5E711238DF803300025ADF80450F2
:105340000295274B1D80FFF7FDFC0DF103010520A1
:10535000FFF73CFD9DF804307E2262F306038DF8D2
:1053600004300198FFF776FD03AA01211220FFF710
:1053700040FE039B43F4004343F00703039303AA57
:1053800001211220FFF78EFE9DF80B3043F08003C1
:105390008DF80B3002AA01213120FFF783FE9DF822
:1053A0000B30022262F305138DF80B309DF80830A4
:1053B00043F001038DF8083002AA01213120FFF7E4
:1053C00071FE9DF804307C2262F306038DF80430F0
:1053D0000198FFF73FFD258092E700BFF70000200E
:1053E000440E002030B587B00C460388102B1AD02D
:1053F0004288042A01D0012B1CD8002323800423D7
:1054000063800388162B00F29680DFE803F01738DC
:1054100046949494949494949494949494944E581C
:10542000626C76808A004388182BE6D04FF2020324
:105430000B8085E04FF202030B8081E0428812F07E
:105440000F0318BF012303EB121302336380458857
:105450000120FFF75DFC0120FFF75AFC0020FFF759
:1054600057FC0020FFF754FC211D2846FFF75CFD88
:105470000120FFF74DFC0020FFF74AFC60E0428866
:1054800012F00F0318BF012303EB121302336380E2
:10549000211D4088FFF796FD52E0221D01210220C8
:1054A000FFF7A7FD002323804AE0221D06211020DC
:1054B000FFF79FFD002323800E23638040E06A46B0
:1054C00006211020FFF795FD059B636000232380D4
:1054D00036E06A4606211020FFF78BFD049B6360CF
:1054E000002323802CE06A4606211020FFF781FD6F
:1054F000039B63600023238022E06A46062110207C
:10550000FFF777FD029B63600023238018E06A4663
:1055100006211020FFF76DFD019B636000232380AF
:105520000EE06A4606211020FFF763FD009B6360D2
:105530000023238004E04FF4704323800223638020
:1055400007B030BD30B587B004460D460388102B38
:1055500018D04288042A01D0012B1BD800232B80AD
:105560002388162B00F28680DFE803F0181D848460
:10557000848484848484848484848484222A39482E
:10558000576675004388182BE8D04FF202030B8052
:1055900007B030BD4FF202030B80F9E7211D608890
:1055A000FFF714FCF4E7211D6088FFF729FCEFE703
:1055B000221D06211020FFF775FD00232B80E7E751
:1055C0006A4606211020FFF714FD636805936A46BA
:1055D00006211020FFF766FD00232B80D8E76A46DE
:1055E00006211020FFF705FD636804936A46062133
:1055F0001020FFF757FD00232B80C9E76A460621DC
:105600001020FFF7F6FC636803936A46062110201A
:10561000FFF748FD00232B80BAE76A4606211020D9
:10562000FFF7E7FC636802936A4606211020FFF744
:1056300039FD00232B80ABE76A4606211020FFF7D7
:10564000D8FC636801936A4606211020FFF72AFD03
:1056500000232B809CE76A4606211020FFF7C9FC37
:10566000636800936A4606211020FFF71BFD0023A4
:105670002B808DE74FF470432B8089E738B5456860
:105680004FF202030B806B1E1F2B00D938BD0C4656
:1056900001460920FFF7CBFB15F0030F15D015F0DD
:1056A000010F04F1040219BFA9B20820C5F34F018C
:1056B0001020FFF793FD2080638822886AB90135A6
:1056C000C5F34F051D446580E0E7221DC5F38F013A
:1056D0002020FFF783FD2080EEE70025F2E770B57C
:1056E00046684FF202030B8002234B80731E1F2B70
:1056F00000D970BD05460C4601460920FFF797FB0F
:1057000016F0030F0DD016F0010F05F1080219BFB6
:10571000B1B20820C6F34F011020FFF7F5FC20803E
:10572000E7E705F10802C6F38F012020FFF7ECFC44
:105730002080DEE770B582B00C464388042B04D08D
:105740004FF202030B8002B070BD43680588CDB9EB
:105750000289042A03D04FF202030B80F3E7D0F84A
:105760000A101846FFF772FC0023019301AA0121D9
:105770001120FFF73EFCFFF79FFA6388002818BF4F
:10578000002504E0022D06D04B88002005462B445E
:1057900063802080D7E7C1680589042D07D0082DD4
:1057A0001CD04FF202032380CDE7002014E0428991
:1057B000042AF6D11846FFF749FC114E06F10802FB
:1057C00006211020FFF715FCB36863600C4BDB6902
:1057D000002BEAD0FFF770FA6D08CEE74289042A61
:1057E000DFD11846FFF732FC054E06F1080206210C
:1057F0001020FFF7FEFBB3686360F368A360E5E782
:10580000440E002070B582B0064680F47F4383F0DA
:10581000FF03ADF8063020212A48FBF791F820B1AC
:10582000284B9B889BB2ADF80630264B9E801D46C8
:10583000802421462846FBF783F80028F9D04FF44E
:10584000FA7000F029FB1F4D202421462846FBF763
:1058500077F818B900F054FB0028F6D000F050FBA0
:1058600020B9184B9B889BB2ADF80630BDF80630C6
:105870009BB2F31A18BF4FF0FF339BB2EBB94FF452
:10588000FA7000F009FB0F4D202421462846FBF753
:1058900057F818B900F034FB0028F6D000F030FBC0
:1058A00010B14FF6FF700AE0064B988880B2301AAC
:1058B00018BF4FF0FF3080B201E04FF6FF7002B02A
:1058C00070BD00BF00380140F0B587B005464FF409
:1058D0008063ADF8143004278DF817701F4C05A9AC
:1058E0002046FAF7C5FD4FF40073ADF814300326D7
:1058F0008DF816601C238DF8173005A92046FAF79D
:10590000B7FD01950023ADF80830ADF80A30ADF8C9
:105910000C30ADF810300C23ADF80E30104D0DEBFF
:1059200007012846FAF7A4FF01212846FAF7FAFFF3
:1059300001213846FAF76AFE4FF48073ADF814304F
:1059400018238DF817308DF8166005A92046FAF750
:105950008FFD0620FAF792FE07B0F0BD0008014067
:105960000038014070B50C4603220B21012000F0E5
:105970006DFA01220B21104600F068FA064D4FF433
:1059800000666E61322000F0B1FA2E61322000F024
:10599000ADFA0023238070BD000C014010B50C4609
:1059A00003220B21012000F051FA0023238010BDB7
:1059B0002DE9F8430F460568466800F10804B5F57F
:1059C000803F06D0002076B32E44013E4FF04908B8
:1059D00020E05EB334F8020BC0B2FFF713FF013EC4
:1059E00021D00028F6D01EE0C5F30720FFF70AFFFC
:1059F000B8B9E8B2FFF706FF98B95FFA89F0FFF788
:105A000001FF003818BF0120404280B2B5420AD0E1
:105A1000013540B934F8029B4046FFF7F3FE0028F9
:105A2000E2D04FF6FF703880BDE8F8830020FAE737
:105A30002DE9F04F83B08B4606684568002D47D0AE
:105A40008B1C0093731901933446C6F101064FF085
:105A50004A0ADFF8808035195046FFF7D3FE68B157
:105A60004FF6FF77ABF8007005F0010303EB550527
:105A70000235ABF8025003B0BDE8F08FC4F3072045
:105A8000FFF7C0FE0028EBD1E0B2FFF7BBFE0746F0
:105A90000028E5D14FF4FA7000F0FEF94FF020092C
:105AA00049464046FAF74CFF18B900F029FA002899
:105AB000F6D000F025FA0028D2D1B8F80430009AC8
:105AC00022F8023F00920134019B9C42C3D1C9E7F6
:105AD0000027C7E700380140704770472DE9F843B9
